{
	"data": {
		"bytecode": {
			"linkReferences": {},
			"object": "608060405234801561000f575f80fd5b5061069b8061001d5f395ff3fe608060405234801561000f575f80fd5b5060043610610029575f3560e01c8063d4edca961461002d575b5f80fd5b610047600480360381019061004291906105d9565b61005d565b604051610054919061061f565b60405180910390f35b5f808260016003811061007357610072610638565b5b602002015160016003811061008b5761008a610638565b5b602002015190508060ff16835f600381106100a9576100a8610638565b5b60200201515f600381106100c0576100bf610638565b5b602002015160ff1614801561010a5750826002600381106100e4576100e3610638565b5b60200201516002600381106100fc576100fb610638565b5b602002015160ff168160ff16145b8061018957508060ff16835f6003811061012757610126610638565b5b602002015160026003811061013f5761013e610638565b5b602002015160ff1614801561018857508260026003811061016357610162610638565b5b60200201515f6003811061017a57610179610638565b5b602002015160ff168160ff16145b5b8061020957508060ff16835f600381106101a6576101a5610638565b5b60200201516001600381106101be576101bd610638565b5b602002015160ff161480156102085750826002600381106101e2576101e1610638565b5b60200201516001600381106101fa576101f9610638565b5b602002015160ff168160ff16145b5b8061028957508060ff168360016003811061022757610226610638565b5b60200201515f6003811061023e5761023d610638565b5b602002015160ff1614801561028857508260016003811061026257610261610638565b5b602002015160026003811061027a57610279610638565b5b602002015160ff168160ff16145b5b156102985760019150506103a5565b8060ff16835f600381106102af576102ae610638565b5b60200201516001600381106102c7576102c6610638565b5b602002015160ff161480156103115750826002600381106102eb576102ea610638565b5b602002015160016003811061030357610302610638565b5b602002015160ff168160ff16145b8061039157508060ff168360016003811061032f5761032e610638565b5b60200201515f6003811061034657610345610638565b5b602002015160ff1614801561039057508260016003811061036a57610369610638565b5b602002015160026003811061038257610381610638565b5b602002015160ff168160ff16145b5b156103a05760019150506103a5565b5f9150505b919050565b5f604051905090565b5f80fd5b5f80fd5b5f601f19601f8301169050919050565b7f4e487b71000000000000000000000000000000000000000000000000000000005f52604160045260245ffd5b610401826103bb565b810181811067ffffffffffffffff821117156104205761041f6103cb565b5b80604052505050565b5f6104326103aa565b905061043e82826103f8565b919050565b5f67ffffffffffffffff82111561045d5761045c6103cb565b5b602082029050919050565b5f80fd5b5f67ffffffffffffffff821115610486576104856103cb565b5b602082029050919050565b5f60ff82169050919050565b6104a681610491565b81146104b0575f80fd5b50565b5f813590506104c18161049d565b92915050565b5f6104d96104d48461046c565b610429565b905080602084028301858111156104f3576104f2610468565b5b835b8181101561051c578061050888826104b3565b8452602084019350506020810190506104f5565b5050509392505050565b5f82601f83011261053a576105396103b7565b5b60036105478482856104c7565b91505092915050565b5f61056261055d84610443565b610429565b9050806060840283018581111561057c5761057b610468565b5b835b818110156105a557806105918882610526565b84526020840193505060608101905061057e565b5050509392505050565b5f82601f8301126105c3576105c26103b7565b5b60036105d0848285610550565b91505092915050565b5f61012082840312156105ef576105ee6103b3565b5b5f6105fc848285016105af565b91505092915050565b5f8115159050919050565b61061981610605565b82525050565b5f6020820190506106325f830184610610565b92915050565b7f4e487b71000000000000000000000000000000000000000000000000000000005f52603260045260245ffdfea26469706673582212205de1107902639a4d9bfbf792763b02527a2b931756103a8dc2861270386e064e64736f6c63430008180033",
			"opcodes": "PUSH1 0x80 PUSH1 0x40 MSTORE CALLVALUE DUP1 ISZERO PUSH2 0xF JUMPI PUSH0 DUP1 REVERT JUMPDEST POP PUSH2 0x69B DUP1 PUSH2 0x1D PUSH0 CODECOPY PUSH0 RETURN INVALID PUSH1 0x80 PUSH1 0x40 MSTORE CALLVALUE DUP1 ISZERO PUSH2 0xF JUMPI PUSH0 DUP1 REVERT JUMPDEST POP PUSH1 0x4 CALLDATASIZE LT PUSH2 0x29 JUMPI PUSH0 CALLDATALOAD PUSH1 0xE0 SHR DUP1 PUSH4 0xD4EDCA96 EQ PUSH2 0x2D JUMPI JUMPDEST PUSH0 DUP1 REVERT JUMPDEST PUSH2 0x47 PUSH1 0x4 DUP1 CALLDATASIZE SUB DUP2 ADD SWAP1 PUSH2 0x42 SWAP2 SWAP1 PUSH2 0x5D9 JUMP JUMPDEST PUSH2 0x5D JUMP JUMPDEST PUSH1 0x40 MLOAD PUSH2 0x54 SWAP2 SWAP1 PUSH2 0x61F JUMP JUMPDEST PUSH1 0x40 MLOAD DUP1 SWAP2 SUB SWAP1 RETURN JUMPDEST PUSH0 DUP1 DUP3 PUSH1 0x1 PUSH1 0x3 DUP2 LT PUSH2 0x73 JUMPI PUSH2 0x72 PUSH2 0x638 JUMP JUMPDEST JUMPDEST PUSH1 0x20 MUL ADD MLOAD PUSH1 0x1 PUSH1 0x3 DUP2 LT PUSH2 0x8B JUMPI PUSH2 0x8A PUSH2 0x638 JUMP JUMPDEST JUMPDEST PUSH1 0x20 MUL ADD MLOAD SWAP1 POP DUP1 PUSH1 0xFF AND DUP4 PUSH0 PUSH1 0x3 DUP2 LT PUSH2 0xA9 JUMPI PUSH2 0xA8 PUSH2 0x638 JUMP JUMPDEST JUMPDEST PUSH1 0x20 MUL ADD MLOAD PUSH0 PUSH1 0x3 DUP2 LT PUSH2 0xC0 JUMPI PUSH2 0xBF PUSH2 0x638 JUMP JUMPDEST JUMPDEST PUSH1 0x20 MUL ADD MLOAD PUSH1 0xFF AND EQ DUP1 ISZERO PUSH2 0x10A JUMPI POP DUP3 PUSH1 0x2 PUSH1 0x3 DUP2 LT PUSH2 0xE4 JUMPI PUSH2 0xE3 PUSH2 0x638 JUMP JUMPDEST JUMPDEST PUSH1 0x20 MUL ADD MLOAD PUSH1 0x2 PUSH1 0x3 DUP2 LT PUSH2 0xFC JUMPI PUSH2 0xFB PUSH2 0x638 JUMP JUMPDEST JUMPDEST PUSH1 0x20 MUL ADD MLOAD PUSH1 0xFF AND DUP2 PUSH1 0xFF AND EQ JUMPDEST DUP1 PUSH2 0x189 JUMPI POP DUP1 PUSH1 0xFF AND DUP4 PUSH0 PUSH1 0x3 DUP2 LT PUSH2 0x127 JUMPI PUSH2 0x126 PUSH2 0x638 JUMP JUMPDEST JUMPDEST PUSH1 0x20 MUL ADD MLOAD PUSH1 0x2 PUSH1 0x3 DUP2 LT PUSH2 0x13F JUMPI PUSH2 0x13E PUSH2 0x638 JUMP JUMPDEST JUMPDEST PUSH1 0x20 MUL ADD MLOAD PUSH1 0xFF AND EQ DUP1 ISZERO PUSH2 0x188 JUMPI POP DUP3 PUSH1 0x2 PUSH1 0x3 DUP2 LT PUSH2 0x163 JUMPI PUSH2 0x162 PUSH2 0x638 JUMP JUMPDEST JUMPDEST PUSH1 0x20 MUL ADD MLOAD PUSH0 PUSH1 0x3 DUP2 LT PUSH2 0x17A JUMPI PUSH2 0x179 PUSH2 0x638 JUMP JUMPDEST JUMPDEST PUSH1 0x20 MUL ADD MLOAD PUSH1 0xFF AND DUP2 PUSH1 0xFF AND EQ JUMPDEST JUMPDEST DUP1 PUSH2 0x209 JUMPI POP DUP1 PUSH1 0xFF AND DUP4 PUSH0 PUSH1 0x3 DUP2 LT PUSH2 0x1A6 JUMPI PUSH2 0x1A5 PUSH2 0x638 JUMP JUMPDEST JUMPDEST PUSH1 0x20 MUL ADD MLOAD PUSH1 0x1 PUSH1 0x3 DUP2 LT PUSH2 0x1BE JUMPI PUSH2 0x1BD PUSH2 0x638 JUMP JUMPDEST JUMPDEST PUSH1 0x20 MUL ADD MLOAD PUSH1 0xFF AND EQ DUP1 ISZERO PUSH2 0x208 JUMPI POP DUP3 PUSH1 0x2 PUSH1 0x3 DUP2 LT PUSH2 0x1E2 JUMPI PUSH2 0x1E1 PUSH2 0x638 JUMP JUMPDEST JUMPDEST PUSH1 0x20 MUL ADD MLOAD PUSH1 0x1 PUSH1 0x3 DUP2 LT PUSH2 0x1FA JUMPI PUSH2 0x1F9 PUSH2 0x638 JUMP JUMPDEST JUMPDEST PUSH1 0x20 MUL ADD MLOAD PUSH1 0xFF AND DUP2 PUSH1 0xFF AND EQ JUMPDEST JUMPDEST DUP1 PUSH2 0x289 JUMPI POP DUP1 PUSH1 0xFF AND DUP4 PUSH1 0x1 PUSH1 0x3 DUP2 LT PUSH2 0x227 JUMPI PUSH2 0x226 PUSH2 0x638 JUMP JUMPDEST JUMPDEST PUSH1 0x20 MUL ADD MLOAD PUSH0 PUSH1 0x3 DUP2 LT PUSH2 0x23E JUMPI PUSH2 0x23D PUSH2 0x638 JUMP JUMPDEST JUMPDEST PUSH1 0x20 MUL ADD MLOAD PUSH1 0xFF AND EQ DUP1 ISZERO PUSH2 0x288 JUMPI POP DUP3 PUSH1 0x1 PUSH1 0x3 DUP2 LT PUSH2 0x262 JUMPI PUSH2 0x261 PUSH2 0x638 JUMP JUMPDEST JUMPDEST PUSH1 0x20 MUL ADD MLOAD PUSH1 0x2 PUSH1 0x3 DUP2 LT PUSH2 0x27A JUMPI PUSH2 0x279 PUSH2 0x638 JUMP JUMPDEST JUMPDEST PUSH1 0x20 MUL ADD MLOAD PUSH1 0xFF AND DUP2 PUSH1 0xFF AND EQ JUMPDEST JUMPDEST ISZERO PUSH2 0x298 JUMPI PUSH1 0x1 SWAP2 POP POP PUSH2 0x3A5 JUMP JUMPDEST DUP1 PUSH1 0xFF AND DUP4 PUSH0 PUSH1 0x3 DUP2 LT PUSH2 0x2AF JUMPI PUSH2 0x2AE PUSH2 0x638 JUMP JUMPDEST JUMPDEST PUSH1 0x20 MUL ADD MLOAD PUSH1 0x1 PUSH1 0x3 DUP2 LT PUSH2 0x2C7 JUMPI PUSH2 0x2C6 PUSH2 0x638 JUMP JUMPDEST JUMPDEST PUSH1 0x20 MUL ADD MLOAD PUSH1 0xFF AND EQ DUP1 ISZERO PUSH2 0x311 JUMPI POP DUP3 PUSH1 0x2 PUSH1 0x3 DUP2 LT PUSH2 0x2EB JUMPI PUSH2 0x2EA PUSH2 0x638 JUMP JUMPDEST JUMPDEST PUSH1 0x20 MUL ADD MLOAD PUSH1 0x1 PUSH1 0x3 DUP2 LT PUSH2 0x303 JUMPI PUSH2 0x302 PUSH2 0x638 JUMP JUMPDEST JUMPDEST PUSH1 0x20 MUL ADD MLOAD PUSH1 0xFF AND DUP2 PUSH1 0xFF AND EQ JUMPDEST DUP1 PUSH2 0x391 JUMPI POP DUP1 PUSH1 0xFF AND DUP4 PUSH1 0x1 PUSH1 0x3 DUP2 LT PUSH2 0x32F JUMPI PUSH2 0x32E PUSH2 0x638 JUMP JUMPDEST JUMPDEST PUSH1 0x20 MUL ADD MLOAD PUSH0 PUSH1 0x3 DUP2 LT PUSH2 0x346 JUMPI PUSH2 0x345 PUSH2 0x638 JUMP JUMPDEST JUMPDEST PUSH1 0x20 MUL ADD MLOAD PUSH1 0xFF AND EQ DUP1 ISZERO PUSH2 0x390 JUMPI POP DUP3 PUSH1 0x1 PUSH1 0x3 DUP2 LT PUSH2 0x36A JUMPI PUSH2 0x369 PUSH2 0x638 JUMP JUMPDEST JUMPDEST PUSH1 0x20 MUL ADD MLOAD PUSH1 0x2 PUSH1 0x3 DUP2 LT PUSH2 0x382 JUMPI PUSH2 0x381 PUSH2 0x638 JUMP JUMPDEST JUMPDEST PUSH1 0x20 MUL ADD MLOAD PUSH1 0xFF AND DUP2 PUSH1 0xFF AND EQ JUMPDEST JUMPDEST ISZERO PUSH2 0x3A0 JUMPI PUSH1 0x1 SWAP2 POP POP PUSH2 0x3A5 JUMP JUMPDEST PUSH0 SWAP2 POP POP JUMPDEST SWAP2 SWAP1 POP JUMP JUMPDEST PUSH0 PUSH1 0x40 MLOAD SWAP1 POP SWAP1 JUMP JUMPDEST PUSH0 DUP1 REVERT JUMPDEST PUSH0 DUP1 REVERT JUMPDEST PUSH0 PUSH1 0x1F NOT PUSH1 0x1F DUP4 ADD AND SWAP1 POP SWAP2 SWAP1 POP JUMP JUMPDEST PUSH32 0x4E487B7100000000000000000000000000000000000000000000000000000000 PUSH0 MSTORE PUSH1 0x41 PUSH1 0x4 MSTORE PUSH1 0x24 PUSH0 REVERT JUMPDEST PUSH2 0x401 DUP3 PUSH2 0x3BB JUMP JUMPDEST DUP2 ADD DUP2 DUP2 LT PUSH8 0xFFFFFFFFFFFFFFFF DUP3 GT OR ISZERO PUSH2 0x420 JUMPI PUSH2 0x41F PUSH2 0x3CB JUMP JUMPDEST JUMPDEST DUP1 PUSH1 0x40 MSTORE POP POP POP JUMP JUMPDEST PUSH0 PUSH2 0x432 PUSH2 0x3AA JUMP JUMPDEST SWAP1 POP PUSH2 0x43E DUP3 DUP3 PUSH2 0x3F8 JUMP JUMPDEST SWAP2 SWAP1 POP JUMP JUMPDEST PUSH0 PUSH8 0xFFFFFFFFFFFFFFFF DUP3 GT ISZERO PUSH2 0x45D JUMPI PUSH2 0x45C PUSH2 0x3CB JUMP JUMPDEST JUMPDEST PUSH1 0x20 DUP3 MUL SWAP1 POP SWAP2 SWAP1 POP JUMP JUMPDEST PUSH0 DUP1 REVERT JUMPDEST PUSH0 PUSH8 0xFFFFFFFFFFFFFFFF DUP3 GT ISZERO PUSH2 0x486 JUMPI PUSH2 0x485 PUSH2 0x3CB JUMP JUMPDEST JUMPDEST PUSH1 0x20 DUP3 MUL SWAP1 POP SWAP2 SWAP1 POP JUMP JUMPDEST PUSH0 PUSH1 0xFF DUP3 AND SWAP1 POP SWAP2 SWAP1 POP JUMP JUMPDEST PUSH2 0x4A6 DUP2 PUSH2 0x491 JUMP JUMPDEST DUP2 EQ PUSH2 0x4B0 JUMPI PUSH0 DUP1 REVERT JUMPDEST POP JUMP JUMPDEST PUSH0 DUP2 CALLDATALOAD SWAP1 POP PUSH2 0x4C1 DUP2 PUSH2 0x49D JUMP JUMPDEST SWAP3 SWAP2 POP POP JUMP JUMPDEST PUSH0 PUSH2 0x4D9 PUSH2 0x4D4 DUP5 PUSH2 0x46C JUMP JUMPDEST PUSH2 0x429 JUMP JUMPDEST SWAP1 POP DUP1 PUSH1 0x20 DUP5 MUL DUP4 ADD DUP6 DUP2 GT ISZERO PUSH2 0x4F3 JUMPI PUSH2 0x4F2 PUSH2 0x468 JUMP JUMPDEST JUMPDEST DUP4 JUMPDEST DUP2 DUP2 LT ISZERO PUSH2 0x51C JUMPI DUP1 PUSH2 0x508 DUP9 DUP3 PUSH2 0x4B3 JUMP JUMPDEST DUP5 MSTORE PUSH1 0x20 DUP5 ADD SWAP4 POP POP PUSH1 0x20 DUP2 ADD SWAP1 POP PUSH2 0x4F5 JUMP JUMPDEST POP POP POP SWAP4 SWAP3 POP POP POP JUMP JUMPDEST PUSH0 DUP3 PUSH1 0x1F DUP4 ADD SLT PUSH2 0x53A JUMPI PUSH2 0x539 PUSH2 0x3B7 JUMP JUMPDEST JUMPDEST PUSH1 0x3 PUSH2 0x547 DUP5 DUP3 DUP6 PUSH2 0x4C7 JUMP JUMPDEST SWAP2 POP POP SWAP3 SWAP2 POP POP JUMP JUMPDEST PUSH0 PUSH2 0x562 PUSH2 0x55D DUP5 PUSH2 0x443 JUMP JUMPDEST PUSH2 0x429 JUMP JUMPDEST SWAP1 POP DUP1 PUSH1 0x60 DUP5 MUL DUP4 ADD DUP6 DUP2 GT ISZERO PUSH2 0x57C JUMPI PUSH2 0x57B PUSH2 0x468 JUMP JUMPDEST JUMPDEST DUP4 JUMPDEST DUP2 DUP2 LT ISZERO PUSH2 0x5A5 JUMPI DUP1 PUSH2 0x591 DUP9 DUP3 PUSH2 0x526 JUMP JUMPDEST DUP5 MSTORE PUSH1 0x20 DUP5 ADD SWAP4 POP POP PUSH1 0x60 DUP2 ADD SWAP1 POP PUSH2 0x57E JUMP JUMPDEST POP POP POP SWAP4 SWAP3 POP POP POP JUMP JUMPDEST PUSH0 DUP3 PUSH1 0x1F DUP4 ADD SLT PUSH2 0x5C3 JUMPI PUSH2 0x5C2 PUSH2 0x3B7 JUMP JUMPDEST JUMPDEST PUSH1 0x3 PUSH2 0x5D0 DUP5 DUP3 DUP6 PUSH2 0x550 JUMP JUMPDEST SWAP2 POP POP SWAP3 SWAP2 POP POP JUMP JUMPDEST PUSH0 PUSH2 0x120 DUP3 DUP5 SUB SLT ISZERO PUSH2 0x5EF JUMPI PUSH2 0x5EE PUSH2 0x3B3 JUMP JUMPDEST JUMPDEST PUSH0 PUSH2 0x5FC DUP5 DUP3 DUP6 ADD PUSH2 0x5AF JUMP JUMPDEST SWAP2 POP POP SWAP3 SWAP2 POP POP JUMP JUMPDEST PUSH0 DUP2 ISZERO ISZERO SWAP1 POP SWAP2 SWAP1 POP JUMP JUMPDEST PUSH2 0x619 DUP2 PUSH2 0x605 JUMP JUMPDEST DUP3 MSTORE POP POP JUMP JUMPDEST PUSH0 PUSH1 0x20 DUP3 ADD SWAP1 POP PUSH2 0x632 PUSH0 DUP4 ADD DUP5 PUSH2 0x610 JUMP JUMPDEST SWAP3 SWAP2 POP POP JUMP JUMPDEST PUSH32 0x4E487B7100000000000000000000000000000000000000000000000000000000 PUSH0 MSTORE PUSH1 0x32 PUSH1 0x4 MSTORE PUSH1 0x24 PUSH0 REVERT INVALID LOG2 PUSH5 0x6970667358 0x22 SLT KECCAK256 TSTORE 0xE1 LT PUSH26 0x2639A4D9BFBF792763B02527A2B931756103A8DC2861270386E MOD 0x4E PUSH5 0x736F6C6343 STOP ADDMOD XOR STOP CALLER "
		},
		"gasEstimates": {
			"creation": {
				"codeDepositCost": "338200",
				"executionCost": "372",
				"totalCost": "338572"
			},
			"external": {
				"isWinning(uint8[3][3])": "infinite"
			}
		},
		"methodIdentifiers": {
			"isWinning(uint8[3][3])": "d4edca96"
		}
	},
	"abi": [
		{
			"inputs": [
				{
					"internalType": "uint8[3][3]",
					"name": "board",
					"type": "uint8[3][3]"
				}
			],
			"name": "isWinning",
			"outputs": [
				{
					"internalType": "bool",
					"name": "",
					"type": "bool"
				}
			],
			"stateMutability": "pure",
			"type": "function"
		}
	]
}