{
	"Cau1.sol": {
		"StudentDB": {
			"abi": [
				{
					"inputs": [
						{
							"internalType": "string",
							"name": "_name",
							"type": "string"
						},
						{
							"internalType": "uint256",
							"name": "_age",
							"type": "uint256"
						},
						{
							"internalType": "string",
							"name": "_ID",
							"type": "string"
						},
						{
							"internalType": "uint8",
							"name": "_gpa",
							"type": "uint8"
						}
					],
					"name": "addStudent",
					"outputs": [],
					"stateMutability": "nonpayable",
					"type": "function"
				},
				{
					"inputs": [
						{
							"internalType": "uint256",
							"name": "index",
							"type": "uint256"
						},
						{
							"internalType": "string",
							"name": "_name",
							"type": "string"
						},
						{
							"internalType": "uint256",
							"name": "_age",
							"type": "uint256"
						},
						{
							"internalType": "string",
							"name": "_ID",
							"type": "string"
						},
						{
							"internalType": "uint8",
							"name": "_gpa",
							"type": "uint8"
						}
					],
					"name": "editStudent",
					"outputs": [],
					"stateMutability": "nonpayable",
					"type": "function"
				},
				{
					"inputs": [
						{
							"internalType": "uint256",
							"name": "index",
							"type": "uint256"
						}
					],
					"name": "getStudent",
					"outputs": [
						{
							"components": [
								{
									"internalType": "string",
									"name": "name",
									"type": "string"
								},
								{
									"internalType": "uint256",
									"name": "age",
									"type": "uint256"
								},
								{
									"internalType": "string",
									"name": "ID",
									"type": "string"
								},
								{
									"internalType": "uint8",
									"name": "gpa",
									"type": "uint8"
								}
							],
							"internalType": "struct StudentDB.Student",
							"name": "",
							"type": "tuple"
						}
					],
					"stateMutability": "view",
					"type": "function"
				},
				{
					"inputs": [],
					"name": "getStudentWithHighestGPA",
					"outputs": [
						{
							"internalType": "uint8",
							"name": "",
							"type": "uint8"
						},
						{
							"internalType": "string",
							"name": "",
							"type": "string"
						}
					],
					"stateMutability": "view",
					"type": "function"
				},
				{
					"inputs": [
						{
							"internalType": "uint256",
							"name": "index",
							"type": "uint256"
						}
					],
					"name": "removeStudent",
					"outputs": [],
					"stateMutability": "nonpayable",
					"type": "function"
				},
				{
					"inputs": [
						{
							"internalType": "uint256",
							"name": "",
							"type": "uint256"
						}
					],
					"name": "studentsList",
					"outputs": [
						{
							"internalType": "string",
							"name": "name",
							"type": "string"
						},
						{
							"internalType": "uint256",
							"name": "age",
							"type": "uint256"
						},
						{
							"internalType": "string",
							"name": "ID",
							"type": "string"
						},
						{
							"internalType": "uint8",
							"name": "gpa",
							"type": "uint8"
						}
					],
					"stateMutability": "view",
					"type": "function"
				}
			],
			"devdoc": {
				"kind": "dev",
				"methods": {},
				"version": 1
			},
			"evm": {
				"assembly": "    /* \"Cau1.sol\":115:2104  contract StudentDB {... */\n  mstore(0x40, 0x80)\n  callvalue\n  dup1\n  iszero\n  tag_1\n  jumpi\n  0x00\n  dup1\n  revert\ntag_1:\n  pop\n  dataSize(sub_0)\n  dup1\n  dataOffset(sub_0)\n  0x00\n  codecopy\n  0x00\n  return\nstop\n\nsub_0: assembly {\n        /* \"Cau1.sol\":115:2104  contract StudentDB {... */\n      mstore(0x40, 0x80)\n      callvalue\n      dup1\n      iszero\n      tag_1\n      jumpi\n      0x00\n      dup1\n      revert\n    tag_1:\n      pop\n      jumpi(tag_2, lt(calldatasize, 0x04))\n      shr(0xe0, calldataload(0x00))\n      dup1\n      0x1fa27b5b\n      eq\n      tag_3\n      jumpi\n      dup1\n      0x642f9163\n      eq\n      tag_4\n      jumpi\n      dup1\n      0x6af83845\n      eq\n      tag_5\n      jumpi\n      dup1\n      0x7e46840d\n      eq\n      tag_6\n      jumpi\n      dup1\n      0xb0e3e19b\n      eq\n      tag_7\n      jumpi\n      dup1\n      0xdd5f1e48\n      eq\n      tag_8\n      jumpi\n    tag_2:\n      0x00\n      dup1\n      revert\n        /* \"Cau1.sol\":1046:1336  function editStudent(... */\n    tag_3:\n      tag_9\n      0x04\n      dup1\n      calldatasize\n      sub\n      dup2\n      add\n      swap1\n      tag_10\n      swap2\n      swap1\n      tag_11\n      jump\t// in\n    tag_10:\n      tag_12\n      jump\t// in\n    tag_9:\n      stop\n        /* \"Cau1.sol\":822:1002  function getStudent(uint256 index) external view returns (Student memory) {... */\n    tag_4:\n      tag_13\n      0x04\n      dup1\n      calldatasize\n      sub\n      dup2\n      add\n      swap1\n      tag_14\n      swap2\n      swap1\n      tag_15\n      jump\t// in\n    tag_14:\n      tag_16\n      jump\t// in\n    tag_13:\n      mload(0x40)\n      tag_17\n      swap2\n      swap1\n      tag_18\n      jump\t// in\n    tag_17:\n      mload(0x40)\n      dup1\n      swap2\n      sub\n      swap1\n      return\n        /* \"Cau1.sol\":566:780  function removeStudent(uint256 index) external {... */\n    tag_5:\n      tag_19\n      0x04\n      dup1\n      calldatasize\n      sub\n      dup2\n      add\n      swap1\n      tag_20\n      swap2\n      swap1\n      tag_15\n      jump\t// in\n    tag_20:\n      tag_21\n      jump\t// in\n    tag_19:\n      stop\n        /* \"Cau1.sol\":259:288  Student[] public studentsList */\n    tag_6:\n      tag_22\n      0x04\n      dup1\n      calldatasize\n      sub\n      dup2\n      add\n      swap1\n      tag_23\n      swap2\n      swap1\n      tag_15\n      jump\t// in\n    tag_23:\n      tag_24\n      jump\t// in\n    tag_22:\n      mload(0x40)\n      tag_25\n      swap5\n      swap4\n      swap3\n      swap2\n      swap1\n      tag_26\n      jump\t// in\n    tag_25:\n      mload(0x40)\n      dup1\n      swap2\n      sub\n      swap1\n      return\n        /* \"Cau1.sol\":334:534  function addStudent(... */\n    tag_7:\n      tag_27\n      0x04\n      dup1\n      calldatasize\n      sub\n      dup2\n      add\n      swap1\n      tag_28\n      swap2\n      swap1\n      tag_29\n      jump\t// in\n    tag_28:\n      tag_30\n      jump\t// in\n    tag_27:\n      stop\n        /* \"Cau1.sol\":1372:2102  function getStudentWithHighestGPA()... */\n    tag_8:\n      tag_31\n      tag_32\n      jump\t// in\n    tag_31:\n      mload(0x40)\n      tag_33\n      swap3\n      swap2\n      swap1\n      tag_34\n      jump\t// in\n    tag_33:\n      mload(0x40)\n      dup1\n      swap2\n      sub\n      swap1\n      return\n        /* \"Cau1.sol\":1046:1336  function editStudent(... */\n    tag_12:\n        /* \"Cau1.sol\":1229:1241  studentsList */\n      0x00\n        /* \"Cau1.sol\":1229:1248  studentsList.length */\n      dup1\n      sload\n      swap1\n      pop\n        /* \"Cau1.sol\":1221:1226  index */\n      dup6\n        /* \"Cau1.sol\":1221:1248  index < studentsList.length */\n      lt\n        /* \"Cau1.sol\":1213:1266  require(index < studentsList.length, \"Invalid index\") */\n      tag_36\n      jumpi\n      mload(0x40)\n      0x08c379a000000000000000000000000000000000000000000000000000000000\n      dup2\n      mstore\n      0x04\n      add\n      tag_37\n      swap1\n      tag_38\n      jump\t// in\n    tag_37:\n      mload(0x40)\n      dup1\n      swap2\n      sub\n      swap1\n      revert\n    tag_36:\n        /* \"Cau1.sol\":1298:1329  Student(_name, _age, _ID, _gpa) */\n      mload(0x40)\n      dup1\n      0x80\n      add\n      0x40\n      mstore\n      dup1\n        /* \"Cau1.sol\":1306:1311  _name */\n      dup6\n        /* \"Cau1.sol\":1298:1329  Student(_name, _age, _ID, _gpa) */\n      dup2\n      mstore\n      0x20\n      add\n        /* \"Cau1.sol\":1313:1317  _age */\n      dup5\n        /* \"Cau1.sol\":1298:1329  Student(_name, _age, _ID, _gpa) */\n      dup2\n      mstore\n      0x20\n      add\n        /* \"Cau1.sol\":1319:1322  _ID */\n      dup4\n        /* \"Cau1.sol\":1298:1329  Student(_name, _age, _ID, _gpa) */\n      dup2\n      mstore\n      0x20\n      add\n        /* \"Cau1.sol\":1324:1328  _gpa */\n      dup3\n        /* \"Cau1.sol\":1298:1329  Student(_name, _age, _ID, _gpa) */\n      0xff\n      and\n      dup2\n      mstore\n      pop\n        /* \"Cau1.sol\":1276:1288  studentsList */\n      0x00\n        /* \"Cau1.sol\":1289:1294  index */\n      dup7\n        /* \"Cau1.sol\":1276:1295  studentsList[index] */\n      dup2\n      sload\n      dup2\n      lt\n      tag_39\n      jumpi\n      tag_40\n      tag_41\n      jump\t// in\n    tag_40:\n    tag_39:\n      swap1\n      0x00\n      mstore\n      keccak256(0x00, 0x20)\n      swap1\n      0x04\n      mul\n      add\n        /* \"Cau1.sol\":1276:1329  studentsList[index] = Student(_name, _age, _ID, _gpa) */\n      0x00\n      dup3\n      add\n      mload\n      dup2\n      0x00\n      add\n      swap1\n      dup2\n      tag_43\n      swap2\n      swap1\n      tag_44\n      jump\t// in\n    tag_43:\n      pop\n      0x20\n      dup3\n      add\n      mload\n      dup2\n      0x01\n      add\n      sstore\n      0x40\n      dup3\n      add\n      mload\n      dup2\n      0x02\n      add\n      swap1\n      dup2\n      tag_45\n      swap2\n      swap1\n      tag_44\n      jump\t// in\n    tag_45:\n      pop\n      0x60\n      dup3\n      add\n      mload\n      dup2\n      0x03\n      add\n      exp(0x0100, 0x00)\n      dup2\n      sload\n      dup2\n      0xff\n      mul\n      not\n      and\n      swap1\n      dup4\n      0xff\n      and\n      mul\n      or\n      swap1\n      sstore\n      pop\n      swap1\n      pop\n      pop\n        /* \"Cau1.sol\":1046:1336  function editStudent(... */\n      pop\n      pop\n      pop\n      pop\n      pop\n      jump\t// out\n        /* \"Cau1.sol\":822:1002  function getStudent(uint256 index) external view returns (Student memory) {... */\n    tag_16:\n        /* \"Cau1.sol\":880:894  Student memory */\n      tag_46\n      tag_47\n      jump\t// in\n    tag_46:\n        /* \"Cau1.sol\":922:934  studentsList */\n      0x00\n        /* \"Cau1.sol\":922:941  studentsList.length */\n      dup1\n      sload\n      swap1\n      pop\n        /* \"Cau1.sol\":914:919  index */\n      dup3\n        /* \"Cau1.sol\":914:941  index < studentsList.length */\n      lt\n        /* \"Cau1.sol\":906:959  require(index < studentsList.length, \"Invalid index\") */\n      tag_49\n      jumpi\n      mload(0x40)\n      0x08c379a000000000000000000000000000000000000000000000000000000000\n      dup2\n      mstore\n      0x04\n      add\n      tag_50\n      swap1\n      tag_38\n      jump\t// in\n    tag_50:\n      mload(0x40)\n      dup1\n      swap2\n      sub\n      swap1\n      revert\n    tag_49:\n        /* \"Cau1.sol\":976:988  studentsList */\n      0x00\n        /* \"Cau1.sol\":989:994  index */\n      dup3\n        /* \"Cau1.sol\":976:995  studentsList[index] */\n      dup2\n      sload\n      dup2\n      lt\n      tag_51\n      jumpi\n      tag_52\n      tag_41\n      jump\t// in\n    tag_52:\n    tag_51:\n      swap1\n      0x00\n      mstore\n      keccak256(0x00, 0x20)\n      swap1\n      0x04\n      mul\n      add\n        /* \"Cau1.sol\":969:995  return studentsList[index] */\n      mload(0x40)\n      dup1\n      0x80\n      add\n      0x40\n      mstore\n      swap1\n      dup2\n      0x00\n      dup3\n      add\n      dup1\n      sload\n      tag_54\n      swap1\n      tag_55\n      jump\t// in\n    tag_54:\n      dup1\n      0x1f\n      add\n      0x20\n      dup1\n      swap2\n      div\n      mul\n      0x20\n      add\n      mload(0x40)\n      swap1\n      dup2\n      add\n      0x40\n      mstore\n      dup1\n      swap3\n      swap2\n      swap1\n      dup2\n      dup2\n      mstore\n      0x20\n      add\n      dup3\n      dup1\n      sload\n      tag_56\n      swap1\n      tag_55\n      jump\t// in\n    tag_56:\n      dup1\n      iszero\n      tag_57\n      jumpi\n      dup1\n      0x1f\n      lt\n      tag_58\n      jumpi\n      0x0100\n      dup1\n      dup4\n      sload\n      div\n      mul\n      dup4\n      mstore\n      swap2\n      0x20\n      add\n      swap2\n      jump(tag_57)\n    tag_58:\n      dup3\n      add\n      swap2\n      swap1\n      0x00\n      mstore\n      keccak256(0x00, 0x20)\n      swap1\n    tag_59:\n      dup2\n      sload\n      dup2\n      mstore\n      swap1\n      0x01\n      add\n      swap1\n      0x20\n      add\n      dup1\n      dup4\n      gt\n      tag_59\n      jumpi\n      dup3\n      swap1\n      sub\n      0x1f\n      and\n      dup3\n      add\n      swap2\n    tag_57:\n      pop\n      pop\n      pop\n      pop\n      pop\n      dup2\n      mstore\n      0x20\n      add\n      0x01\n      dup3\n      add\n      sload\n      dup2\n      mstore\n      0x20\n      add\n      0x02\n      dup3\n      add\n      dup1\n      sload\n      tag_60\n      swap1\n      tag_55\n      jump\t// in\n    tag_60:\n      dup1\n      0x1f\n      add\n      0x20\n      dup1\n      swap2\n      div\n      mul\n      0x20\n      add\n      mload(0x40)\n      swap1\n      dup2\n      add\n      0x40\n      mstore\n      dup1\n      swap3\n      swap2\n      swap1\n      dup2\n      dup2\n      mstore\n      0x20\n      add\n      dup3\n      dup1\n      sload\n      tag_61\n      swap1\n      tag_55\n      jump\t// in\n    tag_61:\n      dup1\n      iszero\n      tag_62\n      jumpi\n      dup1\n      0x1f\n      lt\n      tag_63\n      jumpi\n      0x0100\n      dup1\n      dup4\n      sload\n      div\n      mul\n      dup4\n      mstore\n      swap2\n      0x20\n      add\n      swap2\n      jump(tag_62)\n    tag_63:\n      dup3\n      add\n      swap2\n      swap1\n      0x00\n      mstore\n      keccak256(0x00, 0x20)\n      swap1\n    tag_64:\n      dup2\n      sload\n      dup2\n      mstore\n      swap1\n      0x01\n      add\n      swap1\n      0x20\n      add\n      dup1\n      dup4\n      gt\n      tag_64\n      jumpi\n      dup3\n      swap1\n      sub\n      0x1f\n      and\n      dup3\n      add\n      swap2\n    tag_62:\n      pop\n      pop\n      pop\n      pop\n      pop\n      dup2\n      mstore\n      0x20\n      add\n      0x03\n      dup3\n      add\n      0x00\n      swap1\n      sload\n      swap1\n      0x0100\n      exp\n      swap1\n      div\n      0xff\n      and\n      0xff\n      and\n      0xff\n      and\n      dup2\n      mstore\n      pop\n      pop\n      swap1\n      pop\n        /* \"Cau1.sol\":822:1002  function getStudent(uint256 index) external view returns (Student memory) {... */\n      swap2\n      swap1\n      pop\n      jump\t// out\n        /* \"Cau1.sol\":566:780  function removeStudent(uint256 index) external {... */\n    tag_21:\n        /* \"Cau1.sol\":639:651  studentsList */\n      0x00\n        /* \"Cau1.sol\":639:658  studentsList.length */\n      dup1\n      sload\n      swap1\n      pop\n        /* \"Cau1.sol\":631:636  index */\n      dup2\n        /* \"Cau1.sol\":631:658  index < studentsList.length */\n      lt\n        /* \"Cau1.sol\":623:676  require(index < studentsList.length, \"Invalid index\") */\n      tag_66\n      jumpi\n      mload(0x40)\n      0x08c379a000000000000000000000000000000000000000000000000000000000\n      dup2\n      mstore\n      0x04\n      add\n      tag_67\n      swap1\n      tag_38\n      jump\t// in\n    tag_67:\n      mload(0x40)\n      dup1\n      swap2\n      sub\n      swap1\n      revert\n    tag_66:\n        /* \"Cau1.sol\":708:720  studentsList */\n      0x00\n        /* \"Cau1.sol\":743:744  1 */\n      0x01\n        /* \"Cau1.sol\":721:733  studentsList */\n      0x00\n        /* \"Cau1.sol\":721:740  studentsList.length */\n      dup1\n      sload\n      swap1\n      pop\n        /* \"Cau1.sol\":721:744  studentsList.length - 1 */\n      tag_68\n      swap2\n      swap1\n      tag_69\n      jump\t// in\n    tag_68:\n        /* \"Cau1.sol\":708:745  studentsList[studentsList.length - 1] */\n      dup2\n      sload\n      dup2\n      lt\n      tag_70\n      jumpi\n      tag_71\n      tag_41\n      jump\t// in\n    tag_71:\n    tag_70:\n      swap1\n      0x00\n      mstore\n      keccak256(0x00, 0x20)\n      swap1\n      0x04\n      mul\n      add\n        /* \"Cau1.sol\":686:698  studentsList */\n      0x00\n        /* \"Cau1.sol\":699:704  index */\n      dup3\n        /* \"Cau1.sol\":686:705  studentsList[index] */\n      dup2\n      sload\n      dup2\n      lt\n      tag_73\n      jumpi\n      tag_74\n      tag_41\n      jump\t// in\n    tag_74:\n    tag_73:\n      swap1\n      0x00\n      mstore\n      keccak256(0x00, 0x20)\n      swap1\n      0x04\n      mul\n      add\n        /* \"Cau1.sol\":686:745  studentsList[index] = studentsList[studentsList.length - 1] */\n      0x00\n      dup3\n      add\n      dup2\n      0x00\n      add\n      swap1\n      dup2\n      tag_76\n      swap2\n      swap1\n      tag_77\n      jump\t// in\n    tag_76:\n      pop\n      0x01\n      dup3\n      add\n      sload\n      dup2\n      0x01\n      add\n      sstore\n      0x02\n      dup3\n      add\n      dup2\n      0x02\n      add\n      swap1\n      dup2\n      tag_78\n      swap2\n      swap1\n      tag_77\n      jump\t// in\n    tag_78:\n      pop\n      0x03\n      dup3\n      add\n      0x00\n      swap1\n      sload\n      swap1\n      0x0100\n      exp\n      swap1\n      div\n      0xff\n      and\n      dup2\n      0x03\n      add\n      exp(0x0100, 0x00)\n      dup2\n      sload\n      dup2\n      0xff\n      mul\n      not\n      and\n      swap1\n      dup4\n      0xff\n      and\n      mul\n      or\n      swap1\n      sstore\n      pop\n      swap1\n      pop\n      pop\n        /* \"Cau1.sol\":755:767  studentsList */\n      0x00\n        /* \"Cau1.sol\":755:773  studentsList.pop() */\n      dup1\n      sload\n      dup1\n      tag_79\n      jumpi\n      tag_80\n      tag_81\n      jump\t// in\n    tag_80:\n    tag_79:\n      0x01\n      swap1\n      sub\n      dup2\n      dup2\n      swap1\n      0x00\n      mstore\n      keccak256(0x00, 0x20)\n      swap1\n      0x04\n      mul\n      add\n      0x00\n      dup1\n      dup3\n      add\n      0x00\n      tag_83\n      swap2\n      swap1\n      tag_84\n      jump\t// in\n    tag_83:\n      0x01\n      dup3\n      add\n      0x00\n      swap1\n      sstore\n      0x02\n      dup3\n      add\n      0x00\n      tag_85\n      swap2\n      swap1\n      tag_84\n      jump\t// in\n    tag_85:\n      0x03\n      dup3\n      add\n      exp(0x0100, 0x00)\n      dup2\n      sload\n      swap1\n      0xff\n      mul\n      not\n      and\n      swap1\n      sstore\n      pop\n      pop\n      swap1\n      sstore\n        /* \"Cau1.sol\":566:780  function removeStudent(uint256 index) external {... */\n      pop\n      jump\t// out\n        /* \"Cau1.sol\":259:288  Student[] public studentsList */\n    tag_24:\n      0x00\n      dup2\n      dup2\n      sload\n      dup2\n      lt\n      tag_86\n      jumpi\n      0x00\n      dup1\n      revert\n    tag_86:\n      swap1\n      0x00\n      mstore\n      keccak256(0x00, 0x20)\n      swap1\n      0x04\n      mul\n      add\n      0x00\n      swap2\n      pop\n      swap1\n      pop\n      dup1\n      0x00\n      add\n      dup1\n      sload\n      tag_88\n      swap1\n      tag_55\n      jump\t// in\n    tag_88:\n      dup1\n      0x1f\n      add\n      0x20\n      dup1\n      swap2\n      div\n      mul\n      0x20\n      add\n      mload(0x40)\n      swap1\n      dup2\n      add\n      0x40\n      mstore\n      dup1\n      swap3\n      swap2\n      swap1\n      dup2\n      dup2\n      mstore\n      0x20\n      add\n      dup3\n      dup1\n      sload\n      tag_89\n      swap1\n      tag_55\n      jump\t// in\n    tag_89:\n      dup1\n      iszero\n      tag_90\n      jumpi\n      dup1\n      0x1f\n      lt\n      tag_91\n      jumpi\n      0x0100\n      dup1\n      dup4\n      sload\n      div\n      mul\n      dup4\n      mstore\n      swap2\n      0x20\n      add\n      swap2\n      jump(tag_90)\n    tag_91:\n      dup3\n      add\n      swap2\n      swap1\n      0x00\n      mstore\n      keccak256(0x00, 0x20)\n      swap1\n    tag_92:\n      dup2\n      sload\n      dup2\n      mstore\n      swap1\n      0x01\n      add\n      swap1\n      0x20\n      add\n      dup1\n      dup4\n      gt\n      tag_92\n      jumpi\n      dup3\n      swap1\n      sub\n      0x1f\n      and\n      dup3\n      add\n      swap2\n    tag_90:\n      pop\n      pop\n      pop\n      pop\n      pop\n      swap1\n      dup1\n      0x01\n      add\n      sload\n      swap1\n      dup1\n      0x02\n      add\n      dup1\n      sload\n      tag_93\n      swap1\n      tag_55\n      jump\t// in\n    tag_93:\n      dup1\n      0x1f\n      add\n      0x20\n      dup1\n      swap2\n      div\n      mul\n      0x20\n      add\n      mload(0x40)\n      swap1\n      dup2\n      add\n      0x40\n      mstore\n      dup1\n      swap3\n      swap2\n      swap1\n      dup2\n      dup2\n      mstore\n      0x20\n      add\n      dup3\n      dup1\n      sload\n      tag_94\n      swap1\n      tag_55\n      jump\t// in\n    tag_94:\n      dup1\n      iszero\n      tag_95\n      jumpi\n      dup1\n      0x1f\n      lt\n      tag_96\n      jumpi\n      0x0100\n      dup1\n      dup4\n      sload\n      div\n      mul\n      dup4\n      mstore\n      swap2\n      0x20\n      add\n      swap2\n      jump(tag_95)\n    tag_96:\n      dup3\n      add\n      swap2\n      swap1\n      0x00\n      mstore\n      keccak256(0x00, 0x20)\n      swap1\n    tag_97:\n      dup2\n      sload\n      dup2\n      mstore\n      swap1\n      0x01\n      add\n      swap1\n      0x20\n      add\n      dup1\n      dup4\n      gt\n      tag_97\n      jumpi\n      dup3\n      swap1\n      sub\n      0x1f\n      and\n      dup3\n      add\n      swap2\n    tag_95:\n      pop\n      pop\n      pop\n      pop\n      pop\n      swap1\n      dup1\n      0x03\n      add\n      0x00\n      swap1\n      sload\n      swap1\n      0x0100\n      exp\n      swap1\n      div\n      0xff\n      and\n      swap1\n      pop\n      dup5\n      jump\t// out\n        /* \"Cau1.sol\":334:534  function addStudent(... */\n    tag_30:\n        /* \"Cau1.sol\":477:489  studentsList */\n      0x00\n        /* \"Cau1.sol\":495:526  Student(_name, _age, _ID, _gpa) */\n      mload(0x40)\n      dup1\n      0x80\n      add\n      0x40\n      mstore\n      dup1\n        /* \"Cau1.sol\":503:508  _name */\n      dup7\n        /* \"Cau1.sol\":495:526  Student(_name, _age, _ID, _gpa) */\n      dup2\n      mstore\n      0x20\n      add\n        /* \"Cau1.sol\":510:514  _age */\n      dup6\n        /* \"Cau1.sol\":495:526  Student(_name, _age, _ID, _gpa) */\n      dup2\n      mstore\n      0x20\n      add\n        /* \"Cau1.sol\":516:519  _ID */\n      dup5\n        /* \"Cau1.sol\":495:526  Student(_name, _age, _ID, _gpa) */\n      dup2\n      mstore\n      0x20\n      add\n        /* \"Cau1.sol\":521:525  _gpa */\n      dup4\n        /* \"Cau1.sol\":495:526  Student(_name, _age, _ID, _gpa) */\n      0xff\n      and\n      dup2\n      mstore\n      pop\n        /* \"Cau1.sol\":477:527  studentsList.push(Student(_name, _age, _ID, _gpa)) */\n      swap1\n      dup1\n      0x01\n      dup2\n      sload\n      add\n      dup1\n      dup3\n      sstore\n      dup1\n      swap2\n      pop\n      pop\n      0x01\n      swap1\n      sub\n      swap1\n      0x00\n      mstore\n      keccak256(0x00, 0x20)\n      swap1\n      0x04\n      mul\n      add\n      0x00\n      swap1\n      swap2\n      swap1\n      swap2\n      swap1\n      swap2\n      pop\n      0x00\n      dup3\n      add\n      mload\n      dup2\n      0x00\n      add\n      swap1\n      dup2\n      tag_100\n      swap2\n      swap1\n      tag_44\n      jump\t// in\n    tag_100:\n      pop\n      0x20\n      dup3\n      add\n      mload\n      dup2\n      0x01\n      add\n      sstore\n      0x40\n      dup3\n      add\n      mload\n      dup2\n      0x02\n      add\n      swap1\n      dup2\n      tag_101\n      swap2\n      swap1\n      tag_44\n      jump\t// in\n    tag_101:\n      pop\n      0x60\n      dup3\n      add\n      mload\n      dup2\n      0x03\n      add\n      exp(0x0100, 0x00)\n      dup2\n      sload\n      dup2\n      0xff\n      mul\n      not\n      and\n      swap1\n      dup4\n      0xff\n      and\n      mul\n      or\n      swap1\n      sstore\n      pop\n      pop\n      pop\n        /* \"Cau1.sol\":334:534  function addStudent(... */\n      pop\n      pop\n      pop\n      pop\n      jump\t// out\n        /* \"Cau1.sol\":1372:2102  function getStudentWithHighestGPA()... */\n    tag_32:\n        /* \"Cau1.sol\":1455:1460  uint8 */\n      0x00\n        /* \"Cau1.sol\":1462:1475  string memory */\n      0x60\n        /* \"Cau1.sol\":1521:1522  0 */\n      0x00\n        /* \"Cau1.sol\":1499:1511  studentsList */\n      dup1\n        /* \"Cau1.sol\":1499:1518  studentsList.length */\n      dup1\n      sload\n      swap1\n      pop\n        /* \"Cau1.sol\":1499:1522  studentsList.length > 0 */\n      gt\n        /* \"Cau1.sol\":1491:1550  require(studentsList.length > 0, \"No students in the list\") */\n      tag_103\n      jumpi\n      mload(0x40)\n      0x08c379a000000000000000000000000000000000000000000000000000000000\n      dup2\n      mstore\n      0x04\n      add\n      tag_104\n      swap1\n      tag_105\n      jump\t// in\n    tag_104:\n      mload(0x40)\n      dup1\n      swap2\n      sub\n      swap1\n      revert\n    tag_103:\n        /* \"Cau1.sol\":1560:1576  uint8 highestGPA */\n      0x00\n        /* \"Cau1.sol\":1579:1591  studentsList */\n      dup1\n        /* \"Cau1.sol\":1592:1593  0 */\n      0x00\n        /* \"Cau1.sol\":1579:1594  studentsList[0] */\n      dup2\n      sload\n      dup2\n      lt\n      tag_106\n      jumpi\n      tag_107\n      tag_41\n      jump\t// in\n    tag_107:\n    tag_106:\n      swap1\n      0x00\n      mstore\n      keccak256(0x00, 0x20)\n      swap1\n      0x04\n      mul\n      add\n        /* \"Cau1.sol\":1579:1598  studentsList[0].gpa */\n      0x03\n      add\n      0x00\n      swap1\n      sload\n      swap1\n      0x0100\n      exp\n      swap1\n      div\n      0xff\n      and\n        /* \"Cau1.sol\":1560:1598  uint8 highestGPA = studentsList[0].gpa */\n      swap1\n      pop\n        /* \"Cau1.sol\":1608:1621  uint256 count */\n      0x00\n        /* \"Cau1.sol\":1641:1650  uint256 i */\n      dup1\n        /* \"Cau1.sol\":1636:1925  for (uint256 i = 0; i < studentsList.length; ++i) {... */\n    tag_109:\n        /* \"Cau1.sol\":1660:1672  studentsList */\n      0x00\n        /* \"Cau1.sol\":1660:1679  studentsList.length */\n      dup1\n      sload\n      swap1\n      pop\n        /* \"Cau1.sol\":1656:1657  i */\n      dup2\n        /* \"Cau1.sol\":1656:1679  i < studentsList.length */\n      lt\n        /* \"Cau1.sol\":1636:1925  for (uint256 i = 0; i < studentsList.length; ++i) {... */\n      iszero\n      tag_110\n      jumpi\n        /* \"Cau1.sol\":1726:1736  highestGPA */\n      dup3\n        /* \"Cau1.sol\":1704:1736  studentsList[i].gpa > highestGPA */\n      0xff\n      and\n        /* \"Cau1.sol\":1704:1716  studentsList */\n      0x00\n        /* \"Cau1.sol\":1717:1718  i */\n      dup3\n        /* \"Cau1.sol\":1704:1719  studentsList[i] */\n      dup2\n      sload\n      dup2\n      lt\n      tag_112\n      jumpi\n      tag_113\n      tag_41\n      jump\t// in\n    tag_113:\n    tag_112:\n      swap1\n      0x00\n      mstore\n      keccak256(0x00, 0x20)\n      swap1\n      0x04\n      mul\n      add\n        /* \"Cau1.sol\":1704:1723  studentsList[i].gpa */\n      0x03\n      add\n      0x00\n      swap1\n      sload\n      swap1\n      0x0100\n      exp\n      swap1\n      div\n      0xff\n      and\n        /* \"Cau1.sol\":1704:1736  studentsList[i].gpa > highestGPA */\n      0xff\n      and\n      gt\n        /* \"Cau1.sol\":1700:1915  if (studentsList[i].gpa > highestGPA) {... */\n      iszero\n      tag_115\n      jumpi\n        /* \"Cau1.sol\":1769:1781  studentsList */\n      0x00\n        /* \"Cau1.sol\":1782:1783  i */\n      dup2\n        /* \"Cau1.sol\":1769:1784  studentsList[i] */\n      dup2\n      sload\n      dup2\n      lt\n      tag_116\n      jumpi\n      tag_117\n      tag_41\n      jump\t// in\n    tag_117:\n    tag_116:\n      swap1\n      0x00\n      mstore\n      keccak256(0x00, 0x20)\n      swap1\n      0x04\n      mul\n      add\n        /* \"Cau1.sol\":1769:1788  studentsList[i].gpa */\n      0x03\n      add\n      0x00\n      swap1\n      sload\n      swap1\n      0x0100\n      exp\n      swap1\n      div\n      0xff\n      and\n        /* \"Cau1.sol\":1756:1788  highestGPA = studentsList[i].gpa */\n      swap3\n      pop\n        /* \"Cau1.sol\":1814:1815  1 */\n      0x01\n        /* \"Cau1.sol\":1806:1815  count = 1 */\n      swap2\n      pop\n        /* \"Cau1.sol\":1700:1915  if (studentsList[i].gpa > highestGPA) {... */\n      jump(tag_119)\n    tag_115:\n        /* \"Cau1.sol\":1863:1873  highestGPA */\n      dup3\n        /* \"Cau1.sol\":1840:1873  studentsList[i].gpa == highestGPA */\n      0xff\n      and\n        /* \"Cau1.sol\":1840:1852  studentsList */\n      0x00\n        /* \"Cau1.sol\":1853:1854  i */\n      dup3\n        /* \"Cau1.sol\":1840:1855  studentsList[i] */\n      dup2\n      sload\n      dup2\n      lt\n      tag_120\n      jumpi\n      tag_121\n      tag_41\n      jump\t// in\n    tag_121:\n    tag_120:\n      swap1\n      0x00\n      mstore\n      keccak256(0x00, 0x20)\n      swap1\n      0x04\n      mul\n      add\n        /* \"Cau1.sol\":1840:1859  studentsList[i].gpa */\n      0x03\n      add\n      0x00\n      swap1\n      sload\n      swap1\n      0x0100\n      exp\n      swap1\n      div\n      0xff\n      and\n        /* \"Cau1.sol\":1840:1873  studentsList[i].gpa == highestGPA */\n      0xff\n      and\n      sub\n        /* \"Cau1.sol\":1836:1915  if (studentsList[i].gpa == highestGPA) {... */\n      tag_123\n      jumpi\n        /* \"Cau1.sol\":1893:1900  count++ */\n      dup2\n      dup1\n      tag_124\n      swap1\n      tag_125\n      jump\t// in\n    tag_124:\n      swap3\n      pop\n      pop\n        /* \"Cau1.sol\":1836:1915  if (studentsList[i].gpa == highestGPA) {... */\n    tag_123:\n        /* \"Cau1.sol\":1700:1915  if (studentsList[i].gpa > highestGPA) {... */\n    tag_119:\n        /* \"Cau1.sol\":1681:1684  ++i */\n      dup1\n      0x01\n      add\n      swap1\n      pop\n        /* \"Cau1.sol\":1636:1925  for (uint256 i = 0; i < studentsList.length; ++i) {... */\n      jump(tag_109)\n    tag_110:\n      pop\n        /* \"Cau1.sol\":1935:1952  string memory res */\n      0x00\n        /* \"Cau1.sol\":1955:1978  Strings.toString(count) */\n      tag_126\n        /* \"Cau1.sol\":1972:1977  count */\n      dup3\n        /* \"Cau1.sol\":1955:1971  Strings.toString */\n      tag_127\n        /* \"Cau1.sol\":1955:1978  Strings.toString(count) */\n      jump\t// in\n    tag_126:\n        /* \"Cau1.sol\":1935:1978  string memory res = Strings.toString(count) */\n      swap1\n      pop\n        /* \"Cau1.sol\":1988:2004  string memory s1 */\n      0x00\n        /* \"Cau1.sol\":1988:2020  string memory s1 = \" student(s)\" */\n      mload(0x40)\n      dup1\n      0x40\n      add\n      0x40\n      mstore\n      dup1\n      0x0b\n      dup2\n      mstore\n      0x20\n      add\n      0x2073747564656e74287329000000000000000000000000000000000000000000\n      dup2\n      mstore\n      pop\n      swap1\n      pop\n        /* \"Cau1.sol\":2051:2054  res */\n      dup2\n        /* \"Cau1.sol\":2056:2058  s1 */\n      dup2\n        /* \"Cau1.sol\":2037:2059  string.concat(res, s1) */\n      add(0x20, mload(0x40))\n      tag_128\n      swap3\n      swap2\n      swap1\n      tag_129\n      jump\t// in\n    tag_128:\n      mload(0x40)\n      0x20\n      dup2\n      dup4\n      sub\n      sub\n      dup2\n      mstore\n      swap1\n      0x40\n      mstore\n        /* \"Cau1.sol\":2030:2059  res =  string.concat(res, s1) */\n      swap2\n      pop\n        /* \"Cau1.sol\":2079:2089  highestGPA */\n      dup4\n        /* \"Cau1.sol\":2091:2094  res */\n      dup3\n        /* \"Cau1.sol\":2071:2095  return (highestGPA, res) */\n      swap6\n      pop\n      swap6\n      pop\n      pop\n      pop\n      pop\n      pop\n        /* \"Cau1.sol\":1372:2102  function getStudentWithHighestGPA()... */\n      swap1\n      swap2\n      jump\t// out\n        /* \"@openzeppelin/contracts/utils/Strings.sol\":637:1335  function toString(uint256 value) internal pure returns (string memory) {... */\n    tag_127:\n        /* \"@openzeppelin/contracts/utils/Strings.sol\":693:706  string memory */\n      0x60\n        /* \"@openzeppelin/contracts/utils/Strings.sol\":742:756  uint256 length */\n      0x00\n        /* \"@openzeppelin/contracts/utils/Strings.sol\":779:780  1 */\n      0x01\n        /* \"@openzeppelin/contracts/utils/Strings.sol\":759:776  Math.log10(value) */\n      tag_131\n        /* \"@openzeppelin/contracts/utils/Strings.sol\":770:775  value */\n      dup5\n        /* \"@openzeppelin/contracts/utils/Strings.sol\":759:769  Math.log10 */\n      tag_132\n        /* \"@openzeppelin/contracts/utils/Strings.sol\":759:776  Math.log10(value) */\n      jump\t// in\n    tag_131:\n        /* \"@openzeppelin/contracts/utils/Strings.sol\":759:780  Math.log10(value) + 1 */\n      add\n        /* \"@openzeppelin/contracts/utils/Strings.sol\":742:780  uint256 length = Math.log10(value) + 1 */\n      swap1\n      pop\n        /* \"@openzeppelin/contracts/utils/Strings.sol\":794:814  string memory buffer */\n      0x00\n        /* \"@openzeppelin/contracts/utils/Strings.sol\":828:834  length */\n      dup2\n        /* \"@openzeppelin/contracts/utils/Strings.sol\":817:835  new string(length) */\n      0xffffffffffffffff\n      dup2\n      gt\n      iszero\n      tag_133\n      jumpi\n      tag_134\n      tag_135\n      jump\t// in\n    tag_134:\n    tag_133:\n      mload(0x40)\n      swap1\n      dup1\n      dup3\n      mstore\n      dup1\n      0x1f\n      add\n      not(0x1f)\n      and\n      0x20\n      add\n      dup3\n      add\n      0x40\n      mstore\n      dup1\n      iszero\n      tag_136\n      jumpi\n      dup2\n      0x20\n      add\n      0x01\n      dup3\n      mul\n      dup1\n      calldatasize\n      dup4\n      calldatacopy\n      dup1\n      dup3\n      add\n      swap2\n      pop\n      pop\n      swap1\n      pop\n    tag_136:\n      pop\n        /* \"@openzeppelin/contracts/utils/Strings.sol\":794:835  string memory buffer = new string(length) */\n      swap1\n      pop\n        /* \"@openzeppelin/contracts/utils/Strings.sol\":849:860  uint256 ptr */\n      0x00\n        /* \"@openzeppelin/contracts/utils/Strings.sol\":975:981  length */\n      dup3\n        /* \"@openzeppelin/contracts/utils/Strings.sol\":971:973  32 */\n      0x20\n        /* \"@openzeppelin/contracts/utils/Strings.sol\":967:982  add(32, length) */\n      add\n        /* \"@openzeppelin/contracts/utils/Strings.sol\":959:965  buffer */\n      dup3\n        /* \"@openzeppelin/contracts/utils/Strings.sol\":955:983  add(buffer, add(32, length)) */\n      add\n        /* \"@openzeppelin/contracts/utils/Strings.sol\":948:983  ptr := add(buffer, add(32, length)) */\n      swap1\n      pop\n        /* \"@openzeppelin/contracts/utils/Strings.sol\":1010:1292  while (true) {... */\n    tag_137:\n        /* \"@openzeppelin/contracts/utils/Strings.sol\":1017:1021  true */\n      0x01\n        /* \"@openzeppelin/contracts/utils/Strings.sol\":1010:1292  while (true) {... */\n      iszero\n      tag_138\n      jumpi\n        /* \"@openzeppelin/contracts/utils/Strings.sol\":1041:1046  ptr-- */\n      dup1\n      dup1\n      0x01\n      swap1\n      sub\n      swap2\n      pop\n      pop\n        /* \"@openzeppelin/contracts/utils/Strings.sol\":1180:1190  HEX_DIGITS */\n      0x3031323334353637383961626364656600000000000000000000000000000000\n        /* \"@openzeppelin/contracts/utils/Strings.sol\":1175:1177  10 */\n      0x0a\n        /* \"@openzeppelin/contracts/utils/Strings.sol\":1168:1173  value */\n      dup7\n        /* \"@openzeppelin/contracts/utils/Strings.sol\":1164:1178  mod(value, 10) */\n      mod\n        /* \"@openzeppelin/contracts/utils/Strings.sol\":1159:1191  byte(mod(value, 10), HEX_DIGITS) */\n      byte\n        /* \"@openzeppelin/contracts/utils/Strings.sol\":1154:1157  ptr */\n      dup2\n        /* \"@openzeppelin/contracts/utils/Strings.sol\":1146:1192  mstore8(ptr, byte(mod(value, 10), HEX_DIGITS)) */\n      mstore8\n        /* \"@openzeppelin/contracts/utils/Strings.sol\":1236:1238  10 */\n      0x0a\n        /* \"@openzeppelin/contracts/utils/Strings.sol\":1227:1238  value /= 10 */\n      dup6\n      dup2\n      tag_139\n      jumpi\n      tag_140\n      tag_141\n      jump\t// in\n    tag_140:\n    tag_139:\n      div\n      swap5\n      pop\n        /* \"@openzeppelin/contracts/utils/Strings.sol\":1269:1270  0 */\n      0x00\n        /* \"@openzeppelin/contracts/utils/Strings.sol\":1260:1265  value */\n      dup6\n        /* \"@openzeppelin/contracts/utils/Strings.sol\":1260:1270  value == 0 */\n      sub\n        /* \"@openzeppelin/contracts/utils/Strings.sol\":1010:1292  while (true) {... */\n      tag_137\n        /* \"@openzeppelin/contracts/utils/Strings.sol\":1256:1277  if (value == 0) break */\n      jumpi\n        /* \"@openzeppelin/contracts/utils/Strings.sol\":1010:1292  while (true) {... */\n    tag_138:\n        /* \"@openzeppelin/contracts/utils/Strings.sol\":1312:1318  buffer */\n      dup2\n        /* \"@openzeppelin/contracts/utils/Strings.sol\":1305:1318  return buffer */\n      swap4\n      pop\n      pop\n      pop\n      pop\n        /* \"@openzeppelin/contracts/utils/Strings.sol\":637:1335  function toString(uint256 value) internal pure returns (string memory) {... */\n      swap2\n      swap1\n      pop\n      jump\t// out\n        /* \"@openzeppelin/contracts/utils/math/Math.sol\":12214:13130  function log10(uint256 value) internal pure returns (uint256) {... */\n    tag_132:\n        /* \"@openzeppelin/contracts/utils/math/Math.sol\":12267:12274  uint256 */\n      0x00\n        /* \"@openzeppelin/contracts/utils/math/Math.sol\":12286:12300  uint256 result */\n      dup1\n        /* \"@openzeppelin/contracts/utils/math/Math.sol\":12303:12304  0 */\n      0x00\n        /* \"@openzeppelin/contracts/utils/math/Math.sol\":12286:12304  uint256 result = 0 */\n      swap1\n      pop\n        /* \"@openzeppelin/contracts/utils/math/Math.sol\":12351:12359  10 ** 64 */\n      0x184f03e93ff9f4daa797ed6e38ed64bf6a1f010000000000000000\n        /* \"@openzeppelin/contracts/utils/math/Math.sol\":12342:12347  value */\n      dup4\n        /* \"@openzeppelin/contracts/utils/math/Math.sol\":12342:12359  value >= 10 ** 64 */\n      lt\n        /* \"@openzeppelin/contracts/utils/math/Math.sol\":12338:12441  if (value >= 10 ** 64) {... */\n      tag_144\n      jumpi\n        /* \"@openzeppelin/contracts/utils/math/Math.sol\":12388:12396  10 ** 64 */\n      0x184f03e93ff9f4daa797ed6e38ed64bf6a1f010000000000000000\n        /* \"@openzeppelin/contracts/utils/math/Math.sol\":12379:12396  value /= 10 ** 64 */\n      dup4\n      dup2\n      tag_145\n      jumpi\n      tag_146\n      tag_141\n      jump\t// in\n    tag_146:\n    tag_145:\n      div\n      swap3\n      pop\n        /* \"@openzeppelin/contracts/utils/math/Math.sol\":12424:12426  64 */\n      0x40\n        /* \"@openzeppelin/contracts/utils/math/Math.sol\":12414:12426  result += 64 */\n      dup2\n      add\n      swap1\n      pop\n        /* \"@openzeppelin/contracts/utils/math/Math.sol\":12338:12441  if (value >= 10 ** 64) {... */\n    tag_144:\n        /* \"@openzeppelin/contracts/utils/math/Math.sol\":12467:12475  10 ** 32 */\n      0x04ee2d6d415b85acef8100000000\n        /* \"@openzeppelin/contracts/utils/math/Math.sol\":12458:12463  value */\n      dup4\n        /* \"@openzeppelin/contracts/utils/math/Math.sol\":12458:12475  value >= 10 ** 32 */\n      lt\n        /* \"@openzeppelin/contracts/utils/math/Math.sol\":12454:12557  if (value >= 10 ** 32) {... */\n      tag_147\n      jumpi\n        /* \"@openzeppelin/contracts/utils/math/Math.sol\":12504:12512  10 ** 32 */\n      0x04ee2d6d415b85acef8100000000\n        /* \"@openzeppelin/contracts/utils/math/Math.sol\":12495:12512  value /= 10 ** 32 */\n      dup4\n      dup2\n      tag_148\n      jumpi\n      tag_149\n      tag_141\n      jump\t// in\n    tag_149:\n    tag_148:\n      div\n      swap3\n      pop\n        /* \"@openzeppelin/contracts/utils/math/Math.sol\":12540:12542  32 */\n      0x20\n        /* \"@openzeppelin/contracts/utils/math/Math.sol\":12530:12542  result += 32 */\n      dup2\n      add\n      swap1\n      pop\n        /* \"@openzeppelin/contracts/utils/math/Math.sol\":12454:12557  if (value >= 10 ** 32) {... */\n    tag_147:\n        /* \"@openzeppelin/contracts/utils/math/Math.sol\":12583:12591  10 ** 16 */\n      0x2386f26fc10000\n        /* \"@openzeppelin/contracts/utils/math/Math.sol\":12574:12579  value */\n      dup4\n        /* \"@openzeppelin/contracts/utils/math/Math.sol\":12574:12591  value >= 10 ** 16 */\n      lt\n        /* \"@openzeppelin/contracts/utils/math/Math.sol\":12570:12673  if (value >= 10 ** 16) {... */\n      tag_150\n      jumpi\n        /* \"@openzeppelin/contracts/utils/math/Math.sol\":12620:12628  10 ** 16 */\n      0x2386f26fc10000\n        /* \"@openzeppelin/contracts/utils/math/Math.sol\":12611:12628  value /= 10 ** 16 */\n      dup4\n      dup2\n      tag_151\n      jumpi\n      tag_152\n      tag_141\n      jump\t// in\n    tag_152:\n    tag_151:\n      div\n      swap3\n      pop\n        /* \"@openzeppelin/contracts/utils/math/Math.sol\":12656:12658  16 */\n      0x10\n        /* \"@openzeppelin/contracts/utils/math/Math.sol\":12646:12658  result += 16 */\n      dup2\n      add\n      swap1\n      pop\n        /* \"@openzeppelin/contracts/utils/math/Math.sol\":12570:12673  if (value >= 10 ** 16) {... */\n    tag_150:\n        /* \"@openzeppelin/contracts/utils/math/Math.sol\":12699:12706  10 ** 8 */\n      0x05f5e100\n        /* \"@openzeppelin/contracts/utils/math/Math.sol\":12690:12695  value */\n      dup4\n        /* \"@openzeppelin/contracts/utils/math/Math.sol\":12690:12706  value >= 10 ** 8 */\n      lt\n        /* \"@openzeppelin/contracts/utils/math/Math.sol\":12686:12786  if (value >= 10 ** 8) {... */\n      tag_153\n      jumpi\n        /* \"@openzeppelin/contracts/utils/math/Math.sol\":12735:12742  10 ** 8 */\n      0x05f5e100\n        /* \"@openzeppelin/contracts/utils/math/Math.sol\":12726:12742  value /= 10 ** 8 */\n      dup4\n      dup2\n      tag_154\n      jumpi\n      tag_155\n      tag_141\n      jump\t// in\n    tag_155:\n    tag_154:\n      div\n      swap3\n      pop\n        /* \"@openzeppelin/contracts/utils/math/Math.sol\":12770:12771  8 */\n      0x08\n        /* \"@openzeppelin/contracts/utils/math/Math.sol\":12760:12771  result += 8 */\n      dup2\n      add\n      swap1\n      pop\n        /* \"@openzeppelin/contracts/utils/math/Math.sol\":12686:12786  if (value >= 10 ** 8) {... */\n    tag_153:\n        /* \"@openzeppelin/contracts/utils/math/Math.sol\":12812:12819  10 ** 4 */\n      0x2710\n        /* \"@openzeppelin/contracts/utils/math/Math.sol\":12803:12808  value */\n      dup4\n        /* \"@openzeppelin/contracts/utils/math/Math.sol\":12803:12819  value >= 10 ** 4 */\n      lt\n        /* \"@openzeppelin/contracts/utils/math/Math.sol\":12799:12899  if (value >= 10 ** 4) {... */\n      tag_156\n      jumpi\n        /* \"@openzeppelin/contracts/utils/math/Math.sol\":12848:12855  10 ** 4 */\n      0x2710\n        /* \"@openzeppelin/contracts/utils/math/Math.sol\":12839:12855  value /= 10 ** 4 */\n      dup4\n      dup2\n      tag_157\n      jumpi\n      tag_158\n      tag_141\n      jump\t// in\n    tag_158:\n    tag_157:\n      div\n      swap3\n      pop\n        /* \"@openzeppelin/contracts/utils/math/Math.sol\":12883:12884  4 */\n      0x04\n        /* \"@openzeppelin/contracts/utils/math/Math.sol\":12873:12884  result += 4 */\n      dup2\n      add\n      swap1\n      pop\n        /* \"@openzeppelin/contracts/utils/math/Math.sol\":12799:12899  if (value >= 10 ** 4) {... */\n    tag_156:\n        /* \"@openzeppelin/contracts/utils/math/Math.sol\":12925:12932  10 ** 2 */\n      0x64\n        /* \"@openzeppelin/contracts/utils/math/Math.sol\":12916:12921  value */\n      dup4\n        /* \"@openzeppelin/contracts/utils/math/Math.sol\":12916:12932  value >= 10 ** 2 */\n      lt\n        /* \"@openzeppelin/contracts/utils/math/Math.sol\":12912:13012  if (value >= 10 ** 2) {... */\n      tag_159\n      jumpi\n        /* \"@openzeppelin/contracts/utils/math/Math.sol\":12961:12968  10 ** 2 */\n      0x64\n        /* \"@openzeppelin/contracts/utils/math/Math.sol\":12952:12968  value /= 10 ** 2 */\n      dup4\n      dup2\n      tag_160\n      jumpi\n      tag_161\n      tag_141\n      jump\t// in\n    tag_161:\n    tag_160:\n      div\n      swap3\n      pop\n        /* \"@openzeppelin/contracts/utils/math/Math.sol\":12996:12997  2 */\n      0x02\n        /* \"@openzeppelin/contracts/utils/math/Math.sol\":12986:12997  result += 2 */\n      dup2\n      add\n      swap1\n      pop\n        /* \"@openzeppelin/contracts/utils/math/Math.sol\":12912:13012  if (value >= 10 ** 2) {... */\n    tag_159:\n        /* \"@openzeppelin/contracts/utils/math/Math.sol\":13038:13045  10 ** 1 */\n      0x0a\n        /* \"@openzeppelin/contracts/utils/math/Math.sol\":13029:13034  value */\n      dup4\n        /* \"@openzeppelin/contracts/utils/math/Math.sol\":13029:13045  value >= 10 ** 1 */\n      lt\n        /* \"@openzeppelin/contracts/utils/math/Math.sol\":13025:13091  if (value >= 10 ** 1) {... */\n      tag_162\n      jumpi\n        /* \"@openzeppelin/contracts/utils/math/Math.sol\":13075:13076  1 */\n      0x01\n        /* \"@openzeppelin/contracts/utils/math/Math.sol\":13065:13076  result += 1 */\n      dup2\n      add\n      swap1\n      pop\n        /* \"@openzeppelin/contracts/utils/math/Math.sol\":13025:13091  if (value >= 10 ** 1) {... */\n    tag_162:\n        /* \"@openzeppelin/contracts/utils/math/Math.sol\":13117:13123  result */\n      dup1\n        /* \"@openzeppelin/contracts/utils/math/Math.sol\":13110:13123  return result */\n      swap2\n      pop\n      pop\n        /* \"@openzeppelin/contracts/utils/math/Math.sol\":12214:13130  function log10(uint256 value) internal pure returns (uint256) {... */\n      swap2\n      swap1\n      pop\n      jump\t// out\n    tag_47:\n      mload(0x40)\n      dup1\n      0x80\n      add\n      0x40\n      mstore\n      dup1\n      0x60\n      dup2\n      mstore\n      0x20\n      add\n      0x00\n      dup2\n      mstore\n      0x20\n      add\n      0x60\n      dup2\n      mstore\n      0x20\n      add\n      and(0xff, 0x00)\n      dup2\n      mstore\n      pop\n      swap1\n      jump\t// out\n    tag_84:\n      pop\n      dup1\n      sload\n      tag_163\n      swap1\n      tag_55\n      jump\t// in\n    tag_163:\n      0x00\n      dup3\n      sstore\n      dup1\n      0x1f\n      lt\n      tag_165\n      jumpi\n      pop\n      jump(tag_164)\n    tag_165:\n      0x1f\n      add\n      0x20\n      swap1\n      div\n      swap1\n      0x00\n      mstore\n      keccak256(0x00, 0x20)\n      swap1\n      dup2\n      add\n      swap1\n      tag_166\n      swap2\n      swap1\n      tag_167\n      jump\t// in\n    tag_166:\n    tag_164:\n      pop\n      jump\t// out\n    tag_167:\n    tag_168:\n      dup1\n      dup3\n      gt\n      iszero\n      tag_169\n      jumpi\n      0x00\n      dup2\n      0x00\n      swap1\n      sstore\n      pop\n      0x01\n      add\n      jump(tag_168)\n    tag_169:\n      pop\n      swap1\n      jump\t// out\n        /* \"#utility.yul\":7:82   */\n    tag_170:\n        /* \"#utility.yul\":40:46   */\n      0x00\n        /* \"#utility.yul\":73:75   */\n      0x40\n        /* \"#utility.yul\":67:76   */\n      mload\n        /* \"#utility.yul\":57:76   */\n      swap1\n      pop\n        /* \"#utility.yul\":7:82   */\n      swap1\n      jump\t// out\n        /* \"#utility.yul\":88:205   */\n    tag_171:\n        /* \"#utility.yul\":197:198   */\n      0x00\n        /* \"#utility.yul\":194:195   */\n      dup1\n        /* \"#utility.yul\":187:199   */\n      revert\n        /* \"#utility.yul\":211:328   */\n    tag_172:\n        /* \"#utility.yul\":320:321   */\n      0x00\n        /* \"#utility.yul\":317:318   */\n      dup1\n        /* \"#utility.yul\":310:322   */\n      revert\n        /* \"#utility.yul\":334:411   */\n    tag_173:\n        /* \"#utility.yul\":371:378   */\n      0x00\n        /* \"#utility.yul\":400:405   */\n      dup2\n        /* \"#utility.yul\":389:405   */\n      swap1\n      pop\n        /* \"#utility.yul\":334:411   */\n      swap2\n      swap1\n      pop\n      jump\t// out\n        /* \"#utility.yul\":417:539   */\n    tag_174:\n        /* \"#utility.yul\":490:514   */\n      tag_229\n        /* \"#utility.yul\":508:513   */\n      dup2\n        /* \"#utility.yul\":490:514   */\n      tag_173\n      jump\t// in\n    tag_229:\n        /* \"#utility.yul\":483:488   */\n      dup2\n        /* \"#utility.yul\":480:515   */\n      eq\n        /* \"#utility.yul\":470:533   */\n      tag_230\n      jumpi\n        /* \"#utility.yul\":529:530   */\n      0x00\n        /* \"#utility.yul\":526:527   */\n      dup1\n        /* \"#utility.yul\":519:531   */\n      revert\n        /* \"#utility.yul\":470:533   */\n    tag_230:\n        /* \"#utility.yul\":417:539   */\n      pop\n      jump\t// out\n        /* \"#utility.yul\":545:684   */\n    tag_175:\n        /* \"#utility.yul\":591:596   */\n      0x00\n        /* \"#utility.yul\":629:635   */\n      dup2\n        /* \"#utility.yul\":616:636   */\n      calldataload\n        /* \"#utility.yul\":607:636   */\n      swap1\n      pop\n        /* \"#utility.yul\":645:678   */\n      tag_232\n        /* \"#utility.yul\":672:677   */\n      dup2\n        /* \"#utility.yul\":645:678   */\n      tag_174\n      jump\t// in\n    tag_232:\n        /* \"#utility.yul\":545:684   */\n      swap3\n      swap2\n      pop\n      pop\n      jump\t// out\n        /* \"#utility.yul\":690:807   */\n    tag_176:\n        /* \"#utility.yul\":799:800   */\n      0x00\n        /* \"#utility.yul\":796:797   */\n      dup1\n        /* \"#utility.yul\":789:801   */\n      revert\n        /* \"#utility.yul\":813:930   */\n    tag_177:\n        /* \"#utility.yul\":922:923   */\n      0x00\n        /* \"#utility.yul\":919:920   */\n      dup1\n        /* \"#utility.yul\":912:924   */\n      revert\n        /* \"#utility.yul\":936:1038   */\n    tag_178:\n        /* \"#utility.yul\":977:983   */\n      0x00\n        /* \"#utility.yul\":1028:1030   */\n      0x1f\n        /* \"#utility.yul\":1024:1031   */\n      not\n        /* \"#utility.yul\":1019:1021   */\n      0x1f\n        /* \"#utility.yul\":1012:1017   */\n      dup4\n        /* \"#utility.yul\":1008:1022   */\n      add\n        /* \"#utility.yul\":1004:1032   */\n      and\n        /* \"#utility.yul\":994:1032   */\n      swap1\n      pop\n        /* \"#utility.yul\":936:1038   */\n      swap2\n      swap1\n      pop\n      jump\t// out\n        /* \"#utility.yul\":1044:1224   */\n    tag_135:\n        /* \"#utility.yul\":1092:1169   */\n      0x4e487b7100000000000000000000000000000000000000000000000000000000\n        /* \"#utility.yul\":1089:1090   */\n      0x00\n        /* \"#utility.yul\":1082:1170   */\n      mstore\n        /* \"#utility.yul\":1189:1193   */\n      0x41\n        /* \"#utility.yul\":1186:1187   */\n      0x04\n        /* \"#utility.yul\":1179:1194   */\n      mstore\n        /* \"#utility.yul\":1213:1217   */\n      0x24\n        /* \"#utility.yul\":1210:1211   */\n      0x00\n        /* \"#utility.yul\":1203:1218   */\n      revert\n        /* \"#utility.yul\":1230:1511   */\n    tag_179:\n        /* \"#utility.yul\":1313:1340   */\n      tag_238\n        /* \"#utility.yul\":1335:1339   */\n      dup3\n        /* \"#utility.yul\":1313:1340   */\n      tag_178\n      jump\t// in\n    tag_238:\n        /* \"#utility.yul\":1305:1311   */\n      dup2\n        /* \"#utility.yul\":1301:1341   */\n      add\n        /* \"#utility.yul\":1443:1449   */\n      dup2\n        /* \"#utility.yul\":1431:1441   */\n      dup2\n        /* \"#utility.yul\":1428:1450   */\n      lt\n        /* \"#utility.yul\":1407:1425   */\n      0xffffffffffffffff\n        /* \"#utility.yul\":1395:1405   */\n      dup3\n        /* \"#utility.yul\":1392:1426   */\n      gt\n        /* \"#utility.yul\":1389:1451   */\n      or\n        /* \"#utility.yul\":1386:1474   */\n      iszero\n      tag_239\n      jumpi\n        /* \"#utility.yul\":1454:1472   */\n      tag_240\n      tag_135\n      jump\t// in\n    tag_240:\n        /* \"#utility.yul\":1386:1474   */\n    tag_239:\n        /* \"#utility.yul\":1494:1504   */\n      dup1\n        /* \"#utility.yul\":1490:1492   */\n      0x40\n        /* \"#utility.yul\":1483:1505   */\n      mstore\n        /* \"#utility.yul\":1273:1511   */\n      pop\n        /* \"#utility.yul\":1230:1511   */\n      pop\n      pop\n      jump\t// out\n        /* \"#utility.yul\":1517:1646   */\n    tag_180:\n        /* \"#utility.yul\":1551:1557   */\n      0x00\n        /* \"#utility.yul\":1578:1598   */\n      tag_242\n      tag_170\n      jump\t// in\n    tag_242:\n        /* \"#utility.yul\":1568:1598   */\n      swap1\n      pop\n        /* \"#utility.yul\":1607:1640   */\n      tag_243\n        /* \"#utility.yul\":1635:1639   */\n      dup3\n        /* \"#utility.yul\":1627:1633   */\n      dup3\n        /* \"#utility.yul\":1607:1640   */\n      tag_179\n      jump\t// in\n    tag_243:\n        /* \"#utility.yul\":1517:1646   */\n      swap2\n      swap1\n      pop\n      jump\t// out\n        /* \"#utility.yul\":1652:1960   */\n    tag_181:\n        /* \"#utility.yul\":1714:1718   */\n      0x00\n        /* \"#utility.yul\":1804:1822   */\n      0xffffffffffffffff\n        /* \"#utility.yul\":1796:1802   */\n      dup3\n        /* \"#utility.yul\":1793:1823   */\n      gt\n        /* \"#utility.yul\":1790:1846   */\n      iszero\n      tag_245\n      jumpi\n        /* \"#utility.yul\":1826:1844   */\n      tag_246\n      tag_135\n      jump\t// in\n    tag_246:\n        /* \"#utility.yul\":1790:1846   */\n    tag_245:\n        /* \"#utility.yul\":1864:1893   */\n      tag_247\n        /* \"#utility.yul\":1886:1892   */\n      dup3\n        /* \"#utility.yul\":1864:1893   */\n      tag_178\n      jump\t// in\n    tag_247:\n        /* \"#utility.yul\":1856:1893   */\n      swap1\n      pop\n        /* \"#utility.yul\":1948:1952   */\n      0x20\n        /* \"#utility.yul\":1942:1946   */\n      dup2\n        /* \"#utility.yul\":1938:1953   */\n      add\n        /* \"#utility.yul\":1930:1953   */\n      swap1\n      pop\n        /* \"#utility.yul\":1652:1960   */\n      swap2\n      swap1\n      pop\n      jump\t// out\n        /* \"#utility.yul\":1966:2112   */\n    tag_182:\n        /* \"#utility.yul\":2063:2069   */\n      dup3\n        /* \"#utility.yul\":2058:2061   */\n      dup2\n        /* \"#utility.yul\":2053:2056   */\n      dup4\n        /* \"#utility.yul\":2040:2070   */\n      calldatacopy\n        /* \"#utility.yul\":2104:2105   */\n      0x00\n        /* \"#utility.yul\":2095:2101   */\n      dup4\n        /* \"#utility.yul\":2090:2093   */\n      dup4\n        /* \"#utility.yul\":2086:2102   */\n      add\n        /* \"#utility.yul\":2079:2106   */\n      mstore\n        /* \"#utility.yul\":1966:2112   */\n      pop\n      pop\n      pop\n      jump\t// out\n        /* \"#utility.yul\":2118:2543   */\n    tag_183:\n        /* \"#utility.yul\":2196:2201   */\n      0x00\n        /* \"#utility.yul\":2221:2287   */\n      tag_250\n        /* \"#utility.yul\":2237:2286   */\n      tag_251\n        /* \"#utility.yul\":2279:2285   */\n      dup5\n        /* \"#utility.yul\":2237:2286   */\n      tag_181\n      jump\t// in\n    tag_251:\n        /* \"#utility.yul\":2221:2287   */\n      tag_180\n      jump\t// in\n    tag_250:\n        /* \"#utility.yul\":2212:2287   */\n      swap1\n      pop\n        /* \"#utility.yul\":2310:2316   */\n      dup3\n        /* \"#utility.yul\":2303:2308   */\n      dup2\n        /* \"#utility.yul\":2296:2317   */\n      mstore\n        /* \"#utility.yul\":2348:2352   */\n      0x20\n        /* \"#utility.yul\":2341:2346   */\n      dup2\n        /* \"#utility.yul\":2337:2353   */\n      add\n        /* \"#utility.yul\":2386:2389   */\n      dup5\n        /* \"#utility.yul\":2377:2383   */\n      dup5\n        /* \"#utility.yul\":2372:2375   */\n      dup5\n        /* \"#utility.yul\":2368:2384   */\n      add\n        /* \"#utility.yul\":2365:2390   */\n      gt\n        /* \"#utility.yul\":2362:2474   */\n      iszero\n      tag_252\n      jumpi\n        /* \"#utility.yul\":2393:2472   */\n      tag_253\n      tag_177\n      jump\t// in\n    tag_253:\n        /* \"#utility.yul\":2362:2474   */\n    tag_252:\n        /* \"#utility.yul\":2483:2537   */\n      tag_254\n        /* \"#utility.yul\":2530:2536   */\n      dup5\n        /* \"#utility.yul\":2525:2528   */\n      dup3\n        /* \"#utility.yul\":2520:2523   */\n      dup6\n        /* \"#utility.yul\":2483:2537   */\n      tag_182\n      jump\t// in\n    tag_254:\n        /* \"#utility.yul\":2202:2543   */\n      pop\n        /* \"#utility.yul\":2118:2543   */\n      swap4\n      swap3\n      pop\n      pop\n      pop\n      jump\t// out\n        /* \"#utility.yul\":2563:2903   */\n    tag_184:\n        /* \"#utility.yul\":2619:2624   */\n      0x00\n        /* \"#utility.yul\":2668:2671   */\n      dup3\n        /* \"#utility.yul\":2661:2665   */\n      0x1f\n        /* \"#utility.yul\":2653:2659   */\n      dup4\n        /* \"#utility.yul\":2649:2666   */\n      add\n        /* \"#utility.yul\":2645:2672   */\n      slt\n        /* \"#utility.yul\":2635:2757   */\n      tag_256\n      jumpi\n        /* \"#utility.yul\":2676:2755   */\n      tag_257\n      tag_176\n      jump\t// in\n    tag_257:\n        /* \"#utility.yul\":2635:2757   */\n    tag_256:\n        /* \"#utility.yul\":2793:2799   */\n      dup2\n        /* \"#utility.yul\":2780:2800   */\n      calldataload\n        /* \"#utility.yul\":2818:2897   */\n      tag_258\n        /* \"#utility.yul\":2893:2896   */\n      dup5\n        /* \"#utility.yul\":2885:2891   */\n      dup3\n        /* \"#utility.yul\":2878:2882   */\n      0x20\n        /* \"#utility.yul\":2870:2876   */\n      dup7\n        /* \"#utility.yul\":2866:2883   */\n      add\n        /* \"#utility.yul\":2818:2897   */\n      tag_183\n      jump\t// in\n    tag_258:\n        /* \"#utility.yul\":2809:2897   */\n      swap2\n      pop\n        /* \"#utility.yul\":2625:2903   */\n      pop\n        /* \"#utility.yul\":2563:2903   */\n      swap3\n      swap2\n      pop\n      pop\n      jump\t// out\n        /* \"#utility.yul\":2909:2995   */\n    tag_185:\n        /* \"#utility.yul\":2944:2951   */\n      0x00\n        /* \"#utility.yul\":2984:2988   */\n      0xff\n        /* \"#utility.yul\":2977:2982   */\n      dup3\n        /* \"#utility.yul\":2973:2989   */\n      and\n        /* \"#utility.yul\":2962:2989   */\n      swap1\n      pop\n        /* \"#utility.yul\":2909:2995   */\n      swap2\n      swap1\n      pop\n      jump\t// out\n        /* \"#utility.yul\":3001:3119   */\n    tag_186:\n        /* \"#utility.yul\":3072:3094   */\n      tag_261\n        /* \"#utility.yul\":3088:3093   */\n      dup2\n        /* \"#utility.yul\":3072:3094   */\n      tag_185\n      jump\t// in\n    tag_261:\n        /* \"#utility.yul\":3065:3070   */\n      dup2\n        /* \"#utility.yul\":3062:3095   */\n      eq\n        /* \"#utility.yul\":3052:3113   */\n      tag_262\n      jumpi\n        /* \"#utility.yul\":3109:3110   */\n      0x00\n        /* \"#utility.yul\":3106:3107   */\n      dup1\n        /* \"#utility.yul\":3099:3111   */\n      revert\n        /* \"#utility.yul\":3052:3113   */\n    tag_262:\n        /* \"#utility.yul\":3001:3119   */\n      pop\n      jump\t// out\n        /* \"#utility.yul\":3125:3260   */\n    tag_187:\n        /* \"#utility.yul\":3169:3174   */\n      0x00\n        /* \"#utility.yul\":3207:3213   */\n      dup2\n        /* \"#utility.yul\":3194:3214   */\n      calldataload\n        /* \"#utility.yul\":3185:3214   */\n      swap1\n      pop\n        /* \"#utility.yul\":3223:3254   */\n      tag_264\n        /* \"#utility.yul\":3248:3253   */\n      dup2\n        /* \"#utility.yul\":3223:3254   */\n      tag_186\n      jump\t// in\n    tag_264:\n        /* \"#utility.yul\":3125:3260   */\n      swap3\n      swap2\n      pop\n      pop\n      jump\t// out\n        /* \"#utility.yul\":3266:4533   */\n    tag_11:\n        /* \"#utility.yul\":3379:3385   */\n      0x00\n        /* \"#utility.yul\":3387:3393   */\n      dup1\n        /* \"#utility.yul\":3395:3401   */\n      0x00\n        /* \"#utility.yul\":3403:3409   */\n      dup1\n        /* \"#utility.yul\":3411:3417   */\n      0x00\n        /* \"#utility.yul\":3460:3463   */\n      0xa0\n        /* \"#utility.yul\":3448:3457   */\n      dup7\n        /* \"#utility.yul\":3439:3446   */\n      dup9\n        /* \"#utility.yul\":3435:3458   */\n      sub\n        /* \"#utility.yul\":3431:3464   */\n      slt\n        /* \"#utility.yul\":3428:3548   */\n      iszero\n      tag_266\n      jumpi\n        /* \"#utility.yul\":3467:3546   */\n      tag_267\n      tag_171\n      jump\t// in\n    tag_267:\n        /* \"#utility.yul\":3428:3548   */\n    tag_266:\n        /* \"#utility.yul\":3587:3588   */\n      0x00\n        /* \"#utility.yul\":3612:3665   */\n      tag_268\n        /* \"#utility.yul\":3657:3664   */\n      dup9\n        /* \"#utility.yul\":3648:3654   */\n      dup3\n        /* \"#utility.yul\":3637:3646   */\n      dup10\n        /* \"#utility.yul\":3633:3655   */\n      add\n        /* \"#utility.yul\":3612:3665   */\n      tag_175\n      jump\t// in\n    tag_268:\n        /* \"#utility.yul\":3602:3665   */\n      swap6\n      pop\n        /* \"#utility.yul\":3558:3675   */\n      pop\n        /* \"#utility.yul\":3742:3744   */\n      0x20\n        /* \"#utility.yul\":3731:3740   */\n      dup7\n        /* \"#utility.yul\":3727:3745   */\n      add\n        /* \"#utility.yul\":3714:3746   */\n      calldataload\n        /* \"#utility.yul\":3773:3791   */\n      0xffffffffffffffff\n        /* \"#utility.yul\":3765:3771   */\n      dup2\n        /* \"#utility.yul\":3762:3792   */\n      gt\n        /* \"#utility.yul\":3759:3876   */\n      iszero\n      tag_269\n      jumpi\n        /* \"#utility.yul\":3795:3874   */\n      tag_270\n      tag_172\n      jump\t// in\n    tag_270:\n        /* \"#utility.yul\":3759:3876   */\n    tag_269:\n        /* \"#utility.yul\":3900:3963   */\n      tag_271\n        /* \"#utility.yul\":3955:3962   */\n      dup9\n        /* \"#utility.yul\":3946:3952   */\n      dup3\n        /* \"#utility.yul\":3935:3944   */\n      dup10\n        /* \"#utility.yul\":3931:3953   */\n      add\n        /* \"#utility.yul\":3900:3963   */\n      tag_184\n      jump\t// in\n    tag_271:\n        /* \"#utility.yul\":3890:3963   */\n      swap5\n      pop\n        /* \"#utility.yul\":3685:3973   */\n      pop\n        /* \"#utility.yul\":4012:4014   */\n      0x40\n        /* \"#utility.yul\":4038:4091   */\n      tag_272\n        /* \"#utility.yul\":4083:4090   */\n      dup9\n        /* \"#utility.yul\":4074:4080   */\n      dup3\n        /* \"#utility.yul\":4063:4072   */\n      dup10\n        /* \"#utility.yul\":4059:4081   */\n      add\n        /* \"#utility.yul\":4038:4091   */\n      tag_175\n      jump\t// in\n    tag_272:\n        /* \"#utility.yul\":4028:4091   */\n      swap4\n      pop\n        /* \"#utility.yul\":3983:4101   */\n      pop\n        /* \"#utility.yul\":4168:4170   */\n      0x60\n        /* \"#utility.yul\":4157:4166   */\n      dup7\n        /* \"#utility.yul\":4153:4171   */\n      add\n        /* \"#utility.yul\":4140:4172   */\n      calldataload\n        /* \"#utility.yul\":4199:4217   */\n      0xffffffffffffffff\n        /* \"#utility.yul\":4191:4197   */\n      dup2\n        /* \"#utility.yul\":4188:4218   */\n      gt\n        /* \"#utility.yul\":4185:4302   */\n      iszero\n      tag_273\n      jumpi\n        /* \"#utility.yul\":4221:4300   */\n      tag_274\n      tag_172\n      jump\t// in\n    tag_274:\n        /* \"#utility.yul\":4185:4302   */\n    tag_273:\n        /* \"#utility.yul\":4326:4389   */\n      tag_275\n        /* \"#utility.yul\":4381:4388   */\n      dup9\n        /* \"#utility.yul\":4372:4378   */\n      dup3\n        /* \"#utility.yul\":4361:4370   */\n      dup10\n        /* \"#utility.yul\":4357:4379   */\n      add\n        /* \"#utility.yul\":4326:4389   */\n      tag_184\n      jump\t// in\n    tag_275:\n        /* \"#utility.yul\":4316:4389   */\n      swap3\n      pop\n        /* \"#utility.yul\":4111:4399   */\n      pop\n        /* \"#utility.yul\":4438:4441   */\n      0x80\n        /* \"#utility.yul\":4465:4516   */\n      tag_276\n        /* \"#utility.yul\":4508:4515   */\n      dup9\n        /* \"#utility.yul\":4499:4505   */\n      dup3\n        /* \"#utility.yul\":4488:4497   */\n      dup10\n        /* \"#utility.yul\":4484:4506   */\n      add\n        /* \"#utility.yul\":4465:4516   */\n      tag_187\n      jump\t// in\n    tag_276:\n        /* \"#utility.yul\":4455:4516   */\n      swap2\n      pop\n        /* \"#utility.yul\":4409:4526   */\n      pop\n        /* \"#utility.yul\":3266:4533   */\n      swap3\n      swap6\n      pop\n      swap3\n      swap6\n      swap1\n      swap4\n      pop\n      jump\t// out\n        /* \"#utility.yul\":4539:4868   */\n    tag_15:\n        /* \"#utility.yul\":4598:4604   */\n      0x00\n        /* \"#utility.yul\":4647:4649   */\n      0x20\n        /* \"#utility.yul\":4635:4644   */\n      dup3\n        /* \"#utility.yul\":4626:4633   */\n      dup5\n        /* \"#utility.yul\":4622:4645   */\n      sub\n        /* \"#utility.yul\":4618:4650   */\n      slt\n        /* \"#utility.yul\":4615:4734   */\n      iszero\n      tag_278\n      jumpi\n        /* \"#utility.yul\":4653:4732   */\n      tag_279\n      tag_171\n      jump\t// in\n    tag_279:\n        /* \"#utility.yul\":4615:4734   */\n    tag_278:\n        /* \"#utility.yul\":4773:4774   */\n      0x00\n        /* \"#utility.yul\":4798:4851   */\n      tag_280\n        /* \"#utility.yul\":4843:4850   */\n      dup5\n        /* \"#utility.yul\":4834:4840   */\n      dup3\n        /* \"#utility.yul\":4823:4832   */\n      dup6\n        /* \"#utility.yul\":4819:4841   */\n      add\n        /* \"#utility.yul\":4798:4851   */\n      tag_175\n      jump\t// in\n    tag_280:\n        /* \"#utility.yul\":4788:4851   */\n      swap2\n      pop\n        /* \"#utility.yul\":4744:4861   */\n      pop\n        /* \"#utility.yul\":4539:4868   */\n      swap3\n      swap2\n      pop\n      pop\n      jump\t// out\n        /* \"#utility.yul\":4874:4973   */\n    tag_188:\n        /* \"#utility.yul\":4926:4932   */\n      0x00\n        /* \"#utility.yul\":4960:4965   */\n      dup2\n        /* \"#utility.yul\":4954:4966   */\n      mload\n        /* \"#utility.yul\":4944:4966   */\n      swap1\n      pop\n        /* \"#utility.yul\":4874:4973   */\n      swap2\n      swap1\n      pop\n      jump\t// out\n        /* \"#utility.yul\":4979:5138   */\n    tag_189:\n        /* \"#utility.yul\":5053:5064   */\n      0x00\n        /* \"#utility.yul\":5087:5093   */\n      dup3\n        /* \"#utility.yul\":5082:5085   */\n      dup3\n        /* \"#utility.yul\":5075:5094   */\n      mstore\n        /* \"#utility.yul\":5127:5131   */\n      0x20\n        /* \"#utility.yul\":5122:5125   */\n      dup3\n        /* \"#utility.yul\":5118:5132   */\n      add\n        /* \"#utility.yul\":5103:5132   */\n      swap1\n      pop\n        /* \"#utility.yul\":4979:5138   */\n      swap3\n      swap2\n      pop\n      pop\n      jump\t// out\n        /* \"#utility.yul\":5144:5390   */\n    tag_190:\n        /* \"#utility.yul\":5225:5226   */\n      0x00\n        /* \"#utility.yul\":5235:5348   */\n    tag_284:\n        /* \"#utility.yul\":5249:5255   */\n      dup4\n        /* \"#utility.yul\":5246:5247   */\n      dup2\n        /* \"#utility.yul\":5243:5256   */\n      lt\n        /* \"#utility.yul\":5235:5348   */\n      iszero\n      tag_286\n      jumpi\n        /* \"#utility.yul\":5334:5335   */\n      dup1\n        /* \"#utility.yul\":5329:5332   */\n      dup3\n        /* \"#utility.yul\":5325:5336   */\n      add\n        /* \"#utility.yul\":5319:5337   */\n      mload\n        /* \"#utility.yul\":5315:5316   */\n      dup2\n        /* \"#utility.yul\":5310:5313   */\n      dup5\n        /* \"#utility.yul\":5306:5317   */\n      add\n        /* \"#utility.yul\":5299:5338   */\n      mstore\n        /* \"#utility.yul\":5271:5273   */\n      0x20\n        /* \"#utility.yul\":5268:5269   */\n      dup2\n        /* \"#utility.yul\":5264:5274   */\n      add\n        /* \"#utility.yul\":5259:5274   */\n      swap1\n      pop\n        /* \"#utility.yul\":5235:5348   */\n      jump(tag_284)\n    tag_286:\n        /* \"#utility.yul\":5382:5383   */\n      0x00\n        /* \"#utility.yul\":5373:5379   */\n      dup5\n        /* \"#utility.yul\":5368:5371   */\n      dup5\n        /* \"#utility.yul\":5364:5380   */\n      add\n        /* \"#utility.yul\":5357:5384   */\n      mstore\n        /* \"#utility.yul\":5206:5390   */\n      pop\n        /* \"#utility.yul\":5144:5390   */\n      pop\n      pop\n      pop\n      jump\t// out\n        /* \"#utility.yul\":5396:5753   */\n    tag_191:\n        /* \"#utility.yul\":5474:5477   */\n      0x00\n        /* \"#utility.yul\":5502:5541   */\n      tag_288\n        /* \"#utility.yul\":5535:5540   */\n      dup3\n        /* \"#utility.yul\":5502:5541   */\n      tag_188\n      jump\t// in\n    tag_288:\n        /* \"#utility.yul\":5557:5618   */\n      tag_289\n        /* \"#utility.yul\":5611:5617   */\n      dup2\n        /* \"#utility.yul\":5606:5609   */\n      dup6\n        /* \"#utility.yul\":5557:5618   */\n      tag_189\n      jump\t// in\n    tag_289:\n        /* \"#utility.yul\":5550:5618   */\n      swap4\n      pop\n        /* \"#utility.yul\":5627:5692   */\n      tag_290\n        /* \"#utility.yul\":5685:5691   */\n      dup2\n        /* \"#utility.yul\":5680:5683   */\n      dup6\n        /* \"#utility.yul\":5673:5677   */\n      0x20\n        /* \"#utility.yul\":5666:5671   */\n      dup7\n        /* \"#utility.yul\":5662:5678   */\n      add\n        /* \"#utility.yul\":5627:5692   */\n      tag_190\n      jump\t// in\n    tag_290:\n        /* \"#utility.yul\":5717:5746   */\n      tag_291\n        /* \"#utility.yul\":5739:5745   */\n      dup2\n        /* \"#utility.yul\":5717:5746   */\n      tag_178\n      jump\t// in\n    tag_291:\n        /* \"#utility.yul\":5712:5715   */\n      dup5\n        /* \"#utility.yul\":5708:5747   */\n      add\n        /* \"#utility.yul\":5701:5747   */\n      swap2\n      pop\n        /* \"#utility.yul\":5478:5753   */\n      pop\n        /* \"#utility.yul\":5396:5753   */\n      swap3\n      swap2\n      pop\n      pop\n      jump\t// out\n        /* \"#utility.yul\":5759:5867   */\n    tag_192:\n        /* \"#utility.yul\":5836:5860   */\n      tag_293\n        /* \"#utility.yul\":5854:5859   */\n      dup2\n        /* \"#utility.yul\":5836:5860   */\n      tag_173\n      jump\t// in\n    tag_293:\n        /* \"#utility.yul\":5831:5834   */\n      dup3\n        /* \"#utility.yul\":5824:5861   */\n      mstore\n        /* \"#utility.yul\":5759:5867   */\n      pop\n      pop\n      jump\t// out\n        /* \"#utility.yul\":5873:5975   */\n    tag_193:\n        /* \"#utility.yul\":5946:5968   */\n      tag_295\n        /* \"#utility.yul\":5962:5967   */\n      dup2\n        /* \"#utility.yul\":5946:5968   */\n      tag_185\n      jump\t// in\n    tag_295:\n        /* \"#utility.yul\":5941:5944   */\n      dup3\n        /* \"#utility.yul\":5934:5969   */\n      mstore\n        /* \"#utility.yul\":5873:5975   */\n      pop\n      pop\n      jump\t// out\n        /* \"#utility.yul\":6041:7058   */\n    tag_194:\n        /* \"#utility.yul\":6160:6163   */\n      0x00\n        /* \"#utility.yul\":6196:6200   */\n      0x80\n        /* \"#utility.yul\":6191:6194   */\n      dup4\n        /* \"#utility.yul\":6187:6201   */\n      add\n        /* \"#utility.yul\":6283:6287   */\n      0x00\n        /* \"#utility.yul\":6276:6281   */\n      dup4\n        /* \"#utility.yul\":6272:6288   */\n      add\n        /* \"#utility.yul\":6266:6289   */\n      mload\n        /* \"#utility.yul\":6336:6339   */\n      dup5\n        /* \"#utility.yul\":6330:6334   */\n      dup3\n        /* \"#utility.yul\":6326:6340   */\n      sub\n        /* \"#utility.yul\":6319:6323   */\n      0x00\n        /* \"#utility.yul\":6314:6317   */\n      dup7\n        /* \"#utility.yul\":6310:6324   */\n      add\n        /* \"#utility.yul\":6303:6341   */\n      mstore\n        /* \"#utility.yul\":6362:6435   */\n      tag_297\n        /* \"#utility.yul\":6430:6434   */\n      dup3\n        /* \"#utility.yul\":6416:6428   */\n      dup3\n        /* \"#utility.yul\":6362:6435   */\n      tag_191\n      jump\t// in\n    tag_297:\n        /* \"#utility.yul\":6354:6435   */\n      swap2\n      pop\n        /* \"#utility.yul\":6211:6446   */\n      pop\n        /* \"#utility.yul\":6527:6531   */\n      0x20\n        /* \"#utility.yul\":6520:6525   */\n      dup4\n        /* \"#utility.yul\":6516:6532   */\n      add\n        /* \"#utility.yul\":6510:6533   */\n      mload\n        /* \"#utility.yul\":6546:6609   */\n      tag_298\n        /* \"#utility.yul\":6603:6607   */\n      0x20\n        /* \"#utility.yul\":6598:6601   */\n      dup7\n        /* \"#utility.yul\":6594:6608   */\n      add\n        /* \"#utility.yul\":6580:6592   */\n      dup3\n        /* \"#utility.yul\":6546:6609   */\n      tag_192\n      jump\t// in\n    tag_298:\n        /* \"#utility.yul\":6456:6619   */\n      pop\n        /* \"#utility.yul\":6699:6703   */\n      0x40\n        /* \"#utility.yul\":6692:6697   */\n      dup4\n        /* \"#utility.yul\":6688:6704   */\n      add\n        /* \"#utility.yul\":6682:6705   */\n      mload\n        /* \"#utility.yul\":6752:6755   */\n      dup5\n        /* \"#utility.yul\":6746:6750   */\n      dup3\n        /* \"#utility.yul\":6742:6756   */\n      sub\n        /* \"#utility.yul\":6735:6739   */\n      0x40\n        /* \"#utility.yul\":6730:6733   */\n      dup7\n        /* \"#utility.yul\":6726:6740   */\n      add\n        /* \"#utility.yul\":6719:6757   */\n      mstore\n        /* \"#utility.yul\":6778:6851   */\n      tag_299\n        /* \"#utility.yul\":6846:6850   */\n      dup3\n        /* \"#utility.yul\":6832:6844   */\n      dup3\n        /* \"#utility.yul\":6778:6851   */\n      tag_191\n      jump\t// in\n    tag_299:\n        /* \"#utility.yul\":6770:6851   */\n      swap2\n      pop\n        /* \"#utility.yul\":6629:6862   */\n      pop\n        /* \"#utility.yul\":6943:6947   */\n      0x60\n        /* \"#utility.yul\":6936:6941   */\n      dup4\n        /* \"#utility.yul\":6932:6948   */\n      add\n        /* \"#utility.yul\":6926:6949   */\n      mload\n        /* \"#utility.yul\":6962:7021   */\n      tag_300\n        /* \"#utility.yul\":7015:7019   */\n      0x60\n        /* \"#utility.yul\":7010:7013   */\n      dup7\n        /* \"#utility.yul\":7006:7020   */\n      add\n        /* \"#utility.yul\":6992:7004   */\n      dup3\n        /* \"#utility.yul\":6962:7021   */\n      tag_193\n      jump\t// in\n    tag_300:\n        /* \"#utility.yul\":6872:7031   */\n      pop\n        /* \"#utility.yul\":7048:7052   */\n      dup1\n        /* \"#utility.yul\":7041:7052   */\n      swap2\n      pop\n        /* \"#utility.yul\":6165:7058   */\n      pop\n        /* \"#utility.yul\":6041:7058   */\n      swap3\n      swap2\n      pop\n      pop\n      jump\t// out\n        /* \"#utility.yul\":7064:7437   */\n    tag_18:\n        /* \"#utility.yul\":7207:7211   */\n      0x00\n        /* \"#utility.yul\":7245:7247   */\n      0x20\n        /* \"#utility.yul\":7234:7243   */\n      dup3\n        /* \"#utility.yul\":7230:7248   */\n      add\n        /* \"#utility.yul\":7222:7248   */\n      swap1\n      pop\n        /* \"#utility.yul\":7294:7303   */\n      dup2\n        /* \"#utility.yul\":7288:7292   */\n      dup2\n        /* \"#utility.yul\":7284:7304   */\n      sub\n        /* \"#utility.yul\":7280:7281   */\n      0x00\n        /* \"#utility.yul\":7269:7278   */\n      dup4\n        /* \"#utility.yul\":7265:7282   */\n      add\n        /* \"#utility.yul\":7258:7305   */\n      mstore\n        /* \"#utility.yul\":7322:7430   */\n      tag_302\n        /* \"#utility.yul\":7425:7429   */\n      dup2\n        /* \"#utility.yul\":7416:7422   */\n      dup5\n        /* \"#utility.yul\":7322:7430   */\n      tag_194\n      jump\t// in\n    tag_302:\n        /* \"#utility.yul\":7314:7430   */\n      swap1\n      pop\n        /* \"#utility.yul\":7064:7437   */\n      swap3\n      swap2\n      pop\n      pop\n      jump\t// out\n        /* \"#utility.yul\":7443:7612   */\n    tag_195:\n        /* \"#utility.yul\":7527:7538   */\n      0x00\n        /* \"#utility.yul\":7561:7567   */\n      dup3\n        /* \"#utility.yul\":7556:7559   */\n      dup3\n        /* \"#utility.yul\":7549:7568   */\n      mstore\n        /* \"#utility.yul\":7601:7605   */\n      0x20\n        /* \"#utility.yul\":7596:7599   */\n      dup3\n        /* \"#utility.yul\":7592:7606   */\n      add\n        /* \"#utility.yul\":7577:7606   */\n      swap1\n      pop\n        /* \"#utility.yul\":7443:7612   */\n      swap3\n      swap2\n      pop\n      pop\n      jump\t// out\n        /* \"#utility.yul\":7618:7995   */\n    tag_196:\n        /* \"#utility.yul\":7706:7709   */\n      0x00\n        /* \"#utility.yul\":7734:7773   */\n      tag_305\n        /* \"#utility.yul\":7767:7772   */\n      dup3\n        /* \"#utility.yul\":7734:7773   */\n      tag_188\n      jump\t// in\n    tag_305:\n        /* \"#utility.yul\":7789:7860   */\n      tag_306\n        /* \"#utility.yul\":7853:7859   */\n      dup2\n        /* \"#utility.yul\":7848:7851   */\n      dup6\n        /* \"#utility.yul\":7789:7860   */\n      tag_195\n      jump\t// in\n    tag_306:\n        /* \"#utility.yul\":7782:7860   */\n      swap4\n      pop\n        /* \"#utility.yul\":7869:7934   */\n      tag_307\n        /* \"#utility.yul\":7927:7933   */\n      dup2\n        /* \"#utility.yul\":7922:7925   */\n      dup6\n        /* \"#utility.yul\":7915:7919   */\n      0x20\n        /* \"#utility.yul\":7908:7913   */\n      dup7\n        /* \"#utility.yul\":7904:7920   */\n      add\n        /* \"#utility.yul\":7869:7934   */\n      tag_190\n      jump\t// in\n    tag_307:\n        /* \"#utility.yul\":7959:7988   */\n      tag_308\n        /* \"#utility.yul\":7981:7987   */\n      dup2\n        /* \"#utility.yul\":7959:7988   */\n      tag_178\n      jump\t// in\n    tag_308:\n        /* \"#utility.yul\":7954:7957   */\n      dup5\n        /* \"#utility.yul\":7950:7989   */\n      add\n        /* \"#utility.yul\":7943:7989   */\n      swap2\n      pop\n        /* \"#utility.yul\":7710:7995   */\n      pop\n        /* \"#utility.yul\":7618:7995   */\n      swap3\n      swap2\n      pop\n      pop\n      jump\t// out\n        /* \"#utility.yul\":8001:8119   */\n    tag_197:\n        /* \"#utility.yul\":8088:8112   */\n      tag_310\n        /* \"#utility.yul\":8106:8111   */\n      dup2\n        /* \"#utility.yul\":8088:8112   */\n      tag_173\n      jump\t// in\n    tag_310:\n        /* \"#utility.yul\":8083:8086   */\n      dup3\n        /* \"#utility.yul\":8076:8113   */\n      mstore\n        /* \"#utility.yul\":8001:8119   */\n      pop\n      pop\n      jump\t// out\n        /* \"#utility.yul\":8125:8237   */\n    tag_198:\n        /* \"#utility.yul\":8208:8230   */\n      tag_312\n        /* \"#utility.yul\":8224:8229   */\n      dup2\n        /* \"#utility.yul\":8208:8230   */\n      tag_185\n      jump\t// in\n    tag_312:\n        /* \"#utility.yul\":8203:8206   */\n      dup3\n        /* \"#utility.yul\":8196:8231   */\n      mstore\n        /* \"#utility.yul\":8125:8237   */\n      pop\n      pop\n      jump\t// out\n        /* \"#utility.yul\":8243:8970   */\n    tag_26:\n        /* \"#utility.yul\":8456:8460   */\n      0x00\n        /* \"#utility.yul\":8494:8497   */\n      0x80\n        /* \"#utility.yul\":8483:8492   */\n      dup3\n        /* \"#utility.yul\":8479:8498   */\n      add\n        /* \"#utility.yul\":8471:8498   */\n      swap1\n      pop\n        /* \"#utility.yul\":8544:8553   */\n      dup2\n        /* \"#utility.yul\":8538:8542   */\n      dup2\n        /* \"#utility.yul\":8534:8554   */\n      sub\n        /* \"#utility.yul\":8530:8531   */\n      0x00\n        /* \"#utility.yul\":8519:8528   */\n      dup4\n        /* \"#utility.yul\":8515:8532   */\n      add\n        /* \"#utility.yul\":8508:8555   */\n      mstore\n        /* \"#utility.yul\":8572:8650   */\n      tag_314\n        /* \"#utility.yul\":8645:8649   */\n      dup2\n        /* \"#utility.yul\":8636:8642   */\n      dup8\n        /* \"#utility.yul\":8572:8650   */\n      tag_196\n      jump\t// in\n    tag_314:\n        /* \"#utility.yul\":8564:8650   */\n      swap1\n      pop\n        /* \"#utility.yul\":8660:8732   */\n      tag_315\n        /* \"#utility.yul\":8728:8730   */\n      0x20\n        /* \"#utility.yul\":8717:8726   */\n      dup4\n        /* \"#utility.yul\":8713:8731   */\n      add\n        /* \"#utility.yul\":8704:8710   */\n      dup7\n        /* \"#utility.yul\":8660:8732   */\n      tag_197\n      jump\t// in\n    tag_315:\n        /* \"#utility.yul\":8779:8788   */\n      dup2\n        /* \"#utility.yul\":8773:8777   */\n      dup2\n        /* \"#utility.yul\":8769:8789   */\n      sub\n        /* \"#utility.yul\":8764:8766   */\n      0x40\n        /* \"#utility.yul\":8753:8762   */\n      dup4\n        /* \"#utility.yul\":8749:8767   */\n      add\n        /* \"#utility.yul\":8742:8790   */\n      mstore\n        /* \"#utility.yul\":8807:8885   */\n      tag_316\n        /* \"#utility.yul\":8880:8884   */\n      dup2\n        /* \"#utility.yul\":8871:8877   */\n      dup6\n        /* \"#utility.yul\":8807:8885   */\n      tag_196\n      jump\t// in\n    tag_316:\n        /* \"#utility.yul\":8799:8885   */\n      swap1\n      pop\n        /* \"#utility.yul\":8895:8963   */\n      tag_317\n        /* \"#utility.yul\":8959:8961   */\n      0x60\n        /* \"#utility.yul\":8948:8957   */\n      dup4\n        /* \"#utility.yul\":8944:8962   */\n      add\n        /* \"#utility.yul\":8935:8941   */\n      dup5\n        /* \"#utility.yul\":8895:8963   */\n      tag_198\n      jump\t// in\n    tag_317:\n        /* \"#utility.yul\":8243:8970   */\n      swap6\n      swap5\n      pop\n      pop\n      pop\n      pop\n      pop\n      jump\t// out\n        /* \"#utility.yul\":8976:10097   */\n    tag_29:\n        /* \"#utility.yul\":9080:9086   */\n      0x00\n        /* \"#utility.yul\":9088:9094   */\n      dup1\n        /* \"#utility.yul\":9096:9102   */\n      0x00\n        /* \"#utility.yul\":9104:9110   */\n      dup1\n        /* \"#utility.yul\":9153:9156   */\n      0x80\n        /* \"#utility.yul\":9141:9150   */\n      dup6\n        /* \"#utility.yul\":9132:9139   */\n      dup8\n        /* \"#utility.yul\":9128:9151   */\n      sub\n        /* \"#utility.yul\":9124:9157   */\n      slt\n        /* \"#utility.yul\":9121:9241   */\n      iszero\n      tag_319\n      jumpi\n        /* \"#utility.yul\":9160:9239   */\n      tag_320\n      tag_171\n      jump\t// in\n    tag_320:\n        /* \"#utility.yul\":9121:9241   */\n    tag_319:\n        /* \"#utility.yul\":9308:9309   */\n      0x00\n        /* \"#utility.yul\":9297:9306   */\n      dup6\n        /* \"#utility.yul\":9293:9310   */\n      add\n        /* \"#utility.yul\":9280:9311   */\n      calldataload\n        /* \"#utility.yul\":9338:9356   */\n      0xffffffffffffffff\n        /* \"#utility.yul\":9330:9336   */\n      dup2\n        /* \"#utility.yul\":9327:9357   */\n      gt\n        /* \"#utility.yul\":9324:9441   */\n      iszero\n      tag_321\n      jumpi\n        /* \"#utility.yul\":9360:9439   */\n      tag_322\n      tag_172\n      jump\t// in\n    tag_322:\n        /* \"#utility.yul\":9324:9441   */\n    tag_321:\n        /* \"#utility.yul\":9465:9528   */\n      tag_323\n        /* \"#utility.yul\":9520:9527   */\n      dup8\n        /* \"#utility.yul\":9511:9517   */\n      dup3\n        /* \"#utility.yul\":9500:9509   */\n      dup9\n        /* \"#utility.yul\":9496:9518   */\n      add\n        /* \"#utility.yul\":9465:9528   */\n      tag_184\n      jump\t// in\n    tag_323:\n        /* \"#utility.yul\":9455:9528   */\n      swap5\n      pop\n        /* \"#utility.yul\":9251:9538   */\n      pop\n        /* \"#utility.yul\":9577:9579   */\n      0x20\n        /* \"#utility.yul\":9603:9656   */\n      tag_324\n        /* \"#utility.yul\":9648:9655   */\n      dup8\n        /* \"#utility.yul\":9639:9645   */\n      dup3\n        /* \"#utility.yul\":9628:9637   */\n      dup9\n        /* \"#utility.yul\":9624:9646   */\n      add\n        /* \"#utility.yul\":9603:9656   */\n      tag_175\n      jump\t// in\n    tag_324:\n        /* \"#utility.yul\":9593:9656   */\n      swap4\n      pop\n        /* \"#utility.yul\":9548:9666   */\n      pop\n        /* \"#utility.yul\":9733:9735   */\n      0x40\n        /* \"#utility.yul\":9722:9731   */\n      dup6\n        /* \"#utility.yul\":9718:9736   */\n      add\n        /* \"#utility.yul\":9705:9737   */\n      calldataload\n        /* \"#utility.yul\":9764:9782   */\n      0xffffffffffffffff\n        /* \"#utility.yul\":9756:9762   */\n      dup2\n        /* \"#utility.yul\":9753:9783   */\n      gt\n        /* \"#utility.yul\":9750:9867   */\n      iszero\n      tag_325\n      jumpi\n        /* \"#utility.yul\":9786:9865   */\n      tag_326\n      tag_172\n      jump\t// in\n    tag_326:\n        /* \"#utility.yul\":9750:9867   */\n    tag_325:\n        /* \"#utility.yul\":9891:9954   */\n      tag_327\n        /* \"#utility.yul\":9946:9953   */\n      dup8\n        /* \"#utility.yul\":9937:9943   */\n      dup3\n        /* \"#utility.yul\":9926:9935   */\n      dup9\n        /* \"#utility.yul\":9922:9944   */\n      add\n        /* \"#utility.yul\":9891:9954   */\n      tag_184\n      jump\t// in\n    tag_327:\n        /* \"#utility.yul\":9881:9954   */\n      swap3\n      pop\n        /* \"#utility.yul\":9676:9964   */\n      pop\n        /* \"#utility.yul\":10003:10005   */\n      0x60\n        /* \"#utility.yul\":10029:10080   */\n      tag_328\n        /* \"#utility.yul\":10072:10079   */\n      dup8\n        /* \"#utility.yul\":10063:10069   */\n      dup3\n        /* \"#utility.yul\":10052:10061   */\n      dup9\n        /* \"#utility.yul\":10048:10070   */\n      add\n        /* \"#utility.yul\":10029:10080   */\n      tag_187\n      jump\t// in\n    tag_328:\n        /* \"#utility.yul\":10019:10080   */\n      swap2\n      pop\n        /* \"#utility.yul\":9974:10090   */\n      pop\n        /* \"#utility.yul\":8976:10097   */\n      swap3\n      swap6\n      swap2\n      swap5\n      pop\n      swap3\n      pop\n      jump\t// out\n        /* \"#utility.yul\":10103:10518   */\n    tag_34:\n        /* \"#utility.yul\":10240:10244   */\n      0x00\n        /* \"#utility.yul\":10278:10280   */\n      0x40\n        /* \"#utility.yul\":10267:10276   */\n      dup3\n        /* \"#utility.yul\":10263:10281   */\n      add\n        /* \"#utility.yul\":10255:10281   */\n      swap1\n      pop\n        /* \"#utility.yul\":10291:10358   */\n      tag_330\n        /* \"#utility.yul\":10355:10356   */\n      0x00\n        /* \"#utility.yul\":10344:10353   */\n      dup4\n        /* \"#utility.yul\":10340:10357   */\n      add\n        /* \"#utility.yul\":10331:10337   */\n      dup6\n        /* \"#utility.yul\":10291:10358   */\n      tag_198\n      jump\t// in\n    tag_330:\n        /* \"#utility.yul\":10405:10414   */\n      dup2\n        /* \"#utility.yul\":10399:10403   */\n      dup2\n        /* \"#utility.yul\":10395:10415   */\n      sub\n        /* \"#utility.yul\":10390:10392   */\n      0x20\n        /* \"#utility.yul\":10379:10388   */\n      dup4\n        /* \"#utility.yul\":10375:10393   */\n      add\n        /* \"#utility.yul\":10368:10416   */\n      mstore\n        /* \"#utility.yul\":10433:10511   */\n      tag_331\n        /* \"#utility.yul\":10506:10510   */\n      dup2\n        /* \"#utility.yul\":10497:10503   */\n      dup5\n        /* \"#utility.yul\":10433:10511   */\n      tag_196\n      jump\t// in\n    tag_331:\n        /* \"#utility.yul\":10425:10511   */\n      swap1\n      pop\n        /* \"#utility.yul\":10103:10518   */\n      swap4\n      swap3\n      pop\n      pop\n      pop\n      jump\t// out\n        /* \"#utility.yul\":10524:10687   */\n    tag_199:\n        /* \"#utility.yul\":10664:10679   */\n      0x496e76616c696420696e64657800000000000000000000000000000000000000\n        /* \"#utility.yul\":10660:10661   */\n      0x00\n        /* \"#utility.yul\":10652:10658   */\n      dup3\n        /* \"#utility.yul\":10648:10662   */\n      add\n        /* \"#utility.yul\":10641:10680   */\n      mstore\n        /* \"#utility.yul\":10524:10687   */\n      pop\n      jump\t// out\n        /* \"#utility.yul\":10693:11059   */\n    tag_200:\n        /* \"#utility.yul\":10835:10838   */\n      0x00\n        /* \"#utility.yul\":10856:10923   */\n      tag_334\n        /* \"#utility.yul\":10920:10922   */\n      0x0d\n        /* \"#utility.yul\":10915:10918   */\n      dup4\n        /* \"#utility.yul\":10856:10923   */\n      tag_195\n      jump\t// in\n    tag_334:\n        /* \"#utility.yul\":10849:10923   */\n      swap2\n      pop\n        /* \"#utility.yul\":10932:11025   */\n      tag_335\n        /* \"#utility.yul\":11021:11024   */\n      dup3\n        /* \"#utility.yul\":10932:11025   */\n      tag_199\n      jump\t// in\n    tag_335:\n        /* \"#utility.yul\":11050:11052   */\n      0x20\n        /* \"#utility.yul\":11045:11048   */\n      dup3\n        /* \"#utility.yul\":11041:11053   */\n      add\n        /* \"#utility.yul\":11034:11053   */\n      swap1\n      pop\n        /* \"#utility.yul\":10693:11059   */\n      swap2\n      swap1\n      pop\n      jump\t// out\n        /* \"#utility.yul\":11065:11484   */\n    tag_38:\n        /* \"#utility.yul\":11231:11235   */\n      0x00\n        /* \"#utility.yul\":11269:11271   */\n      0x20\n        /* \"#utility.yul\":11258:11267   */\n      dup3\n        /* \"#utility.yul\":11254:11272   */\n      add\n        /* \"#utility.yul\":11246:11272   */\n      swap1\n      pop\n        /* \"#utility.yul\":11318:11327   */\n      dup2\n        /* \"#utility.yul\":11312:11316   */\n      dup2\n        /* \"#utility.yul\":11308:11328   */\n      sub\n        /* \"#utility.yul\":11304:11305   */\n      0x00\n        /* \"#utility.yul\":11293:11302   */\n      dup4\n        /* \"#utility.yul\":11289:11306   */\n      add\n        /* \"#utility.yul\":11282:11329   */\n      mstore\n        /* \"#utility.yul\":11346:11477   */\n      tag_337\n        /* \"#utility.yul\":11472:11476   */\n      dup2\n        /* \"#utility.yul\":11346:11477   */\n      tag_200\n      jump\t// in\n    tag_337:\n        /* \"#utility.yul\":11338:11477   */\n      swap1\n      pop\n        /* \"#utility.yul\":11065:11484   */\n      swap2\n      swap1\n      pop\n      jump\t// out\n        /* \"#utility.yul\":11490:11670   */\n    tag_41:\n        /* \"#utility.yul\":11538:11615   */\n      0x4e487b7100000000000000000000000000000000000000000000000000000000\n        /* \"#utility.yul\":11535:11536   */\n      0x00\n        /* \"#utility.yul\":11528:11616   */\n      mstore\n        /* \"#utility.yul\":11635:11639   */\n      0x32\n        /* \"#utility.yul\":11632:11633   */\n      0x04\n        /* \"#utility.yul\":11625:11640   */\n      mstore\n        /* \"#utility.yul\":11659:11663   */\n      0x24\n        /* \"#utility.yul\":11656:11657   */\n      0x00\n        /* \"#utility.yul\":11649:11664   */\n      revert\n        /* \"#utility.yul\":11676:11856   */\n    tag_201:\n        /* \"#utility.yul\":11724:11801   */\n      0x4e487b7100000000000000000000000000000000000000000000000000000000\n        /* \"#utility.yul\":11721:11722   */\n      0x00\n        /* \"#utility.yul\":11714:11802   */\n      mstore\n        /* \"#utility.yul\":11821:11825   */\n      0x22\n        /* \"#utility.yul\":11818:11819   */\n      0x04\n        /* \"#utility.yul\":11811:11826   */\n      mstore\n        /* \"#utility.yul\":11845:11849   */\n      0x24\n        /* \"#utility.yul\":11842:11843   */\n      0x00\n        /* \"#utility.yul\":11835:11850   */\n      revert\n        /* \"#utility.yul\":11862:12182   */\n    tag_55:\n        /* \"#utility.yul\":11906:11912   */\n      0x00\n        /* \"#utility.yul\":11943:11944   */\n      0x02\n        /* \"#utility.yul\":11937:11941   */\n      dup3\n        /* \"#utility.yul\":11933:11945   */\n      div\n        /* \"#utility.yul\":11923:11945   */\n      swap1\n      pop\n        /* \"#utility.yul\":11990:11991   */\n      0x01\n        /* \"#utility.yul\":11984:11988   */\n      dup3\n        /* \"#utility.yul\":11980:11992   */\n      and\n        /* \"#utility.yul\":12011:12029   */\n      dup1\n        /* \"#utility.yul\":12001:12082   */\n      tag_341\n      jumpi\n        /* \"#utility.yul\":12067:12071   */\n      0x7f\n        /* \"#utility.yul\":12059:12065   */\n      dup3\n        /* \"#utility.yul\":12055:12072   */\n      and\n        /* \"#utility.yul\":12045:12072   */\n      swap2\n      pop\n        /* \"#utility.yul\":12001:12082   */\n    tag_341:\n        /* \"#utility.yul\":12129:12131   */\n      0x20\n        /* \"#utility.yul\":12121:12127   */\n      dup3\n        /* \"#utility.yul\":12118:12132   */\n      lt\n        /* \"#utility.yul\":12098:12116   */\n      dup2\n        /* \"#utility.yul\":12095:12133   */\n      sub\n        /* \"#utility.yul\":12092:12176   */\n      tag_342\n      jumpi\n        /* \"#utility.yul\":12148:12166   */\n      tag_343\n      tag_201\n      jump\t// in\n    tag_343:\n        /* \"#utility.yul\":12092:12176   */\n    tag_342:\n        /* \"#utility.yul\":11913:12182   */\n      pop\n        /* \"#utility.yul\":11862:12182   */\n      swap2\n      swap1\n      pop\n      jump\t// out\n        /* \"#utility.yul\":12188:12329   */\n    tag_202:\n        /* \"#utility.yul\":12237:12241   */\n      0x00\n        /* \"#utility.yul\":12260:12263   */\n      dup2\n        /* \"#utility.yul\":12252:12263   */\n      swap1\n      pop\n        /* \"#utility.yul\":12283:12286   */\n      dup2\n        /* \"#utility.yul\":12280:12281   */\n      0x00\n        /* \"#utility.yul\":12273:12287   */\n      mstore\n        /* \"#utility.yul\":12317:12321   */\n      0x20\n        /* \"#utility.yul\":12314:12315   */\n      0x00\n        /* \"#utility.yul\":12304:12322   */\n      keccak256\n        /* \"#utility.yul\":12296:12322   */\n      swap1\n      pop\n        /* \"#utility.yul\":12188:12329   */\n      swap2\n      swap1\n      pop\n      jump\t// out\n        /* \"#utility.yul\":12335:12428   */\n    tag_203:\n        /* \"#utility.yul\":12372:12378   */\n      0x00\n        /* \"#utility.yul\":12419:12421   */\n      0x20\n        /* \"#utility.yul\":12414:12416   */\n      0x1f\n        /* \"#utility.yul\":12407:12412   */\n      dup4\n        /* \"#utility.yul\":12403:12417   */\n      add\n        /* \"#utility.yul\":12399:12422   */\n      div\n        /* \"#utility.yul\":12389:12422   */\n      swap1\n      pop\n        /* \"#utility.yul\":12335:12428   */\n      swap2\n      swap1\n      pop\n      jump\t// out\n        /* \"#utility.yul\":12434:12541   */\n    tag_204:\n        /* \"#utility.yul\":12478:12486   */\n      0x00\n        /* \"#utility.yul\":12528:12533   */\n      dup3\n        /* \"#utility.yul\":12522:12526   */\n      dup3\n        /* \"#utility.yul\":12518:12534   */\n      shl\n        /* \"#utility.yul\":12497:12534   */\n      swap1\n      pop\n        /* \"#utility.yul\":12434:12541   */\n      swap3\n      swap2\n      pop\n      pop\n      jump\t// out\n        /* \"#utility.yul\":12547:12940   */\n    tag_205:\n        /* \"#utility.yul\":12616:12622   */\n      0x00\n        /* \"#utility.yul\":12666:12667   */\n      0x08\n        /* \"#utility.yul\":12654:12664   */\n      dup4\n        /* \"#utility.yul\":12650:12668   */\n      mul\n        /* \"#utility.yul\":12689:12786   */\n      tag_348\n        /* \"#utility.yul\":12719:12785   */\n      0xffffffffffffffffffffffffffffffffffffffffffffffffffffffffffffffff\n        /* \"#utility.yul\":12708:12717   */\n      dup3\n        /* \"#utility.yul\":12689:12786   */\n      tag_204\n      jump\t// in\n    tag_348:\n        /* \"#utility.yul\":12807:12846   */\n      tag_349\n        /* \"#utility.yul\":12837:12845   */\n      dup7\n        /* \"#utility.yul\":12826:12835   */\n      dup4\n        /* \"#utility.yul\":12807:12846   */\n      tag_204\n      jump\t// in\n    tag_349:\n        /* \"#utility.yul\":12795:12846   */\n      swap6\n      pop\n        /* \"#utility.yul\":12879:12883   */\n      dup1\n        /* \"#utility.yul\":12875:12884   */\n      not\n        /* \"#utility.yul\":12868:12873   */\n      dup5\n        /* \"#utility.yul\":12864:12885   */\n      and\n        /* \"#utility.yul\":12855:12885   */\n      swap4\n      pop\n        /* \"#utility.yul\":12928:12932   */\n      dup1\n        /* \"#utility.yul\":12918:12926   */\n      dup7\n        /* \"#utility.yul\":12914:12933   */\n      and\n        /* \"#utility.yul\":12907:12912   */\n      dup5\n        /* \"#utility.yul\":12904:12934   */\n      or\n        /* \"#utility.yul\":12894:12934   */\n      swap3\n      pop\n        /* \"#utility.yul\":12623:12940   */\n      pop\n      pop\n        /* \"#utility.yul\":12547:12940   */\n      swap4\n      swap3\n      pop\n      pop\n      pop\n      jump\t// out\n        /* \"#utility.yul\":12946:13006   */\n    tag_206:\n        /* \"#utility.yul\":12974:12977   */\n      0x00\n        /* \"#utility.yul\":12995:13000   */\n      dup2\n        /* \"#utility.yul\":12988:13000   */\n      swap1\n      pop\n        /* \"#utility.yul\":12946:13006   */\n      swap2\n      swap1\n      pop\n      jump\t// out\n        /* \"#utility.yul\":13012:13154   */\n    tag_207:\n        /* \"#utility.yul\":13062:13071   */\n      0x00\n        /* \"#utility.yul\":13095:13148   */\n      tag_352\n        /* \"#utility.yul\":13113:13147   */\n      tag_353\n        /* \"#utility.yul\":13122:13146   */\n      tag_354\n        /* \"#utility.yul\":13140:13145   */\n      dup5\n        /* \"#utility.yul\":13122:13146   */\n      tag_173\n      jump\t// in\n    tag_354:\n        /* \"#utility.yul\":13113:13147   */\n      tag_206\n      jump\t// in\n    tag_353:\n        /* \"#utility.yul\":13095:13148   */\n      tag_173\n      jump\t// in\n    tag_352:\n        /* \"#utility.yul\":13082:13148   */\n      swap1\n      pop\n        /* \"#utility.yul\":13012:13154   */\n      swap2\n      swap1\n      pop\n      jump\t// out\n        /* \"#utility.yul\":13160:13235   */\n    tag_208:\n        /* \"#utility.yul\":13203:13206   */\n      0x00\n        /* \"#utility.yul\":13224:13229   */\n      dup2\n        /* \"#utility.yul\":13217:13229   */\n      swap1\n      pop\n        /* \"#utility.yul\":13160:13235   */\n      swap2\n      swap1\n      pop\n      jump\t// out\n        /* \"#utility.yul\":13241:13510   */\n    tag_209:\n        /* \"#utility.yul\":13351:13390   */\n      tag_357\n        /* \"#utility.yul\":13382:13389   */\n      dup4\n        /* \"#utility.yul\":13351:13390   */\n      tag_207\n      jump\t// in\n    tag_357:\n        /* \"#utility.yul\":13412:13503   */\n      tag_358\n        /* \"#utility.yul\":13461:13502   */\n      tag_359\n        /* \"#utility.yul\":13485:13501   */\n      dup3\n        /* \"#utility.yul\":13461:13502   */\n      tag_208\n      jump\t// in\n    tag_359:\n        /* \"#utility.yul\":13453:13459   */\n      dup5\n        /* \"#utility.yul\":13446:13450   */\n      dup5\n        /* \"#utility.yul\":13440:13451   */\n      sload\n        /* \"#utility.yul\":13412:13503   */\n      tag_205\n      jump\t// in\n    tag_358:\n        /* \"#utility.yul\":13406:13410   */\n      dup3\n        /* \"#utility.yul\":13399:13504   */\n      sstore\n        /* \"#utility.yul\":13317:13510   */\n      pop\n        /* \"#utility.yul\":13241:13510   */\n      pop\n      pop\n      pop\n      jump\t// out\n        /* \"#utility.yul\":13516:13589   */\n    tag_210:\n        /* \"#utility.yul\":13561:13564   */\n      0x00\n        /* \"#utility.yul\":13516:13589   */\n      swap1\n      jump\t// out\n        /* \"#utility.yul\":13595:13784   */\n    tag_211:\n        /* \"#utility.yul\":13672:13704   */\n      tag_362\n      tag_210\n      jump\t// in\n    tag_362:\n        /* \"#utility.yul\":13713:13778   */\n      tag_363\n        /* \"#utility.yul\":13771:13777   */\n      dup2\n        /* \"#utility.yul\":13763:13769   */\n      dup5\n        /* \"#utility.yul\":13757:13761   */\n      dup5\n        /* \"#utility.yul\":13713:13778   */\n      tag_209\n      jump\t// in\n    tag_363:\n        /* \"#utility.yul\":13648:13784   */\n      pop\n        /* \"#utility.yul\":13595:13784   */\n      pop\n      pop\n      jump\t// out\n        /* \"#utility.yul\":13790:13976   */\n    tag_212:\n        /* \"#utility.yul\":13850:13970   */\n    tag_365:\n        /* \"#utility.yul\":13867:13870   */\n      dup2\n        /* \"#utility.yul\":13860:13865   */\n      dup2\n        /* \"#utility.yul\":13857:13871   */\n      lt\n        /* \"#utility.yul\":13850:13970   */\n      iszero\n      tag_367\n      jumpi\n        /* \"#utility.yul\":13921:13960   */\n      tag_368\n        /* \"#utility.yul\":13958:13959   */\n      0x00\n        /* \"#utility.yul\":13951:13956   */\n      dup3\n        /* \"#utility.yul\":13921:13960   */\n      tag_211\n      jump\t// in\n    tag_368:\n        /* \"#utility.yul\":13894:13895   */\n      0x01\n        /* \"#utility.yul\":13887:13892   */\n      dup2\n        /* \"#utility.yul\":13883:13896   */\n      add\n        /* \"#utility.yul\":13874:13896   */\n      swap1\n      pop\n        /* \"#utility.yul\":13850:13970   */\n      jump(tag_365)\n    tag_367:\n        /* \"#utility.yul\":13790:13976   */\n      pop\n      pop\n      jump\t// out\n        /* \"#utility.yul\":13982:14525   */\n    tag_213:\n        /* \"#utility.yul\":14083:14085   */\n      0x1f\n        /* \"#utility.yul\":14078:14081   */\n      dup3\n        /* \"#utility.yul\":14075:14086   */\n      gt\n        /* \"#utility.yul\":14072:14518   */\n      iszero\n      tag_370\n      jumpi\n        /* \"#utility.yul\":14117:14155   */\n      tag_371\n        /* \"#utility.yul\":14149:14154   */\n      dup2\n        /* \"#utility.yul\":14117:14155   */\n      tag_202\n      jump\t// in\n    tag_371:\n        /* \"#utility.yul\":14201:14230   */\n      tag_372\n        /* \"#utility.yul\":14219:14229   */\n      dup5\n        /* \"#utility.yul\":14201:14230   */\n      tag_203\n      jump\t// in\n    tag_372:\n        /* \"#utility.yul\":14191:14199   */\n      dup2\n        /* \"#utility.yul\":14187:14231   */\n      add\n        /* \"#utility.yul\":14384:14386   */\n      0x20\n        /* \"#utility.yul\":14372:14382   */\n      dup6\n        /* \"#utility.yul\":14369:14387   */\n      lt\n        /* \"#utility.yul\":14366:14415   */\n      iszero\n      tag_373\n      jumpi\n        /* \"#utility.yul\":14405:14413   */\n      dup2\n        /* \"#utility.yul\":14390:14413   */\n      swap1\n      pop\n        /* \"#utility.yul\":14366:14415   */\n    tag_373:\n        /* \"#utility.yul\":14428:14508   */\n      tag_374\n        /* \"#utility.yul\":14484:14506   */\n      tag_375\n        /* \"#utility.yul\":14502:14505   */\n      dup6\n        /* \"#utility.yul\":14484:14506   */\n      tag_203\n      jump\t// in\n    tag_375:\n        /* \"#utility.yul\":14474:14482   */\n      dup4\n        /* \"#utility.yul\":14470:14507   */\n      add\n        /* \"#utility.yul\":14457:14468   */\n      dup3\n        /* \"#utility.yul\":14428:14508   */\n      tag_212\n      jump\t// in\n    tag_374:\n        /* \"#utility.yul\":14087:14518   */\n      pop\n      pop\n        /* \"#utility.yul\":14072:14518   */\n    tag_370:\n        /* \"#utility.yul\":13982:14525   */\n      pop\n      pop\n      pop\n      jump\t// out\n        /* \"#utility.yul\":14531:14648   */\n    tag_214:\n        /* \"#utility.yul\":14585:14593   */\n      0x00\n        /* \"#utility.yul\":14635:14640   */\n      dup3\n        /* \"#utility.yul\":14629:14633   */\n      dup3\n        /* \"#utility.yul\":14625:14641   */\n      shr\n        /* \"#utility.yul\":14604:14641   */\n      swap1\n      pop\n        /* \"#utility.yul\":14531:14648   */\n      swap3\n      swap2\n      pop\n      pop\n      jump\t// out\n        /* \"#utility.yul\":14654:14823   */\n    tag_215:\n        /* \"#utility.yul\":14698:14704   */\n      0x00\n        /* \"#utility.yul\":14731:14782   */\n      tag_378\n        /* \"#utility.yul\":14779:14780   */\n      0x00\n        /* \"#utility.yul\":14775:14781   */\n      not\n        /* \"#utility.yul\":14767:14772   */\n      dup5\n        /* \"#utility.yul\":14764:14765   */\n      0x08\n        /* \"#utility.yul\":14760:14773   */\n      mul\n        /* \"#utility.yul\":14731:14782   */\n      tag_214\n      jump\t// in\n    tag_378:\n        /* \"#utility.yul\":14727:14783   */\n      not\n        /* \"#utility.yul\":14812:14816   */\n      dup1\n        /* \"#utility.yul\":14806:14810   */\n      dup4\n        /* \"#utility.yul\":14802:14817   */\n      and\n        /* \"#utility.yul\":14792:14817   */\n      swap2\n      pop\n        /* \"#utility.yul\":14705:14823   */\n      pop\n        /* \"#utility.yul\":14654:14823   */\n      swap3\n      swap2\n      pop\n      pop\n      jump\t// out\n        /* \"#utility.yul\":14828:15123   */\n    tag_216:\n        /* \"#utility.yul\":14904:14908   */\n      0x00\n        /* \"#utility.yul\":15050:15079   */\n      tag_380\n        /* \"#utility.yul\":15075:15078   */\n      dup4\n        /* \"#utility.yul\":15069:15073   */\n      dup4\n        /* \"#utility.yul\":15050:15079   */\n      tag_215\n      jump\t// in\n    tag_380:\n        /* \"#utility.yul\":15042:15079   */\n      swap2\n      pop\n        /* \"#utility.yul\":15112:15115   */\n      dup3\n        /* \"#utility.yul\":15109:15110   */\n      0x02\n        /* \"#utility.yul\":15105:15116   */\n      mul\n        /* \"#utility.yul\":15099:15103   */\n      dup3\n        /* \"#utility.yul\":15096:15117   */\n      or\n        /* \"#utility.yul\":15088:15117   */\n      swap1\n      pop\n        /* \"#utility.yul\":14828:15123   */\n      swap3\n      swap2\n      pop\n      pop\n      jump\t// out\n        /* \"#utility.yul\":15128:16523   */\n    tag_44:\n        /* \"#utility.yul\":15245:15282   */\n      tag_382\n        /* \"#utility.yul\":15278:15281   */\n      dup3\n        /* \"#utility.yul\":15245:15282   */\n      tag_188\n      jump\t// in\n    tag_382:\n        /* \"#utility.yul\":15347:15365   */\n      0xffffffffffffffff\n        /* \"#utility.yul\":15339:15345   */\n      dup2\n        /* \"#utility.yul\":15336:15366   */\n      gt\n        /* \"#utility.yul\":15333:15389   */\n      iszero\n      tag_383\n      jumpi\n        /* \"#utility.yul\":15369:15387   */\n      tag_384\n      tag_135\n      jump\t// in\n    tag_384:\n        /* \"#utility.yul\":15333:15389   */\n    tag_383:\n        /* \"#utility.yul\":15413:15451   */\n      tag_385\n        /* \"#utility.yul\":15445:15449   */\n      dup3\n        /* \"#utility.yul\":15439:15450   */\n      sload\n        /* \"#utility.yul\":15413:15451   */\n      tag_55\n      jump\t// in\n    tag_385:\n        /* \"#utility.yul\":15498:15565   */\n      tag_386\n        /* \"#utility.yul\":15558:15564   */\n      dup3\n        /* \"#utility.yul\":15550:15556   */\n      dup3\n        /* \"#utility.yul\":15544:15548   */\n      dup6\n        /* \"#utility.yul\":15498:15565   */\n      tag_213\n      jump\t// in\n    tag_386:\n        /* \"#utility.yul\":15592:15593   */\n      0x00\n        /* \"#utility.yul\":15616:15620   */\n      0x20\n        /* \"#utility.yul\":15603:15620   */\n      swap1\n      pop\n        /* \"#utility.yul\":15648:15650   */\n      0x1f\n        /* \"#utility.yul\":15640:15646   */\n      dup4\n        /* \"#utility.yul\":15637:15651   */\n      gt\n        /* \"#utility.yul\":15665:15666   */\n      0x01\n        /* \"#utility.yul\":15660:16278   */\n      dup2\n      eq\n      tag_388\n      jumpi\n        /* \"#utility.yul\":16322:16323   */\n      0x00\n        /* \"#utility.yul\":16339:16345   */\n      dup5\n        /* \"#utility.yul\":16336:16413   */\n      iszero\n      tag_389\n      jumpi\n        /* \"#utility.yul\":16388:16397   */\n      dup3\n        /* \"#utility.yul\":16383:16386   */\n      dup8\n        /* \"#utility.yul\":16379:16398   */\n      add\n        /* \"#utility.yul\":16373:16399   */\n      mload\n        /* \"#utility.yul\":16364:16399   */\n      swap1\n      pop\n        /* \"#utility.yul\":16336:16413   */\n    tag_389:\n        /* \"#utility.yul\":16439:16506   */\n      tag_390\n        /* \"#utility.yul\":16499:16505   */\n      dup6\n        /* \"#utility.yul\":16492:16497   */\n      dup3\n        /* \"#utility.yul\":16439:16506   */\n      tag_216\n      jump\t// in\n    tag_390:\n        /* \"#utility.yul\":16433:16437   */\n      dup7\n        /* \"#utility.yul\":16426:16507   */\n      sstore\n        /* \"#utility.yul\":16295:16517   */\n      pop\n        /* \"#utility.yul\":15630:16517   */\n      jump(tag_387)\n        /* \"#utility.yul\":15660:16278   */\n    tag_388:\n        /* \"#utility.yul\":15712:15716   */\n      0x1f\n        /* \"#utility.yul\":15708:15717   */\n      not\n        /* \"#utility.yul\":15700:15706   */\n      dup5\n        /* \"#utility.yul\":15696:15718   */\n      and\n        /* \"#utility.yul\":15746:15783   */\n      tag_391\n        /* \"#utility.yul\":15778:15782   */\n      dup7\n        /* \"#utility.yul\":15746:15783   */\n      tag_202\n      jump\t// in\n    tag_391:\n        /* \"#utility.yul\":15805:15806   */\n      0x00\n        /* \"#utility.yul\":15819:16027   */\n    tag_392:\n        /* \"#utility.yul\":15833:15840   */\n      dup3\n        /* \"#utility.yul\":15830:15831   */\n      dup2\n        /* \"#utility.yul\":15827:15841   */\n      lt\n        /* \"#utility.yul\":15819:16027   */\n      iszero\n      tag_394\n      jumpi\n        /* \"#utility.yul\":15912:15921   */\n      dup5\n        /* \"#utility.yul\":15907:15910   */\n      dup10\n        /* \"#utility.yul\":15903:15922   */\n      add\n        /* \"#utility.yul\":15897:15923   */\n      mload\n        /* \"#utility.yul\":15889:15895   */\n      dup3\n        /* \"#utility.yul\":15882:15924   */\n      sstore\n        /* \"#utility.yul\":15963:15964   */\n      0x01\n        /* \"#utility.yul\":15955:15961   */\n      dup3\n        /* \"#utility.yul\":15951:15965   */\n      add\n        /* \"#utility.yul\":15941:15965   */\n      swap2\n      pop\n        /* \"#utility.yul\":16010:16012   */\n      0x20\n        /* \"#utility.yul\":15999:16008   */\n      dup6\n        /* \"#utility.yul\":15995:16013   */\n      add\n        /* \"#utility.yul\":15982:16013   */\n      swap5\n      pop\n        /* \"#utility.yul\":15856:15860   */\n      0x20\n        /* \"#utility.yul\":15853:15854   */\n      dup2\n        /* \"#utility.yul\":15849:15861   */\n      add\n        /* \"#utility.yul\":15844:15861   */\n      swap1\n      pop\n        /* \"#utility.yul\":15819:16027   */\n      jump(tag_392)\n    tag_394:\n        /* \"#utility.yul\":16055:16061   */\n      dup7\n        /* \"#utility.yul\":16046:16053   */\n      dup4\n        /* \"#utility.yul\":16043:16062   */\n      lt\n        /* \"#utility.yul\":16040:16219   */\n      iszero\n      tag_395\n      jumpi\n        /* \"#utility.yul\":16113:16122   */\n      dup5\n        /* \"#utility.yul\":16108:16111   */\n      dup10\n        /* \"#utility.yul\":16104:16123   */\n      add\n        /* \"#utility.yul\":16098:16124   */\n      mload\n        /* \"#utility.yul\":16156:16204   */\n      tag_396\n        /* \"#utility.yul\":16198:16202   */\n      0x1f\n        /* \"#utility.yul\":16190:16196   */\n      dup10\n        /* \"#utility.yul\":16186:16203   */\n      and\n        /* \"#utility.yul\":16175:16184   */\n      dup3\n        /* \"#utility.yul\":16156:16204   */\n      tag_215\n      jump\t// in\n    tag_396:\n        /* \"#utility.yul\":16148:16154   */\n      dup4\n        /* \"#utility.yul\":16141:16205   */\n      sstore\n        /* \"#utility.yul\":16063:16219   */\n      pop\n        /* \"#utility.yul\":16040:16219   */\n    tag_395:\n        /* \"#utility.yul\":16265:16266   */\n      0x01\n        /* \"#utility.yul\":16261:16262   */\n      0x02\n        /* \"#utility.yul\":16253:16259   */\n      dup9\n        /* \"#utility.yul\":16249:16263   */\n      mul\n        /* \"#utility.yul\":16245:16267   */\n      add\n        /* \"#utility.yul\":16239:16243   */\n      dup9\n        /* \"#utility.yul\":16232:16268   */\n      sstore\n        /* \"#utility.yul\":15667:16278   */\n      pop\n      pop\n      pop\n        /* \"#utility.yul\":15630:16517   */\n    tag_387:\n      pop\n        /* \"#utility.yul\":15220:16523   */\n      pop\n      pop\n      pop\n        /* \"#utility.yul\":15128:16523   */\n      pop\n      pop\n      jump\t// out\n        /* \"#utility.yul\":16529:16709   */\n    tag_217:\n        /* \"#utility.yul\":16577:16654   */\n      0x4e487b7100000000000000000000000000000000000000000000000000000000\n        /* \"#utility.yul\":16574:16575   */\n      0x00\n        /* \"#utility.yul\":16567:16655   */\n      mstore\n        /* \"#utility.yul\":16674:16678   */\n      0x11\n        /* \"#utility.yul\":16671:16672   */\n      0x04\n        /* \"#utility.yul\":16664:16679   */\n      mstore\n        /* \"#utility.yul\":16698:16702   */\n      0x24\n        /* \"#utility.yul\":16695:16696   */\n      0x00\n        /* \"#utility.yul\":16688:16703   */\n      revert\n        /* \"#utility.yul\":16715:16909   */\n    tag_69:\n        /* \"#utility.yul\":16755:16759   */\n      0x00\n        /* \"#utility.yul\":16775:16795   */\n      tag_399\n        /* \"#utility.yul\":16793:16794   */\n      dup3\n        /* \"#utility.yul\":16775:16795   */\n      tag_173\n      jump\t// in\n    tag_399:\n        /* \"#utility.yul\":16770:16795   */\n      swap2\n      pop\n        /* \"#utility.yul\":16809:16829   */\n      tag_400\n        /* \"#utility.yul\":16827:16828   */\n      dup4\n        /* \"#utility.yul\":16809:16829   */\n      tag_173\n      jump\t// in\n    tag_400:\n        /* \"#utility.yul\":16804:16829   */\n      swap3\n      pop\n        /* \"#utility.yul\":16853:16854   */\n      dup3\n        /* \"#utility.yul\":16850:16851   */\n      dup3\n        /* \"#utility.yul\":16846:16855   */\n      sub\n        /* \"#utility.yul\":16838:16855   */\n      swap1\n      pop\n        /* \"#utility.yul\":16877:16878   */\n      dup2\n        /* \"#utility.yul\":16871:16875   */\n      dup2\n        /* \"#utility.yul\":16868:16879   */\n      gt\n        /* \"#utility.yul\":16865:16902   */\n      iszero\n      tag_401\n      jumpi\n        /* \"#utility.yul\":16882:16900   */\n      tag_402\n      tag_217\n      jump\t// in\n    tag_402:\n        /* \"#utility.yul\":16865:16902   */\n    tag_401:\n        /* \"#utility.yul\":16715:16909   */\n      swap3\n      swap2\n      pop\n      pop\n      jump\t// out\n        /* \"#utility.yul\":16915:17064   */\n    tag_218:\n        /* \"#utility.yul\":16964:16970   */\n      0x00\n        /* \"#utility.yul\":16998:17003   */\n      dup2\n        /* \"#utility.yul\":16992:17004   */\n      sload\n        /* \"#utility.yul\":16982:17004   */\n      swap1\n      pop\n        /* \"#utility.yul\":17024:17057   */\n      tag_404\n        /* \"#utility.yul\":17050:17056   */\n      dup2\n        /* \"#utility.yul\":17024:17057   */\n      tag_55\n      jump\t// in\n    tag_404:\n        /* \"#utility.yul\":17014:17057   */\n      swap1\n      pop\n        /* \"#utility.yul\":16915:17064   */\n      swap2\n      swap1\n      pop\n      jump\t// out\n        /* \"#utility.yul\":17070:18521   */\n    tag_77:\n        /* \"#utility.yul\":17181:17184   */\n      dup2\n        /* \"#utility.yul\":17175:17179   */\n      dup2\n        /* \"#utility.yul\":17172:17185   */\n      sub\n        /* \"#utility.yul\":17169:17195   */\n      tag_406\n      jumpi\n        /* \"#utility.yul\":17188:17193   */\n      pop\n      pop\n      jump(tag_405)\n        /* \"#utility.yul\":17169:17195   */\n    tag_406:\n        /* \"#utility.yul\":17219:17253   */\n      tag_407\n        /* \"#utility.yul\":17249:17252   */\n      dup3\n        /* \"#utility.yul\":17219:17253   */\n      tag_218\n      jump\t// in\n    tag_407:\n        /* \"#utility.yul\":17318:17336   */\n      0xffffffffffffffff\n        /* \"#utility.yul\":17310:17316   */\n      dup2\n        /* \"#utility.yul\":17307:17337   */\n      gt\n        /* \"#utility.yul\":17304:17360   */\n      iszero\n      tag_408\n      jumpi\n        /* \"#utility.yul\":17340:17358   */\n      tag_409\n      tag_135\n      jump\t// in\n    tag_409:\n        /* \"#utility.yul\":17304:17360   */\n    tag_408:\n        /* \"#utility.yul\":17384:17422   */\n      tag_410\n        /* \"#utility.yul\":17416:17420   */\n      dup3\n        /* \"#utility.yul\":17410:17421   */\n      sload\n        /* \"#utility.yul\":17384:17422   */\n      tag_55\n      jump\t// in\n    tag_410:\n        /* \"#utility.yul\":17469:17536   */\n      tag_411\n        /* \"#utility.yul\":17529:17535   */\n      dup3\n        /* \"#utility.yul\":17521:17527   */\n      dup3\n        /* \"#utility.yul\":17515:17519   */\n      dup6\n        /* \"#utility.yul\":17469:17536   */\n      tag_213\n      jump\t// in\n    tag_411:\n        /* \"#utility.yul\":17563:17564   */\n      0x00\n        /* \"#utility.yul\":17592:17594   */\n      0x1f\n        /* \"#utility.yul\":17584:17590   */\n      dup4\n        /* \"#utility.yul\":17581:17595   */\n      gt\n        /* \"#utility.yul\":17609:17610   */\n      0x01\n        /* \"#utility.yul\":17604:18276   */\n      dup2\n      eq\n      tag_413\n      jumpi\n        /* \"#utility.yul\":18320:18321   */\n      0x00\n        /* \"#utility.yul\":18337:18343   */\n      dup5\n        /* \"#utility.yul\":18334:18411   */\n      iszero\n      tag_414\n      jumpi\n        /* \"#utility.yul\":18386:18395   */\n      dup3\n        /* \"#utility.yul\":18381:18384   */\n      dup8\n        /* \"#utility.yul\":18377:18396   */\n      add\n        /* \"#utility.yul\":18371:18397   */\n      sload\n        /* \"#utility.yul\":18362:18397   */\n      swap1\n      pop\n        /* \"#utility.yul\":18334:18411   */\n    tag_414:\n        /* \"#utility.yul\":18437:18504   */\n      tag_415\n        /* \"#utility.yul\":18497:18503   */\n      dup6\n        /* \"#utility.yul\":18490:18495   */\n      dup3\n        /* \"#utility.yul\":18437:18504   */\n      tag_216\n      jump\t// in\n    tag_415:\n        /* \"#utility.yul\":18431:18435   */\n      dup7\n        /* \"#utility.yul\":18424:18505   */\n      sstore\n        /* \"#utility.yul\":18293:18515   */\n      pop\n        /* \"#utility.yul\":17574:18515   */\n      jump(tag_412)\n        /* \"#utility.yul\":17604:18276   */\n    tag_413:\n        /* \"#utility.yul\":17656:17660   */\n      0x1f\n        /* \"#utility.yul\":17652:17661   */\n      not\n        /* \"#utility.yul\":17644:17650   */\n      dup5\n        /* \"#utility.yul\":17640:17662   */\n      and\n        /* \"#utility.yul\":17682:17718   */\n      tag_416\n        /* \"#utility.yul\":17714:17717   */\n      dup8\n        /* \"#utility.yul\":17682:17718   */\n      tag_202\n      jump\t// in\n    tag_416:\n        /* \"#utility.yul\":17675:17718   */\n      swap7\n      pop\n        /* \"#utility.yul\":17745:17782   */\n      tag_417\n        /* \"#utility.yul\":17777:17781   */\n      dup7\n        /* \"#utility.yul\":17745:17782   */\n      tag_202\n      jump\t// in\n    tag_417:\n        /* \"#utility.yul\":17804:17805   */\n      0x00\n        /* \"#utility.yul\":17818:18025   */\n    tag_418:\n        /* \"#utility.yul\":17832:17839   */\n      dup3\n        /* \"#utility.yul\":17829:17830   */\n      dup2\n        /* \"#utility.yul\":17826:17840   */\n      lt\n        /* \"#utility.yul\":17818:18025   */\n      iszero\n      tag_420\n      jumpi\n        /* \"#utility.yul\":17911:17920   */\n      dup5\n        /* \"#utility.yul\":17906:17909   */\n      dup10\n        /* \"#utility.yul\":17902:17921   */\n      add\n        /* \"#utility.yul\":17896:17922   */\n      sload\n        /* \"#utility.yul\":17888:17894   */\n      dup3\n        /* \"#utility.yul\":17881:17923   */\n      sstore\n        /* \"#utility.yul\":17962:17963   */\n      0x01\n        /* \"#utility.yul\":17954:17960   */\n      dup3\n        /* \"#utility.yul\":17950:17964   */\n      add\n        /* \"#utility.yul\":17940:17964   */\n      swap2\n      pop\n        /* \"#utility.yul\":18009:18010   */\n      0x01\n        /* \"#utility.yul\":17998:18007   */\n      dup6\n        /* \"#utility.yul\":17994:18011   */\n      add\n        /* \"#utility.yul\":17981:18011   */\n      swap5\n      pop\n        /* \"#utility.yul\":17855:17859   */\n      0x20\n        /* \"#utility.yul\":17852:17853   */\n      dup2\n        /* \"#utility.yul\":17848:17860   */\n      add\n        /* \"#utility.yul\":17843:17860   */\n      swap1\n      pop\n        /* \"#utility.yul\":17818:18025   */\n      jump(tag_418)\n    tag_420:\n        /* \"#utility.yul\":18053:18059   */\n      dup7\n        /* \"#utility.yul\":18044:18051   */\n      dup4\n        /* \"#utility.yul\":18041:18060   */\n      lt\n        /* \"#utility.yul\":18038:18217   */\n      iszero\n      tag_421\n      jumpi\n        /* \"#utility.yul\":18111:18120   */\n      dup5\n        /* \"#utility.yul\":18106:18109   */\n      dup10\n        /* \"#utility.yul\":18102:18121   */\n      add\n        /* \"#utility.yul\":18096:18122   */\n      sload\n        /* \"#utility.yul\":18154:18202   */\n      tag_422\n        /* \"#utility.yul\":18196:18200   */\n      0x1f\n        /* \"#utility.yul\":18188:18194   */\n      dup10\n        /* \"#utility.yul\":18184:18201   */\n      and\n        /* \"#utility.yul\":18173:18182   */\n      dup3\n        /* \"#utility.yul\":18154:18202   */\n      tag_215\n      jump\t// in\n    tag_422:\n        /* \"#utility.yul\":18146:18152   */\n      dup4\n        /* \"#utility.yul\":18139:18203   */\n      sstore\n        /* \"#utility.yul\":18061:18217   */\n      pop\n        /* \"#utility.yul\":18038:18217   */\n    tag_421:\n        /* \"#utility.yul\":18263:18264   */\n      0x01\n        /* \"#utility.yul\":18259:18260   */\n      0x02\n        /* \"#utility.yul\":18251:18257   */\n      dup9\n        /* \"#utility.yul\":18247:18261   */\n      mul\n        /* \"#utility.yul\":18243:18265   */\n      add\n        /* \"#utility.yul\":18237:18241   */\n      dup9\n        /* \"#utility.yul\":18230:18266   */\n      sstore\n        /* \"#utility.yul\":17611:18276   */\n      pop\n      pop\n      pop\n        /* \"#utility.yul\":17574:18515   */\n    tag_412:\n      pop\n        /* \"#utility.yul\":17159:18521   */\n      pop\n      pop\n      pop\n        /* \"#utility.yul\":17070:18521   */\n      pop\n      pop\n    tag_405:\n      jump\t// out\n        /* \"#utility.yul\":18527:18707   */\n    tag_81:\n        /* \"#utility.yul\":18575:18652   */\n      0x4e487b7100000000000000000000000000000000000000000000000000000000\n        /* \"#utility.yul\":18572:18573   */\n      0x00\n        /* \"#utility.yul\":18565:18653   */\n      mstore\n        /* \"#utility.yul\":18672:18676   */\n      0x31\n        /* \"#utility.yul\":18669:18670   */\n      0x04\n        /* \"#utility.yul\":18662:18677   */\n      mstore\n        /* \"#utility.yul\":18696:18700   */\n      0x24\n        /* \"#utility.yul\":18693:18694   */\n      0x00\n        /* \"#utility.yul\":18686:18701   */\n      revert\n        /* \"#utility.yul\":18713:18886   */\n    tag_219:\n        /* \"#utility.yul\":18853:18878   */\n      0x4e6f2073747564656e747320696e20746865206c697374000000000000000000\n        /* \"#utility.yul\":18849:18850   */\n      0x00\n        /* \"#utility.yul\":18841:18847   */\n      dup3\n        /* \"#utility.yul\":18837:18851   */\n      add\n        /* \"#utility.yul\":18830:18879   */\n      mstore\n        /* \"#utility.yul\":18713:18886   */\n      pop\n      jump\t// out\n        /* \"#utility.yul\":18892:19258   */\n    tag_220:\n        /* \"#utility.yul\":19034:19037   */\n      0x00\n        /* \"#utility.yul\":19055:19122   */\n      tag_426\n        /* \"#utility.yul\":19119:19121   */\n      0x17\n        /* \"#utility.yul\":19114:19117   */\n      dup4\n        /* \"#utility.yul\":19055:19122   */\n      tag_195\n      jump\t// in\n    tag_426:\n        /* \"#utility.yul\":19048:19122   */\n      swap2\n      pop\n        /* \"#utility.yul\":19131:19224   */\n      tag_427\n        /* \"#utility.yul\":19220:19223   */\n      dup3\n        /* \"#utility.yul\":19131:19224   */\n      tag_219\n      jump\t// in\n    tag_427:\n        /* \"#utility.yul\":19249:19251   */\n      0x20\n        /* \"#utility.yul\":19244:19247   */\n      dup3\n        /* \"#utility.yul\":19240:19252   */\n      add\n        /* \"#utility.yul\":19233:19252   */\n      swap1\n      pop\n        /* \"#utility.yul\":18892:19258   */\n      swap2\n      swap1\n      pop\n      jump\t// out\n        /* \"#utility.yul\":19264:19683   */\n    tag_105:\n        /* \"#utility.yul\":19430:19434   */\n      0x00\n        /* \"#utility.yul\":19468:19470   */\n      0x20\n        /* \"#utility.yul\":19457:19466   */\n      dup3\n        /* \"#utility.yul\":19453:19471   */\n      add\n        /* \"#utility.yul\":19445:19471   */\n      swap1\n      pop\n        /* \"#utility.yul\":19517:19526   */\n      dup2\n        /* \"#utility.yul\":19511:19515   */\n      dup2\n        /* \"#utility.yul\":19507:19527   */\n      sub\n        /* \"#utility.yul\":19503:19504   */\n      0x00\n        /* \"#utility.yul\":19492:19501   */\n      dup4\n        /* \"#utility.yul\":19488:19505   */\n      add\n        /* \"#utility.yul\":19481:19528   */\n      mstore\n        /* \"#utility.yul\":19545:19676   */\n      tag_429\n        /* \"#utility.yul\":19671:19675   */\n      dup2\n        /* \"#utility.yul\":19545:19676   */\n      tag_220\n      jump\t// in\n    tag_429:\n        /* \"#utility.yul\":19537:19676   */\n      swap1\n      pop\n        /* \"#utility.yul\":19264:19683   */\n      swap2\n      swap1\n      pop\n      jump\t// out\n        /* \"#utility.yul\":19689:19922   */\n    tag_125:\n        /* \"#utility.yul\":19728:19731   */\n      0x00\n        /* \"#utility.yul\":19751:19775   */\n      tag_431\n        /* \"#utility.yul\":19769:19774   */\n      dup3\n        /* \"#utility.yul\":19751:19775   */\n      tag_173\n      jump\t// in\n    tag_431:\n        /* \"#utility.yul\":19742:19775   */\n      swap2\n      pop\n        /* \"#utility.yul\":19797:19863   */\n      0xffffffffffffffffffffffffffffffffffffffffffffffffffffffffffffffff\n        /* \"#utility.yul\":19790:19795   */\n      dup3\n        /* \"#utility.yul\":19787:19864   */\n      sub\n        /* \"#utility.yul\":19784:19887   */\n      tag_432\n      jumpi\n        /* \"#utility.yul\":19867:19885   */\n      tag_433\n      tag_217\n      jump\t// in\n    tag_433:\n        /* \"#utility.yul\":19784:19887   */\n    tag_432:\n        /* \"#utility.yul\":19914:19915   */\n      0x01\n        /* \"#utility.yul\":19907:19912   */\n      dup3\n        /* \"#utility.yul\":19903:19916   */\n      add\n        /* \"#utility.yul\":19896:19916   */\n      swap1\n      pop\n        /* \"#utility.yul\":19689:19922   */\n      swap2\n      swap1\n      pop\n      jump\t// out\n        /* \"#utility.yul\":19928:20076   */\n    tag_221:\n        /* \"#utility.yul\":20030:20041   */\n      0x00\n        /* \"#utility.yul\":20067:20070   */\n      dup2\n        /* \"#utility.yul\":20052:20070   */\n      swap1\n      pop\n        /* \"#utility.yul\":19928:20076   */\n      swap3\n      swap2\n      pop\n      pop\n      jump\t// out\n        /* \"#utility.yul\":20082:20472   */\n    tag_222:\n        /* \"#utility.yul\":20188:20191   */\n      0x00\n        /* \"#utility.yul\":20216:20255   */\n      tag_436\n        /* \"#utility.yul\":20249:20254   */\n      dup3\n        /* \"#utility.yul\":20216:20255   */\n      tag_188\n      jump\t// in\n    tag_436:\n        /* \"#utility.yul\":20271:20360   */\n      tag_437\n        /* \"#utility.yul\":20353:20359   */\n      dup2\n        /* \"#utility.yul\":20348:20351   */\n      dup6\n        /* \"#utility.yul\":20271:20360   */\n      tag_221\n      jump\t// in\n    tag_437:\n        /* \"#utility.yul\":20264:20360   */\n      swap4\n      pop\n        /* \"#utility.yul\":20369:20434   */\n      tag_438\n        /* \"#utility.yul\":20427:20433   */\n      dup2\n        /* \"#utility.yul\":20422:20425   */\n      dup6\n        /* \"#utility.yul\":20415:20419   */\n      0x20\n        /* \"#utility.yul\":20408:20413   */\n      dup7\n        /* \"#utility.yul\":20404:20420   */\n      add\n        /* \"#utility.yul\":20369:20434   */\n      tag_190\n      jump\t// in\n    tag_438:\n        /* \"#utility.yul\":20459:20465   */\n      dup1\n        /* \"#utility.yul\":20454:20457   */\n      dup5\n        /* \"#utility.yul\":20450:20466   */\n      add\n        /* \"#utility.yul\":20443:20466   */\n      swap2\n      pop\n        /* \"#utility.yul\":20192:20472   */\n      pop\n        /* \"#utility.yul\":20082:20472   */\n      swap3\n      swap2\n      pop\n      pop\n      jump\t// out\n        /* \"#utility.yul\":20478:20913   */\n    tag_129:\n        /* \"#utility.yul\":20658:20661   */\n      0x00\n        /* \"#utility.yul\":20680:20775   */\n      tag_440\n        /* \"#utility.yul\":20771:20774   */\n      dup3\n        /* \"#utility.yul\":20762:20768   */\n      dup6\n        /* \"#utility.yul\":20680:20775   */\n      tag_222\n      jump\t// in\n    tag_440:\n        /* \"#utility.yul\":20673:20775   */\n      swap2\n      pop\n        /* \"#utility.yul\":20792:20887   */\n      tag_441\n        /* \"#utility.yul\":20883:20886   */\n      dup3\n        /* \"#utility.yul\":20874:20880   */\n      dup5\n        /* \"#utility.yul\":20792:20887   */\n      tag_222\n      jump\t// in\n    tag_441:\n        /* \"#utility.yul\":20785:20887   */\n      swap2\n      pop\n        /* \"#utility.yul\":20904:20907   */\n      dup2\n        /* \"#utility.yul\":20897:20907   */\n      swap1\n      pop\n        /* \"#utility.yul\":20478:20913   */\n      swap4\n      swap3\n      pop\n      pop\n      pop\n      jump\t// out\n        /* \"#utility.yul\":20919:21099   */\n    tag_141:\n        /* \"#utility.yul\":20967:21044   */\n      0x4e487b7100000000000000000000000000000000000000000000000000000000\n        /* \"#utility.yul\":20964:20965   */\n      0x00\n        /* \"#utility.yul\":20957:21045   */\n      mstore\n        /* \"#utility.yul\":21064:21068   */\n      0x12\n        /* \"#utility.yul\":21061:21062   */\n      0x04\n        /* \"#utility.yul\":21054:21069   */\n      mstore\n        /* \"#utility.yul\":21088:21092   */\n      0x24\n        /* \"#utility.yul\":21085:21086   */\n      0x00\n        /* \"#utility.yul\":21078:21093   */\n      revert\n\n    auxdata: 0xa26469706673582212200a2ae9f8609245586dec5b5bf5a7fb0809b386598a0ad2655325dd7065c7086c64736f6c63430008180033\n}\n",
				"bytecode": {
					"linkReferences": {},
					"object": "608060405234801561000f575f80fd5b506117238061001d5f395ff3fe608060405234801561000f575f80fd5b5060043610610060575f3560e01c80631fa27b5b14610064578063642f9163146100805780636af83845146100b05780637e46840d146100cc578063b0e3e19b146100ff578063dd5f1e481461011b575b5f80fd5b61007e60048036038101906100799190610d55565b61013a565b005b61009a60048036038101906100959190610e04565b610221565b6040516100a79190610f2e565b60405180910390f35b6100ca60048036038101906100c59190610e04565b6103e5565b005b6100e660048036038101906100e19190610e04565b61053c565b6040516100f69493929190610fb4565b60405180910390f35b61011960048036038101906101149190611005565b61068e565b005b610123610735565b6040516101319291906110a1565b60405180910390f35b5f805490508510610180576040517f08c379a000000000000000000000000000000000000000000000000000000000815260040161017790611119565b60405180910390fd5b60405180608001604052808581526020018481526020018381526020018260ff168152505f86815481106101b7576101b6611137565b5b905f5260205f2090600402015f820151815f0190816101d6919061135e565b506020820151816001015560408201518160020190816101f6919061135e565b506060820151816003015f6101000a81548160ff021916908360ff1602179055509050505050505050565b610229610b1e565b5f80549050821061026f576040517f08c379a000000000000000000000000000000000000000000000000000000000815260040161026690611119565b60405180910390fd5b5f828154811061028257610281611137565b5b905f5260205f2090600402016040518060800160405290815f820180546102a890611191565b80601f01602080910402602001604051908101604052809291908181526020018280546102d490611191565b801561031f5780601f106102f65761010080835404028352916020019161031f565b820191905f5260205f20905b81548152906001019060200180831161030257829003601f168201915b505050505081526020016001820154815260200160028201805461034290611191565b80601f016020809104026020016040519081016040528092919081815260200182805461036e90611191565b80156103b95780601f10610390576101008083540402835291602001916103b9565b820191905f5260205f20905b81548152906001019060200180831161039c57829003601f168201915b50505050508152602001600382015f9054906101000a900460ff1660ff1660ff16815250509050919050565b5f80549050811061042b576040517f08c379a000000000000000000000000000000000000000000000000000000000815260040161042290611119565b60405180910390fd5b5f60015f8054905061043d919061145a565b8154811061044e5761044d611137565b5b905f5260205f2090600402015f828154811061046d5761046c611137565b5b905f5260205f2090600402015f8201815f01908161048b91906114a2565b5060018201548160010155600282018160020190816104aa91906114a2565b50600382015f9054906101000a900460ff16816003015f6101000a81548160ff021916908360ff1602179055509050505f8054806104eb576104ea611587565b5b600190038181905f5260205f2090600402015f8082015f61050c9190610b47565b600182015f9055600282015f6105229190610b47565b600382015f6101000a81549060ff02191690555050905550565b5f818154811061054a575f80fd5b905f5260205f2090600402015f91509050805f01805461056990611191565b80601f016020809104026020016040519081016040528092919081815260200182805461059590611191565b80156105e05780601f106105b7576101008083540402835291602001916105e0565b820191905f5260205f20905b8154815290600101906020018083116105c357829003601f168201915b5050505050908060010154908060020180546105fb90611191565b80601f016020809104026020016040519081016040528092919081815260200182805461062790611191565b80156106725780601f1061064957610100808354040283529160200191610672565b820191905f5260205f20905b81548152906001019060200180831161065557829003601f168201915b505050505090806003015f9054906101000a900460ff16905084565b5f60405180608001604052808681526020018581526020018481526020018360ff16815250908060018154018082558091505060019003905f5260205f2090600402015f909190919091505f820151815f0190816106ec919061135e565b5060208201518160010155604082015181600201908161070c919061135e565b506060820151816003015f6101000a81548160ff021916908360ff160217905550505050505050565b5f60605f80805490501161077e576040517f08c379a0000000000000000000000000000000000000000000000000000000008152600401610775906115fe565b60405180910390fd5b5f805f8154811061079257610791611137565b5b905f5260205f2090600402016003015f9054906101000a900460ff1690505f805b5f8054905081101561088b578260ff165f82815481106107d6576107d5611137565b5b905f5260205f2090600402016003015f9054906101000a900460ff1660ff161115610835575f818154811061080e5761080d611137565b5b905f5260205f2090600402016003015f9054906101000a900460ff16925060019150610880565b8260ff165f828154811061084c5761084b611137565b5b905f5260205f2090600402016003015f9054906101000a900460ff1660ff160361087f57818061087b9061161c565b9250505b5b8060010190506107b3565b505f61089682610903565b90505f6040518060400160405280600b81526020017f2073747564656e74287329000000000000000000000000000000000000000000815250905081816040516020016108e492919061169d565b6040516020818303038152906040529150838295509550505050509091565b60605f6001610911846109cd565b0190505f8167ffffffffffffffff81111561092f5761092e610bfb565b5b6040519080825280601f01601f1916602001820160405280156109615781602001600182028036833780820191505090505b5090505f82602001820190505b6001156109c2578080600190039150507f3031323334353637383961626364656600000000000000000000000000000000600a86061a8153600a85816109b7576109b66116c0565b5b0494505f850361096e575b819350505050919050565b5f805f90507a184f03e93ff9f4daa797ed6e38ed64bf6a1f0100000000000000008310610a29577a184f03e93ff9f4daa797ed6e38ed64bf6a1f0100000000000000008381610a1f57610a1e6116c0565b5b0492506040810190505b6d04ee2d6d415b85acef81000000008310610a66576d04ee2d6d415b85acef81000000008381610a5c57610a5b6116c0565b5b0492506020810190505b662386f26fc100008310610a9557662386f26fc100008381610a8b57610a8a6116c0565b5b0492506010810190505b6305f5e1008310610abe576305f5e1008381610ab457610ab36116c0565b5b0492506008810190505b6127108310610ae3576127108381610ad957610ad86116c0565b5b0492506004810190505b60648310610b065760648381610afc57610afb6116c0565b5b0492506002810190505b600a8310610b15576001810190505b80915050919050565b6040518060800160405280606081526020015f8152602001606081526020015f60ff1681525090565b508054610b5390611191565b5f825580601f10610b645750610b81565b601f0160209004905f5260205f2090810190610b809190610b84565b5b50565b5b80821115610b9b575f815f905550600101610b85565b5090565b5f604051905090565b5f80fd5b5f80fd5b5f819050919050565b610bc281610bb0565b8114610bcc575f80fd5b50565b5f81359050610bdd81610bb9565b92915050565b5f80fd5b5f80fd5b5f601f19601f8301169050919050565b7f4e487b71000000000000000000000000000000000000000000000000000000005f52604160045260245ffd5b610c3182610beb565b810181811067ffffffffffffffff82111715610c5057610c4f610bfb565b5b80604052505050565b5f610c62610b9f565b9050610c6e8282610c28565b919050565b5f67ffffffffffffffff821115610c8d57610c8c610bfb565b5b610c9682610beb565b9050602081019050919050565b828183375f83830152505050565b5f610cc3610cbe84610c73565b610c59565b905082815260208101848484011115610cdf57610cde610be7565b5b610cea848285610ca3565b509392505050565b5f82601f830112610d0657610d05610be3565b5b8135610d16848260208601610cb1565b91505092915050565b5f60ff82169050919050565b610d3481610d1f565b8114610d3e575f80fd5b50565b5f81359050610d4f81610d2b565b92915050565b5f805f805f60a08688031215610d6e57610d6d610ba8565b5b5f610d7b88828901610bcf565b955050602086013567ffffffffffffffff811115610d9c57610d9b610bac565b5b610da888828901610cf2565b9450506040610db988828901610bcf565b935050606086013567ffffffffffffffff811115610dda57610dd9610bac565b5b610de688828901610cf2565b9250506080610df788828901610d41565b9150509295509295909350565b5f60208284031215610e1957610e18610ba8565b5b5f610e2684828501610bcf565b91505092915050565b5f81519050919050565b5f82825260208201905092915050565b5f5b83811015610e66578082015181840152602081019050610e4b565b5f8484015250505050565b5f610e7b82610e2f565b610e858185610e39565b9350610e95818560208601610e49565b610e9e81610beb565b840191505092915050565b610eb281610bb0565b82525050565b610ec181610d1f565b82525050565b5f608083015f8301518482035f860152610ee18282610e71565b9150506020830151610ef66020860182610ea9565b5060408301518482036040860152610f0e8282610e71565b9150506060830151610f236060860182610eb8565b508091505092915050565b5f6020820190508181035f830152610f468184610ec7565b905092915050565b5f82825260208201905092915050565b5f610f6882610e2f565b610f728185610f4e565b9350610f82818560208601610e49565b610f8b81610beb565b840191505092915050565b610f9f81610bb0565b82525050565b610fae81610d1f565b82525050565b5f6080820190508181035f830152610fcc8187610f5e565b9050610fdb6020830186610f96565b8181036040830152610fed8185610f5e565b9050610ffc6060830184610fa5565b95945050505050565b5f805f806080858703121561101d5761101c610ba8565b5b5f85013567ffffffffffffffff81111561103a57611039610bac565b5b61104687828801610cf2565b945050602061105787828801610bcf565b935050604085013567ffffffffffffffff81111561107857611077610bac565b5b61108487828801610cf2565b925050606061109587828801610d41565b91505092959194509250565b5f6040820190506110b45f830185610fa5565b81810360208301526110c68184610f5e565b90509392505050565b7f496e76616c696420696e646578000000000000000000000000000000000000005f82015250565b5f611103600d83610f4e565b915061110e826110cf565b602082019050919050565b5f6020820190508181035f830152611130816110f7565b9050919050565b7f4e487b71000000000000000000000000000000000000000000000000000000005f52603260045260245ffd5b7f4e487b71000000000000000000000000000000000000000000000000000000005f52602260045260245ffd5b5f60028204905060018216806111a857607f821691505b6020821081036111bb576111ba611164565b5b50919050565b5f819050815f5260205f209050919050565b5f6020601f8301049050919050565b5f82821b905092915050565b5f6008830261121d7fffffffffffffffffffffffffffffffffffffffffffffffffffffffffffffffff826111e2565b61122786836111e2565b95508019841693508086168417925050509392505050565b5f819050919050565b5f61126261125d61125884610bb0565b61123f565b610bb0565b9050919050565b5f819050919050565b61127b83611248565b61128f61128782611269565b8484546111ee565b825550505050565b5f90565b6112a3611297565b6112ae818484611272565b505050565b5b818110156112d1576112c65f8261129b565b6001810190506112b4565b5050565b601f821115611316576112e7816111c1565b6112f0846111d3565b810160208510156112ff578190505b61131361130b856111d3565b8301826112b3565b50505b505050565b5f82821c905092915050565b5f6113365f198460080261131b565b1980831691505092915050565b5f61134e8383611327565b9150826002028217905092915050565b61136782610e2f565b67ffffffffffffffff8111156113805761137f610bfb565b5b61138a8254611191565b6113958282856112d5565b5f60209050601f8311600181146113c6575f84156113b4578287015190505b6113be8582611343565b865550611425565b601f1984166113d4866111c1565b5f5b828110156113fb578489015182556001820191506020850194506020810190506113d6565b868310156114185784890151611414601f891682611327565b8355505b6001600288020188555050505b505050505050565b7f4e487b71000000000000000000000000000000000000000000000000000000005f52601160045260245ffd5b5f61146482610bb0565b915061146f83610bb0565b92508282039050818111156114875761148661142d565b5b92915050565b5f8154905061149b81611191565b9050919050565b8181036114b0575050611585565b6114b98261148d565b67ffffffffffffffff8111156114d2576114d1610bfb565b5b6114dc8254611191565b6114e78282856112d5565b5f601f831160018114611514575f8415611502578287015490505b61150c8582611343565b86555061157e565b601f198416611522876111c1565b965061152d866111c1565b5f5b828110156115545784890154825560018201915060018501945060208101905061152f565b86831015611571578489015461156d601f891682611327565b8355505b6001600288020188555050505b5050505050505b565b7f4e487b71000000000000000000000000000000000000000000000000000000005f52603160045260245ffd5b7f4e6f2073747564656e747320696e20746865206c6973740000000000000000005f82015250565b5f6115e8601783610f4e565b91506115f3826115b4565b602082019050919050565b5f6020820190508181035f830152611615816115dc565b9050919050565b5f61162682610bb0565b91507fffffffffffffffffffffffffffffffffffffffffffffffffffffffffffffffff82036116585761165761142d565b5b600182019050919050565b5f81905092915050565b5f61167782610e2f565b6116818185611663565b9350611691818560208601610e49565b80840191505092915050565b5f6116a8828561166d565b91506116b4828461166d565b91508190509392505050565b7f4e487b71000000000000000000000000000000000000000000000000000000005f52601260045260245ffdfea26469706673582212200a2ae9f8609245586dec5b5bf5a7fb0809b386598a0ad2655325dd7065c7086c64736f6c63430008180033",
					"opcodes": "PUSH1 0x80 PUSH1 0x40 MSTORE CALLVALUE DUP1 ISZERO PUSH2 0xF JUMPI PUSH0 DUP1 REVERT JUMPDEST POP PUSH2 0x1723 DUP1 PUSH2 0x1D PUSH0 CODECOPY PUSH0 RETURN INVALID PUSH1 0x80 PUSH1 0x40 MSTORE CALLVALUE DUP1 ISZERO PUSH2 0xF JUMPI PUSH0 DUP1 REVERT JUMPDEST POP PUSH1 0x4 CALLDATASIZE LT PUSH2 0x60 JUMPI PUSH0 CALLDATALOAD PUSH1 0xE0 SHR DUP1 PUSH4 0x1FA27B5B EQ PUSH2 0x64 JUMPI DUP1 PUSH4 0x642F9163 EQ PUSH2 0x80 JUMPI DUP1 PUSH4 0x6AF83845 EQ PUSH2 0xB0 JUMPI DUP1 PUSH4 0x7E46840D EQ PUSH2 0xCC JUMPI DUP1 PUSH4 0xB0E3E19B EQ PUSH2 0xFF JUMPI DUP1 PUSH4 0xDD5F1E48 EQ PUSH2 0x11B JUMPI JUMPDEST PUSH0 DUP1 REVERT JUMPDEST PUSH2 0x7E PUSH1 0x4 DUP1 CALLDATASIZE SUB DUP2 ADD SWAP1 PUSH2 0x79 SWAP2 SWAP1 PUSH2 0xD55 JUMP JUMPDEST PUSH2 0x13A JUMP JUMPDEST STOP JUMPDEST PUSH2 0x9A PUSH1 0x4 DUP1 CALLDATASIZE SUB DUP2 ADD SWAP1 PUSH2 0x95 SWAP2 SWAP1 PUSH2 0xE04 JUMP JUMPDEST PUSH2 0x221 JUMP JUMPDEST PUSH1 0x40 MLOAD PUSH2 0xA7 SWAP2 SWAP1 PUSH2 0xF2E JUMP JUMPDEST PUSH1 0x40 MLOAD DUP1 SWAP2 SUB SWAP1 RETURN JUMPDEST PUSH2 0xCA PUSH1 0x4 DUP1 CALLDATASIZE SUB DUP2 ADD SWAP1 PUSH2 0xC5 SWAP2 SWAP1 PUSH2 0xE04 JUMP JUMPDEST PUSH2 0x3E5 JUMP JUMPDEST STOP JUMPDEST PUSH2 0xE6 PUSH1 0x4 DUP1 CALLDATASIZE SUB DUP2 ADD SWAP1 PUSH2 0xE1 SWAP2 SWAP1 PUSH2 0xE04 JUMP JUMPDEST PUSH2 0x53C JUMP JUMPDEST PUSH1 0x40 MLOAD PUSH2 0xF6 SWAP5 SWAP4 SWAP3 SWAP2 SWAP1 PUSH2 0xFB4 JUMP JUMPDEST PUSH1 0x40 MLOAD DUP1 SWAP2 SUB SWAP1 RETURN JUMPDEST PUSH2 0x119 PUSH1 0x4 DUP1 CALLDATASIZE SUB DUP2 ADD SWAP1 PUSH2 0x114 SWAP2 SWAP1 PUSH2 0x1005 JUMP JUMPDEST PUSH2 0x68E JUMP JUMPDEST STOP JUMPDEST PUSH2 0x123 PUSH2 0x735 JUMP JUMPDEST PUSH1 0x40 MLOAD PUSH2 0x131 SWAP3 SWAP2 SWAP1 PUSH2 0x10A1 JUMP JUMPDEST PUSH1 0x40 MLOAD DUP1 SWAP2 SUB SWAP1 RETURN JUMPDEST PUSH0 DUP1 SLOAD SWAP1 POP DUP6 LT PUSH2 0x180 JUMPI PUSH1 0x40 MLOAD PUSH32 0x8C379A000000000000000000000000000000000000000000000000000000000 DUP2 MSTORE PUSH1 0x4 ADD PUSH2 0x177 SWAP1 PUSH2 0x1119 JUMP JUMPDEST PUSH1 0x40 MLOAD DUP1 SWAP2 SUB SWAP1 REVERT JUMPDEST PUSH1 0x40 MLOAD DUP1 PUSH1 0x80 ADD PUSH1 0x40 MSTORE DUP1 DUP6 DUP2 MSTORE PUSH1 0x20 ADD DUP5 DUP2 MSTORE PUSH1 0x20 ADD DUP4 DUP2 MSTORE PUSH1 0x20 ADD DUP3 PUSH1 0xFF AND DUP2 MSTORE POP PUSH0 DUP7 DUP2 SLOAD DUP2 LT PUSH2 0x1B7 JUMPI PUSH2 0x1B6 PUSH2 0x1137 JUMP JUMPDEST JUMPDEST SWAP1 PUSH0 MSTORE PUSH1 0x20 PUSH0 KECCAK256 SWAP1 PUSH1 0x4 MUL ADD PUSH0 DUP3 ADD MLOAD DUP2 PUSH0 ADD SWAP1 DUP2 PUSH2 0x1D6 SWAP2 SWAP1 PUSH2 0x135E JUMP JUMPDEST POP PUSH1 0x20 DUP3 ADD MLOAD DUP2 PUSH1 0x1 ADD SSTORE PUSH1 0x40 DUP3 ADD MLOAD DUP2 PUSH1 0x2 ADD SWAP1 DUP2 PUSH2 0x1F6 SWAP2 SWAP1 PUSH2 0x135E JUMP JUMPDEST POP PUSH1 0x60 DUP3 ADD MLOAD DUP2 PUSH1 0x3 ADD PUSH0 PUSH2 0x100 EXP DUP2 SLOAD DUP2 PUSH1 0xFF MUL NOT AND SWAP1 DUP4 PUSH1 0xFF AND MUL OR SWAP1 SSTORE POP SWAP1 POP POP POP POP POP POP POP JUMP JUMPDEST PUSH2 0x229 PUSH2 0xB1E JUMP JUMPDEST PUSH0 DUP1 SLOAD SWAP1 POP DUP3 LT PUSH2 0x26F JUMPI PUSH1 0x40 MLOAD PUSH32 0x8C379A000000000000000000000000000000000000000000000000000000000 DUP2 MSTORE PUSH1 0x4 ADD PUSH2 0x266 SWAP1 PUSH2 0x1119 JUMP JUMPDEST PUSH1 0x40 MLOAD DUP1 SWAP2 SUB SWAP1 REVERT JUMPDEST PUSH0 DUP3 DUP2 SLOAD DUP2 LT PUSH2 0x282 JUMPI PUSH2 0x281 PUSH2 0x1137 JUMP JUMPDEST JUMPDEST SWAP1 PUSH0 MSTORE PUSH1 0x20 PUSH0 KECCAK256 SWAP1 PUSH1 0x4 MUL ADD PUSH1 0x40 MLOAD DUP1 PUSH1 0x80 ADD PUSH1 0x40 MSTORE SWAP1 DUP2 PUSH0 DUP3 ADD DUP1 SLOAD PUSH2 0x2A8 SWAP1 PUSH2 0x1191 JUMP JUMPDEST DUP1 PUSH1 0x1F ADD PUSH1 0x20 DUP1 SWAP2 DIV MUL PUSH1 0x20 ADD PUSH1 0x40 MLOAD SWAP1 DUP2 ADD PUSH1 0x40 MSTORE DUP1 SWAP3 SWAP2 SWAP1 DUP2 DUP2 MSTORE PUSH1 0x20 ADD DUP3 DUP1 SLOAD PUSH2 0x2D4 SWAP1 PUSH2 0x1191 JUMP JUMPDEST DUP1 ISZERO PUSH2 0x31F JUMPI DUP1 PUSH1 0x1F LT PUSH2 0x2F6 JUMPI PUSH2 0x100 DUP1 DUP4 SLOAD DIV MUL DUP4 MSTORE SWAP2 PUSH1 0x20 ADD SWAP2 PUSH2 0x31F JUMP JUMPDEST DUP3 ADD SWAP2 SWAP1 PUSH0 MSTORE PUSH1 0x20 PUSH0 KECCAK256 SWAP1 JUMPDEST DUP2 SLOAD DUP2 MSTORE SWAP1 PUSH1 0x1 ADD SWAP1 PUSH1 0x20 ADD DUP1 DUP4 GT PUSH2 0x302 JUMPI DUP3 SWAP1 SUB PUSH1 0x1F AND DUP3 ADD SWAP2 JUMPDEST POP POP POP POP POP DUP2 MSTORE PUSH1 0x20 ADD PUSH1 0x1 DUP3 ADD SLOAD DUP2 MSTORE PUSH1 0x20 ADD PUSH1 0x2 DUP3 ADD DUP1 SLOAD PUSH2 0x342 SWAP1 PUSH2 0x1191 JUMP JUMPDEST DUP1 PUSH1 0x1F ADD PUSH1 0x20 DUP1 SWAP2 DIV MUL PUSH1 0x20 ADD PUSH1 0x40 MLOAD SWAP1 DUP2 ADD PUSH1 0x40 MSTORE DUP1 SWAP3 SWAP2 SWAP1 DUP2 DUP2 MSTORE PUSH1 0x20 ADD DUP3 DUP1 SLOAD PUSH2 0x36E SWAP1 PUSH2 0x1191 JUMP JUMPDEST DUP1 ISZERO PUSH2 0x3B9 JUMPI DUP1 PUSH1 0x1F LT PUSH2 0x390 JUMPI PUSH2 0x100 DUP1 DUP4 SLOAD DIV MUL DUP4 MSTORE SWAP2 PUSH1 0x20 ADD SWAP2 PUSH2 0x3B9 JUMP JUMPDEST DUP3 ADD SWAP2 SWAP1 PUSH0 MSTORE PUSH1 0x20 PUSH0 KECCAK256 SWAP1 JUMPDEST DUP2 SLOAD DUP2 MSTORE SWAP1 PUSH1 0x1 ADD SWAP1 PUSH1 0x20 ADD DUP1 DUP4 GT PUSH2 0x39C JUMPI DUP3 SWAP1 SUB PUSH1 0x1F AND DUP3 ADD SWAP2 JUMPDEST POP POP POP POP POP DUP2 MSTORE PUSH1 0x20 ADD PUSH1 0x3 DUP3 ADD PUSH0 SWAP1 SLOAD SWAP1 PUSH2 0x100 EXP SWAP1 DIV PUSH1 0xFF AND PUSH1 0xFF AND PUSH1 0xFF AND DUP2 MSTORE POP POP SWAP1 POP SWAP2 SWAP1 POP JUMP JUMPDEST PUSH0 DUP1 SLOAD SWAP1 POP DUP2 LT PUSH2 0x42B JUMPI PUSH1 0x40 MLOAD PUSH32 0x8C379A000000000000000000000000000000000000000000000000000000000 DUP2 MSTORE PUSH1 0x4 ADD PUSH2 0x422 SWAP1 PUSH2 0x1119 JUMP JUMPDEST PUSH1 0x40 MLOAD DUP1 SWAP2 SUB SWAP1 REVERT JUMPDEST PUSH0 PUSH1 0x1 PUSH0 DUP1 SLOAD SWAP1 POP PUSH2 0x43D SWAP2 SWAP1 PUSH2 0x145A JUMP JUMPDEST DUP2 SLOAD DUP2 LT PUSH2 0x44E JUMPI PUSH2 0x44D PUSH2 0x1137 JUMP JUMPDEST JUMPDEST SWAP1 PUSH0 MSTORE PUSH1 0x20 PUSH0 KECCAK256 SWAP1 PUSH1 0x4 MUL ADD PUSH0 DUP3 DUP2 SLOAD DUP2 LT PUSH2 0x46D JUMPI PUSH2 0x46C PUSH2 0x1137 JUMP JUMPDEST JUMPDEST SWAP1 PUSH0 MSTORE PUSH1 0x20 PUSH0 KECCAK256 SWAP1 PUSH1 0x4 MUL ADD PUSH0 DUP3 ADD DUP2 PUSH0 ADD SWAP1 DUP2 PUSH2 0x48B SWAP2 SWAP1 PUSH2 0x14A2 JUMP JUMPDEST POP PUSH1 0x1 DUP3 ADD SLOAD DUP2 PUSH1 0x1 ADD SSTORE PUSH1 0x2 DUP3 ADD DUP2 PUSH1 0x2 ADD SWAP1 DUP2 PUSH2 0x4AA SWAP2 SWAP1 PUSH2 0x14A2 JUMP JUMPDEST POP PUSH1 0x3 DUP3 ADD PUSH0 SWAP1 SLOAD SWAP1 PUSH2 0x100 EXP SWAP1 DIV PUSH1 0xFF AND DUP2 PUSH1 0x3 ADD PUSH0 PUSH2 0x100 EXP DUP2 SLOAD DUP2 PUSH1 0xFF MUL NOT AND SWAP1 DUP4 PUSH1 0xFF AND MUL OR SWAP1 SSTORE POP SWAP1 POP POP PUSH0 DUP1 SLOAD DUP1 PUSH2 0x4EB JUMPI PUSH2 0x4EA PUSH2 0x1587 JUMP JUMPDEST JUMPDEST PUSH1 0x1 SWAP1 SUB DUP2 DUP2 SWAP1 PUSH0 MSTORE PUSH1 0x20 PUSH0 KECCAK256 SWAP1 PUSH1 0x4 MUL ADD PUSH0 DUP1 DUP3 ADD PUSH0 PUSH2 0x50C SWAP2 SWAP1 PUSH2 0xB47 JUMP JUMPDEST PUSH1 0x1 DUP3 ADD PUSH0 SWAP1 SSTORE PUSH1 0x2 DUP3 ADD PUSH0 PUSH2 0x522 SWAP2 SWAP1 PUSH2 0xB47 JUMP JUMPDEST PUSH1 0x3 DUP3 ADD PUSH0 PUSH2 0x100 EXP DUP2 SLOAD SWAP1 PUSH1 0xFF MUL NOT AND SWAP1 SSTORE POP POP SWAP1 SSTORE POP JUMP JUMPDEST PUSH0 DUP2 DUP2 SLOAD DUP2 LT PUSH2 0x54A JUMPI PUSH0 DUP1 REVERT JUMPDEST SWAP1 PUSH0 MSTORE PUSH1 0x20 PUSH0 KECCAK256 SWAP1 PUSH1 0x4 MUL ADD PUSH0 SWAP2 POP SWAP1 POP DUP1 PUSH0 ADD DUP1 SLOAD PUSH2 0x569 SWAP1 PUSH2 0x1191 JUMP JUMPDEST DUP1 PUSH1 0x1F ADD PUSH1 0x20 DUP1 SWAP2 DIV MUL PUSH1 0x20 ADD PUSH1 0x40 MLOAD SWAP1 DUP2 ADD PUSH1 0x40 MSTORE DUP1 SWAP3 SWAP2 SWAP1 DUP2 DUP2 MSTORE PUSH1 0x20 ADD DUP3 DUP1 SLOAD PUSH2 0x595 SWAP1 PUSH2 0x1191 JUMP JUMPDEST DUP1 ISZERO PUSH2 0x5E0 JUMPI DUP1 PUSH1 0x1F LT PUSH2 0x5B7 JUMPI PUSH2 0x100 DUP1 DUP4 SLOAD DIV MUL DUP4 MSTORE SWAP2 PUSH1 0x20 ADD SWAP2 PUSH2 0x5E0 JUMP JUMPDEST DUP3 ADD SWAP2 SWAP1 PUSH0 MSTORE PUSH1 0x20 PUSH0 KECCAK256 SWAP1 JUMPDEST DUP2 SLOAD DUP2 MSTORE SWAP1 PUSH1 0x1 ADD SWAP1 PUSH1 0x20 ADD DUP1 DUP4 GT PUSH2 0x5C3 JUMPI DUP3 SWAP1 SUB PUSH1 0x1F AND DUP3 ADD SWAP2 JUMPDEST POP POP POP POP POP SWAP1 DUP1 PUSH1 0x1 ADD SLOAD SWAP1 DUP1 PUSH1 0x2 ADD DUP1 SLOAD PUSH2 0x5FB SWAP1 PUSH2 0x1191 JUMP JUMPDEST DUP1 PUSH1 0x1F ADD PUSH1 0x20 DUP1 SWAP2 DIV MUL PUSH1 0x20 ADD PUSH1 0x40 MLOAD SWAP1 DUP2 ADD PUSH1 0x40 MSTORE DUP1 SWAP3 SWAP2 SWAP1 DUP2 DUP2 MSTORE PUSH1 0x20 ADD DUP3 DUP1 SLOAD PUSH2 0x627 SWAP1 PUSH2 0x1191 JUMP JUMPDEST DUP1 ISZERO PUSH2 0x672 JUMPI DUP1 PUSH1 0x1F LT PUSH2 0x649 JUMPI PUSH2 0x100 DUP1 DUP4 SLOAD DIV MUL DUP4 MSTORE SWAP2 PUSH1 0x20 ADD SWAP2 PUSH2 0x672 JUMP JUMPDEST DUP3 ADD SWAP2 SWAP1 PUSH0 MSTORE PUSH1 0x20 PUSH0 KECCAK256 SWAP1 JUMPDEST DUP2 SLOAD DUP2 MSTORE SWAP1 PUSH1 0x1 ADD SWAP1 PUSH1 0x20 ADD DUP1 DUP4 GT PUSH2 0x655 JUMPI DUP3 SWAP1 SUB PUSH1 0x1F AND DUP3 ADD SWAP2 JUMPDEST POP POP POP POP POP SWAP1 DUP1 PUSH1 0x3 ADD PUSH0 SWAP1 SLOAD SWAP1 PUSH2 0x100 EXP SWAP1 DIV PUSH1 0xFF AND SWAP1 POP DUP5 JUMP JUMPDEST PUSH0 PUSH1 0x40 MLOAD DUP1 PUSH1 0x80 ADD PUSH1 0x40 MSTORE DUP1 DUP7 DUP2 MSTORE PUSH1 0x20 ADD DUP6 DUP2 MSTORE PUSH1 0x20 ADD DUP5 DUP2 MSTORE PUSH1 0x20 ADD DUP4 PUSH1 0xFF AND DUP2 MSTORE POP SWAP1 DUP1 PUSH1 0x1 DUP2 SLOAD ADD DUP1 DUP3 SSTORE DUP1 SWAP2 POP POP PUSH1 0x1 SWAP1 SUB SWAP1 PUSH0 MSTORE PUSH1 0x20 PUSH0 KECCAK256 SWAP1 PUSH1 0x4 MUL ADD PUSH0 SWAP1 SWAP2 SWAP1 SWAP2 SWAP1 SWAP2 POP PUSH0 DUP3 ADD MLOAD DUP2 PUSH0 ADD SWAP1 DUP2 PUSH2 0x6EC SWAP2 SWAP1 PUSH2 0x135E JUMP JUMPDEST POP PUSH1 0x20 DUP3 ADD MLOAD DUP2 PUSH1 0x1 ADD SSTORE PUSH1 0x40 DUP3 ADD MLOAD DUP2 PUSH1 0x2 ADD SWAP1 DUP2 PUSH2 0x70C SWAP2 SWAP1 PUSH2 0x135E JUMP JUMPDEST POP PUSH1 0x60 DUP3 ADD MLOAD DUP2 PUSH1 0x3 ADD PUSH0 PUSH2 0x100 EXP DUP2 SLOAD DUP2 PUSH1 0xFF MUL NOT AND SWAP1 DUP4 PUSH1 0xFF AND MUL OR SWAP1 SSTORE POP POP POP POP POP POP POP JUMP JUMPDEST PUSH0 PUSH1 0x60 PUSH0 DUP1 DUP1 SLOAD SWAP1 POP GT PUSH2 0x77E JUMPI PUSH1 0x40 MLOAD PUSH32 0x8C379A000000000000000000000000000000000000000000000000000000000 DUP2 MSTORE PUSH1 0x4 ADD PUSH2 0x775 SWAP1 PUSH2 0x15FE JUMP JUMPDEST PUSH1 0x40 MLOAD DUP1 SWAP2 SUB SWAP1 REVERT JUMPDEST PUSH0 DUP1 PUSH0 DUP2 SLOAD DUP2 LT PUSH2 0x792 JUMPI PUSH2 0x791 PUSH2 0x1137 JUMP JUMPDEST JUMPDEST SWAP1 PUSH0 MSTORE PUSH1 0x20 PUSH0 KECCAK256 SWAP1 PUSH1 0x4 MUL ADD PUSH1 0x3 ADD PUSH0 SWAP1 SLOAD SWAP1 PUSH2 0x100 EXP SWAP1 DIV PUSH1 0xFF AND SWAP1 POP PUSH0 DUP1 JUMPDEST PUSH0 DUP1 SLOAD SWAP1 POP DUP2 LT ISZERO PUSH2 0x88B JUMPI DUP3 PUSH1 0xFF AND PUSH0 DUP3 DUP2 SLOAD DUP2 LT PUSH2 0x7D6 JUMPI PUSH2 0x7D5 PUSH2 0x1137 JUMP JUMPDEST JUMPDEST SWAP1 PUSH0 MSTORE PUSH1 0x20 PUSH0 KECCAK256 SWAP1 PUSH1 0x4 MUL ADD PUSH1 0x3 ADD PUSH0 SWAP1 SLOAD SWAP1 PUSH2 0x100 EXP SWAP1 DIV PUSH1 0xFF AND PUSH1 0xFF AND GT ISZERO PUSH2 0x835 JUMPI PUSH0 DUP2 DUP2 SLOAD DUP2 LT PUSH2 0x80E JUMPI PUSH2 0x80D PUSH2 0x1137 JUMP JUMPDEST JUMPDEST SWAP1 PUSH0 MSTORE PUSH1 0x20 PUSH0 KECCAK256 SWAP1 PUSH1 0x4 MUL ADD PUSH1 0x3 ADD PUSH0 SWAP1 SLOAD SWAP1 PUSH2 0x100 EXP SWAP1 DIV PUSH1 0xFF AND SWAP3 POP PUSH1 0x1 SWAP2 POP PUSH2 0x880 JUMP JUMPDEST DUP3 PUSH1 0xFF AND PUSH0 DUP3 DUP2 SLOAD DUP2 LT PUSH2 0x84C JUMPI PUSH2 0x84B PUSH2 0x1137 JUMP JUMPDEST JUMPDEST SWAP1 PUSH0 MSTORE PUSH1 0x20 PUSH0 KECCAK256 SWAP1 PUSH1 0x4 MUL ADD PUSH1 0x3 ADD PUSH0 SWAP1 SLOAD SWAP1 PUSH2 0x100 EXP SWAP1 DIV PUSH1 0xFF AND PUSH1 0xFF AND SUB PUSH2 0x87F JUMPI DUP2 DUP1 PUSH2 0x87B SWAP1 PUSH2 0x161C JUMP JUMPDEST SWAP3 POP POP JUMPDEST JUMPDEST DUP1 PUSH1 0x1 ADD SWAP1 POP PUSH2 0x7B3 JUMP JUMPDEST POP PUSH0 PUSH2 0x896 DUP3 PUSH2 0x903 JUMP JUMPDEST SWAP1 POP PUSH0 PUSH1 0x40 MLOAD DUP1 PUSH1 0x40 ADD PUSH1 0x40 MSTORE DUP1 PUSH1 0xB DUP2 MSTORE PUSH1 0x20 ADD PUSH32 0x2073747564656E74287329000000000000000000000000000000000000000000 DUP2 MSTORE POP SWAP1 POP DUP2 DUP2 PUSH1 0x40 MLOAD PUSH1 0x20 ADD PUSH2 0x8E4 SWAP3 SWAP2 SWAP1 PUSH2 0x169D JUMP JUMPDEST PUSH1 0x40 MLOAD PUSH1 0x20 DUP2 DUP4 SUB SUB DUP2 MSTORE SWAP1 PUSH1 0x40 MSTORE SWAP2 POP DUP4 DUP3 SWAP6 POP SWAP6 POP POP POP POP POP SWAP1 SWAP2 JUMP JUMPDEST PUSH1 0x60 PUSH0 PUSH1 0x1 PUSH2 0x911 DUP5 PUSH2 0x9CD JUMP JUMPDEST ADD SWAP1 POP PUSH0 DUP2 PUSH8 0xFFFFFFFFFFFFFFFF DUP2 GT ISZERO PUSH2 0x92F JUMPI PUSH2 0x92E PUSH2 0xBFB JUMP JUMPDEST JUMPDEST PUSH1 0x40 MLOAD SWAP1 DUP1 DUP3 MSTORE DUP1 PUSH1 0x1F ADD PUSH1 0x1F NOT AND PUSH1 0x20 ADD DUP3 ADD PUSH1 0x40 MSTORE DUP1 ISZERO PUSH2 0x961 JUMPI DUP2 PUSH1 0x20 ADD PUSH1 0x1 DUP3 MUL DUP1 CALLDATASIZE DUP4 CALLDATACOPY DUP1 DUP3 ADD SWAP2 POP POP SWAP1 POP JUMPDEST POP SWAP1 POP PUSH0 DUP3 PUSH1 0x20 ADD DUP3 ADD SWAP1 POP JUMPDEST PUSH1 0x1 ISZERO PUSH2 0x9C2 JUMPI DUP1 DUP1 PUSH1 0x1 SWAP1 SUB SWAP2 POP POP PUSH32 0x3031323334353637383961626364656600000000000000000000000000000000 PUSH1 0xA DUP7 MOD BYTE DUP2 MSTORE8 PUSH1 0xA DUP6 DUP2 PUSH2 0x9B7 JUMPI PUSH2 0x9B6 PUSH2 0x16C0 JUMP JUMPDEST JUMPDEST DIV SWAP5 POP PUSH0 DUP6 SUB PUSH2 0x96E JUMPI JUMPDEST DUP2 SWAP4 POP POP POP POP SWAP2 SWAP1 POP JUMP JUMPDEST PUSH0 DUP1 PUSH0 SWAP1 POP PUSH27 0x184F03E93FF9F4DAA797ED6E38ED64BF6A1F010000000000000000 DUP4 LT PUSH2 0xA29 JUMPI PUSH27 0x184F03E93FF9F4DAA797ED6E38ED64BF6A1F010000000000000000 DUP4 DUP2 PUSH2 0xA1F JUMPI PUSH2 0xA1E PUSH2 0x16C0 JUMP JUMPDEST JUMPDEST DIV SWAP3 POP PUSH1 0x40 DUP2 ADD SWAP1 POP JUMPDEST PUSH14 0x4EE2D6D415B85ACEF8100000000 DUP4 LT PUSH2 0xA66 JUMPI PUSH14 0x4EE2D6D415B85ACEF8100000000 DUP4 DUP2 PUSH2 0xA5C JUMPI PUSH2 0xA5B PUSH2 0x16C0 JUMP JUMPDEST JUMPDEST DIV SWAP3 POP PUSH1 0x20 DUP2 ADD SWAP1 POP JUMPDEST PUSH7 0x2386F26FC10000 DUP4 LT PUSH2 0xA95 JUMPI PUSH7 0x2386F26FC10000 DUP4 DUP2 PUSH2 0xA8B JUMPI PUSH2 0xA8A PUSH2 0x16C0 JUMP JUMPDEST JUMPDEST DIV SWAP3 POP PUSH1 0x10 DUP2 ADD SWAP1 POP JUMPDEST PUSH4 0x5F5E100 DUP4 LT PUSH2 0xABE JUMPI PUSH4 0x5F5E100 DUP4 DUP2 PUSH2 0xAB4 JUMPI PUSH2 0xAB3 PUSH2 0x16C0 JUMP JUMPDEST JUMPDEST DIV SWAP3 POP PUSH1 0x8 DUP2 ADD SWAP1 POP JUMPDEST PUSH2 0x2710 DUP4 LT PUSH2 0xAE3 JUMPI PUSH2 0x2710 DUP4 DUP2 PUSH2 0xAD9 JUMPI PUSH2 0xAD8 PUSH2 0x16C0 JUMP JUMPDEST JUMPDEST DIV SWAP3 POP PUSH1 0x4 DUP2 ADD SWAP1 POP JUMPDEST PUSH1 0x64 DUP4 LT PUSH2 0xB06 JUMPI PUSH1 0x64 DUP4 DUP2 PUSH2 0xAFC JUMPI PUSH2 0xAFB PUSH2 0x16C0 JUMP JUMPDEST JUMPDEST DIV SWAP3 POP PUSH1 0x2 DUP2 ADD SWAP1 POP JUMPDEST PUSH1 0xA DUP4 LT PUSH2 0xB15 JUMPI PUSH1 0x1 DUP2 ADD SWAP1 POP JUMPDEST DUP1 SWAP2 POP POP SWAP2 SWAP1 POP JUMP JUMPDEST PUSH1 0x40 MLOAD DUP1 PUSH1 0x80 ADD PUSH1 0x40 MSTORE DUP1 PUSH1 0x60 DUP2 MSTORE PUSH1 0x20 ADD PUSH0 DUP2 MSTORE PUSH1 0x20 ADD PUSH1 0x60 DUP2 MSTORE PUSH1 0x20 ADD PUSH0 PUSH1 0xFF AND DUP2 MSTORE POP SWAP1 JUMP JUMPDEST POP DUP1 SLOAD PUSH2 0xB53 SWAP1 PUSH2 0x1191 JUMP JUMPDEST PUSH0 DUP3 SSTORE DUP1 PUSH1 0x1F LT PUSH2 0xB64 JUMPI POP PUSH2 0xB81 JUMP JUMPDEST PUSH1 0x1F ADD PUSH1 0x20 SWAP1 DIV SWAP1 PUSH0 MSTORE PUSH1 0x20 PUSH0 KECCAK256 SWAP1 DUP2 ADD SWAP1 PUSH2 0xB80 SWAP2 SWAP1 PUSH2 0xB84 JUMP JUMPDEST JUMPDEST POP JUMP JUMPDEST JUMPDEST DUP1 DUP3 GT ISZERO PUSH2 0xB9B JUMPI PUSH0 DUP2 PUSH0 SWAP1 SSTORE POP PUSH1 0x1 ADD PUSH2 0xB85 JUMP JUMPDEST POP SWAP1 JUMP JUMPDEST PUSH0 PUSH1 0x40 MLOAD SWAP1 POP SWAP1 JUMP JUMPDEST PUSH0 DUP1 REVERT JUMPDEST PUSH0 DUP1 REVERT JUMPDEST PUSH0 DUP2 SWAP1 POP SWAP2 SWAP1 POP JUMP JUMPDEST PUSH2 0xBC2 DUP2 PUSH2 0xBB0 JUMP JUMPDEST DUP2 EQ PUSH2 0xBCC JUMPI PUSH0 DUP1 REVERT JUMPDEST POP JUMP JUMPDEST PUSH0 DUP2 CALLDATALOAD SWAP1 POP PUSH2 0xBDD DUP2 PUSH2 0xBB9 JUMP JUMPDEST SWAP3 SWAP2 POP POP JUMP JUMPDEST PUSH0 DUP1 REVERT JUMPDEST PUSH0 DUP1 REVERT JUMPDEST PUSH0 PUSH1 0x1F NOT PUSH1 0x1F DUP4 ADD AND SWAP1 POP SWAP2 SWAP1 POP JUMP JUMPDEST PUSH32 0x4E487B7100000000000000000000000000000000000000000000000000000000 PUSH0 MSTORE PUSH1 0x41 PUSH1 0x4 MSTORE PUSH1 0x24 PUSH0 REVERT JUMPDEST PUSH2 0xC31 DUP3 PUSH2 0xBEB JUMP JUMPDEST DUP2 ADD DUP2 DUP2 LT PUSH8 0xFFFFFFFFFFFFFFFF DUP3 GT OR ISZERO PUSH2 0xC50 JUMPI PUSH2 0xC4F PUSH2 0xBFB JUMP JUMPDEST JUMPDEST DUP1 PUSH1 0x40 MSTORE POP POP POP JUMP JUMPDEST PUSH0 PUSH2 0xC62 PUSH2 0xB9F JUMP JUMPDEST SWAP1 POP PUSH2 0xC6E DUP3 DUP3 PUSH2 0xC28 JUMP JUMPDEST SWAP2 SWAP1 POP JUMP JUMPDEST PUSH0 PUSH8 0xFFFFFFFFFFFFFFFF DUP3 GT ISZERO PUSH2 0xC8D JUMPI PUSH2 0xC8C PUSH2 0xBFB JUMP JUMPDEST JUMPDEST PUSH2 0xC96 DUP3 PUSH2 0xBEB JUMP JUMPDEST SWAP1 POP PUSH1 0x20 DUP2 ADD SWAP1 POP SWAP2 SWAP1 POP JUMP JUMPDEST DUP3 DUP2 DUP4 CALLDATACOPY PUSH0 DUP4 DUP4 ADD MSTORE POP POP POP JUMP JUMPDEST PUSH0 PUSH2 0xCC3 PUSH2 0xCBE DUP5 PUSH2 0xC73 JUMP JUMPDEST PUSH2 0xC59 JUMP JUMPDEST SWAP1 POP DUP3 DUP2 MSTORE PUSH1 0x20 DUP2 ADD DUP5 DUP5 DUP5 ADD GT ISZERO PUSH2 0xCDF JUMPI PUSH2 0xCDE PUSH2 0xBE7 JUMP JUMPDEST JUMPDEST PUSH2 0xCEA DUP5 DUP3 DUP6 PUSH2 0xCA3 JUMP JUMPDEST POP SWAP4 SWAP3 POP POP POP JUMP JUMPDEST PUSH0 DUP3 PUSH1 0x1F DUP4 ADD SLT PUSH2 0xD06 JUMPI PUSH2 0xD05 PUSH2 0xBE3 JUMP JUMPDEST JUMPDEST DUP2 CALLDATALOAD PUSH2 0xD16 DUP5 DUP3 PUSH1 0x20 DUP7 ADD PUSH2 0xCB1 JUMP JUMPDEST SWAP2 POP POP SWAP3 SWAP2 POP POP JUMP JUMPDEST PUSH0 PUSH1 0xFF DUP3 AND SWAP1 POP SWAP2 SWAP1 POP JUMP JUMPDEST PUSH2 0xD34 DUP2 PUSH2 0xD1F JUMP JUMPDEST DUP2 EQ PUSH2 0xD3E JUMPI PUSH0 DUP1 REVERT JUMPDEST POP JUMP JUMPDEST PUSH0 DUP2 CALLDATALOAD SWAP1 POP PUSH2 0xD4F DUP2 PUSH2 0xD2B JUMP JUMPDEST SWAP3 SWAP2 POP POP JUMP JUMPDEST PUSH0 DUP1 PUSH0 DUP1 PUSH0 PUSH1 0xA0 DUP7 DUP9 SUB SLT ISZERO PUSH2 0xD6E JUMPI PUSH2 0xD6D PUSH2 0xBA8 JUMP JUMPDEST JUMPDEST PUSH0 PUSH2 0xD7B DUP9 DUP3 DUP10 ADD PUSH2 0xBCF JUMP JUMPDEST SWAP6 POP POP PUSH1 0x20 DUP7 ADD CALLDATALOAD PUSH8 0xFFFFFFFFFFFFFFFF DUP2 GT ISZERO PUSH2 0xD9C JUMPI PUSH2 0xD9B PUSH2 0xBAC JUMP JUMPDEST JUMPDEST PUSH2 0xDA8 DUP9 DUP3 DUP10 ADD PUSH2 0xCF2 JUMP JUMPDEST SWAP5 POP POP PUSH1 0x40 PUSH2 0xDB9 DUP9 DUP3 DUP10 ADD PUSH2 0xBCF JUMP JUMPDEST SWAP4 POP POP PUSH1 0x60 DUP7 ADD CALLDATALOAD PUSH8 0xFFFFFFFFFFFFFFFF DUP2 GT ISZERO PUSH2 0xDDA JUMPI PUSH2 0xDD9 PUSH2 0xBAC JUMP JUMPDEST JUMPDEST PUSH2 0xDE6 DUP9 DUP3 DUP10 ADD PUSH2 0xCF2 JUMP JUMPDEST SWAP3 POP POP PUSH1 0x80 PUSH2 0xDF7 DUP9 DUP3 DUP10 ADD PUSH2 0xD41 JUMP JUMPDEST SWAP2 POP POP SWAP3 SWAP6 POP SWAP3 SWAP6 SWAP1 SWAP4 POP JUMP JUMPDEST PUSH0 PUSH1 0x20 DUP3 DUP5 SUB SLT ISZERO PUSH2 0xE19 JUMPI PUSH2 0xE18 PUSH2 0xBA8 JUMP JUMPDEST JUMPDEST PUSH0 PUSH2 0xE26 DUP5 DUP3 DUP6 ADD PUSH2 0xBCF JUMP JUMPDEST SWAP2 POP POP SWAP3 SWAP2 POP POP JUMP JUMPDEST PUSH0 DUP2 MLOAD SWAP1 POP SWAP2 SWAP1 POP JUMP JUMPDEST PUSH0 DUP3 DUP3 MSTORE PUSH1 0x20 DUP3 ADD SWAP1 POP SWAP3 SWAP2 POP POP JUMP JUMPDEST PUSH0 JUMPDEST DUP4 DUP2 LT ISZERO PUSH2 0xE66 JUMPI DUP1 DUP3 ADD MLOAD DUP2 DUP5 ADD MSTORE PUSH1 0x20 DUP2 ADD SWAP1 POP PUSH2 0xE4B JUMP JUMPDEST PUSH0 DUP5 DUP5 ADD MSTORE POP POP POP POP JUMP JUMPDEST PUSH0 PUSH2 0xE7B DUP3 PUSH2 0xE2F JUMP JUMPDEST PUSH2 0xE85 DUP2 DUP6 PUSH2 0xE39 JUMP JUMPDEST SWAP4 POP PUSH2 0xE95 DUP2 DUP6 PUSH1 0x20 DUP7 ADD PUSH2 0xE49 JUMP JUMPDEST PUSH2 0xE9E DUP2 PUSH2 0xBEB JUMP JUMPDEST DUP5 ADD SWAP2 POP POP SWAP3 SWAP2 POP POP JUMP JUMPDEST PUSH2 0xEB2 DUP2 PUSH2 0xBB0 JUMP JUMPDEST DUP3 MSTORE POP POP JUMP JUMPDEST PUSH2 0xEC1 DUP2 PUSH2 0xD1F JUMP JUMPDEST DUP3 MSTORE POP POP JUMP JUMPDEST PUSH0 PUSH1 0x80 DUP4 ADD PUSH0 DUP4 ADD MLOAD DUP5 DUP3 SUB PUSH0 DUP7 ADD MSTORE PUSH2 0xEE1 DUP3 DUP3 PUSH2 0xE71 JUMP JUMPDEST SWAP2 POP POP PUSH1 0x20 DUP4 ADD MLOAD PUSH2 0xEF6 PUSH1 0x20 DUP7 ADD DUP3 PUSH2 0xEA9 JUMP JUMPDEST POP PUSH1 0x40 DUP4 ADD MLOAD DUP5 DUP3 SUB PUSH1 0x40 DUP7 ADD MSTORE PUSH2 0xF0E DUP3 DUP3 PUSH2 0xE71 JUMP JUMPDEST SWAP2 POP POP PUSH1 0x60 DUP4 ADD MLOAD PUSH2 0xF23 PUSH1 0x60 DUP7 ADD DUP3 PUSH2 0xEB8 JUMP JUMPDEST POP DUP1 SWAP2 POP POP SWAP3 SWAP2 POP POP JUMP JUMPDEST PUSH0 PUSH1 0x20 DUP3 ADD SWAP1 POP DUP2 DUP2 SUB PUSH0 DUP4 ADD MSTORE PUSH2 0xF46 DUP2 DUP5 PUSH2 0xEC7 JUMP JUMPDEST SWAP1 POP SWAP3 SWAP2 POP POP JUMP JUMPDEST PUSH0 DUP3 DUP3 MSTORE PUSH1 0x20 DUP3 ADD SWAP1 POP SWAP3 SWAP2 POP POP JUMP JUMPDEST PUSH0 PUSH2 0xF68 DUP3 PUSH2 0xE2F JUMP JUMPDEST PUSH2 0xF72 DUP2 DUP6 PUSH2 0xF4E JUMP JUMPDEST SWAP4 POP PUSH2 0xF82 DUP2 DUP6 PUSH1 0x20 DUP7 ADD PUSH2 0xE49 JUMP JUMPDEST PUSH2 0xF8B DUP2 PUSH2 0xBEB JUMP JUMPDEST DUP5 ADD SWAP2 POP POP SWAP3 SWAP2 POP POP JUMP JUMPDEST PUSH2 0xF9F DUP2 PUSH2 0xBB0 JUMP JUMPDEST DUP3 MSTORE POP POP JUMP JUMPDEST PUSH2 0xFAE DUP2 PUSH2 0xD1F JUMP JUMPDEST DUP3 MSTORE POP POP JUMP JUMPDEST PUSH0 PUSH1 0x80 DUP3 ADD SWAP1 POP DUP2 DUP2 SUB PUSH0 DUP4 ADD MSTORE PUSH2 0xFCC DUP2 DUP8 PUSH2 0xF5E JUMP JUMPDEST SWAP1 POP PUSH2 0xFDB PUSH1 0x20 DUP4 ADD DUP7 PUSH2 0xF96 JUMP JUMPDEST DUP2 DUP2 SUB PUSH1 0x40 DUP4 ADD MSTORE PUSH2 0xFED DUP2 DUP6 PUSH2 0xF5E JUMP JUMPDEST SWAP1 POP PUSH2 0xFFC PUSH1 0x60 DUP4 ADD DUP5 PUSH2 0xFA5 JUMP JUMPDEST SWAP6 SWAP5 POP POP POP POP POP JUMP JUMPDEST PUSH0 DUP1 PUSH0 DUP1 PUSH1 0x80 DUP6 DUP8 SUB SLT ISZERO PUSH2 0x101D JUMPI PUSH2 0x101C PUSH2 0xBA8 JUMP JUMPDEST JUMPDEST PUSH0 DUP6 ADD CALLDATALOAD PUSH8 0xFFFFFFFFFFFFFFFF DUP2 GT ISZERO PUSH2 0x103A JUMPI PUSH2 0x1039 PUSH2 0xBAC JUMP JUMPDEST JUMPDEST PUSH2 0x1046 DUP8 DUP3 DUP9 ADD PUSH2 0xCF2 JUMP JUMPDEST SWAP5 POP POP PUSH1 0x20 PUSH2 0x1057 DUP8 DUP3 DUP9 ADD PUSH2 0xBCF JUMP JUMPDEST SWAP4 POP POP PUSH1 0x40 DUP6 ADD CALLDATALOAD PUSH8 0xFFFFFFFFFFFFFFFF DUP2 GT ISZERO PUSH2 0x1078 JUMPI PUSH2 0x1077 PUSH2 0xBAC JUMP JUMPDEST JUMPDEST PUSH2 0x1084 DUP8 DUP3 DUP9 ADD PUSH2 0xCF2 JUMP JUMPDEST SWAP3 POP POP PUSH1 0x60 PUSH2 0x1095 DUP8 DUP3 DUP9 ADD PUSH2 0xD41 JUMP JUMPDEST SWAP2 POP POP SWAP3 SWAP6 SWAP2 SWAP5 POP SWAP3 POP JUMP JUMPDEST PUSH0 PUSH1 0x40 DUP3 ADD SWAP1 POP PUSH2 0x10B4 PUSH0 DUP4 ADD DUP6 PUSH2 0xFA5 JUMP JUMPDEST DUP2 DUP2 SUB PUSH1 0x20 DUP4 ADD MSTORE PUSH2 0x10C6 DUP2 DUP5 PUSH2 0xF5E JUMP JUMPDEST SWAP1 POP SWAP4 SWAP3 POP POP POP JUMP JUMPDEST PUSH32 0x496E76616C696420696E64657800000000000000000000000000000000000000 PUSH0 DUP3 ADD MSTORE POP JUMP JUMPDEST PUSH0 PUSH2 0x1103 PUSH1 0xD DUP4 PUSH2 0xF4E JUMP JUMPDEST SWAP2 POP PUSH2 0x110E DUP3 PUSH2 0x10CF JUMP JUMPDEST PUSH1 0x20 DUP3 ADD SWAP1 POP SWAP2 SWAP1 POP JUMP JUMPDEST PUSH0 PUSH1 0x20 DUP3 ADD SWAP1 POP DUP2 DUP2 SUB PUSH0 DUP4 ADD MSTORE PUSH2 0x1130 DUP2 PUSH2 0x10F7 JUMP JUMPDEST SWAP1 POP SWAP2 SWAP1 POP JUMP JUMPDEST PUSH32 0x4E487B7100000000000000000000000000000000000000000000000000000000 PUSH0 MSTORE PUSH1 0x32 PUSH1 0x4 MSTORE PUSH1 0x24 PUSH0 REVERT JUMPDEST PUSH32 0x4E487B7100000000000000000000000000000000000000000000000000000000 PUSH0 MSTORE PUSH1 0x22 PUSH1 0x4 MSTORE PUSH1 0x24 PUSH0 REVERT JUMPDEST PUSH0 PUSH1 0x2 DUP3 DIV SWAP1 POP PUSH1 0x1 DUP3 AND DUP1 PUSH2 0x11A8 JUMPI PUSH1 0x7F DUP3 AND SWAP2 POP JUMPDEST PUSH1 0x20 DUP3 LT DUP2 SUB PUSH2 0x11BB JUMPI PUSH2 0x11BA PUSH2 0x1164 JUMP JUMPDEST JUMPDEST POP SWAP2 SWAP1 POP JUMP JUMPDEST PUSH0 DUP2 SWAP1 POP DUP2 PUSH0 MSTORE PUSH1 0x20 PUSH0 KECCAK256 SWAP1 POP SWAP2 SWAP1 POP JUMP JUMPDEST PUSH0 PUSH1 0x20 PUSH1 0x1F DUP4 ADD DIV SWAP1 POP SWAP2 SWAP1 POP JUMP JUMPDEST PUSH0 DUP3 DUP3 SHL SWAP1 POP SWAP3 SWAP2 POP POP JUMP JUMPDEST PUSH0 PUSH1 0x8 DUP4 MUL PUSH2 0x121D PUSH32 0xFFFFFFFFFFFFFFFFFFFFFFFFFFFFFFFFFFFFFFFFFFFFFFFFFFFFFFFFFFFFFFFF DUP3 PUSH2 0x11E2 JUMP JUMPDEST PUSH2 0x1227 DUP7 DUP4 PUSH2 0x11E2 JUMP JUMPDEST SWAP6 POP DUP1 NOT DUP5 AND SWAP4 POP DUP1 DUP7 AND DUP5 OR SWAP3 POP POP POP SWAP4 SWAP3 POP POP POP JUMP JUMPDEST PUSH0 DUP2 SWAP1 POP SWAP2 SWAP1 POP JUMP JUMPDEST PUSH0 PUSH2 0x1262 PUSH2 0x125D PUSH2 0x1258 DUP5 PUSH2 0xBB0 JUMP JUMPDEST PUSH2 0x123F JUMP JUMPDEST PUSH2 0xBB0 JUMP JUMPDEST SWAP1 POP SWAP2 SWAP1 POP JUMP JUMPDEST PUSH0 DUP2 SWAP1 POP SWAP2 SWAP1 POP JUMP JUMPDEST PUSH2 0x127B DUP4 PUSH2 0x1248 JUMP JUMPDEST PUSH2 0x128F PUSH2 0x1287 DUP3 PUSH2 0x1269 JUMP JUMPDEST DUP5 DUP5 SLOAD PUSH2 0x11EE JUMP JUMPDEST DUP3 SSTORE POP POP POP POP JUMP JUMPDEST PUSH0 SWAP1 JUMP JUMPDEST PUSH2 0x12A3 PUSH2 0x1297 JUMP JUMPDEST PUSH2 0x12AE DUP2 DUP5 DUP5 PUSH2 0x1272 JUMP JUMPDEST POP POP POP JUMP JUMPDEST JUMPDEST DUP2 DUP2 LT ISZERO PUSH2 0x12D1 JUMPI PUSH2 0x12C6 PUSH0 DUP3 PUSH2 0x129B JUMP JUMPDEST PUSH1 0x1 DUP2 ADD SWAP1 POP PUSH2 0x12B4 JUMP JUMPDEST POP POP JUMP JUMPDEST PUSH1 0x1F DUP3 GT ISZERO PUSH2 0x1316 JUMPI PUSH2 0x12E7 DUP2 PUSH2 0x11C1 JUMP JUMPDEST PUSH2 0x12F0 DUP5 PUSH2 0x11D3 JUMP JUMPDEST DUP2 ADD PUSH1 0x20 DUP6 LT ISZERO PUSH2 0x12FF JUMPI DUP2 SWAP1 POP JUMPDEST PUSH2 0x1313 PUSH2 0x130B DUP6 PUSH2 0x11D3 JUMP JUMPDEST DUP4 ADD DUP3 PUSH2 0x12B3 JUMP JUMPDEST POP POP JUMPDEST POP POP POP JUMP JUMPDEST PUSH0 DUP3 DUP3 SHR SWAP1 POP SWAP3 SWAP2 POP POP JUMP JUMPDEST PUSH0 PUSH2 0x1336 PUSH0 NOT DUP5 PUSH1 0x8 MUL PUSH2 0x131B JUMP JUMPDEST NOT DUP1 DUP4 AND SWAP2 POP POP SWAP3 SWAP2 POP POP JUMP JUMPDEST PUSH0 PUSH2 0x134E DUP4 DUP4 PUSH2 0x1327 JUMP JUMPDEST SWAP2 POP DUP3 PUSH1 0x2 MUL DUP3 OR SWAP1 POP SWAP3 SWAP2 POP POP JUMP JUMPDEST PUSH2 0x1367 DUP3 PUSH2 0xE2F JUMP JUMPDEST PUSH8 0xFFFFFFFFFFFFFFFF DUP2 GT ISZERO PUSH2 0x1380 JUMPI PUSH2 0x137F PUSH2 0xBFB JUMP JUMPDEST JUMPDEST PUSH2 0x138A DUP3 SLOAD PUSH2 0x1191 JUMP JUMPDEST PUSH2 0x1395 DUP3 DUP3 DUP6 PUSH2 0x12D5 JUMP JUMPDEST PUSH0 PUSH1 0x20 SWAP1 POP PUSH1 0x1F DUP4 GT PUSH1 0x1 DUP2 EQ PUSH2 0x13C6 JUMPI PUSH0 DUP5 ISZERO PUSH2 0x13B4 JUMPI DUP3 DUP8 ADD MLOAD SWAP1 POP JUMPDEST PUSH2 0x13BE DUP6 DUP3 PUSH2 0x1343 JUMP JUMPDEST DUP7 SSTORE POP PUSH2 0x1425 JUMP JUMPDEST PUSH1 0x1F NOT DUP5 AND PUSH2 0x13D4 DUP7 PUSH2 0x11C1 JUMP JUMPDEST PUSH0 JUMPDEST DUP3 DUP2 LT ISZERO PUSH2 0x13FB JUMPI DUP5 DUP10 ADD MLOAD DUP3 SSTORE PUSH1 0x1 DUP3 ADD SWAP2 POP PUSH1 0x20 DUP6 ADD SWAP5 POP PUSH1 0x20 DUP2 ADD SWAP1 POP PUSH2 0x13D6 JUMP JUMPDEST DUP7 DUP4 LT ISZERO PUSH2 0x1418 JUMPI DUP5 DUP10 ADD MLOAD PUSH2 0x1414 PUSH1 0x1F DUP10 AND DUP3 PUSH2 0x1327 JUMP JUMPDEST DUP4 SSTORE POP JUMPDEST PUSH1 0x1 PUSH1 0x2 DUP9 MUL ADD DUP9 SSTORE POP POP POP JUMPDEST POP POP POP POP POP POP JUMP JUMPDEST PUSH32 0x4E487B7100000000000000000000000000000000000000000000000000000000 PUSH0 MSTORE PUSH1 0x11 PUSH1 0x4 MSTORE PUSH1 0x24 PUSH0 REVERT JUMPDEST PUSH0 PUSH2 0x1464 DUP3 PUSH2 0xBB0 JUMP JUMPDEST SWAP2 POP PUSH2 0x146F DUP4 PUSH2 0xBB0 JUMP JUMPDEST SWAP3 POP DUP3 DUP3 SUB SWAP1 POP DUP2 DUP2 GT ISZERO PUSH2 0x1487 JUMPI PUSH2 0x1486 PUSH2 0x142D JUMP JUMPDEST JUMPDEST SWAP3 SWAP2 POP POP JUMP JUMPDEST PUSH0 DUP2 SLOAD SWAP1 POP PUSH2 0x149B DUP2 PUSH2 0x1191 JUMP JUMPDEST SWAP1 POP SWAP2 SWAP1 POP JUMP JUMPDEST DUP2 DUP2 SUB PUSH2 0x14B0 JUMPI POP POP PUSH2 0x1585 JUMP JUMPDEST PUSH2 0x14B9 DUP3 PUSH2 0x148D JUMP JUMPDEST PUSH8 0xFFFFFFFFFFFFFFFF DUP2 GT ISZERO PUSH2 0x14D2 JUMPI PUSH2 0x14D1 PUSH2 0xBFB JUMP JUMPDEST JUMPDEST PUSH2 0x14DC DUP3 SLOAD PUSH2 0x1191 JUMP JUMPDEST PUSH2 0x14E7 DUP3 DUP3 DUP6 PUSH2 0x12D5 JUMP JUMPDEST PUSH0 PUSH1 0x1F DUP4 GT PUSH1 0x1 DUP2 EQ PUSH2 0x1514 JUMPI PUSH0 DUP5 ISZERO PUSH2 0x1502 JUMPI DUP3 DUP8 ADD SLOAD SWAP1 POP JUMPDEST PUSH2 0x150C DUP6 DUP3 PUSH2 0x1343 JUMP JUMPDEST DUP7 SSTORE POP PUSH2 0x157E JUMP JUMPDEST PUSH1 0x1F NOT DUP5 AND PUSH2 0x1522 DUP8 PUSH2 0x11C1 JUMP JUMPDEST SWAP7 POP PUSH2 0x152D DUP7 PUSH2 0x11C1 JUMP JUMPDEST PUSH0 JUMPDEST DUP3 DUP2 LT ISZERO PUSH2 0x1554 JUMPI DUP5 DUP10 ADD SLOAD DUP3 SSTORE PUSH1 0x1 DUP3 ADD SWAP2 POP PUSH1 0x1 DUP6 ADD SWAP5 POP PUSH1 0x20 DUP2 ADD SWAP1 POP PUSH2 0x152F JUMP JUMPDEST DUP7 DUP4 LT ISZERO PUSH2 0x1571 JUMPI DUP5 DUP10 ADD SLOAD PUSH2 0x156D PUSH1 0x1F DUP10 AND DUP3 PUSH2 0x1327 JUMP JUMPDEST DUP4 SSTORE POP JUMPDEST PUSH1 0x1 PUSH1 0x2 DUP9 MUL ADD DUP9 SSTORE POP POP POP JUMPDEST POP POP POP POP POP POP JUMPDEST JUMP JUMPDEST PUSH32 0x4E487B7100000000000000000000000000000000000000000000000000000000 PUSH0 MSTORE PUSH1 0x31 PUSH1 0x4 MSTORE PUSH1 0x24 PUSH0 REVERT JUMPDEST PUSH32 0x4E6F2073747564656E747320696E20746865206C697374000000000000000000 PUSH0 DUP3 ADD MSTORE POP JUMP JUMPDEST PUSH0 PUSH2 0x15E8 PUSH1 0x17 DUP4 PUSH2 0xF4E JUMP JUMPDEST SWAP2 POP PUSH2 0x15F3 DUP3 PUSH2 0x15B4 JUMP JUMPDEST PUSH1 0x20 DUP3 ADD SWAP1 POP SWAP2 SWAP1 POP JUMP JUMPDEST PUSH0 PUSH1 0x20 DUP3 ADD SWAP1 POP DUP2 DUP2 SUB PUSH0 DUP4 ADD MSTORE PUSH2 0x1615 DUP2 PUSH2 0x15DC JUMP JUMPDEST SWAP1 POP SWAP2 SWAP1 POP JUMP JUMPDEST PUSH0 PUSH2 0x1626 DUP3 PUSH2 0xBB0 JUMP JUMPDEST SWAP2 POP PUSH32 0xFFFFFFFFFFFFFFFFFFFFFFFFFFFFFFFFFFFFFFFFFFFFFFFFFFFFFFFFFFFFFFFF DUP3 SUB PUSH2 0x1658 JUMPI PUSH2 0x1657 PUSH2 0x142D JUMP JUMPDEST JUMPDEST PUSH1 0x1 DUP3 ADD SWAP1 POP SWAP2 SWAP1 POP JUMP JUMPDEST PUSH0 DUP2 SWAP1 POP SWAP3 SWAP2 POP POP JUMP JUMPDEST PUSH0 PUSH2 0x1677 DUP3 PUSH2 0xE2F JUMP JUMPDEST PUSH2 0x1681 DUP2 DUP6 PUSH2 0x1663 JUMP JUMPDEST SWAP4 POP PUSH2 0x1691 DUP2 DUP6 PUSH1 0x20 DUP7 ADD PUSH2 0xE49 JUMP JUMPDEST DUP1 DUP5 ADD SWAP2 POP POP SWAP3 SWAP2 POP POP JUMP JUMPDEST PUSH0 PUSH2 0x16A8 DUP3 DUP6 PUSH2 0x166D JUMP JUMPDEST SWAP2 POP PUSH2 0x16B4 DUP3 DUP5 PUSH2 0x166D JUMP JUMPDEST SWAP2 POP DUP2 SWAP1 POP SWAP4 SWAP3 POP POP POP JUMP JUMPDEST PUSH32 0x4E487B7100000000000000000000000000000000000000000000000000000000 PUSH0 MSTORE PUSH1 0x12 PUSH1 0x4 MSTORE PUSH1 0x24 PUSH0 REVERT INVALID LOG2 PUSH5 0x6970667358 0x22 SLT KECCAK256 EXP 0x2A 0xE9 0xF8 PUSH1 0x92 GASLIMIT PC PUSH14 0xEC5B5BF5A7FB0809B386598A0AD2 PUSH6 0x5325DD7065C7 ADDMOD PUSH13 0x64736F6C634300081800330000 "
				},
				"gasEstimates": {
					"creation": {
						"codeDepositCost": "1184600",
						"executionCost": "1232",
						"totalCost": "1185832"
					},
					"external": {
						"addStudent(string,uint256,string,uint8)": "infinite",
						"editStudent(uint256,string,uint256,string,uint8)": "infinite",
						"getStudent(uint256)": "infinite",
						"getStudentWithHighestGPA()": "infinite",
						"removeStudent(uint256)": "infinite",
						"studentsList(uint256)": "infinite"
					}
				},
				"methodIdentifiers": {
					"addStudent(string,uint256,string,uint8)": "b0e3e19b",
					"editStudent(uint256,string,uint256,string,uint8)": "1fa27b5b",
					"getStudent(uint256)": "642f9163",
					"getStudentWithHighestGPA()": "dd5f1e48",
					"removeStudent(uint256)": "6af83845",
					"studentsList(uint256)": "7e46840d"
				}
			},
			"storageLayout": {
				"storage": [
					{
						"astId": 1429,
						"contract": "Cau1.sol:StudentDB",
						"label": "studentsList",
						"offset": 0,
						"slot": "0",
						"type": "t_array(t_struct(Student)1425_storage)dyn_storage"
					}
				],
				"types": {
					"t_array(t_struct(Student)1425_storage)dyn_storage": {
						"base": "t_struct(Student)1425_storage",
						"encoding": "dynamic_array",
						"label": "struct StudentDB.Student[]",
						"numberOfBytes": "32"
					},
					"t_string_storage": {
						"encoding": "bytes",
						"label": "string",
						"numberOfBytes": "32"
					},
					"t_struct(Student)1425_storage": {
						"encoding": "inplace",
						"label": "struct StudentDB.Student",
						"members": [
							{
								"astId": 1418,
								"contract": "Cau1.sol:StudentDB",
								"label": "name",
								"offset": 0,
								"slot": "0",
								"type": "t_string_storage"
							},
							{
								"astId": 1420,
								"contract": "Cau1.sol:StudentDB",
								"label": "age",
								"offset": 0,
								"slot": "1",
								"type": "t_uint256"
							},
							{
								"astId": 1422,
								"contract": "Cau1.sol:StudentDB",
								"label": "ID",
								"offset": 0,
								"slot": "2",
								"type": "t_string_storage"
							},
							{
								"astId": 1424,
								"contract": "Cau1.sol:StudentDB",
								"label": "gpa",
								"offset": 0,
								"slot": "3",
								"type": "t_uint8"
							}
						],
						"numberOfBytes": "128"
					},
					"t_uint256": {
						"encoding": "inplace",
						"label": "uint256",
						"numberOfBytes": "32"
					},
					"t_uint8": {
						"encoding": "inplace",
						"label": "uint8",
						"numberOfBytes": "1"
					}
				}
			},
			"userdoc": {
				"kind": "user",
				"methods": {},
				"version": 1
			}
		}
	}
}