{
	"UniSwap.sol": {
		"Uniswap": {
			"abi": [
				{
					"inputs": [],
					"stateMutability": "nonpayable",
					"type": "constructor"
				},
				{
					"inputs": [
						{
							"internalType": "string",
							"name": "_tokenSymbol",
							"type": "string"
						}
					],
					"name": "getAddress",
					"outputs": [
						{
							"internalType": "address",
							"name": "",
							"type": "address"
						}
					],
					"stateMutability": "view",
					"type": "function"
				},
				{
					"inputs": [
						{
							"internalType": "string",
							"name": "_tokenSymbol",
							"type": "string"
						},
						{
							"internalType": "address",
							"name": "_address",
							"type": "address"
						}
					],
					"name": "getBalance",
					"outputs": [
						{
							"internalType": "uint256",
							"name": "",
							"type": "uint256"
						}
					],
					"stateMutability": "view",
					"type": "function"
				},
				{
					"inputs": [
						{
							"internalType": "string",
							"name": "_tokenSymbol",
							"type": "string"
						}
					],
					"name": "getName",
					"outputs": [
						{
							"internalType": "string",
							"name": "",
							"type": "string"
						}
					],
					"stateMutability": "view",
					"type": "function"
				},
				{
					"inputs": [
						{
							"internalType": "string",
							"name": "_tokenSymbol",
							"type": "string"
						}
					],
					"name": "swapEthToToken",
					"outputs": [
						{
							"internalType": "uint256",
							"name": "",
							"type": "uint256"
						}
					],
					"stateMutability": "payable",
					"type": "function"
				},
				{
					"inputs": [
						{
							"internalType": "string",
							"name": "_tokenSymbol",
							"type": "string"
						},
						{
							"internalType": "uint256",
							"name": "_amount",
							"type": "uint256"
						}
					],
					"name": "swapTokenToEth",
					"outputs": [
						{
							"internalType": "uint256",
							"name": "",
							"type": "uint256"
						}
					],
					"stateMutability": "nonpayable",
					"type": "function"
				},
				{
					"inputs": [
						{
							"internalType": "string",
							"name": "_srcTokenSymbol",
							"type": "string"
						},
						{
							"internalType": "string",
							"name": "_desTokenSymbol",
							"type": "string"
						},
						{
							"internalType": "uint256",
							"name": "_amount",
							"type": "uint256"
						}
					],
					"name": "swapTokenToToken",
					"outputs": [],
					"stateMutability": "nonpayable",
					"type": "function"
				},
				{
					"inputs": [
						{
							"internalType": "uint256",
							"name": "",
							"type": "uint256"
						}
					],
					"name": "tokenNames",
					"outputs": [
						{
							"internalType": "string",
							"name": "",
							"type": "string"
						}
					],
					"stateMutability": "view",
					"type": "function"
				},
				{
					"inputs": [
						{
							"internalType": "uint256",
							"name": "",
							"type": "uint256"
						}
					],
					"name": "tokenSymbols",
					"outputs": [
						{
							"internalType": "string",
							"name": "",
							"type": "string"
						}
					],
					"stateMutability": "view",
					"type": "function"
				},
				{
					"inputs": [
						{
							"internalType": "string",
							"name": "",
							"type": "string"
						}
					],
					"name": "tokens",
					"outputs": [
						{
							"internalType": "contract ERC20",
							"name": "",
							"type": "address"
						}
					],
					"stateMutability": "view",
					"type": "function"
				}
			],
			"devdoc": {
				"kind": "dev",
				"methods": {},
				"version": 1
			},
			"evm": {
				"assembly": "    /* \"UniSwap.sol\":341:2664  contract Uniswap {... */\n  mstore(0x40, 0x80)\n    /* \"UniSwap.sol\":364:479  string[] public tokenNames = [... */\n  mload(0x40)\n  dup1\n  0x60\n  add\n  0x40\n  mstore\n  dup1\n  mload(0x40)\n  dup1\n  0x40\n  add\n  0x40\n  mstore\n  dup1\n  0x0b\n  dup2\n  mstore\n  0x20\n  add\n  0x566965746e616d446f6e67000000000000000000000000000000000000000000\n  dup2\n  mstore\n  pop\n  dup2\n  mstore\n  0x20\n  add\n  mload(0x40)\n  dup1\n  0x40\n  add\n  0x40\n  mstore\n  dup1\n  0x11\n  dup2\n  mstore\n  0x20\n  add\n  0x556e697465645374617465446f6c6c6172000000000000000000000000000000\n  dup2\n  mstore\n  pop\n  dup2\n  mstore\n  0x20\n  add\n  mload(0x40)\n  dup1\n  0x40\n  add\n  0x40\n  mstore\n  dup1\n  0x10\n  dup2\n  mstore\n  0x20\n  add\n  0x4175737472616c69616e446f6c6c617200000000000000000000000000000000\n  dup2\n  mstore\n  pop\n  dup2\n  mstore\n  pop\n  0x00\n  swap1\n  0x03\n  tag_1\n  swap3\n  swap2\n  swap1\n  tag_2\n  jump\t// in\ntag_1:\n  pop\n    /* \"UniSwap.sol\":515:567  string[] public tokenSymbols = [\"VND\", \"USD\", \"AUD\"] */\n  mload(0x40)\n  dup1\n  0x60\n  add\n  0x40\n  mstore\n  dup1\n  mload(0x40)\n  dup1\n  0x40\n  add\n  0x40\n  mstore\n  dup1\n  0x03\n  dup2\n  mstore\n  0x20\n  add\n  0x564e440000000000000000000000000000000000000000000000000000000000\n  dup2\n  mstore\n  pop\n  dup2\n  mstore\n  0x20\n  add\n  mload(0x40)\n  dup1\n  0x40\n  add\n  0x40\n  mstore\n  dup1\n  0x03\n  dup2\n  mstore\n  0x20\n  add\n  0x5553440000000000000000000000000000000000000000000000000000000000\n  dup2\n  mstore\n  pop\n  dup2\n  mstore\n  0x20\n  add\n  mload(0x40)\n  dup1\n  0x40\n  add\n  0x40\n  mstore\n  dup1\n  0x03\n  dup2\n  mstore\n  0x20\n  add\n  0x4155440000000000000000000000000000000000000000000000000000000000\n  dup2\n  mstore\n  pop\n  dup2\n  mstore\n  pop\n  0x01\n  swap1\n  0x03\n  tag_3\n  swap3\n  swap2\n  swap1\n  tag_2\n  jump\t// in\ntag_3:\n  pop\n    /* \"UniSwap.sol\":662:1014  constructor() {... */\n  callvalue\n  dup1\n  iszero\n  tag_4\n  jumpi\n  0x00\n  dup1\n  revert\ntag_4:\n  pop\n    /* \"UniSwap.sol\":691:700  uint256 i */\n  0x00\n    /* \"UniSwap.sol\":686:868  for (uint256 i = 0; i < 3; ++i) {... */\ntag_7:\n    /* \"UniSwap.sol\":710:711  3 */\n  0x03\n    /* \"UniSwap.sol\":706:707  i */\n  dup2\n    /* \"UniSwap.sol\":706:711  i < 3 */\n  lt\n    /* \"UniSwap.sol\":686:868  for (uint256 i = 0; i < 3; ++i) {... */\n  iszero\n  tag_8\n  jumpi\n    /* \"UniSwap.sol\":732:749  CustomToken token */\n  0x00\n    /* \"UniSwap.sol\":768:778  tokenNames */\n  dup1\n    /* \"UniSwap.sol\":779:780  i */\n  dup3\n    /* \"UniSwap.sol\":768:781  tokenNames[i] */\n  dup2\n  sload\n  dup2\n  lt\n  tag_10\n  jumpi\n  tag_11\n  tag_12\n  jump\t// in\ntag_11:\ntag_10:\n  swap1\n  0x00\n  mstore\n  keccak256(0x00, 0x20)\n  add\n    /* \"UniSwap.sol\":796:808  tokenSymbols */\n  0x01\n    /* \"UniSwap.sol\":809:810  i */\n  dup4\n    /* \"UniSwap.sol\":796:811  tokenSymbols[i] */\n  dup2\n  sload\n  dup2\n  lt\n  tag_14\n  jumpi\n  tag_15\n  tag_12\n  jump\t// in\ntag_15:\ntag_14:\n  swap1\n  0x00\n  mstore\n  keccak256(0x00, 0x20)\n  add\n    /* \"UniSwap.sol\":752:812  new CustomToken(tokenNames[i],... */\n  mload(0x40)\n  tag_17\n  swap1\n  tag_18\n  jump\t// in\ntag_17:\n  tag_19\n  swap3\n  swap2\n  swap1\n  tag_20\n  jump\t// in\ntag_19:\n  mload(0x40)\n  dup1\n  swap2\n  sub\n  swap1\n  0x00\n  create\n  dup1\n  iszero\n  dup1\n  iszero\n  tag_21\n  jumpi\n  returndatasize\n  0x00\n  dup1\n  returndatacopy\n  revert(0x00, returndatasize)\ntag_21:\n  pop\n    /* \"UniSwap.sol\":732:812  CustomToken token = new CustomToken(tokenNames[i],... */\n  swap1\n  pop\n    /* \"UniSwap.sol\":852:857  token */\n  dup1\n    /* \"UniSwap.sol\":826:832  tokens */\n  0x03\n    /* \"UniSwap.sol\":833:845  tokenSymbols */\n  0x01\n    /* \"UniSwap.sol\":846:847  i */\n  dup5\n    /* \"UniSwap.sol\":833:848  tokenSymbols[i] */\n  dup2\n  sload\n  dup2\n  lt\n  tag_22\n  jumpi\n  tag_23\n  tag_12\n  jump\t// in\ntag_23:\ntag_22:\n  swap1\n  0x00\n  mstore\n  keccak256(0x00, 0x20)\n  add\n    /* \"UniSwap.sol\":826:849  tokens[tokenSymbols[i]] */\n  mload(0x40)\n  tag_25\n  swap2\n  swap1\n  tag_26\n  jump\t// in\ntag_25:\n  swap1\n  dup2\n  mstore\n  0x20\n  add\n  mload(0x40)\n  dup1\n  swap2\n  sub\n  swap1\n  keccak256\n  0x00\n    /* \"UniSwap.sol\":826:857  tokens[tokenSymbols[i]] = token */\n  0x0100\n  exp\n  dup2\n  sload\n  dup2\n  0xffffffffffffffffffffffffffffffffffffffff\n  mul\n  not\n  and\n  swap1\n  dup4\n  0xffffffffffffffffffffffffffffffffffffffff\n  and\n  mul\n  or\n  swap1\n  sstore\n  pop\n    /* \"UniSwap.sol\":718:868  {... */\n  pop\n    /* \"UniSwap.sol\":713:716  ++i */\n  dup1\n  0x01\n  add\n  swap1\n  pop\n    /* \"UniSwap.sol\":686:868  for (uint256 i = 0; i < 3; ++i) {... */\n  jump(tag_7)\ntag_8:\n  pop\n    /* \"UniSwap.sol\":900:911  16092156923 */\n  0x03bf2ad3fb\n    /* \"UniSwap.sol\":877:890  priceOfTokens */\n  0x02\n    /* \"UniSwap.sol\":877:897  priceOfTokens[\"VND\"] */\n  mload(0x40)\n  tag_27\n  swap1\n  tag_28\n  jump\t// in\ntag_27:\n  swap1\n  dup2\n  mstore\n  0x20\n  add\n  mload(0x40)\n  dup1\n  swap2\n  sub\n  swap1\n  keccak256\n    /* \"UniSwap.sol\":877:911  priceOfTokens[\"VND\"] = 16092156923 */\n  dup2\n  swap1\n  sstore\n  pop\n    /* \"UniSwap.sol\":944:959  390000000000000 */\n  0x0162b3f3766000\n    /* \"UniSwap.sol\":921:934  priceOfTokens */\n  0x02\n    /* \"UniSwap.sol\":921:941  priceOfTokens[\"USD\"] */\n  mload(0x40)\n  tag_29\n  swap1\n  tag_30\n  jump\t// in\ntag_29:\n  swap1\n  dup2\n  mstore\n  0x20\n  add\n  mload(0x40)\n  dup1\n  swap2\n  sub\n  swap1\n  keccak256\n    /* \"UniSwap.sol\":921:959  priceOfTokens[\"USD\"] = 390000000000000 */\n  dup2\n  swap1\n  sstore\n  pop\n    /* \"UniSwap.sol\":992:1007  263767394156324 */\n  0xefe521d4ff24\n    /* \"UniSwap.sol\":969:982  priceOfTokens */\n  0x02\n    /* \"UniSwap.sol\":969:989  priceOfTokens[\"AUD\"] */\n  mload(0x40)\n  tag_31\n  swap1\n  tag_32\n  jump\t// in\ntag_31:\n  swap1\n  dup2\n  mstore\n  0x20\n  add\n  mload(0x40)\n  dup1\n  swap2\n  sub\n  swap1\n  keccak256\n    /* \"UniSwap.sol\":969:1007  priceOfTokens[\"AUD\"] = 263767394156324 */\n  dup2\n  swap1\n  sstore\n  pop\n    /* \"UniSwap.sol\":341:2664  contract Uniswap {... */\n  jump(tag_33)\ntag_2:\n  dup3\n  dup1\n  sload\n  dup3\n  dup3\n  sstore\n  swap1\n  0x00\n  mstore\n  keccak256(0x00, 0x20)\n  swap1\n  dup2\n  add\n  swap3\n  dup3\n  iszero\n  tag_34\n  jumpi\n  swap2\n  0x20\n  mul\n  dup3\n  add\ntag_35:\n  dup3\n  dup2\n  gt\n  iszero\n  tag_36\n  jumpi\n  dup3\n  mload\n  dup3\n  swap1\n  dup2\n  tag_37\n  swap2\n  swap1\n  tag_38\n  jump\t// in\ntag_37:\n  pop\n  swap2\n  0x20\n  add\n  swap2\n  swap1\n  0x01\n  add\n  swap1\n  jump(tag_35)\ntag_36:\ntag_34:\n  pop\n  swap1\n  pop\n  tag_39\n  swap2\n  swap1\n  tag_40\n  jump\t// in\ntag_39:\n  pop\n  swap1\n  jump\t// out\ntag_18:\n  dataSize(sub_1)\n  dup1\n  dataOffset(sub_1)\n  dup4\n  codecopy\n  add\n  swap1\n  jump\t// out\ntag_40:\ntag_41:\n  dup1\n  dup3\n  gt\n  iszero\n  tag_42\n  jumpi\n  0x00\n  dup2\n  dup2\n  tag_43\n  swap2\n  swap1\n  tag_44\n  jump\t// in\ntag_43:\n  pop\n  0x01\n  add\n  jump(tag_41)\ntag_42:\n  pop\n  swap1\n  jump\t// out\ntag_44:\n  pop\n  dup1\n  sload\n  tag_45\n  swap1\n  tag_46\n  jump\t// in\ntag_45:\n  0x00\n  dup3\n  sstore\n  dup1\n  0x1f\n  lt\n  tag_48\n  jumpi\n  pop\n  jump(tag_47)\ntag_48:\n  0x1f\n  add\n  0x20\n  swap1\n  div\n  swap1\n  0x00\n  mstore\n  keccak256(0x00, 0x20)\n  swap1\n  dup2\n  add\n  swap1\n  tag_49\n  swap2\n  swap1\n  tag_50\n  jump\t// in\ntag_49:\ntag_47:\n  pop\n  jump\t// out\ntag_50:\ntag_51:\n  dup1\n  dup3\n  gt\n  iszero\n  tag_52\n  jumpi\n  0x00\n  dup2\n  0x00\n  swap1\n  sstore\n  pop\n  0x01\n  add\n  jump(tag_51)\ntag_52:\n  pop\n  swap1\n  jump\t// out\n    /* \"#utility.yul\":7:187   */\ntag_12:\n    /* \"#utility.yul\":55:132   */\n  0x4e487b7100000000000000000000000000000000000000000000000000000000\n    /* \"#utility.yul\":52:53   */\n  0x00\n    /* \"#utility.yul\":45:133   */\n  mstore\n    /* \"#utility.yul\":152:156   */\n  0x32\n    /* \"#utility.yul\":149:150   */\n  0x04\n    /* \"#utility.yul\":142:157   */\n  mstore\n    /* \"#utility.yul\":176:180   */\n  0x24\n    /* \"#utility.yul\":173:174   */\n  0x00\n    /* \"#utility.yul\":166:181   */\n  revert\n    /* \"#utility.yul\":193:373   */\ntag_53:\n    /* \"#utility.yul\":241:318   */\n  0x4e487b7100000000000000000000000000000000000000000000000000000000\n    /* \"#utility.yul\":238:239   */\n  0x00\n    /* \"#utility.yul\":231:319   */\n  mstore\n    /* \"#utility.yul\":338:342   */\n  0x22\n    /* \"#utility.yul\":335:336   */\n  0x04\n    /* \"#utility.yul\":328:343   */\n  mstore\n    /* \"#utility.yul\":362:366   */\n  0x24\n    /* \"#utility.yul\":359:360   */\n  0x00\n    /* \"#utility.yul\":352:367   */\n  revert\n    /* \"#utility.yul\":379:699   */\ntag_46:\n    /* \"#utility.yul\":423:429   */\n  0x00\n    /* \"#utility.yul\":460:461   */\n  0x02\n    /* \"#utility.yul\":454:458   */\n  dup3\n    /* \"#utility.yul\":450:462   */\n  div\n    /* \"#utility.yul\":440:462   */\n  swap1\n  pop\n    /* \"#utility.yul\":507:508   */\n  0x01\n    /* \"#utility.yul\":501:505   */\n  dup3\n    /* \"#utility.yul\":497:509   */\n  and\n    /* \"#utility.yul\":528:546   */\n  dup1\n    /* \"#utility.yul\":518:599   */\n  tag_86\n  jumpi\n    /* \"#utility.yul\":584:588   */\n  0x7f\n    /* \"#utility.yul\":576:582   */\n  dup3\n    /* \"#utility.yul\":572:589   */\n  and\n    /* \"#utility.yul\":562:589   */\n  swap2\n  pop\n    /* \"#utility.yul\":518:599   */\ntag_86:\n    /* \"#utility.yul\":646:648   */\n  0x20\n    /* \"#utility.yul\":638:644   */\n  dup3\n    /* \"#utility.yul\":635:649   */\n  lt\n    /* \"#utility.yul\":615:633   */\n  dup2\n    /* \"#utility.yul\":612:650   */\n  sub\n    /* \"#utility.yul\":609:693   */\n  tag_87\n  jumpi\n    /* \"#utility.yul\":665:683   */\n  tag_88\n  tag_53\n  jump\t// in\ntag_88:\n    /* \"#utility.yul\":609:693   */\ntag_87:\n    /* \"#utility.yul\":430:699   */\n  pop\n    /* \"#utility.yul\":379:699   */\n  swap2\n  swap1\n  pop\n  jump\t// out\n    /* \"#utility.yul\":705:874   */\ntag_54:\n    /* \"#utility.yul\":789:800   */\n  0x00\n    /* \"#utility.yul\":823:829   */\n  dup3\n    /* \"#utility.yul\":818:821   */\n  dup3\n    /* \"#utility.yul\":811:830   */\n  mstore\n    /* \"#utility.yul\":863:867   */\n  0x20\n    /* \"#utility.yul\":858:861   */\n  dup3\n    /* \"#utility.yul\":854:868   */\n  add\n    /* \"#utility.yul\":839:868   */\n  swap1\n  pop\n    /* \"#utility.yul\":705:874   */\n  swap3\n  swap2\n  pop\n  pop\n  jump\t// out\n    /* \"#utility.yul\":880:1021   */\ntag_55:\n    /* \"#utility.yul\":929:933   */\n  0x00\n    /* \"#utility.yul\":952:955   */\n  dup2\n    /* \"#utility.yul\":944:955   */\n  swap1\n  pop\n    /* \"#utility.yul\":975:978   */\n  dup2\n    /* \"#utility.yul\":972:973   */\n  0x00\n    /* \"#utility.yul\":965:979   */\n  mstore\n    /* \"#utility.yul\":1009:1013   */\n  0x20\n    /* \"#utility.yul\":1006:1007   */\n  0x00\n    /* \"#utility.yul\":996:1014   */\n  keccak256\n    /* \"#utility.yul\":988:1014   */\n  swap1\n  pop\n    /* \"#utility.yul\":880:1021   */\n  swap2\n  swap1\n  pop\n  jump\t// out\n    /* \"#utility.yul\":1051:1882   */\ntag_56:\n    /* \"#utility.yul\":1136:1139   */\n  0x00\n    /* \"#utility.yul\":1173:1178   */\n  dup2\n    /* \"#utility.yul\":1167:1179   */\n  sload\n    /* \"#utility.yul\":1202:1238   */\n  tag_92\n    /* \"#utility.yul\":1228:1237   */\n  dup2\n    /* \"#utility.yul\":1202:1238   */\n  tag_46\n  jump\t// in\ntag_92:\n    /* \"#utility.yul\":1254:1325   */\n  tag_93\n    /* \"#utility.yul\":1318:1324   */\n  dup2\n    /* \"#utility.yul\":1313:1316   */\n  dup7\n    /* \"#utility.yul\":1254:1325   */\n  tag_54\n  jump\t// in\ntag_93:\n    /* \"#utility.yul\":1247:1325   */\n  swap5\n  pop\n    /* \"#utility.yul\":1356:1357   */\n  0x01\n    /* \"#utility.yul\":1345:1354   */\n  dup3\n    /* \"#utility.yul\":1341:1358   */\n  and\n    /* \"#utility.yul\":1372:1373   */\n  0x00\n    /* \"#utility.yul\":1367:1531   */\n  dup2\n  eq\n  tag_95\n  jumpi\n    /* \"#utility.yul\":1545:1546   */\n  0x01\n    /* \"#utility.yul\":1540:1876   */\n  dup2\n  eq\n  tag_96\n  jumpi\n    /* \"#utility.yul\":1334:1876   */\n  jump(tag_94)\n    /* \"#utility.yul\":1367:1531   */\ntag_95:\n    /* \"#utility.yul\":1451:1455   */\n  0xff\n    /* \"#utility.yul\":1447:1456   */\n  not\n    /* \"#utility.yul\":1436:1445   */\n  dup4\n    /* \"#utility.yul\":1432:1457   */\n  and\n    /* \"#utility.yul\":1427:1430   */\n  dup7\n    /* \"#utility.yul\":1420:1458   */\n  mstore\n    /* \"#utility.yul\":1511:1517   */\n  dup2\n    /* \"#utility.yul\":1504:1518   */\n  iszero\n    /* \"#utility.yul\":1497:1519   */\n  iszero\n    /* \"#utility.yul\":1491:1495   */\n  0x20\n    /* \"#utility.yul\":1487:1520   */\n  mul\n    /* \"#utility.yul\":1482:1485   */\n  dup7\n    /* \"#utility.yul\":1478:1521   */\n  add\n    /* \"#utility.yul\":1471:1521   */\n  swap4\n  pop\n    /* \"#utility.yul\":1367:1531   */\n  jump(tag_94)\n    /* \"#utility.yul\":1540:1876   */\ntag_96:\n    /* \"#utility.yul\":1607:1645   */\n  tag_97\n    /* \"#utility.yul\":1639:1644   */\n  dup6\n    /* \"#utility.yul\":1607:1645   */\n  tag_55\n  jump\t// in\ntag_97:\n    /* \"#utility.yul\":1667:1668   */\n  0x00\n    /* \"#utility.yul\":1681:1835   */\ntag_98:\n    /* \"#utility.yul\":1695:1701   */\n  dup4\n    /* \"#utility.yul\":1692:1693   */\n  dup2\n    /* \"#utility.yul\":1689:1702   */\n  lt\n    /* \"#utility.yul\":1681:1835   */\n  iszero\n  tag_100\n  jumpi\n    /* \"#utility.yul\":1769:1776   */\n  dup2\n    /* \"#utility.yul\":1763:1777   */\n  sload\n    /* \"#utility.yul\":1759:1760   */\n  dup2\n    /* \"#utility.yul\":1754:1757   */\n  dup10\n    /* \"#utility.yul\":1750:1761   */\n  add\n    /* \"#utility.yul\":1743:1778   */\n  mstore\n    /* \"#utility.yul\":1819:1820   */\n  0x01\n    /* \"#utility.yul\":1810:1817   */\n  dup3\n    /* \"#utility.yul\":1806:1821   */\n  add\n    /* \"#utility.yul\":1795:1821   */\n  swap2\n  pop\n    /* \"#utility.yul\":1717:1721   */\n  0x20\n    /* \"#utility.yul\":1714:1715   */\n  dup2\n    /* \"#utility.yul\":1710:1722   */\n  add\n    /* \"#utility.yul\":1705:1722   */\n  swap1\n  pop\n    /* \"#utility.yul\":1681:1835   */\n  jump(tag_98)\ntag_100:\n    /* \"#utility.yul\":1864:1865   */\n  dup1\n    /* \"#utility.yul\":1859:1862   */\n  dup9\n    /* \"#utility.yul\":1855:1866   */\n  add\n    /* \"#utility.yul\":1848:1866   */\n  swap6\n  pop\n    /* \"#utility.yul\":1547:1876   */\n  pop\n  pop\n    /* \"#utility.yul\":1334:1876   */\ntag_94:\n  pop\n    /* \"#utility.yul\":1140:1882   */\n  pop\n  pop\n    /* \"#utility.yul\":1051:1882   */\n  swap3\n  swap2\n  pop\n  pop\n  jump\t// out\n    /* \"#utility.yul\":1888:2390   */\ntag_20:\n    /* \"#utility.yul\":2043:2047   */\n  0x00\n    /* \"#utility.yul\":2081:2083   */\n  0x40\n    /* \"#utility.yul\":2070:2079   */\n  dup3\n    /* \"#utility.yul\":2066:2084   */\n  add\n    /* \"#utility.yul\":2058:2084   */\n  swap1\n  pop\n    /* \"#utility.yul\":2130:2139   */\n  dup2\n    /* \"#utility.yul\":2124:2128   */\n  dup2\n    /* \"#utility.yul\":2120:2140   */\n  sub\n    /* \"#utility.yul\":2116:2117   */\n  0x00\n    /* \"#utility.yul\":2105:2114   */\n  dup4\n    /* \"#utility.yul\":2101:2118   */\n  add\n    /* \"#utility.yul\":2094:2141   */\n  mstore\n    /* \"#utility.yul\":2158:2233   */\n  tag_102\n    /* \"#utility.yul\":2228:2232   */\n  dup2\n    /* \"#utility.yul\":2219:2225   */\n  dup6\n    /* \"#utility.yul\":2158:2233   */\n  tag_56\n  jump\t// in\ntag_102:\n    /* \"#utility.yul\":2150:2233   */\n  swap1\n  pop\n    /* \"#utility.yul\":2280:2289   */\n  dup2\n    /* \"#utility.yul\":2274:2278   */\n  dup2\n    /* \"#utility.yul\":2270:2290   */\n  sub\n    /* \"#utility.yul\":2265:2267   */\n  0x20\n    /* \"#utility.yul\":2254:2263   */\n  dup4\n    /* \"#utility.yul\":2250:2268   */\n  add\n    /* \"#utility.yul\":2243:2291   */\n  mstore\n    /* \"#utility.yul\":2308:2383   */\n  tag_103\n    /* \"#utility.yul\":2378:2382   */\n  dup2\n    /* \"#utility.yul\":2369:2375   */\n  dup5\n    /* \"#utility.yul\":2308:2383   */\n  tag_56\n  jump\t// in\ntag_103:\n    /* \"#utility.yul\":2300:2383   */\n  swap1\n  pop\n    /* \"#utility.yul\":1888:2390   */\n  swap4\n  swap3\n  pop\n  pop\n  pop\n  jump\t// out\n    /* \"#utility.yul\":2396:2544   */\ntag_57:\n    /* \"#utility.yul\":2498:2509   */\n  0x00\n    /* \"#utility.yul\":2535:2538   */\n  dup2\n    /* \"#utility.yul\":2520:2538   */\n  swap1\n  pop\n    /* \"#utility.yul\":2396:2544   */\n  swap3\n  swap2\n  pop\n  pop\n  jump\t// out\n    /* \"#utility.yul\":2574:3448   */\ntag_58:\n    /* \"#utility.yul\":2677:2680   */\n  0x00\n    /* \"#utility.yul\":2714:2719   */\n  dup2\n    /* \"#utility.yul\":2708:2720   */\n  sload\n    /* \"#utility.yul\":2743:2779   */\n  tag_106\n    /* \"#utility.yul\":2769:2778   */\n  dup2\n    /* \"#utility.yul\":2743:2779   */\n  tag_46\n  jump\t// in\ntag_106:\n    /* \"#utility.yul\":2795:2884   */\n  tag_107\n    /* \"#utility.yul\":2877:2883   */\n  dup2\n    /* \"#utility.yul\":2872:2875   */\n  dup7\n    /* \"#utility.yul\":2795:2884   */\n  tag_57\n  jump\t// in\ntag_107:\n    /* \"#utility.yul\":2788:2884   */\n  swap5\n  pop\n    /* \"#utility.yul\":2915:2916   */\n  0x01\n    /* \"#utility.yul\":2904:2913   */\n  dup3\n    /* \"#utility.yul\":2900:2917   */\n  and\n    /* \"#utility.yul\":2931:2932   */\n  0x00\n    /* \"#utility.yul\":2926:3092   */\n  dup2\n  eq\n  tag_109\n  jumpi\n    /* \"#utility.yul\":3106:3107   */\n  0x01\n    /* \"#utility.yul\":3101:3442   */\n  dup2\n  eq\n  tag_110\n  jumpi\n    /* \"#utility.yul\":2893:3442   */\n  jump(tag_108)\n    /* \"#utility.yul\":2926:3092   */\ntag_109:\n    /* \"#utility.yul\":3010:3014   */\n  0xff\n    /* \"#utility.yul\":3006:3015   */\n  not\n    /* \"#utility.yul\":2995:3004   */\n  dup4\n    /* \"#utility.yul\":2991:3016   */\n  and\n    /* \"#utility.yul\":2986:2989   */\n  dup7\n    /* \"#utility.yul\":2979:3017   */\n  mstore\n    /* \"#utility.yul\":3072:3078   */\n  dup2\n    /* \"#utility.yul\":3065:3079   */\n  iszero\n    /* \"#utility.yul\":3058:3080   */\n  iszero\n    /* \"#utility.yul\":3050:3056   */\n  dup3\n    /* \"#utility.yul\":3046:3081   */\n  mul\n    /* \"#utility.yul\":3041:3044   */\n  dup7\n    /* \"#utility.yul\":3037:3082   */\n  add\n    /* \"#utility.yul\":3030:3082   */\n  swap4\n  pop\n    /* \"#utility.yul\":2926:3092   */\n  jump(tag_108)\n    /* \"#utility.yul\":3101:3442   */\ntag_110:\n    /* \"#utility.yul\":3168:3206   */\n  tag_111\n    /* \"#utility.yul\":3200:3205   */\n  dup6\n    /* \"#utility.yul\":3168:3206   */\n  tag_55\n  jump\t// in\ntag_111:\n    /* \"#utility.yul\":3228:3229   */\n  0x00\n    /* \"#utility.yul\":3242:3396   */\ntag_112:\n    /* \"#utility.yul\":3256:3262   */\n  dup4\n    /* \"#utility.yul\":3253:3254   */\n  dup2\n    /* \"#utility.yul\":3250:3263   */\n  lt\n    /* \"#utility.yul\":3242:3396   */\n  iszero\n  tag_114\n  jumpi\n    /* \"#utility.yul\":3330:3337   */\n  dup2\n    /* \"#utility.yul\":3324:3338   */\n  sload\n    /* \"#utility.yul\":3320:3321   */\n  dup2\n    /* \"#utility.yul\":3315:3318   */\n  dup10\n    /* \"#utility.yul\":3311:3322   */\n  add\n    /* \"#utility.yul\":3304:3339   */\n  mstore\n    /* \"#utility.yul\":3380:3381   */\n  0x01\n    /* \"#utility.yul\":3371:3378   */\n  dup3\n    /* \"#utility.yul\":3367:3382   */\n  add\n    /* \"#utility.yul\":3356:3382   */\n  swap2\n  pop\n    /* \"#utility.yul\":3278:3282   */\n  0x20\n    /* \"#utility.yul\":3275:3276   */\n  dup2\n    /* \"#utility.yul\":3271:3283   */\n  add\n    /* \"#utility.yul\":3266:3283   */\n  swap1\n  pop\n    /* \"#utility.yul\":3242:3396   */\n  jump(tag_112)\ntag_114:\n    /* \"#utility.yul\":3425:3431   */\n  dup4\n    /* \"#utility.yul\":3420:3423   */\n  dup9\n    /* \"#utility.yul\":3416:3432   */\n  add\n    /* \"#utility.yul\":3409:3432   */\n  swap6\n  pop\n    /* \"#utility.yul\":3108:3442   */\n  pop\n  pop\n    /* \"#utility.yul\":2893:3442   */\ntag_108:\n  pop\n    /* \"#utility.yul\":2681:3448   */\n  pop\n  pop\n    /* \"#utility.yul\":2574:3448   */\n  swap3\n  swap2\n  pop\n  pop\n  jump\t// out\n    /* \"#utility.yul\":3454:3723   */\ntag_26:\n    /* \"#utility.yul\":3583:3586   */\n  0x00\n    /* \"#utility.yul\":3605:3697   */\n  tag_116\n    /* \"#utility.yul\":3693:3696   */\n  dup3\n    /* \"#utility.yul\":3684:3690   */\n  dup5\n    /* \"#utility.yul\":3605:3697   */\n  tag_58\n  jump\t// in\ntag_116:\n    /* \"#utility.yul\":3598:3697   */\n  swap2\n  pop\n    /* \"#utility.yul\":3714:3717   */\n  dup2\n    /* \"#utility.yul\":3707:3717   */\n  swap1\n  pop\n    /* \"#utility.yul\":3454:3723   */\n  swap3\n  swap2\n  pop\n  pop\n  jump\t// out\n    /* \"#utility.yul\":3729:3882   */\ntag_59:\n    /* \"#utility.yul\":3869:3874   */\n  0x564e440000000000000000000000000000000000000000000000000000000000\n    /* \"#utility.yul\":3865:3866   */\n  0x00\n    /* \"#utility.yul\":3857:3863   */\n  dup3\n    /* \"#utility.yul\":3853:3867   */\n  add\n    /* \"#utility.yul\":3846:3875   */\n  mstore\n    /* \"#utility.yul\":3729:3882   */\n  pop\n  jump\t// out\n    /* \"#utility.yul\":3888:4288   */\ntag_60:\n    /* \"#utility.yul\":4048:4051   */\n  0x00\n    /* \"#utility.yul\":4069:4153   */\n  tag_119\n    /* \"#utility.yul\":4151:4152   */\n  0x03\n    /* \"#utility.yul\":4146:4149   */\n  dup4\n    /* \"#utility.yul\":4069:4153   */\n  tag_57\n  jump\t// in\ntag_119:\n    /* \"#utility.yul\":4062:4153   */\n  swap2\n  pop\n    /* \"#utility.yul\":4162:4255   */\n  tag_120\n    /* \"#utility.yul\":4251:4254   */\n  dup3\n    /* \"#utility.yul\":4162:4255   */\n  tag_59\n  jump\t// in\ntag_120:\n    /* \"#utility.yul\":4280:4281   */\n  0x03\n    /* \"#utility.yul\":4275:4278   */\n  dup3\n    /* \"#utility.yul\":4271:4282   */\n  add\n    /* \"#utility.yul\":4264:4282   */\n  swap1\n  pop\n    /* \"#utility.yul\":3888:4288   */\n  swap2\n  swap1\n  pop\n  jump\t// out\n    /* \"#utility.yul\":4294:4675   */\ntag_28:\n    /* \"#utility.yul\":4479:4482   */\n  0x00\n    /* \"#utility.yul\":4501:4649   */\n  tag_122\n    /* \"#utility.yul\":4645:4648   */\n  dup3\n    /* \"#utility.yul\":4501:4649   */\n  tag_60\n  jump\t// in\ntag_122:\n    /* \"#utility.yul\":4494:4649   */\n  swap2\n  pop\n    /* \"#utility.yul\":4666:4669   */\n  dup2\n    /* \"#utility.yul\":4659:4669   */\n  swap1\n  pop\n    /* \"#utility.yul\":4294:4675   */\n  swap2\n  swap1\n  pop\n  jump\t// out\n    /* \"#utility.yul\":4681:4834   */\ntag_61:\n    /* \"#utility.yul\":4821:4826   */\n  0x5553440000000000000000000000000000000000000000000000000000000000\n    /* \"#utility.yul\":4817:4818   */\n  0x00\n    /* \"#utility.yul\":4809:4815   */\n  dup3\n    /* \"#utility.yul\":4805:4819   */\n  add\n    /* \"#utility.yul\":4798:4827   */\n  mstore\n    /* \"#utility.yul\":4681:4834   */\n  pop\n  jump\t// out\n    /* \"#utility.yul\":4840:5240   */\ntag_62:\n    /* \"#utility.yul\":5000:5003   */\n  0x00\n    /* \"#utility.yul\":5021:5105   */\n  tag_125\n    /* \"#utility.yul\":5103:5104   */\n  0x03\n    /* \"#utility.yul\":5098:5101   */\n  dup4\n    /* \"#utility.yul\":5021:5105   */\n  tag_57\n  jump\t// in\ntag_125:\n    /* \"#utility.yul\":5014:5105   */\n  swap2\n  pop\n    /* \"#utility.yul\":5114:5207   */\n  tag_126\n    /* \"#utility.yul\":5203:5206   */\n  dup3\n    /* \"#utility.yul\":5114:5207   */\n  tag_61\n  jump\t// in\ntag_126:\n    /* \"#utility.yul\":5232:5233   */\n  0x03\n    /* \"#utility.yul\":5227:5230   */\n  dup3\n    /* \"#utility.yul\":5223:5234   */\n  add\n    /* \"#utility.yul\":5216:5234   */\n  swap1\n  pop\n    /* \"#utility.yul\":4840:5240   */\n  swap2\n  swap1\n  pop\n  jump\t// out\n    /* \"#utility.yul\":5246:5627   */\ntag_30:\n    /* \"#utility.yul\":5431:5434   */\n  0x00\n    /* \"#utility.yul\":5453:5601   */\n  tag_128\n    /* \"#utility.yul\":5597:5600   */\n  dup3\n    /* \"#utility.yul\":5453:5601   */\n  tag_62\n  jump\t// in\ntag_128:\n    /* \"#utility.yul\":5446:5601   */\n  swap2\n  pop\n    /* \"#utility.yul\":5618:5621   */\n  dup2\n    /* \"#utility.yul\":5611:5621   */\n  swap1\n  pop\n    /* \"#utility.yul\":5246:5627   */\n  swap2\n  swap1\n  pop\n  jump\t// out\n    /* \"#utility.yul\":5633:5786   */\ntag_63:\n    /* \"#utility.yul\":5773:5778   */\n  0x4155440000000000000000000000000000000000000000000000000000000000\n    /* \"#utility.yul\":5769:5770   */\n  0x00\n    /* \"#utility.yul\":5761:5767   */\n  dup3\n    /* \"#utility.yul\":5757:5771   */\n  add\n    /* \"#utility.yul\":5750:5779   */\n  mstore\n    /* \"#utility.yul\":5633:5786   */\n  pop\n  jump\t// out\n    /* \"#utility.yul\":5792:6192   */\ntag_64:\n    /* \"#utility.yul\":5952:5955   */\n  0x00\n    /* \"#utility.yul\":5973:6057   */\n  tag_131\n    /* \"#utility.yul\":6055:6056   */\n  0x03\n    /* \"#utility.yul\":6050:6053   */\n  dup4\n    /* \"#utility.yul\":5973:6057   */\n  tag_57\n  jump\t// in\ntag_131:\n    /* \"#utility.yul\":5966:6057   */\n  swap2\n  pop\n    /* \"#utility.yul\":6066:6159   */\n  tag_132\n    /* \"#utility.yul\":6155:6158   */\n  dup3\n    /* \"#utility.yul\":6066:6159   */\n  tag_63\n  jump\t// in\ntag_132:\n    /* \"#utility.yul\":6184:6185   */\n  0x03\n    /* \"#utility.yul\":6179:6182   */\n  dup3\n    /* \"#utility.yul\":6175:6186   */\n  add\n    /* \"#utility.yul\":6168:6186   */\n  swap1\n  pop\n    /* \"#utility.yul\":5792:6192   */\n  swap2\n  swap1\n  pop\n  jump\t// out\n    /* \"#utility.yul\":6198:6579   */\ntag_32:\n    /* \"#utility.yul\":6383:6386   */\n  0x00\n    /* \"#utility.yul\":6405:6553   */\n  tag_134\n    /* \"#utility.yul\":6549:6552   */\n  dup3\n    /* \"#utility.yul\":6405:6553   */\n  tag_64\n  jump\t// in\ntag_134:\n    /* \"#utility.yul\":6398:6553   */\n  swap2\n  pop\n    /* \"#utility.yul\":6570:6573   */\n  dup2\n    /* \"#utility.yul\":6563:6573   */\n  swap1\n  pop\n    /* \"#utility.yul\":6198:6579   */\n  swap2\n  swap1\n  pop\n  jump\t// out\n    /* \"#utility.yul\":6585:6684   */\ntag_65:\n    /* \"#utility.yul\":6637:6643   */\n  0x00\n    /* \"#utility.yul\":6671:6676   */\n  dup2\n    /* \"#utility.yul\":6665:6677   */\n  mload\n    /* \"#utility.yul\":6655:6677   */\n  swap1\n  pop\n    /* \"#utility.yul\":6585:6684   */\n  swap2\n  swap1\n  pop\n  jump\t// out\n    /* \"#utility.yul\":6690:6870   */\ntag_66:\n    /* \"#utility.yul\":6738:6815   */\n  0x4e487b7100000000000000000000000000000000000000000000000000000000\n    /* \"#utility.yul\":6735:6736   */\n  0x00\n    /* \"#utility.yul\":6728:6816   */\n  mstore\n    /* \"#utility.yul\":6835:6839   */\n  0x41\n    /* \"#utility.yul\":6832:6833   */\n  0x04\n    /* \"#utility.yul\":6825:6840   */\n  mstore\n    /* \"#utility.yul\":6859:6863   */\n  0x24\n    /* \"#utility.yul\":6856:6857   */\n  0x00\n    /* \"#utility.yul\":6849:6864   */\n  revert\n    /* \"#utility.yul\":6876:6969   */\ntag_67:\n    /* \"#utility.yul\":6913:6919   */\n  0x00\n    /* \"#utility.yul\":6960:6962   */\n  0x20\n    /* \"#utility.yul\":6955:6957   */\n  0x1f\n    /* \"#utility.yul\":6948:6953   */\n  dup4\n    /* \"#utility.yul\":6944:6958   */\n  add\n    /* \"#utility.yul\":6940:6963   */\n  div\n    /* \"#utility.yul\":6930:6963   */\n  swap1\n  pop\n    /* \"#utility.yul\":6876:6969   */\n  swap2\n  swap1\n  pop\n  jump\t// out\n    /* \"#utility.yul\":6975:7082   */\ntag_68:\n    /* \"#utility.yul\":7019:7027   */\n  0x00\n    /* \"#utility.yul\":7069:7074   */\n  dup3\n    /* \"#utility.yul\":7063:7067   */\n  dup3\n    /* \"#utility.yul\":7059:7075   */\n  shl\n    /* \"#utility.yul\":7038:7075   */\n  swap1\n  pop\n    /* \"#utility.yul\":6975:7082   */\n  swap3\n  swap2\n  pop\n  pop\n  jump\t// out\n    /* \"#utility.yul\":7088:7481   */\ntag_69:\n    /* \"#utility.yul\":7157:7163   */\n  0x00\n    /* \"#utility.yul\":7207:7208   */\n  0x08\n    /* \"#utility.yul\":7195:7205   */\n  dup4\n    /* \"#utility.yul\":7191:7209   */\n  mul\n    /* \"#utility.yul\":7230:7327   */\n  tag_140\n    /* \"#utility.yul\":7260:7326   */\n  0xffffffffffffffffffffffffffffffffffffffffffffffffffffffffffffffff\n    /* \"#utility.yul\":7249:7258   */\n  dup3\n    /* \"#utility.yul\":7230:7327   */\n  tag_68\n  jump\t// in\ntag_140:\n    /* \"#utility.yul\":7348:7387   */\n  tag_141\n    /* \"#utility.yul\":7378:7386   */\n  dup7\n    /* \"#utility.yul\":7367:7376   */\n  dup4\n    /* \"#utility.yul\":7348:7387   */\n  tag_68\n  jump\t// in\ntag_141:\n    /* \"#utility.yul\":7336:7387   */\n  swap6\n  pop\n    /* \"#utility.yul\":7420:7424   */\n  dup1\n    /* \"#utility.yul\":7416:7425   */\n  not\n    /* \"#utility.yul\":7409:7414   */\n  dup5\n    /* \"#utility.yul\":7405:7426   */\n  and\n    /* \"#utility.yul\":7396:7426   */\n  swap4\n  pop\n    /* \"#utility.yul\":7469:7473   */\n  dup1\n    /* \"#utility.yul\":7459:7467   */\n  dup7\n    /* \"#utility.yul\":7455:7474   */\n  and\n    /* \"#utility.yul\":7448:7453   */\n  dup5\n    /* \"#utility.yul\":7445:7475   */\n  or\n    /* \"#utility.yul\":7435:7475   */\n  swap3\n  pop\n    /* \"#utility.yul\":7164:7481   */\n  pop\n  pop\n    /* \"#utility.yul\":7088:7481   */\n  swap4\n  swap3\n  pop\n  pop\n  pop\n  jump\t// out\n    /* \"#utility.yul\":7487:7564   */\ntag_70:\n    /* \"#utility.yul\":7524:7531   */\n  0x00\n    /* \"#utility.yul\":7553:7558   */\n  dup2\n    /* \"#utility.yul\":7542:7558   */\n  swap1\n  pop\n    /* \"#utility.yul\":7487:7564   */\n  swap2\n  swap1\n  pop\n  jump\t// out\n    /* \"#utility.yul\":7570:7630   */\ntag_71:\n    /* \"#utility.yul\":7598:7601   */\n  0x00\n    /* \"#utility.yul\":7619:7624   */\n  dup2\n    /* \"#utility.yul\":7612:7624   */\n  swap1\n  pop\n    /* \"#utility.yul\":7570:7630   */\n  swap2\n  swap1\n  pop\n  jump\t// out\n    /* \"#utility.yul\":7636:7778   */\ntag_72:\n    /* \"#utility.yul\":7686:7695   */\n  0x00\n    /* \"#utility.yul\":7719:7772   */\n  tag_145\n    /* \"#utility.yul\":7737:7771   */\n  tag_146\n    /* \"#utility.yul\":7746:7770   */\n  tag_147\n    /* \"#utility.yul\":7764:7769   */\n  dup5\n    /* \"#utility.yul\":7746:7770   */\n  tag_70\n  jump\t// in\ntag_147:\n    /* \"#utility.yul\":7737:7771   */\n  tag_71\n  jump\t// in\ntag_146:\n    /* \"#utility.yul\":7719:7772   */\n  tag_70\n  jump\t// in\ntag_145:\n    /* \"#utility.yul\":7706:7772   */\n  swap1\n  pop\n    /* \"#utility.yul\":7636:7778   */\n  swap2\n  swap1\n  pop\n  jump\t// out\n    /* \"#utility.yul\":7784:7859   */\ntag_73:\n    /* \"#utility.yul\":7827:7830   */\n  0x00\n    /* \"#utility.yul\":7848:7853   */\n  dup2\n    /* \"#utility.yul\":7841:7853   */\n  swap1\n  pop\n    /* \"#utility.yul\":7784:7859   */\n  swap2\n  swap1\n  pop\n  jump\t// out\n    /* \"#utility.yul\":7865:8134   */\ntag_74:\n    /* \"#utility.yul\":7975:8014   */\n  tag_150\n    /* \"#utility.yul\":8006:8013   */\n  dup4\n    /* \"#utility.yul\":7975:8014   */\n  tag_72\n  jump\t// in\ntag_150:\n    /* \"#utility.yul\":8036:8127   */\n  tag_151\n    /* \"#utility.yul\":8085:8126   */\n  tag_152\n    /* \"#utility.yul\":8109:8125   */\n  dup3\n    /* \"#utility.yul\":8085:8126   */\n  tag_73\n  jump\t// in\ntag_152:\n    /* \"#utility.yul\":8077:8083   */\n  dup5\n    /* \"#utility.yul\":8070:8074   */\n  dup5\n    /* \"#utility.yul\":8064:8075   */\n  sload\n    /* \"#utility.yul\":8036:8127   */\n  tag_69\n  jump\t// in\ntag_151:\n    /* \"#utility.yul\":8030:8034   */\n  dup3\n    /* \"#utility.yul\":8023:8128   */\n  sstore\n    /* \"#utility.yul\":7941:8134   */\n  pop\n    /* \"#utility.yul\":7865:8134   */\n  pop\n  pop\n  pop\n  jump\t// out\n    /* \"#utility.yul\":8140:8213   */\ntag_75:\n    /* \"#utility.yul\":8185:8188   */\n  0x00\n    /* \"#utility.yul\":8140:8213   */\n  swap1\n  jump\t// out\n    /* \"#utility.yul\":8219:8408   */\ntag_76:\n    /* \"#utility.yul\":8296:8328   */\n  tag_155\n  tag_75\n  jump\t// in\ntag_155:\n    /* \"#utility.yul\":8337:8402   */\n  tag_156\n    /* \"#utility.yul\":8395:8401   */\n  dup2\n    /* \"#utility.yul\":8387:8393   */\n  dup5\n    /* \"#utility.yul\":8381:8385   */\n  dup5\n    /* \"#utility.yul\":8337:8402   */\n  tag_74\n  jump\t// in\ntag_156:\n    /* \"#utility.yul\":8272:8408   */\n  pop\n    /* \"#utility.yul\":8219:8408   */\n  pop\n  pop\n  jump\t// out\n    /* \"#utility.yul\":8414:8600   */\ntag_77:\n    /* \"#utility.yul\":8474:8594   */\ntag_158:\n    /* \"#utility.yul\":8491:8494   */\n  dup2\n    /* \"#utility.yul\":8484:8489   */\n  dup2\n    /* \"#utility.yul\":8481:8495   */\n  lt\n    /* \"#utility.yul\":8474:8594   */\n  iszero\n  tag_160\n  jumpi\n    /* \"#utility.yul\":8545:8584   */\n  tag_161\n    /* \"#utility.yul\":8582:8583   */\n  0x00\n    /* \"#utility.yul\":8575:8580   */\n  dup3\n    /* \"#utility.yul\":8545:8584   */\n  tag_76\n  jump\t// in\ntag_161:\n    /* \"#utility.yul\":8518:8519   */\n  0x01\n    /* \"#utility.yul\":8511:8516   */\n  dup2\n    /* \"#utility.yul\":8507:8520   */\n  add\n    /* \"#utility.yul\":8498:8520   */\n  swap1\n  pop\n    /* \"#utility.yul\":8474:8594   */\n  jump(tag_158)\ntag_160:\n    /* \"#utility.yul\":8414:8600   */\n  pop\n  pop\n  jump\t// out\n    /* \"#utility.yul\":8606:9149   */\ntag_78:\n    /* \"#utility.yul\":8707:8709   */\n  0x1f\n    /* \"#utility.yul\":8702:8705   */\n  dup3\n    /* \"#utility.yul\":8699:8710   */\n  gt\n    /* \"#utility.yul\":8696:9142   */\n  iszero\n  tag_163\n  jumpi\n    /* \"#utility.yul\":8741:8779   */\n  tag_164\n    /* \"#utility.yul\":8773:8778   */\n  dup2\n    /* \"#utility.yul\":8741:8779   */\n  tag_55\n  jump\t// in\ntag_164:\n    /* \"#utility.yul\":8825:8854   */\n  tag_165\n    /* \"#utility.yul\":8843:8853   */\n  dup5\n    /* \"#utility.yul\":8825:8854   */\n  tag_67\n  jump\t// in\ntag_165:\n    /* \"#utility.yul\":8815:8823   */\n  dup2\n    /* \"#utility.yul\":8811:8855   */\n  add\n    /* \"#utility.yul\":9008:9010   */\n  0x20\n    /* \"#utility.yul\":8996:9006   */\n  dup6\n    /* \"#utility.yul\":8993:9011   */\n  lt\n    /* \"#utility.yul\":8990:9039   */\n  iszero\n  tag_166\n  jumpi\n    /* \"#utility.yul\":9029:9037   */\n  dup2\n    /* \"#utility.yul\":9014:9037   */\n  swap1\n  pop\n    /* \"#utility.yul\":8990:9039   */\ntag_166:\n    /* \"#utility.yul\":9052:9132   */\n  tag_167\n    /* \"#utility.yul\":9108:9130   */\n  tag_168\n    /* \"#utility.yul\":9126:9129   */\n  dup6\n    /* \"#utility.yul\":9108:9130   */\n  tag_67\n  jump\t// in\ntag_168:\n    /* \"#utility.yul\":9098:9106   */\n  dup4\n    /* \"#utility.yul\":9094:9131   */\n  add\n    /* \"#utility.yul\":9081:9092   */\n  dup3\n    /* \"#utility.yul\":9052:9132   */\n  tag_77\n  jump\t// in\ntag_167:\n    /* \"#utility.yul\":8711:9142   */\n  pop\n  pop\n    /* \"#utility.yul\":8696:9142   */\ntag_163:\n    /* \"#utility.yul\":8606:9149   */\n  pop\n  pop\n  pop\n  jump\t// out\n    /* \"#utility.yul\":9155:9272   */\ntag_79:\n    /* \"#utility.yul\":9209:9217   */\n  0x00\n    /* \"#utility.yul\":9259:9264   */\n  dup3\n    /* \"#utility.yul\":9253:9257   */\n  dup3\n    /* \"#utility.yul\":9249:9265   */\n  shr\n    /* \"#utility.yul\":9228:9265   */\n  swap1\n  pop\n    /* \"#utility.yul\":9155:9272   */\n  swap3\n  swap2\n  pop\n  pop\n  jump\t// out\n    /* \"#utility.yul\":9278:9447   */\ntag_80:\n    /* \"#utility.yul\":9322:9328   */\n  0x00\n    /* \"#utility.yul\":9355:9406   */\n  tag_171\n    /* \"#utility.yul\":9403:9404   */\n  0x00\n    /* \"#utility.yul\":9399:9405   */\n  not\n    /* \"#utility.yul\":9391:9396   */\n  dup5\n    /* \"#utility.yul\":9388:9389   */\n  0x08\n    /* \"#utility.yul\":9384:9397   */\n  mul\n    /* \"#utility.yul\":9355:9406   */\n  tag_79\n  jump\t// in\ntag_171:\n    /* \"#utility.yul\":9351:9407   */\n  not\n    /* \"#utility.yul\":9436:9440   */\n  dup1\n    /* \"#utility.yul\":9430:9434   */\n  dup4\n    /* \"#utility.yul\":9426:9441   */\n  and\n    /* \"#utility.yul\":9416:9441   */\n  swap2\n  pop\n    /* \"#utility.yul\":9329:9447   */\n  pop\n    /* \"#utility.yul\":9278:9447   */\n  swap3\n  swap2\n  pop\n  pop\n  jump\t// out\n    /* \"#utility.yul\":9452:9747   */\ntag_81:\n    /* \"#utility.yul\":9528:9532   */\n  0x00\n    /* \"#utility.yul\":9674:9703   */\n  tag_173\n    /* \"#utility.yul\":9699:9702   */\n  dup4\n    /* \"#utility.yul\":9693:9697   */\n  dup4\n    /* \"#utility.yul\":9674:9703   */\n  tag_80\n  jump\t// in\ntag_173:\n    /* \"#utility.yul\":9666:9703   */\n  swap2\n  pop\n    /* \"#utility.yul\":9736:9739   */\n  dup3\n    /* \"#utility.yul\":9733:9734   */\n  0x02\n    /* \"#utility.yul\":9729:9740   */\n  mul\n    /* \"#utility.yul\":9723:9727   */\n  dup3\n    /* \"#utility.yul\":9720:9741   */\n  or\n    /* \"#utility.yul\":9712:9741   */\n  swap1\n  pop\n    /* \"#utility.yul\":9452:9747   */\n  swap3\n  swap2\n  pop\n  pop\n  jump\t// out\n    /* \"#utility.yul\":9752:11147   */\ntag_38:\n    /* \"#utility.yul\":9869:9906   */\n  tag_175\n    /* \"#utility.yul\":9902:9905   */\n  dup3\n    /* \"#utility.yul\":9869:9906   */\n  tag_65\n  jump\t// in\ntag_175:\n    /* \"#utility.yul\":9971:9989   */\n  0xffffffffffffffff\n    /* \"#utility.yul\":9963:9969   */\n  dup2\n    /* \"#utility.yul\":9960:9990   */\n  gt\n    /* \"#utility.yul\":9957:10013   */\n  iszero\n  tag_176\n  jumpi\n    /* \"#utility.yul\":9993:10011   */\n  tag_177\n  tag_66\n  jump\t// in\ntag_177:\n    /* \"#utility.yul\":9957:10013   */\ntag_176:\n    /* \"#utility.yul\":10037:10075   */\n  tag_178\n    /* \"#utility.yul\":10069:10073   */\n  dup3\n    /* \"#utility.yul\":10063:10074   */\n  sload\n    /* \"#utility.yul\":10037:10075   */\n  tag_46\n  jump\t// in\ntag_178:\n    /* \"#utility.yul\":10122:10189   */\n  tag_179\n    /* \"#utility.yul\":10182:10188   */\n  dup3\n    /* \"#utility.yul\":10174:10180   */\n  dup3\n    /* \"#utility.yul\":10168:10172   */\n  dup6\n    /* \"#utility.yul\":10122:10189   */\n  tag_78\n  jump\t// in\ntag_179:\n    /* \"#utility.yul\":10216:10217   */\n  0x00\n    /* \"#utility.yul\":10240:10244   */\n  0x20\n    /* \"#utility.yul\":10227:10244   */\n  swap1\n  pop\n    /* \"#utility.yul\":10272:10274   */\n  0x1f\n    /* \"#utility.yul\":10264:10270   */\n  dup4\n    /* \"#utility.yul\":10261:10275   */\n  gt\n    /* \"#utility.yul\":10289:10290   */\n  0x01\n    /* \"#utility.yul\":10284:10902   */\n  dup2\n  eq\n  tag_181\n  jumpi\n    /* \"#utility.yul\":10946:10947   */\n  0x00\n    /* \"#utility.yul\":10963:10969   */\n  dup5\n    /* \"#utility.yul\":10960:11037   */\n  iszero\n  tag_182\n  jumpi\n    /* \"#utility.yul\":11012:11021   */\n  dup3\n    /* \"#utility.yul\":11007:11010   */\n  dup8\n    /* \"#utility.yul\":11003:11022   */\n  add\n    /* \"#utility.yul\":10997:11023   */\n  mload\n    /* \"#utility.yul\":10988:11023   */\n  swap1\n  pop\n    /* \"#utility.yul\":10960:11037   */\ntag_182:\n    /* \"#utility.yul\":11063:11130   */\n  tag_183\n    /* \"#utility.yul\":11123:11129   */\n  dup6\n    /* \"#utility.yul\":11116:11121   */\n  dup3\n    /* \"#utility.yul\":11063:11130   */\n  tag_81\n  jump\t// in\ntag_183:\n    /* \"#utility.yul\":11057:11061   */\n  dup7\n    /* \"#utility.yul\":11050:11131   */\n  sstore\n    /* \"#utility.yul\":10919:11141   */\n  pop\n    /* \"#utility.yul\":10254:11141   */\n  jump(tag_180)\n    /* \"#utility.yul\":10284:10902   */\ntag_181:\n    /* \"#utility.yul\":10336:10340   */\n  0x1f\n    /* \"#utility.yul\":10332:10341   */\n  not\n    /* \"#utility.yul\":10324:10330   */\n  dup5\n    /* \"#utility.yul\":10320:10342   */\n  and\n    /* \"#utility.yul\":10370:10407   */\n  tag_184\n    /* \"#utility.yul\":10402:10406   */\n  dup7\n    /* \"#utility.yul\":10370:10407   */\n  tag_55\n  jump\t// in\ntag_184:\n    /* \"#utility.yul\":10429:10430   */\n  0x00\n    /* \"#utility.yul\":10443:10651   */\ntag_185:\n    /* \"#utility.yul\":10457:10464   */\n  dup3\n    /* \"#utility.yul\":10454:10455   */\n  dup2\n    /* \"#utility.yul\":10451:10465   */\n  lt\n    /* \"#utility.yul\":10443:10651   */\n  iszero\n  tag_187\n  jumpi\n    /* \"#utility.yul\":10536:10545   */\n  dup5\n    /* \"#utility.yul\":10531:10534   */\n  dup10\n    /* \"#utility.yul\":10527:10546   */\n  add\n    /* \"#utility.yul\":10521:10547   */\n  mload\n    /* \"#utility.yul\":10513:10519   */\n  dup3\n    /* \"#utility.yul\":10506:10548   */\n  sstore\n    /* \"#utility.yul\":10587:10588   */\n  0x01\n    /* \"#utility.yul\":10579:10585   */\n  dup3\n    /* \"#utility.yul\":10575:10589   */\n  add\n    /* \"#utility.yul\":10565:10589   */\n  swap2\n  pop\n    /* \"#utility.yul\":10634:10636   */\n  0x20\n    /* \"#utility.yul\":10623:10632   */\n  dup6\n    /* \"#utility.yul\":10619:10637   */\n  add\n    /* \"#utility.yul\":10606:10637   */\n  swap5\n  pop\n    /* \"#utility.yul\":10480:10484   */\n  0x20\n    /* \"#utility.yul\":10477:10478   */\n  dup2\n    /* \"#utility.yul\":10473:10485   */\n  add\n    /* \"#utility.yul\":10468:10485   */\n  swap1\n  pop\n    /* \"#utility.yul\":10443:10651   */\n  jump(tag_185)\ntag_187:\n    /* \"#utility.yul\":10679:10685   */\n  dup7\n    /* \"#utility.yul\":10670:10677   */\n  dup4\n    /* \"#utility.yul\":10667:10686   */\n  lt\n    /* \"#utility.yul\":10664:10843   */\n  iszero\n  tag_188\n  jumpi\n    /* \"#utility.yul\":10737:10746   */\n  dup5\n    /* \"#utility.yul\":10732:10735   */\n  dup10\n    /* \"#utility.yul\":10728:10747   */\n  add\n    /* \"#utility.yul\":10722:10748   */\n  mload\n    /* \"#utility.yul\":10780:10828   */\n  tag_189\n    /* \"#utility.yul\":10822:10826   */\n  0x1f\n    /* \"#utility.yul\":10814:10820   */\n  dup10\n    /* \"#utility.yul\":10810:10827   */\n  and\n    /* \"#utility.yul\":10799:10808   */\n  dup3\n    /* \"#utility.yul\":10780:10828   */\n  tag_80\n  jump\t// in\ntag_189:\n    /* \"#utility.yul\":10772:10778   */\n  dup4\n    /* \"#utility.yul\":10765:10829   */\n  sstore\n    /* \"#utility.yul\":10687:10843   */\n  pop\n    /* \"#utility.yul\":10664:10843   */\ntag_188:\n    /* \"#utility.yul\":10889:10890   */\n  0x01\n    /* \"#utility.yul\":10885:10886   */\n  0x02\n    /* \"#utility.yul\":10877:10883   */\n  dup9\n    /* \"#utility.yul\":10873:10887   */\n  mul\n    /* \"#utility.yul\":10869:10891   */\n  add\n    /* \"#utility.yul\":10863:10867   */\n  dup9\n    /* \"#utility.yul\":10856:10892   */\n  sstore\n    /* \"#utility.yul\":10291:10902   */\n  pop\n  pop\n  pop\n    /* \"#utility.yul\":10254:11141   */\ntag_180:\n  pop\n    /* \"#utility.yul\":9844:11147   */\n  pop\n  pop\n  pop\n    /* \"#utility.yul\":9752:11147   */\n  pop\n  pop\n  jump\t// out\n    /* \"UniSwap.sol\":341:2664  contract Uniswap {... */\ntag_33:\n  dataSize(sub_0)\n  dup1\n  dataOffset(sub_0)\n  0x00\n  codecopy\n  0x00\n  return\nstop\n\nsub_0: assembly {\n        /* \"UniSwap.sol\":341:2664  contract Uniswap {... */\n      mstore(0x40, 0x80)\n      jumpi(tag_1, lt(calldatasize, 0x04))\n      shr(0xe0, calldataload(0x00))\n      dup1\n      0x6e7ddea8\n      gt\n      tag_11\n      jumpi\n      dup1\n      0x6e7ddea8\n      eq\n      tag_6\n      jumpi\n      dup1\n      0x89f4b317\n      eq\n      tag_7\n      jumpi\n      dup1\n      0xbf015aae\n      eq\n      tag_8\n      jumpi\n      dup1\n      0xbf40fac1\n      eq\n      tag_9\n      jumpi\n      dup1\n      0xdb6f63ee\n      eq\n      tag_10\n      jumpi\n      jump(tag_1)\n    tag_11:\n      dup1\n      0x04c2320b\n      eq\n      tag_2\n      jumpi\n      dup1\n      0x310495ab\n      eq\n      tag_3\n      jumpi\n      dup1\n      0x63fcf7c5\n      eq\n      tag_4\n      jumpi\n      dup1\n      0x6932cf81\n      eq\n      tag_5\n      jumpi\n    tag_1:\n      0x00\n      dup1\n      revert\n        /* \"UniSwap.sol\":617:655  mapping(string => ERC20) public tokens */\n    tag_2:\n      callvalue\n      dup1\n      iszero\n      tag_12\n      jumpi\n      0x00\n      dup1\n      revert\n    tag_12:\n      pop\n      tag_13\n      0x04\n      dup1\n      calldatasize\n      sub\n      dup2\n      add\n      swap1\n      tag_14\n      swap2\n      swap1\n      tag_15\n      jump\t// in\n    tag_14:\n      tag_16\n      jump\t// in\n    tag_13:\n      mload(0x40)\n      tag_17\n      swap2\n      swap1\n      tag_18\n      jump\t// in\n    tag_17:\n      mload(0x40)\n      dup1\n      swap2\n      sub\n      swap1\n      return\n        /* \"UniSwap.sol\":364:479  string[] public tokenNames = [... */\n    tag_3:\n      callvalue\n      dup1\n      iszero\n      tag_19\n      jumpi\n      0x00\n      dup1\n      revert\n    tag_19:\n      pop\n      tag_20\n      0x04\n      dup1\n      calldatasize\n      sub\n      dup2\n      add\n      swap1\n      tag_21\n      swap2\n      swap1\n      tag_22\n      jump\t// in\n    tag_21:\n      tag_23\n      jump\t// in\n    tag_20:\n      mload(0x40)\n      tag_24\n      swap2\n      swap1\n      tag_25\n      jump\t// in\n    tag_24:\n      mload(0x40)\n      dup1\n      swap2\n      sub\n      swap1\n      return\n        /* \"UniSwap.sol\":1517:2111  function swapEthToToken(string memory _tokenSymbol) public payable returns(uint) {... */\n    tag_4:\n      tag_26\n      0x04\n      dup1\n      calldatasize\n      sub\n      dup2\n      add\n      swap1\n      tag_27\n      swap2\n      swap1\n      tag_15\n      jump\t// in\n    tag_27:\n      tag_28\n      jump\t// in\n    tag_26:\n      mload(0x40)\n      tag_29\n      swap2\n      swap1\n      tag_30\n      jump\t// in\n    tag_29:\n      mload(0x40)\n      dup1\n      swap2\n      sub\n      swap1\n      return\n        /* \"UniSwap.sol\":1241:1374  function getName(string memory _tokenSymbol) public view returns (string memory) {... */\n    tag_5:\n      callvalue\n      dup1\n      iszero\n      tag_31\n      jumpi\n      0x00\n      dup1\n      revert\n    tag_31:\n      pop\n      tag_32\n      0x04\n      dup1\n      calldatasize\n      sub\n      dup2\n      add\n      swap1\n      tag_33\n      swap2\n      swap1\n      tag_15\n      jump\t// in\n    tag_33:\n      tag_34\n      jump\t// in\n    tag_32:\n      mload(0x40)\n      tag_35\n      swap2\n      swap1\n      tag_25\n      jump\t// in\n    tag_35:\n      mload(0x40)\n      dup1\n      swap2\n      sub\n      swap1\n      return\n        /* \"UniSwap.sol\":515:567  string[] public tokenSymbols = [\"VND\", \"USD\", \"AUD\"] */\n    tag_6:\n      callvalue\n      dup1\n      iszero\n      tag_36\n      jumpi\n      0x00\n      dup1\n      revert\n    tag_36:\n      pop\n      tag_37\n      0x04\n      dup1\n      calldatasize\n      sub\n      dup2\n      add\n      swap1\n      tag_38\n      swap2\n      swap1\n      tag_22\n      jump\t// in\n    tag_38:\n      tag_39\n      jump\t// in\n    tag_37:\n      mload(0x40)\n      tag_40\n      swap2\n      swap1\n      tag_25\n      jump\t// in\n    tag_40:\n      mload(0x40)\n      dup1\n      swap2\n      sub\n      swap1\n      return\n        /* \"UniSwap.sol\":1021:1235  function getBalance(string memory _tokenSymbol, address _address)... */\n    tag_7:\n      callvalue\n      dup1\n      iszero\n      tag_41\n      jumpi\n      0x00\n      dup1\n      revert\n    tag_41:\n      pop\n      tag_42\n      0x04\n      dup1\n      calldatasize\n      sub\n      dup2\n      add\n      swap1\n      tag_43\n      swap2\n      swap1\n      tag_44\n      jump\t// in\n    tag_43:\n      tag_45\n      jump\t// in\n    tag_42:\n      mload(0x40)\n      tag_46\n      swap2\n      swap1\n      tag_30\n      jump\t// in\n    tag_46:\n      mload(0x40)\n      dup1\n      swap2\n      sub\n      swap1\n      return\n        /* \"UniSwap.sol\":2540:2661  function swapTokenToToken(string memory _srcTokenSymbol, string memory _desTokenSymbol, uint _amount) public {... */\n    tag_8:\n      callvalue\n      dup1\n      iszero\n      tag_47\n      jumpi\n      0x00\n      dup1\n      revert\n    tag_47:\n      pop\n      tag_48\n      0x04\n      dup1\n      calldatasize\n      sub\n      dup2\n      add\n      swap1\n      tag_49\n      swap2\n      swap1\n      tag_50\n      jump\t// in\n    tag_49:\n      tag_51\n      jump\t// in\n    tag_48:\n      stop\n        /* \"UniSwap.sol\":1380:1511  function getAddress(string memory _tokenSymbol) public view returns (address) {... */\n    tag_9:\n      callvalue\n      dup1\n      iszero\n      tag_52\n      jumpi\n      0x00\n      dup1\n      revert\n    tag_52:\n      pop\n      tag_53\n      0x04\n      dup1\n      calldatasize\n      sub\n      dup2\n      add\n      swap1\n      tag_54\n      swap2\n      swap1\n      tag_15\n      jump\t// in\n    tag_54:\n      tag_55\n      jump\t// in\n    tag_53:\n      mload(0x40)\n      tag_56\n      swap2\n      swap1\n      tag_57\n      jump\t// in\n    tag_56:\n      mload(0x40)\n      dup1\n      swap2\n      sub\n      swap1\n      return\n        /* \"UniSwap.sol\":2117:2534  function swapTokenToEth(string memory _tokenSymbol, uint _amount) public returns (uint) {... */\n    tag_10:\n      callvalue\n      dup1\n      iszero\n      tag_58\n      jumpi\n      0x00\n      dup1\n      revert\n    tag_58:\n      pop\n      tag_59\n      0x04\n      dup1\n      calldatasize\n      sub\n      dup2\n      add\n      swap1\n      tag_60\n      swap2\n      swap1\n      tag_61\n      jump\t// in\n    tag_60:\n      tag_62\n      jump\t// in\n    tag_59:\n      mload(0x40)\n      tag_63\n      swap2\n      swap1\n      tag_30\n      jump\t// in\n    tag_63:\n      mload(0x40)\n      dup1\n      swap2\n      sub\n      swap1\n      return\n        /* \"UniSwap.sol\":617:655  mapping(string => ERC20) public tokens */\n    tag_16:\n      0x03\n      dup2\n      dup1\n      mload\n      0x20\n      dup2\n      add\n      dup3\n      add\n      dup1\n      mload\n      dup5\n      dup3\n      mstore\n      0x20\n      dup4\n      add\n      0x20\n      dup6\n      add\n      keccak256\n      dup2\n      dup4\n      mstore\n      dup1\n      swap6\n      pop\n      pop\n      pop\n      pop\n      pop\n      pop\n      0x00\n      swap2\n      pop\n      sload\n      swap1\n      0x0100\n      exp\n      swap1\n      div\n      0xffffffffffffffffffffffffffffffffffffffff\n      and\n      dup2\n      jump\t// out\n        /* \"UniSwap.sol\":364:479  string[] public tokenNames = [... */\n    tag_23:\n      0x00\n      dup2\n      dup2\n      sload\n      dup2\n      lt\n      tag_64\n      jumpi\n      0x00\n      dup1\n      revert\n    tag_64:\n      swap1\n      0x00\n      mstore\n      keccak256(0x00, 0x20)\n      add\n      0x00\n      swap2\n      pop\n      swap1\n      pop\n      dup1\n      sload\n      tag_66\n      swap1\n      tag_67\n      jump\t// in\n    tag_66:\n      dup1\n      0x1f\n      add\n      0x20\n      dup1\n      swap2\n      div\n      mul\n      0x20\n      add\n      mload(0x40)\n      swap1\n      dup2\n      add\n      0x40\n      mstore\n      dup1\n      swap3\n      swap2\n      swap1\n      dup2\n      dup2\n      mstore\n      0x20\n      add\n      dup3\n      dup1\n      sload\n      tag_68\n      swap1\n      tag_67\n      jump\t// in\n    tag_68:\n      dup1\n      iszero\n      tag_69\n      jumpi\n      dup1\n      0x1f\n      lt\n      tag_70\n      jumpi\n      0x0100\n      dup1\n      dup4\n      sload\n      div\n      mul\n      dup4\n      mstore\n      swap2\n      0x20\n      add\n      swap2\n      jump(tag_69)\n    tag_70:\n      dup3\n      add\n      swap2\n      swap1\n      0x00\n      mstore\n      keccak256(0x00, 0x20)\n      swap1\n    tag_71:\n      dup2\n      sload\n      dup2\n      mstore\n      swap1\n      0x01\n      add\n      swap1\n      0x20\n      add\n      dup1\n      dup4\n      gt\n      tag_71\n      jumpi\n      dup3\n      swap1\n      sub\n      0x1f\n      and\n      dup3\n      add\n      swap2\n    tag_69:\n      pop\n      pop\n      pop\n      pop\n      pop\n      dup2\n      jump\t// out\n        /* \"UniSwap.sol\":1517:2111  function swapEthToToken(string memory _tokenSymbol) public payable returns(uint) {... */\n    tag_28:\n        /* \"UniSwap.sol\":1592:1596  uint */\n      0x00\n        /* \"UniSwap.sol\":1628:1641  1000000000000 */\n      0xe8d4a51000\n        /* \"UniSwap.sol\":1616:1625  msg.value */\n      callvalue\n        /* \"UniSwap.sol\":1616:1641  msg.value > 1000000000000 */\n      gt\n        /* \"UniSwap.sol\":1608:1668  require(msg.value > 1000000000000, \"Not enough eth to swap\") */\n      tag_73\n      jumpi\n      mload(0x40)\n      0x08c379a000000000000000000000000000000000000000000000000000000000\n      dup2\n      mstore\n      0x04\n      add\n      tag_74\n      swap1\n      tag_75\n      jump\t// in\n    tag_74:\n      mload(0x40)\n      dup1\n      swap2\n      sub\n      swap1\n      revert\n    tag_73:\n        /* \"UniSwap.sol\":1678:1687  bool flag */\n      0x00\n        /* \"UniSwap.sol\":1711:1717  uint i */\n      dup1\n        /* \"UniSwap.sol\":1706:1901  for (uint i = 0; i < tokenSymbols.length; ++i) ... */\n    tag_76:\n        /* \"UniSwap.sol\":1727:1739  tokenSymbols */\n      0x01\n        /* \"UniSwap.sol\":1727:1746  tokenSymbols.length */\n      dup1\n      sload\n      swap1\n      pop\n        /* \"UniSwap.sol\":1723:1724  i */\n      dup2\n        /* \"UniSwap.sol\":1723:1746  i < tokenSymbols.length */\n      lt\n        /* \"UniSwap.sol\":1706:1901  for (uint i = 0; i < tokenSymbols.length; ++i) ... */\n      iszero\n      tag_77\n      jumpi\n        /* \"UniSwap.sol\":1780:1792  _tokenSymbol */\n      dup4\n        /* \"UniSwap.sol\":1780:1803  _tokenSymbol.checkEqual */\n      linkerSymbol(\"b2e07545af99b4389bd91a220edd5a3951bcc5f1a779e2465a6d7dfe81f014aa\")\n      0x89dbcd35\n      swap1\n      swap2\n        /* \"UniSwap.sol\":1804:1816  tokenSymbols */\n      0x01\n        /* \"UniSwap.sol\":1817:1818  i */\n      dup5\n        /* \"UniSwap.sol\":1804:1819  tokenSymbols[i] */\n      dup2\n      sload\n      dup2\n      lt\n      tag_79\n      jumpi\n      tag_80\n      tag_81\n      jump\t// in\n    tag_80:\n    tag_79:\n      swap1\n      0x00\n      mstore\n      keccak256(0x00, 0x20)\n      add\n        /* \"UniSwap.sol\":1780:1820  _tokenSymbol.checkEqual(tokenSymbols[i]) */\n      mload(0x40)\n      dup4\n      0xffffffff\n      and\n      0xe0\n      shl\n      dup2\n      mstore\n      0x04\n      add\n      tag_83\n      swap3\n      swap2\n      swap1\n      tag_84\n      jump\t// in\n    tag_83:\n      0x20\n      mload(0x40)\n      dup1\n      dup4\n      sub\n      dup2\n      dup7\n      gas\n      delegatecall\n      iszero\n      dup1\n      iszero\n      tag_86\n      jumpi\n      returndatasize\n      0x00\n      dup1\n      returndatacopy\n      revert(0x00, returndatasize)\n    tag_86:\n      pop\n      pop\n      pop\n      pop\n      mload(0x40)\n      returndatasize\n      not(0x1f)\n      0x1f\n      dup3\n      add\n      and\n      dup3\n      add\n      dup1\n      0x40\n      mstore\n      pop\n      dup2\n      add\n      swap1\n      tag_87\n      swap2\n      swap1\n      tag_88\n      jump\t// in\n    tag_87:\n        /* \"UniSwap.sol\":1776:1891  if (_tokenSymbol.checkEqual(tokenSymbols[i])) {... */\n      iszero\n      tag_89\n      jumpi\n        /* \"UniSwap.sol\":1847:1851  true */\n      0x01\n        /* \"UniSwap.sol\":1840:1851  flag = true */\n      swap2\n      pop\n        /* \"UniSwap.sol\":1870:1875  break */\n      jump(tag_77)\n        /* \"UniSwap.sol\":1776:1891  if (_tokenSymbol.checkEqual(tokenSymbols[i])) {... */\n    tag_89:\n        /* \"UniSwap.sol\":1748:1751  ++i */\n      dup1\n      0x01\n      add\n      swap1\n      pop\n        /* \"UniSwap.sol\":1706:1901  for (uint i = 0; i < tokenSymbols.length; ++i) ... */\n      jump(tag_76)\n    tag_77:\n      pop\n        /* \"UniSwap.sol\":1926:1930  true */\n      0x01\n        /* \"UniSwap.sol\":1918:1930  flag == true */\n      iszero\n      iszero\n        /* \"UniSwap.sol\":1918:1922  flag */\n      dup2\n        /* \"UniSwap.sol\":1918:1930  flag == true */\n      iszero\n      iszero\n      eq\n        /* \"UniSwap.sol\":1910:1957  require(flag == true, \"Not support that token\") */\n      tag_90\n      jumpi\n      mload(0x40)\n      0x08c379a000000000000000000000000000000000000000000000000000000000\n      dup2\n      mstore\n      0x04\n      add\n      tag_91\n      swap1\n      tag_92\n      jump\t// in\n    tag_91:\n      mload(0x40)\n      dup1\n      swap2\n      sub\n      swap1\n      revert\n    tag_90:\n        /* \"UniSwap.sol\":1967:1982  uint inputValue */\n      0x00\n        /* \"UniSwap.sol\":1985:1994  msg.value */\n      callvalue\n        /* \"UniSwap.sol\":1967:1994  uint inputValue = msg.value */\n      swap1\n      pop\n        /* \"UniSwap.sol\":2004:2020  uint outputValue */\n      0x00\n        /* \"UniSwap.sol\":2066:2073  10 **18 */\n      0x0de0b6b3a7640000\n        /* \"UniSwap.sol\":2036:2049  priceOfTokens */\n      0x02\n        /* \"UniSwap.sol\":2050:2062  _tokenSymbol */\n      dup7\n        /* \"UniSwap.sol\":2036:2063  priceOfTokens[_tokenSymbol] */\n      mload(0x40)\n      tag_93\n      swap2\n      swap1\n      tag_94\n      jump\t// in\n    tag_93:\n      swap1\n      dup2\n      mstore\n      0x20\n      add\n      mload(0x40)\n      dup1\n      swap2\n      sub\n      swap1\n      keccak256\n      sload\n        /* \"UniSwap.sol\":2023:2033  inputValue */\n      dup4\n        /* \"UniSwap.sol\":2023:2063  inputValue / priceOfTokens[_tokenSymbol] */\n      tag_95\n      swap2\n      swap1\n      tag_96\n      jump\t// in\n    tag_95:\n        /* \"UniSwap.sol\":2023:2073  inputValue / priceOfTokens[_tokenSymbol] * 10 **18 */\n      tag_97\n      swap2\n      swap1\n      tag_98\n      jump\t// in\n    tag_97:\n        /* \"UniSwap.sol\":2004:2073  uint outputValue = inputValue / priceOfTokens[_tokenSymbol] * 10 **18 */\n      swap1\n      pop\n        /* \"UniSwap.sol\":2092:2103  outputValue */\n      dup1\n        /* \"UniSwap.sol\":2085:2103  return outputValue */\n      swap4\n      pop\n      pop\n      pop\n      pop\n        /* \"UniSwap.sol\":1517:2111  function swapEthToToken(string memory _tokenSymbol) public payable returns(uint) {... */\n      swap2\n      swap1\n      pop\n      jump\t// out\n        /* \"UniSwap.sol\":1241:1374  function getName(string memory _tokenSymbol) public view returns (string memory) {... */\n    tag_34:\n        /* \"UniSwap.sol\":1307:1320  string memory */\n      0x60\n        /* \"UniSwap.sol\":1339:1345  tokens */\n      0x03\n        /* \"UniSwap.sol\":1346:1358  _tokenSymbol */\n      dup3\n        /* \"UniSwap.sol\":1339:1359  tokens[_tokenSymbol] */\n      mload(0x40)\n      tag_100\n      swap2\n      swap1\n      tag_94\n      jump\t// in\n    tag_100:\n      swap1\n      dup2\n      mstore\n      0x20\n      add\n      mload(0x40)\n      dup1\n      swap2\n      sub\n      swap1\n      keccak256\n      0x00\n      swap1\n      sload\n      swap1\n      0x0100\n      exp\n      swap1\n      div\n      0xffffffffffffffffffffffffffffffffffffffff\n      and\n        /* \"UniSwap.sol\":1339:1364  tokens[_tokenSymbol].name */\n      0xffffffffffffffffffffffffffffffffffffffff\n      and\n      0x06fdde03\n        /* \"UniSwap.sol\":1339:1366  tokens[_tokenSymbol].name() */\n      mload(0x40)\n      dup2\n      0xffffffff\n      and\n      0xe0\n      shl\n      dup2\n      mstore\n      0x04\n      add\n      0x00\n      mload(0x40)\n      dup1\n      dup4\n      sub\n      dup2\n      dup7\n      gas\n      staticcall\n      iszero\n      dup1\n      iszero\n      tag_102\n      jumpi\n      returndatasize\n      0x00\n      dup1\n      returndatacopy\n      revert(0x00, returndatasize)\n    tag_102:\n      pop\n      pop\n      pop\n      pop\n      mload(0x40)\n      returndatasize\n      0x00\n      dup3\n      returndatacopy\n      returndatasize\n      not(0x1f)\n      0x1f\n      dup3\n      add\n      and\n      dup3\n      add\n      dup1\n      0x40\n      mstore\n      pop\n      dup2\n      add\n      swap1\n      tag_103\n      swap2\n      swap1\n      tag_104\n      jump\t// in\n    tag_103:\n        /* \"UniSwap.sol\":1332:1366  return tokens[_tokenSymbol].name() */\n      swap1\n      pop\n        /* \"UniSwap.sol\":1241:1374  function getName(string memory _tokenSymbol) public view returns (string memory) {... */\n      swap2\n      swap1\n      pop\n      jump\t// out\n        /* \"UniSwap.sol\":515:567  string[] public tokenSymbols = [\"VND\", \"USD\", \"AUD\"] */\n    tag_39:\n      0x01\n      dup2\n      dup2\n      sload\n      dup2\n      lt\n      tag_105\n      jumpi\n      0x00\n      dup1\n      revert\n    tag_105:\n      swap1\n      0x00\n      mstore\n      keccak256(0x00, 0x20)\n      add\n      0x00\n      swap2\n      pop\n      swap1\n      pop\n      dup1\n      sload\n      tag_107\n      swap1\n      tag_67\n      jump\t// in\n    tag_107:\n      dup1\n      0x1f\n      add\n      0x20\n      dup1\n      swap2\n      div\n      mul\n      0x20\n      add\n      mload(0x40)\n      swap1\n      dup2\n      add\n      0x40\n      mstore\n      dup1\n      swap3\n      swap2\n      swap1\n      dup2\n      dup2\n      mstore\n      0x20\n      add\n      dup3\n      dup1\n      sload\n      tag_108\n      swap1\n      tag_67\n      jump\t// in\n    tag_108:\n      dup1\n      iszero\n      tag_109\n      jumpi\n      dup1\n      0x1f\n      lt\n      tag_110\n      jumpi\n      0x0100\n      dup1\n      dup4\n      sload\n      div\n      mul\n      dup4\n      mstore\n      swap2\n      0x20\n      add\n      swap2\n      jump(tag_109)\n    tag_110:\n      dup3\n      add\n      swap2\n      swap1\n      0x00\n      mstore\n      keccak256(0x00, 0x20)\n      swap1\n    tag_111:\n      dup2\n      sload\n      dup2\n      mstore\n      swap1\n      0x01\n      add\n      swap1\n      0x20\n      add\n      dup1\n      dup4\n      gt\n      tag_111\n      jumpi\n      dup3\n      swap1\n      sub\n      0x1f\n      and\n      dup3\n      add\n      swap2\n    tag_109:\n      pop\n      pop\n      pop\n      pop\n      pop\n      dup2\n      jump\t// out\n        /* \"UniSwap.sol\":1021:1235  function getBalance(string memory _tokenSymbol, address _address)... */\n    tag_45:\n        /* \"UniSwap.sol\":1132:1139  uint256 */\n      0x00\n        /* \"UniSwap.sol\":1162:1168  tokens */\n      0x03\n        /* \"UniSwap.sol\":1169:1181  _tokenSymbol */\n      dup4\n        /* \"UniSwap.sol\":1162:1182  tokens[_tokenSymbol] */\n      mload(0x40)\n      tag_113\n      swap2\n      swap1\n      tag_94\n      jump\t// in\n    tag_113:\n      swap1\n      dup2\n      mstore\n      0x20\n      add\n      mload(0x40)\n      dup1\n      swap2\n      sub\n      swap1\n      keccak256\n      0x00\n      swap1\n      sload\n      swap1\n      0x0100\n      exp\n      swap1\n      div\n      0xffffffffffffffffffffffffffffffffffffffff\n      and\n        /* \"UniSwap.sol\":1162:1192  tokens[_tokenSymbol].balanceOf */\n      0xffffffffffffffffffffffffffffffffffffffff\n      and\n      0x70a08231\n        /* \"UniSwap.sol\":1193:1201  _address */\n      dup4\n        /* \"UniSwap.sol\":1162:1202  tokens[_tokenSymbol].balanceOf(_address) */\n      mload(0x40)\n      dup3\n      0xffffffff\n      and\n      0xe0\n      shl\n      dup2\n      mstore\n      0x04\n      add\n      tag_114\n      swap2\n      swap1\n      tag_57\n      jump\t// in\n    tag_114:\n      0x20\n      mload(0x40)\n      dup1\n      dup4\n      sub\n      dup2\n      dup7\n      gas\n      staticcall\n      iszero\n      dup1\n      iszero\n      tag_116\n      jumpi\n      returndatasize\n      0x00\n      dup1\n      returndatacopy\n      revert(0x00, returndatasize)\n    tag_116:\n      pop\n      pop\n      pop\n      pop\n      mload(0x40)\n      returndatasize\n      not(0x1f)\n      0x1f\n      dup3\n      add\n      and\n      dup3\n      add\n      dup1\n      0x40\n      mstore\n      pop\n      dup2\n      add\n      swap1\n      tag_117\n      swap2\n      swap1\n      tag_118\n      jump\t// in\n    tag_117:\n        /* \"UniSwap.sol\":1155:1202  return tokens[_tokenSymbol].balanceOf(_address) */\n      swap1\n      pop\n        /* \"UniSwap.sol\":1021:1235  function getBalance(string memory _tokenSymbol, address _address)... */\n      swap3\n      swap2\n      pop\n      pop\n      jump\t// out\n        /* \"UniSwap.sol\":2540:2661  function swapTokenToToken(string memory _srcTokenSymbol, string memory _desTokenSymbol, uint _amount) public {... */\n    tag_51:\n      pop\n      pop\n      pop\n      jump\t// out\n        /* \"UniSwap.sol\":1380:1511  function getAddress(string memory _tokenSymbol) public view returns (address) {... */\n    tag_55:\n        /* \"UniSwap.sol\":1449:1456  address */\n      0x00\n        /* \"UniSwap.sol\":1483:1489  tokens */\n      0x03\n        /* \"UniSwap.sol\":1490:1502  _tokenSymbol */\n      dup3\n        /* \"UniSwap.sol\":1483:1503  tokens[_tokenSymbol] */\n      mload(0x40)\n      tag_121\n      swap2\n      swap1\n      tag_94\n      jump\t// in\n    tag_121:\n      swap1\n      dup2\n      mstore\n      0x20\n      add\n      mload(0x40)\n      dup1\n      swap2\n      sub\n      swap1\n      keccak256\n      0x00\n      swap1\n      sload\n      swap1\n      0x0100\n      exp\n      swap1\n      div\n      0xffffffffffffffffffffffffffffffffffffffff\n      and\n        /* \"UniSwap.sol\":1468:1504  return address(tokens[_tokenSymbol]) */\n      swap1\n      pop\n        /* \"UniSwap.sol\":1380:1511  function getAddress(string memory _tokenSymbol) public view returns (address) {... */\n      swap2\n      swap1\n      pop\n      jump\t// out\n        /* \"UniSwap.sol\":2117:2534  function swapTokenToEth(string memory _tokenSymbol, uint _amount) public returns (uint) {... */\n    tag_62:\n        /* \"UniSwap.sol\":2199:2203  uint */\n      0x00\n        /* \"UniSwap.sol\":2215:2233  uint ethTransfered */\n      dup1\n        /* \"UniSwap.sol\":2276:2284  10 ** 18 */\n      0x0de0b6b3a7640000\n        /* \"UniSwap.sol\":2246:2259  priceOfTokens */\n      0x02\n        /* \"UniSwap.sol\":2260:2272  _tokenSymbol */\n      dup6\n        /* \"UniSwap.sol\":2246:2273  priceOfTokens[_tokenSymbol] */\n      mload(0x40)\n      tag_123\n      swap2\n      swap1\n      tag_94\n      jump\t// in\n    tag_123:\n      swap1\n      dup2\n      mstore\n      0x20\n      add\n      mload(0x40)\n      dup1\n      swap2\n      sub\n      swap1\n      keccak256\n      sload\n        /* \"UniSwap.sol\":2236:2243  _amount */\n      dup5\n        /* \"UniSwap.sol\":2236:2273  _amount * priceOfTokens[_tokenSymbol] */\n      tag_124\n      swap2\n      swap1\n      tag_98\n      jump\t// in\n    tag_124:\n        /* \"UniSwap.sol\":2236:2284  _amount * priceOfTokens[_tokenSymbol] / 10 ** 18 */\n      tag_125\n      swap2\n      swap1\n      tag_96\n      jump\t// in\n    tag_125:\n        /* \"UniSwap.sol\":2215:2284  uint ethTransfered = _amount * priceOfTokens[_tokenSymbol] / 10 ** 18 */\n      swap1\n      pop\n        /* \"UniSwap.sol\":2328:2341  ethTransfered */\n      dup1\n        /* \"UniSwap.sol\":2303:2324  address(this).balance */\n      selfbalance\n        /* \"UniSwap.sol\":2303:2341  address(this).balance >= ethTransfered */\n      lt\n      iszero\n        /* \"UniSwap.sol\":2295:2363  require(address(this).balance >= ethTransfered, \"Dex cannot supply\") */\n      tag_126\n      jumpi\n      mload(0x40)\n      0x08c379a000000000000000000000000000000000000000000000000000000000\n      dup2\n      mstore\n      0x04\n      add\n      tag_127\n      swap1\n      tag_128\n      jump\t// in\n    tag_127:\n      mload(0x40)\n      dup1\n      swap2\n      sub\n      swap1\n      revert\n    tag_126:\n        /* \"UniSwap.sol\":2381:2391  msg.sender */\n      caller\n        /* \"UniSwap.sol\":2373:2401  payable(msg.sender).transfer */\n      0xffffffffffffffffffffffffffffffffffffffff\n      and\n        /* \"UniSwap.sol\":2373:2416  payable(msg.sender).transfer(ethTransfered) */\n      0x08fc\n        /* \"UniSwap.sol\":2402:2415  ethTransfered */\n      dup3\n        /* \"UniSwap.sol\":2373:2416  payable(msg.sender).transfer(ethTransfered) */\n      swap1\n      dup2\n      iszero\n      mul\n      swap1\n      mload(0x40)\n      0x00\n      mload(0x40)\n      dup1\n      dup4\n      sub\n      dup2\n      dup6\n      dup9\n      dup9\n      call\n      swap4\n      pop\n      pop\n      pop\n      pop\n      iszero\n      dup1\n      iszero\n      tag_130\n      jumpi\n      returndatasize\n      0x00\n      dup1\n      returndatacopy\n      revert(0x00, returndatasize)\n    tag_130:\n      pop\n        /* \"UniSwap.sol\":2427:2433  tokens */\n      0x03\n        /* \"UniSwap.sol\":2434:2446  _tokenSymbol */\n      dup5\n        /* \"UniSwap.sol\":2427:2447  tokens[_tokenSymbol] */\n      mload(0x40)\n      tag_131\n      swap2\n      swap1\n      tag_94\n      jump\t// in\n    tag_131:\n      swap1\n      dup2\n      mstore\n      0x20\n      add\n      mload(0x40)\n      dup1\n      swap2\n      sub\n      swap1\n      keccak256\n      0x00\n      swap1\n      sload\n      swap1\n      0x0100\n      exp\n      swap1\n      div\n      0xffffffffffffffffffffffffffffffffffffffff\n      and\n        /* \"UniSwap.sol\":2427:2460  tokens[_tokenSymbol].transferFrom */\n      0xffffffffffffffffffffffffffffffffffffffff\n      and\n      0x23b872dd\n        /* \"UniSwap.sol\":2461:2471  msg.sender */\n      caller\n        /* \"UniSwap.sol\":2481:2485  this */\n      address\n        /* \"UniSwap.sol\":2488:2495  _amount */\n      dup7\n        /* \"UniSwap.sol\":2427:2496  tokens[_tokenSymbol].transferFrom(msg.sender, address(this), _amount) */\n      mload(0x40)\n      dup5\n      0xffffffff\n      and\n      0xe0\n      shl\n      dup2\n      mstore\n      0x04\n      add\n      tag_132\n      swap4\n      swap3\n      swap2\n      swap1\n      tag_133\n      jump\t// in\n    tag_132:\n      0x20\n      mload(0x40)\n      dup1\n      dup4\n      sub\n      dup2\n      0x00\n      dup8\n      gas\n      call\n      iszero\n      dup1\n      iszero\n      tag_135\n      jumpi\n      returndatasize\n      0x00\n      dup1\n      returndatacopy\n      revert(0x00, returndatasize)\n    tag_135:\n      pop\n      pop\n      pop\n      pop\n      mload(0x40)\n      returndatasize\n      not(0x1f)\n      0x1f\n      dup3\n      add\n      and\n      dup3\n      add\n      dup1\n      0x40\n      mstore\n      pop\n      dup2\n      add\n      swap1\n      tag_136\n      swap2\n      swap1\n      tag_88\n      jump\t// in\n    tag_136:\n      pop\n        /* \"UniSwap.sol\":2513:2526  ethTransfered */\n      dup1\n        /* \"UniSwap.sol\":2506:2526  return ethTransfered */\n      swap2\n      pop\n      pop\n        /* \"UniSwap.sol\":2117:2534  function swapTokenToEth(string memory _tokenSymbol, uint _amount) public returns (uint) {... */\n      swap3\n      swap2\n      pop\n      pop\n      jump\t// out\n        /* \"#utility.yul\":7:82   */\n    tag_137:\n        /* \"#utility.yul\":40:46   */\n      0x00\n        /* \"#utility.yul\":73:75   */\n      0x40\n        /* \"#utility.yul\":67:76   */\n      mload\n        /* \"#utility.yul\":57:76   */\n      swap1\n      pop\n        /* \"#utility.yul\":7:82   */\n      swap1\n      jump\t// out\n        /* \"#utility.yul\":88:205   */\n    tag_138:\n        /* \"#utility.yul\":197:198   */\n      0x00\n        /* \"#utility.yul\":194:195   */\n      dup1\n        /* \"#utility.yul\":187:199   */\n      revert\n        /* \"#utility.yul\":211:328   */\n    tag_139:\n        /* \"#utility.yul\":320:321   */\n      0x00\n        /* \"#utility.yul\":317:318   */\n      dup1\n        /* \"#utility.yul\":310:322   */\n      revert\n        /* \"#utility.yul\":334:451   */\n    tag_140:\n        /* \"#utility.yul\":443:444   */\n      0x00\n        /* \"#utility.yul\":440:441   */\n      dup1\n        /* \"#utility.yul\":433:445   */\n      revert\n        /* \"#utility.yul\":457:574   */\n    tag_141:\n        /* \"#utility.yul\":566:567   */\n      0x00\n        /* \"#utility.yul\":563:564   */\n      dup1\n        /* \"#utility.yul\":556:568   */\n      revert\n        /* \"#utility.yul\":580:682   */\n    tag_142:\n        /* \"#utility.yul\":621:627   */\n      0x00\n        /* \"#utility.yul\":672:674   */\n      0x1f\n        /* \"#utility.yul\":668:675   */\n      not\n        /* \"#utility.yul\":663:665   */\n      0x1f\n        /* \"#utility.yul\":656:661   */\n      dup4\n        /* \"#utility.yul\":652:666   */\n      add\n        /* \"#utility.yul\":648:676   */\n      and\n        /* \"#utility.yul\":638:676   */\n      swap1\n      pop\n        /* \"#utility.yul\":580:682   */\n      swap2\n      swap1\n      pop\n      jump\t// out\n        /* \"#utility.yul\":688:868   */\n    tag_143:\n        /* \"#utility.yul\":736:813   */\n      0x4e487b7100000000000000000000000000000000000000000000000000000000\n        /* \"#utility.yul\":733:734   */\n      0x00\n        /* \"#utility.yul\":726:814   */\n      mstore\n        /* \"#utility.yul\":833:837   */\n      0x41\n        /* \"#utility.yul\":830:831   */\n      0x04\n        /* \"#utility.yul\":823:838   */\n      mstore\n        /* \"#utility.yul\":857:861   */\n      0x24\n        /* \"#utility.yul\":854:855   */\n      0x00\n        /* \"#utility.yul\":847:862   */\n      revert\n        /* \"#utility.yul\":874:1155   */\n    tag_144:\n        /* \"#utility.yul\":957:984   */\n      tag_198\n        /* \"#utility.yul\":979:983   */\n      dup3\n        /* \"#utility.yul\":957:984   */\n      tag_142\n      jump\t// in\n    tag_198:\n        /* \"#utility.yul\":949:955   */\n      dup2\n        /* \"#utility.yul\":945:985   */\n      add\n        /* \"#utility.yul\":1087:1093   */\n      dup2\n        /* \"#utility.yul\":1075:1085   */\n      dup2\n        /* \"#utility.yul\":1072:1094   */\n      lt\n        /* \"#utility.yul\":1051:1069   */\n      0xffffffffffffffff\n        /* \"#utility.yul\":1039:1049   */\n      dup3\n        /* \"#utility.yul\":1036:1070   */\n      gt\n        /* \"#utility.yul\":1033:1095   */\n      or\n        /* \"#utility.yul\":1030:1118   */\n      iszero\n      tag_199\n      jumpi\n        /* \"#utility.yul\":1098:1116   */\n      tag_200\n      tag_143\n      jump\t// in\n    tag_200:\n        /* \"#utility.yul\":1030:1118   */\n    tag_199:\n        /* \"#utility.yul\":1138:1148   */\n      dup1\n        /* \"#utility.yul\":1134:1136   */\n      0x40\n        /* \"#utility.yul\":1127:1149   */\n      mstore\n        /* \"#utility.yul\":917:1155   */\n      pop\n        /* \"#utility.yul\":874:1155   */\n      pop\n      pop\n      jump\t// out\n        /* \"#utility.yul\":1161:1290   */\n    tag_145:\n        /* \"#utility.yul\":1195:1201   */\n      0x00\n        /* \"#utility.yul\":1222:1242   */\n      tag_202\n      tag_137\n      jump\t// in\n    tag_202:\n        /* \"#utility.yul\":1212:1242   */\n      swap1\n      pop\n        /* \"#utility.yul\":1251:1284   */\n      tag_203\n        /* \"#utility.yul\":1279:1283   */\n      dup3\n        /* \"#utility.yul\":1271:1277   */\n      dup3\n        /* \"#utility.yul\":1251:1284   */\n      tag_144\n      jump\t// in\n    tag_203:\n        /* \"#utility.yul\":1161:1290   */\n      swap2\n      swap1\n      pop\n      jump\t// out\n        /* \"#utility.yul\":1296:1604   */\n    tag_146:\n        /* \"#utility.yul\":1358:1362   */\n      0x00\n        /* \"#utility.yul\":1448:1466   */\n      0xffffffffffffffff\n        /* \"#utility.yul\":1440:1446   */\n      dup3\n        /* \"#utility.yul\":1437:1467   */\n      gt\n        /* \"#utility.yul\":1434:1490   */\n      iszero\n      tag_205\n      jumpi\n        /* \"#utility.yul\":1470:1488   */\n      tag_206\n      tag_143\n      jump\t// in\n    tag_206:\n        /* \"#utility.yul\":1434:1490   */\n    tag_205:\n        /* \"#utility.yul\":1508:1537   */\n      tag_207\n        /* \"#utility.yul\":1530:1536   */\n      dup3\n        /* \"#utility.yul\":1508:1537   */\n      tag_142\n      jump\t// in\n    tag_207:\n        /* \"#utility.yul\":1500:1537   */\n      swap1\n      pop\n        /* \"#utility.yul\":1592:1596   */\n      0x20\n        /* \"#utility.yul\":1586:1590   */\n      dup2\n        /* \"#utility.yul\":1582:1597   */\n      add\n        /* \"#utility.yul\":1574:1597   */\n      swap1\n      pop\n        /* \"#utility.yul\":1296:1604   */\n      swap2\n      swap1\n      pop\n      jump\t// out\n        /* \"#utility.yul\":1610:1756   */\n    tag_147:\n        /* \"#utility.yul\":1707:1713   */\n      dup3\n        /* \"#utility.yul\":1702:1705   */\n      dup2\n        /* \"#utility.yul\":1697:1700   */\n      dup4\n        /* \"#utility.yul\":1684:1714   */\n      calldatacopy\n        /* \"#utility.yul\":1748:1749   */\n      0x00\n        /* \"#utility.yul\":1739:1745   */\n      dup4\n        /* \"#utility.yul\":1734:1737   */\n      dup4\n        /* \"#utility.yul\":1730:1746   */\n      add\n        /* \"#utility.yul\":1723:1750   */\n      mstore\n        /* \"#utility.yul\":1610:1756   */\n      pop\n      pop\n      pop\n      jump\t// out\n        /* \"#utility.yul\":1762:2187   */\n    tag_148:\n        /* \"#utility.yul\":1840:1845   */\n      0x00\n        /* \"#utility.yul\":1865:1931   */\n      tag_210\n        /* \"#utility.yul\":1881:1930   */\n      tag_211\n        /* \"#utility.yul\":1923:1929   */\n      dup5\n        /* \"#utility.yul\":1881:1930   */\n      tag_146\n      jump\t// in\n    tag_211:\n        /* \"#utility.yul\":1865:1931   */\n      tag_145\n      jump\t// in\n    tag_210:\n        /* \"#utility.yul\":1856:1931   */\n      swap1\n      pop\n        /* \"#utility.yul\":1954:1960   */\n      dup3\n        /* \"#utility.yul\":1947:1952   */\n      dup2\n        /* \"#utility.yul\":1940:1961   */\n      mstore\n        /* \"#utility.yul\":1992:1996   */\n      0x20\n        /* \"#utility.yul\":1985:1990   */\n      dup2\n        /* \"#utility.yul\":1981:1997   */\n      add\n        /* \"#utility.yul\":2030:2033   */\n      dup5\n        /* \"#utility.yul\":2021:2027   */\n      dup5\n        /* \"#utility.yul\":2016:2019   */\n      dup5\n        /* \"#utility.yul\":2012:2028   */\n      add\n        /* \"#utility.yul\":2009:2034   */\n      gt\n        /* \"#utility.yul\":2006:2118   */\n      iszero\n      tag_212\n      jumpi\n        /* \"#utility.yul\":2037:2116   */\n      tag_213\n      tag_141\n      jump\t// in\n    tag_213:\n        /* \"#utility.yul\":2006:2118   */\n    tag_212:\n        /* \"#utility.yul\":2127:2181   */\n      tag_214\n        /* \"#utility.yul\":2174:2180   */\n      dup5\n        /* \"#utility.yul\":2169:2172   */\n      dup3\n        /* \"#utility.yul\":2164:2167   */\n      dup6\n        /* \"#utility.yul\":2127:2181   */\n      tag_147\n      jump\t// in\n    tag_214:\n        /* \"#utility.yul\":1846:2187   */\n      pop\n        /* \"#utility.yul\":1762:2187   */\n      swap4\n      swap3\n      pop\n      pop\n      pop\n      jump\t// out\n        /* \"#utility.yul\":2207:2547   */\n    tag_149:\n        /* \"#utility.yul\":2263:2268   */\n      0x00\n        /* \"#utility.yul\":2312:2315   */\n      dup3\n        /* \"#utility.yul\":2305:2309   */\n      0x1f\n        /* \"#utility.yul\":2297:2303   */\n      dup4\n        /* \"#utility.yul\":2293:2310   */\n      add\n        /* \"#utility.yul\":2289:2316   */\n      slt\n        /* \"#utility.yul\":2279:2401   */\n      tag_216\n      jumpi\n        /* \"#utility.yul\":2320:2399   */\n      tag_217\n      tag_140\n      jump\t// in\n    tag_217:\n        /* \"#utility.yul\":2279:2401   */\n    tag_216:\n        /* \"#utility.yul\":2437:2443   */\n      dup2\n        /* \"#utility.yul\":2424:2444   */\n      calldataload\n        /* \"#utility.yul\":2462:2541   */\n      tag_218\n        /* \"#utility.yul\":2537:2540   */\n      dup5\n        /* \"#utility.yul\":2529:2535   */\n      dup3\n        /* \"#utility.yul\":2522:2526   */\n      0x20\n        /* \"#utility.yul\":2514:2520   */\n      dup7\n        /* \"#utility.yul\":2510:2527   */\n      add\n        /* \"#utility.yul\":2462:2541   */\n      tag_148\n      jump\t// in\n    tag_218:\n        /* \"#utility.yul\":2453:2541   */\n      swap2\n      pop\n        /* \"#utility.yul\":2269:2547   */\n      pop\n        /* \"#utility.yul\":2207:2547   */\n      swap3\n      swap2\n      pop\n      pop\n      jump\t// out\n        /* \"#utility.yul\":2553:3062   */\n    tag_15:\n        /* \"#utility.yul\":2622:2628   */\n      0x00\n        /* \"#utility.yul\":2671:2673   */\n      0x20\n        /* \"#utility.yul\":2659:2668   */\n      dup3\n        /* \"#utility.yul\":2650:2657   */\n      dup5\n        /* \"#utility.yul\":2646:2669   */\n      sub\n        /* \"#utility.yul\":2642:2674   */\n      slt\n        /* \"#utility.yul\":2639:2758   */\n      iszero\n      tag_220\n      jumpi\n        /* \"#utility.yul\":2677:2756   */\n      tag_221\n      tag_138\n      jump\t// in\n    tag_221:\n        /* \"#utility.yul\":2639:2758   */\n    tag_220:\n        /* \"#utility.yul\":2825:2826   */\n      0x00\n        /* \"#utility.yul\":2814:2823   */\n      dup3\n        /* \"#utility.yul\":2810:2827   */\n      add\n        /* \"#utility.yul\":2797:2828   */\n      calldataload\n        /* \"#utility.yul\":2855:2873   */\n      0xffffffffffffffff\n        /* \"#utility.yul\":2847:2853   */\n      dup2\n        /* \"#utility.yul\":2844:2874   */\n      gt\n        /* \"#utility.yul\":2841:2958   */\n      iszero\n      tag_222\n      jumpi\n        /* \"#utility.yul\":2877:2956   */\n      tag_223\n      tag_139\n      jump\t// in\n    tag_223:\n        /* \"#utility.yul\":2841:2958   */\n    tag_222:\n        /* \"#utility.yul\":2982:3045   */\n      tag_224\n        /* \"#utility.yul\":3037:3044   */\n      dup5\n        /* \"#utility.yul\":3028:3034   */\n      dup3\n        /* \"#utility.yul\":3017:3026   */\n      dup6\n        /* \"#utility.yul\":3013:3035   */\n      add\n        /* \"#utility.yul\":2982:3045   */\n      tag_149\n      jump\t// in\n    tag_224:\n        /* \"#utility.yul\":2972:3045   */\n      swap2\n      pop\n        /* \"#utility.yul\":2768:3055   */\n      pop\n        /* \"#utility.yul\":2553:3062   */\n      swap3\n      swap2\n      pop\n      pop\n      jump\t// out\n        /* \"#utility.yul\":3068:3194   */\n    tag_150:\n        /* \"#utility.yul\":3105:3112   */\n      0x00\n        /* \"#utility.yul\":3145:3187   */\n      0xffffffffffffffffffffffffffffffffffffffff\n        /* \"#utility.yul\":3138:3143   */\n      dup3\n        /* \"#utility.yul\":3134:3188   */\n      and\n        /* \"#utility.yul\":3123:3188   */\n      swap1\n      pop\n        /* \"#utility.yul\":3068:3194   */\n      swap2\n      swap1\n      pop\n      jump\t// out\n        /* \"#utility.yul\":3200:3260   */\n    tag_151:\n        /* \"#utility.yul\":3228:3231   */\n      0x00\n        /* \"#utility.yul\":3249:3254   */\n      dup2\n        /* \"#utility.yul\":3242:3254   */\n      swap1\n      pop\n        /* \"#utility.yul\":3200:3260   */\n      swap2\n      swap1\n      pop\n      jump\t// out\n        /* \"#utility.yul\":3266:3408   */\n    tag_152:\n        /* \"#utility.yul\":3316:3325   */\n      0x00\n        /* \"#utility.yul\":3349:3402   */\n      tag_228\n        /* \"#utility.yul\":3367:3401   */\n      tag_229\n        /* \"#utility.yul\":3376:3400   */\n      tag_230\n        /* \"#utility.yul\":3394:3399   */\n      dup5\n        /* \"#utility.yul\":3376:3400   */\n      tag_150\n      jump\t// in\n    tag_230:\n        /* \"#utility.yul\":3367:3401   */\n      tag_151\n      jump\t// in\n    tag_229:\n        /* \"#utility.yul\":3349:3402   */\n      tag_150\n      jump\t// in\n    tag_228:\n        /* \"#utility.yul\":3336:3402   */\n      swap1\n      pop\n        /* \"#utility.yul\":3266:3408   */\n      swap2\n      swap1\n      pop\n      jump\t// out\n        /* \"#utility.yul\":3414:3540   */\n    tag_153:\n        /* \"#utility.yul\":3464:3473   */\n      0x00\n        /* \"#utility.yul\":3497:3534   */\n      tag_232\n        /* \"#utility.yul\":3528:3533   */\n      dup3\n        /* \"#utility.yul\":3497:3534   */\n      tag_152\n      jump\t// in\n    tag_232:\n        /* \"#utility.yul\":3484:3534   */\n      swap1\n      pop\n        /* \"#utility.yul\":3414:3540   */\n      swap2\n      swap1\n      pop\n      jump\t// out\n        /* \"#utility.yul\":3546:3685   */\n    tag_154:\n        /* \"#utility.yul\":3609:3618   */\n      0x00\n        /* \"#utility.yul\":3642:3679   */\n      tag_234\n        /* \"#utility.yul\":3673:3678   */\n      dup3\n        /* \"#utility.yul\":3642:3679   */\n      tag_153\n      jump\t// in\n    tag_234:\n        /* \"#utility.yul\":3629:3679   */\n      swap1\n      pop\n        /* \"#utility.yul\":3546:3685   */\n      swap2\n      swap1\n      pop\n      jump\t// out\n        /* \"#utility.yul\":3691:3848   */\n    tag_155:\n        /* \"#utility.yul\":3791:3841   */\n      tag_236\n        /* \"#utility.yul\":3835:3840   */\n      dup2\n        /* \"#utility.yul\":3791:3841   */\n      tag_154\n      jump\t// in\n    tag_236:\n        /* \"#utility.yul\":3786:3789   */\n      dup3\n        /* \"#utility.yul\":3779:3842   */\n      mstore\n        /* \"#utility.yul\":3691:3848   */\n      pop\n      pop\n      jump\t// out\n        /* \"#utility.yul\":3854:4102   */\n    tag_18:\n        /* \"#utility.yul\":3960:3964   */\n      0x00\n        /* \"#utility.yul\":3998:4000   */\n      0x20\n        /* \"#utility.yul\":3987:3996   */\n      dup3\n        /* \"#utility.yul\":3983:4001   */\n      add\n        /* \"#utility.yul\":3975:4001   */\n      swap1\n      pop\n        /* \"#utility.yul\":4011:4095   */\n      tag_238\n        /* \"#utility.yul\":4092:4093   */\n      0x00\n        /* \"#utility.yul\":4081:4090   */\n      dup4\n        /* \"#utility.yul\":4077:4094   */\n      add\n        /* \"#utility.yul\":4068:4074   */\n      dup5\n        /* \"#utility.yul\":4011:4095   */\n      tag_155\n      jump\t// in\n    tag_238:\n        /* \"#utility.yul\":3854:4102   */\n      swap3\n      swap2\n      pop\n      pop\n      jump\t// out\n        /* \"#utility.yul\":4108:4185   */\n    tag_156:\n        /* \"#utility.yul\":4145:4152   */\n      0x00\n        /* \"#utility.yul\":4174:4179   */\n      dup2\n        /* \"#utility.yul\":4163:4179   */\n      swap1\n      pop\n        /* \"#utility.yul\":4108:4185   */\n      swap2\n      swap1\n      pop\n      jump\t// out\n        /* \"#utility.yul\":4191:4313   */\n    tag_157:\n        /* \"#utility.yul\":4264:4288   */\n      tag_241\n        /* \"#utility.yul\":4282:4287   */\n      dup2\n        /* \"#utility.yul\":4264:4288   */\n      tag_156\n      jump\t// in\n    tag_241:\n        /* \"#utility.yul\":4257:4262   */\n      dup2\n        /* \"#utility.yul\":4254:4289   */\n      eq\n        /* \"#utility.yul\":4244:4307   */\n      tag_242\n      jumpi\n        /* \"#utility.yul\":4303:4304   */\n      0x00\n        /* \"#utility.yul\":4300:4301   */\n      dup1\n        /* \"#utility.yul\":4293:4305   */\n      revert\n        /* \"#utility.yul\":4244:4307   */\n    tag_242:\n        /* \"#utility.yul\":4191:4313   */\n      pop\n      jump\t// out\n        /* \"#utility.yul\":4319:4458   */\n    tag_158:\n        /* \"#utility.yul\":4365:4370   */\n      0x00\n        /* \"#utility.yul\":4403:4409   */\n      dup2\n        /* \"#utility.yul\":4390:4410   */\n      calldataload\n        /* \"#utility.yul\":4381:4410   */\n      swap1\n      pop\n        /* \"#utility.yul\":4419:4452   */\n      tag_244\n        /* \"#utility.yul\":4446:4451   */\n      dup2\n        /* \"#utility.yul\":4419:4452   */\n      tag_157\n      jump\t// in\n    tag_244:\n        /* \"#utility.yul\":4319:4458   */\n      swap3\n      swap2\n      pop\n      pop\n      jump\t// out\n        /* \"#utility.yul\":4464:4793   */\n    tag_22:\n        /* \"#utility.yul\":4523:4529   */\n      0x00\n        /* \"#utility.yul\":4572:4574   */\n      0x20\n        /* \"#utility.yul\":4560:4569   */\n      dup3\n        /* \"#utility.yul\":4551:4558   */\n      dup5\n        /* \"#utility.yul\":4547:4570   */\n      sub\n        /* \"#utility.yul\":4543:4575   */\n      slt\n        /* \"#utility.yul\":4540:4659   */\n      iszero\n      tag_246\n      jumpi\n        /* \"#utility.yul\":4578:4657   */\n      tag_247\n      tag_138\n      jump\t// in\n    tag_247:\n        /* \"#utility.yul\":4540:4659   */\n    tag_246:\n        /* \"#utility.yul\":4698:4699   */\n      0x00\n        /* \"#utility.yul\":4723:4776   */\n      tag_248\n        /* \"#utility.yul\":4768:4775   */\n      dup5\n        /* \"#utility.yul\":4759:4765   */\n      dup3\n        /* \"#utility.yul\":4748:4757   */\n      dup6\n        /* \"#utility.yul\":4744:4766   */\n      add\n        /* \"#utility.yul\":4723:4776   */\n      tag_158\n      jump\t// in\n    tag_248:\n        /* \"#utility.yul\":4713:4776   */\n      swap2\n      pop\n        /* \"#utility.yul\":4669:4786   */\n      pop\n        /* \"#utility.yul\":4464:4793   */\n      swap3\n      swap2\n      pop\n      pop\n      jump\t// out\n        /* \"#utility.yul\":4799:4898   */\n    tag_159:\n        /* \"#utility.yul\":4851:4857   */\n      0x00\n        /* \"#utility.yul\":4885:4890   */\n      dup2\n        /* \"#utility.yul\":4879:4891   */\n      mload\n        /* \"#utility.yul\":4869:4891   */\n      swap1\n      pop\n        /* \"#utility.yul\":4799:4898   */\n      swap2\n      swap1\n      pop\n      jump\t// out\n        /* \"#utility.yul\":4904:5073   */\n    tag_160:\n        /* \"#utility.yul\":4988:4999   */\n      0x00\n        /* \"#utility.yul\":5022:5028   */\n      dup3\n        /* \"#utility.yul\":5017:5020   */\n      dup3\n        /* \"#utility.yul\":5010:5029   */\n      mstore\n        /* \"#utility.yul\":5062:5066   */\n      0x20\n        /* \"#utility.yul\":5057:5060   */\n      dup3\n        /* \"#utility.yul\":5053:5067   */\n      add\n        /* \"#utility.yul\":5038:5067   */\n      swap1\n      pop\n        /* \"#utility.yul\":4904:5073   */\n      swap3\n      swap2\n      pop\n      pop\n      jump\t// out\n        /* \"#utility.yul\":5079:5325   */\n    tag_161:\n        /* \"#utility.yul\":5160:5161   */\n      0x00\n        /* \"#utility.yul\":5170:5283   */\n    tag_252:\n        /* \"#utility.yul\":5184:5190   */\n      dup4\n        /* \"#utility.yul\":5181:5182   */\n      dup2\n        /* \"#utility.yul\":5178:5191   */\n      lt\n        /* \"#utility.yul\":5170:5283   */\n      iszero\n      tag_254\n      jumpi\n        /* \"#utility.yul\":5269:5270   */\n      dup1\n        /* \"#utility.yul\":5264:5267   */\n      dup3\n        /* \"#utility.yul\":5260:5271   */\n      add\n        /* \"#utility.yul\":5254:5272   */\n      mload\n        /* \"#utility.yul\":5250:5251   */\n      dup2\n        /* \"#utility.yul\":5245:5248   */\n      dup5\n        /* \"#utility.yul\":5241:5252   */\n      add\n        /* \"#utility.yul\":5234:5273   */\n      mstore\n        /* \"#utility.yul\":5206:5208   */\n      0x20\n        /* \"#utility.yul\":5203:5204   */\n      dup2\n        /* \"#utility.yul\":5199:5209   */\n      add\n        /* \"#utility.yul\":5194:5209   */\n      swap1\n      pop\n        /* \"#utility.yul\":5170:5283   */\n      jump(tag_252)\n    tag_254:\n        /* \"#utility.yul\":5317:5318   */\n      0x00\n        /* \"#utility.yul\":5308:5314   */\n      dup5\n        /* \"#utility.yul\":5303:5306   */\n      dup5\n        /* \"#utility.yul\":5299:5315   */\n      add\n        /* \"#utility.yul\":5292:5319   */\n      mstore\n        /* \"#utility.yul\":5141:5325   */\n      pop\n        /* \"#utility.yul\":5079:5325   */\n      pop\n      pop\n      pop\n      jump\t// out\n        /* \"#utility.yul\":5331:5708   */\n    tag_162:\n        /* \"#utility.yul\":5419:5422   */\n      0x00\n        /* \"#utility.yul\":5447:5486   */\n      tag_256\n        /* \"#utility.yul\":5480:5485   */\n      dup3\n        /* \"#utility.yul\":5447:5486   */\n      tag_159\n      jump\t// in\n    tag_256:\n        /* \"#utility.yul\":5502:5573   */\n      tag_257\n        /* \"#utility.yul\":5566:5572   */\n      dup2\n        /* \"#utility.yul\":5561:5564   */\n      dup6\n        /* \"#utility.yul\":5502:5573   */\n      tag_160\n      jump\t// in\n    tag_257:\n        /* \"#utility.yul\":5495:5573   */\n      swap4\n      pop\n        /* \"#utility.yul\":5582:5647   */\n      tag_258\n        /* \"#utility.yul\":5640:5646   */\n      dup2\n        /* \"#utility.yul\":5635:5638   */\n      dup6\n        /* \"#utility.yul\":5628:5632   */\n      0x20\n        /* \"#utility.yul\":5621:5626   */\n      dup7\n        /* \"#utility.yul\":5617:5633   */\n      add\n        /* \"#utility.yul\":5582:5647   */\n      tag_161\n      jump\t// in\n    tag_258:\n        /* \"#utility.yul\":5672:5701   */\n      tag_259\n        /* \"#utility.yul\":5694:5700   */\n      dup2\n        /* \"#utility.yul\":5672:5701   */\n      tag_142\n      jump\t// in\n    tag_259:\n        /* \"#utility.yul\":5667:5670   */\n      dup5\n        /* \"#utility.yul\":5663:5702   */\n      add\n        /* \"#utility.yul\":5656:5702   */\n      swap2\n      pop\n        /* \"#utility.yul\":5423:5708   */\n      pop\n        /* \"#utility.yul\":5331:5708   */\n      swap3\n      swap2\n      pop\n      pop\n      jump\t// out\n        /* \"#utility.yul\":5714:6027   */\n    tag_25:\n        /* \"#utility.yul\":5827:5831   */\n      0x00\n        /* \"#utility.yul\":5865:5867   */\n      0x20\n        /* \"#utility.yul\":5854:5863   */\n      dup3\n        /* \"#utility.yul\":5850:5868   */\n      add\n        /* \"#utility.yul\":5842:5868   */\n      swap1\n      pop\n        /* \"#utility.yul\":5914:5923   */\n      dup2\n        /* \"#utility.yul\":5908:5912   */\n      dup2\n        /* \"#utility.yul\":5904:5924   */\n      sub\n        /* \"#utility.yul\":5900:5901   */\n      0x00\n        /* \"#utility.yul\":5889:5898   */\n      dup4\n        /* \"#utility.yul\":5885:5902   */\n      add\n        /* \"#utility.yul\":5878:5925   */\n      mstore\n        /* \"#utility.yul\":5942:6020   */\n      tag_261\n        /* \"#utility.yul\":6015:6019   */\n      dup2\n        /* \"#utility.yul\":6006:6012   */\n      dup5\n        /* \"#utility.yul\":5942:6020   */\n      tag_162\n      jump\t// in\n    tag_261:\n        /* \"#utility.yul\":5934:6020   */\n      swap1\n      pop\n        /* \"#utility.yul\":5714:6027   */\n      swap3\n      swap2\n      pop\n      pop\n      jump\t// out\n        /* \"#utility.yul\":6033:6151   */\n    tag_163:\n        /* \"#utility.yul\":6120:6144   */\n      tag_263\n        /* \"#utility.yul\":6138:6143   */\n      dup2\n        /* \"#utility.yul\":6120:6144   */\n      tag_156\n      jump\t// in\n    tag_263:\n        /* \"#utility.yul\":6115:6118   */\n      dup3\n        /* \"#utility.yul\":6108:6145   */\n      mstore\n        /* \"#utility.yul\":6033:6151   */\n      pop\n      pop\n      jump\t// out\n        /* \"#utility.yul\":6157:6379   */\n    tag_30:\n        /* \"#utility.yul\":6250:6254   */\n      0x00\n        /* \"#utility.yul\":6288:6290   */\n      0x20\n        /* \"#utility.yul\":6277:6286   */\n      dup3\n        /* \"#utility.yul\":6273:6291   */\n      add\n        /* \"#utility.yul\":6265:6291   */\n      swap1\n      pop\n        /* \"#utility.yul\":6301:6372   */\n      tag_265\n        /* \"#utility.yul\":6369:6370   */\n      0x00\n        /* \"#utility.yul\":6358:6367   */\n      dup4\n        /* \"#utility.yul\":6354:6371   */\n      add\n        /* \"#utility.yul\":6345:6351   */\n      dup5\n        /* \"#utility.yul\":6301:6372   */\n      tag_163\n      jump\t// in\n    tag_265:\n        /* \"#utility.yul\":6157:6379   */\n      swap3\n      swap2\n      pop\n      pop\n      jump\t// out\n        /* \"#utility.yul\":6385:6481   */\n    tag_164:\n        /* \"#utility.yul\":6422:6429   */\n      0x00\n        /* \"#utility.yul\":6451:6475   */\n      tag_267\n        /* \"#utility.yul\":6469:6474   */\n      dup3\n        /* \"#utility.yul\":6451:6475   */\n      tag_150\n      jump\t// in\n    tag_267:\n        /* \"#utility.yul\":6440:6475   */\n      swap1\n      pop\n        /* \"#utility.yul\":6385:6481   */\n      swap2\n      swap1\n      pop\n      jump\t// out\n        /* \"#utility.yul\":6487:6609   */\n    tag_165:\n        /* \"#utility.yul\":6560:6584   */\n      tag_269\n        /* \"#utility.yul\":6578:6583   */\n      dup2\n        /* \"#utility.yul\":6560:6584   */\n      tag_164\n      jump\t// in\n    tag_269:\n        /* \"#utility.yul\":6553:6558   */\n      dup2\n        /* \"#utility.yul\":6550:6585   */\n      eq\n        /* \"#utility.yul\":6540:6603   */\n      tag_270\n      jumpi\n        /* \"#utility.yul\":6599:6600   */\n      0x00\n        /* \"#utility.yul\":6596:6597   */\n      dup1\n        /* \"#utility.yul\":6589:6601   */\n      revert\n        /* \"#utility.yul\":6540:6603   */\n    tag_270:\n        /* \"#utility.yul\":6487:6609   */\n      pop\n      jump\t// out\n        /* \"#utility.yul\":6615:6754   */\n    tag_166:\n        /* \"#utility.yul\":6661:6666   */\n      0x00\n        /* \"#utility.yul\":6699:6705   */\n      dup2\n        /* \"#utility.yul\":6686:6706   */\n      calldataload\n        /* \"#utility.yul\":6677:6706   */\n      swap1\n      pop\n        /* \"#utility.yul\":6715:6748   */\n      tag_272\n        /* \"#utility.yul\":6742:6747   */\n      dup2\n        /* \"#utility.yul\":6715:6748   */\n      tag_165\n      jump\t// in\n    tag_272:\n        /* \"#utility.yul\":6615:6754   */\n      swap3\n      swap2\n      pop\n      pop\n      jump\t// out\n        /* \"#utility.yul\":6760:7414   */\n    tag_44:\n        /* \"#utility.yul\":6838:6844   */\n      0x00\n        /* \"#utility.yul\":6846:6852   */\n      dup1\n        /* \"#utility.yul\":6895:6897   */\n      0x40\n        /* \"#utility.yul\":6883:6892   */\n      dup4\n        /* \"#utility.yul\":6874:6881   */\n      dup6\n        /* \"#utility.yul\":6870:6893   */\n      sub\n        /* \"#utility.yul\":6866:6898   */\n      slt\n        /* \"#utility.yul\":6863:6982   */\n      iszero\n      tag_274\n      jumpi\n        /* \"#utility.yul\":6901:6980   */\n      tag_275\n      tag_138\n      jump\t// in\n    tag_275:\n        /* \"#utility.yul\":6863:6982   */\n    tag_274:\n        /* \"#utility.yul\":7049:7050   */\n      0x00\n        /* \"#utility.yul\":7038:7047   */\n      dup4\n        /* \"#utility.yul\":7034:7051   */\n      add\n        /* \"#utility.yul\":7021:7052   */\n      calldataload\n        /* \"#utility.yul\":7079:7097   */\n      0xffffffffffffffff\n        /* \"#utility.yul\":7071:7077   */\n      dup2\n        /* \"#utility.yul\":7068:7098   */\n      gt\n        /* \"#utility.yul\":7065:7182   */\n      iszero\n      tag_276\n      jumpi\n        /* \"#utility.yul\":7101:7180   */\n      tag_277\n      tag_139\n      jump\t// in\n    tag_277:\n        /* \"#utility.yul\":7065:7182   */\n    tag_276:\n        /* \"#utility.yul\":7206:7269   */\n      tag_278\n        /* \"#utility.yul\":7261:7268   */\n      dup6\n        /* \"#utility.yul\":7252:7258   */\n      dup3\n        /* \"#utility.yul\":7241:7250   */\n      dup7\n        /* \"#utility.yul\":7237:7259   */\n      add\n        /* \"#utility.yul\":7206:7269   */\n      tag_149\n      jump\t// in\n    tag_278:\n        /* \"#utility.yul\":7196:7269   */\n      swap3\n      pop\n        /* \"#utility.yul\":6992:7279   */\n      pop\n        /* \"#utility.yul\":7318:7320   */\n      0x20\n        /* \"#utility.yul\":7344:7397   */\n      tag_279\n        /* \"#utility.yul\":7389:7396   */\n      dup6\n        /* \"#utility.yul\":7380:7386   */\n      dup3\n        /* \"#utility.yul\":7369:7378   */\n      dup7\n        /* \"#utility.yul\":7365:7387   */\n      add\n        /* \"#utility.yul\":7344:7397   */\n      tag_166\n      jump\t// in\n    tag_279:\n        /* \"#utility.yul\":7334:7397   */\n      swap2\n      pop\n        /* \"#utility.yul\":7289:7407   */\n      pop\n        /* \"#utility.yul\":6760:7414   */\n      swap3\n      pop\n      swap3\n      swap1\n      pop\n      jump\t// out\n        /* \"#utility.yul\":7420:8399   */\n    tag_50:\n        /* \"#utility.yul\":7517:7523   */\n      0x00\n        /* \"#utility.yul\":7525:7531   */\n      dup1\n        /* \"#utility.yul\":7533:7539   */\n      0x00\n        /* \"#utility.yul\":7582:7584   */\n      0x60\n        /* \"#utility.yul\":7570:7579   */\n      dup5\n        /* \"#utility.yul\":7561:7568   */\n      dup7\n        /* \"#utility.yul\":7557:7580   */\n      sub\n        /* \"#utility.yul\":7553:7585   */\n      slt\n        /* \"#utility.yul\":7550:7669   */\n      iszero\n      tag_281\n      jumpi\n        /* \"#utility.yul\":7588:7667   */\n      tag_282\n      tag_138\n      jump\t// in\n    tag_282:\n        /* \"#utility.yul\":7550:7669   */\n    tag_281:\n        /* \"#utility.yul\":7736:7737   */\n      0x00\n        /* \"#utility.yul\":7725:7734   */\n      dup5\n        /* \"#utility.yul\":7721:7738   */\n      add\n        /* \"#utility.yul\":7708:7739   */\n      calldataload\n        /* \"#utility.yul\":7766:7784   */\n      0xffffffffffffffff\n        /* \"#utility.yul\":7758:7764   */\n      dup2\n        /* \"#utility.yul\":7755:7785   */\n      gt\n        /* \"#utility.yul\":7752:7869   */\n      iszero\n      tag_283\n      jumpi\n        /* \"#utility.yul\":7788:7867   */\n      tag_284\n      tag_139\n      jump\t// in\n    tag_284:\n        /* \"#utility.yul\":7752:7869   */\n    tag_283:\n        /* \"#utility.yul\":7893:7956   */\n      tag_285\n        /* \"#utility.yul\":7948:7955   */\n      dup7\n        /* \"#utility.yul\":7939:7945   */\n      dup3\n        /* \"#utility.yul\":7928:7937   */\n      dup8\n        /* \"#utility.yul\":7924:7946   */\n      add\n        /* \"#utility.yul\":7893:7956   */\n      tag_149\n      jump\t// in\n    tag_285:\n        /* \"#utility.yul\":7883:7956   */\n      swap4\n      pop\n        /* \"#utility.yul\":7679:7966   */\n      pop\n        /* \"#utility.yul\":8033:8035   */\n      0x20\n        /* \"#utility.yul\":8022:8031   */\n      dup5\n        /* \"#utility.yul\":8018:8036   */\n      add\n        /* \"#utility.yul\":8005:8037   */\n      calldataload\n        /* \"#utility.yul\":8064:8082   */\n      0xffffffffffffffff\n        /* \"#utility.yul\":8056:8062   */\n      dup2\n        /* \"#utility.yul\":8053:8083   */\n      gt\n        /* \"#utility.yul\":8050:8167   */\n      iszero\n      tag_286\n      jumpi\n        /* \"#utility.yul\":8086:8165   */\n      tag_287\n      tag_139\n      jump\t// in\n    tag_287:\n        /* \"#utility.yul\":8050:8167   */\n    tag_286:\n        /* \"#utility.yul\":8191:8254   */\n      tag_288\n        /* \"#utility.yul\":8246:8253   */\n      dup7\n        /* \"#utility.yul\":8237:8243   */\n      dup3\n        /* \"#utility.yul\":8226:8235   */\n      dup8\n        /* \"#utility.yul\":8222:8244   */\n      add\n        /* \"#utility.yul\":8191:8254   */\n      tag_149\n      jump\t// in\n    tag_288:\n        /* \"#utility.yul\":8181:8254   */\n      swap3\n      pop\n        /* \"#utility.yul\":7976:8264   */\n      pop\n        /* \"#utility.yul\":8303:8305   */\n      0x40\n        /* \"#utility.yul\":8329:8382   */\n      tag_289\n        /* \"#utility.yul\":8374:8381   */\n      dup7\n        /* \"#utility.yul\":8365:8371   */\n      dup3\n        /* \"#utility.yul\":8354:8363   */\n      dup8\n        /* \"#utility.yul\":8350:8372   */\n      add\n        /* \"#utility.yul\":8329:8382   */\n      tag_158\n      jump\t// in\n    tag_289:\n        /* \"#utility.yul\":8319:8382   */\n      swap2\n      pop\n        /* \"#utility.yul\":8274:8392   */\n      pop\n        /* \"#utility.yul\":7420:8399   */\n      swap3\n      pop\n      swap3\n      pop\n      swap3\n      jump\t// out\n        /* \"#utility.yul\":8405:8523   */\n    tag_167:\n        /* \"#utility.yul\":8492:8516   */\n      tag_291\n        /* \"#utility.yul\":8510:8515   */\n      dup2\n        /* \"#utility.yul\":8492:8516   */\n      tag_164\n      jump\t// in\n    tag_291:\n        /* \"#utility.yul\":8487:8490   */\n      dup3\n        /* \"#utility.yul\":8480:8517   */\n      mstore\n        /* \"#utility.yul\":8405:8523   */\n      pop\n      pop\n      jump\t// out\n        /* \"#utility.yul\":8529:8751   */\n    tag_57:\n        /* \"#utility.yul\":8622:8626   */\n      0x00\n        /* \"#utility.yul\":8660:8662   */\n      0x20\n        /* \"#utility.yul\":8649:8658   */\n      dup3\n        /* \"#utility.yul\":8645:8663   */\n      add\n        /* \"#utility.yul\":8637:8663   */\n      swap1\n      pop\n        /* \"#utility.yul\":8673:8744   */\n      tag_293\n        /* \"#utility.yul\":8741:8742   */\n      0x00\n        /* \"#utility.yul\":8730:8739   */\n      dup4\n        /* \"#utility.yul\":8726:8743   */\n      add\n        /* \"#utility.yul\":8717:8723   */\n      dup5\n        /* \"#utility.yul\":8673:8744   */\n      tag_167\n      jump\t// in\n    tag_293:\n        /* \"#utility.yul\":8529:8751   */\n      swap3\n      swap2\n      pop\n      pop\n      jump\t// out\n        /* \"#utility.yul\":8757:9411   */\n    tag_61:\n        /* \"#utility.yul\":8835:8841   */\n      0x00\n        /* \"#utility.yul\":8843:8849   */\n      dup1\n        /* \"#utility.yul\":8892:8894   */\n      0x40\n        /* \"#utility.yul\":8880:8889   */\n      dup4\n        /* \"#utility.yul\":8871:8878   */\n      dup6\n        /* \"#utility.yul\":8867:8890   */\n      sub\n        /* \"#utility.yul\":8863:8895   */\n      slt\n        /* \"#utility.yul\":8860:8979   */\n      iszero\n      tag_295\n      jumpi\n        /* \"#utility.yul\":8898:8977   */\n      tag_296\n      tag_138\n      jump\t// in\n    tag_296:\n        /* \"#utility.yul\":8860:8979   */\n    tag_295:\n        /* \"#utility.yul\":9046:9047   */\n      0x00\n        /* \"#utility.yul\":9035:9044   */\n      dup4\n        /* \"#utility.yul\":9031:9048   */\n      add\n        /* \"#utility.yul\":9018:9049   */\n      calldataload\n        /* \"#utility.yul\":9076:9094   */\n      0xffffffffffffffff\n        /* \"#utility.yul\":9068:9074   */\n      dup2\n        /* \"#utility.yul\":9065:9095   */\n      gt\n        /* \"#utility.yul\":9062:9179   */\n      iszero\n      tag_297\n      jumpi\n        /* \"#utility.yul\":9098:9177   */\n      tag_298\n      tag_139\n      jump\t// in\n    tag_298:\n        /* \"#utility.yul\":9062:9179   */\n    tag_297:\n        /* \"#utility.yul\":9203:9266   */\n      tag_299\n        /* \"#utility.yul\":9258:9265   */\n      dup6\n        /* \"#utility.yul\":9249:9255   */\n      dup3\n        /* \"#utility.yul\":9238:9247   */\n      dup7\n        /* \"#utility.yul\":9234:9256   */\n      add\n        /* \"#utility.yul\":9203:9266   */\n      tag_149\n      jump\t// in\n    tag_299:\n        /* \"#utility.yul\":9193:9266   */\n      swap3\n      pop\n        /* \"#utility.yul\":8989:9276   */\n      pop\n        /* \"#utility.yul\":9315:9317   */\n      0x20\n        /* \"#utility.yul\":9341:9394   */\n      tag_300\n        /* \"#utility.yul\":9386:9393   */\n      dup6\n        /* \"#utility.yul\":9377:9383   */\n      dup3\n        /* \"#utility.yul\":9366:9375   */\n      dup7\n        /* \"#utility.yul\":9362:9384   */\n      add\n        /* \"#utility.yul\":9341:9394   */\n      tag_158\n      jump\t// in\n    tag_300:\n        /* \"#utility.yul\":9331:9394   */\n      swap2\n      pop\n        /* \"#utility.yul\":9286:9404   */\n      pop\n        /* \"#utility.yul\":8757:9411   */\n      swap3\n      pop\n      swap3\n      swap1\n      pop\n      jump\t// out\n        /* \"#utility.yul\":9417:9597   */\n    tag_168:\n        /* \"#utility.yul\":9465:9542   */\n      0x4e487b7100000000000000000000000000000000000000000000000000000000\n        /* \"#utility.yul\":9462:9463   */\n      0x00\n        /* \"#utility.yul\":9455:9543   */\n      mstore\n        /* \"#utility.yul\":9562:9566   */\n      0x22\n        /* \"#utility.yul\":9559:9560   */\n      0x04\n        /* \"#utility.yul\":9552:9567   */\n      mstore\n        /* \"#utility.yul\":9586:9590   */\n      0x24\n        /* \"#utility.yul\":9583:9584   */\n      0x00\n        /* \"#utility.yul\":9576:9591   */\n      revert\n        /* \"#utility.yul\":9603:9923   */\n    tag_67:\n        /* \"#utility.yul\":9647:9653   */\n      0x00\n        /* \"#utility.yul\":9684:9685   */\n      0x02\n        /* \"#utility.yul\":9678:9682   */\n      dup3\n        /* \"#utility.yul\":9674:9686   */\n      div\n        /* \"#utility.yul\":9664:9686   */\n      swap1\n      pop\n        /* \"#utility.yul\":9731:9732   */\n      0x01\n        /* \"#utility.yul\":9725:9729   */\n      dup3\n        /* \"#utility.yul\":9721:9733   */\n      and\n        /* \"#utility.yul\":9752:9770   */\n      dup1\n        /* \"#utility.yul\":9742:9823   */\n      tag_303\n      jumpi\n        /* \"#utility.yul\":9808:9812   */\n      0x7f\n        /* \"#utility.yul\":9800:9806   */\n      dup3\n        /* \"#utility.yul\":9796:9813   */\n      and\n        /* \"#utility.yul\":9786:9813   */\n      swap2\n      pop\n        /* \"#utility.yul\":9742:9823   */\n    tag_303:\n        /* \"#utility.yul\":9870:9872   */\n      0x20\n        /* \"#utility.yul\":9862:9868   */\n      dup3\n        /* \"#utility.yul\":9859:9873   */\n      lt\n        /* \"#utility.yul\":9839:9857   */\n      dup2\n        /* \"#utility.yul\":9836:9874   */\n      sub\n        /* \"#utility.yul\":9833:9917   */\n      tag_304\n      jumpi\n        /* \"#utility.yul\":9889:9907   */\n      tag_305\n      tag_168\n      jump\t// in\n    tag_305:\n        /* \"#utility.yul\":9833:9917   */\n    tag_304:\n        /* \"#utility.yul\":9654:9923   */\n      pop\n        /* \"#utility.yul\":9603:9923   */\n      swap2\n      swap1\n      pop\n      jump\t// out\n        /* \"#utility.yul\":9929:10101   */\n    tag_169:\n        /* \"#utility.yul\":10069:10093   */\n      0x4e6f7420656e6f7567682065746820746f207377617000000000000000000000\n        /* \"#utility.yul\":10065:10066   */\n      0x00\n        /* \"#utility.yul\":10057:10063   */\n      dup3\n        /* \"#utility.yul\":10053:10067   */\n      add\n        /* \"#utility.yul\":10046:10094   */\n      mstore\n        /* \"#utility.yul\":9929:10101   */\n      pop\n      jump\t// out\n        /* \"#utility.yul\":10107:10473   */\n    tag_170:\n        /* \"#utility.yul\":10249:10252   */\n      0x00\n        /* \"#utility.yul\":10270:10337   */\n      tag_308\n        /* \"#utility.yul\":10334:10336   */\n      0x16\n        /* \"#utility.yul\":10329:10332   */\n      dup4\n        /* \"#utility.yul\":10270:10337   */\n      tag_160\n      jump\t// in\n    tag_308:\n        /* \"#utility.yul\":10263:10337   */\n      swap2\n      pop\n        /* \"#utility.yul\":10346:10439   */\n      tag_309\n        /* \"#utility.yul\":10435:10438   */\n      dup3\n        /* \"#utility.yul\":10346:10439   */\n      tag_169\n      jump\t// in\n    tag_309:\n        /* \"#utility.yul\":10464:10466   */\n      0x20\n        /* \"#utility.yul\":10459:10462   */\n      dup3\n        /* \"#utility.yul\":10455:10467   */\n      add\n        /* \"#utility.yul\":10448:10467   */\n      swap1\n      pop\n        /* \"#utility.yul\":10107:10473   */\n      swap2\n      swap1\n      pop\n      jump\t// out\n        /* \"#utility.yul\":10479:10898   */\n    tag_75:\n        /* \"#utility.yul\":10645:10649   */\n      0x00\n        /* \"#utility.yul\":10683:10685   */\n      0x20\n        /* \"#utility.yul\":10672:10681   */\n      dup3\n        /* \"#utility.yul\":10668:10686   */\n      add\n        /* \"#utility.yul\":10660:10686   */\n      swap1\n      pop\n        /* \"#utility.yul\":10732:10741   */\n      dup2\n        /* \"#utility.yul\":10726:10730   */\n      dup2\n        /* \"#utility.yul\":10722:10742   */\n      sub\n        /* \"#utility.yul\":10718:10719   */\n      0x00\n        /* \"#utility.yul\":10707:10716   */\n      dup4\n        /* \"#utility.yul\":10703:10720   */\n      add\n        /* \"#utility.yul\":10696:10743   */\n      mstore\n        /* \"#utility.yul\":10760:10891   */\n      tag_311\n        /* \"#utility.yul\":10886:10890   */\n      dup2\n        /* \"#utility.yul\":10760:10891   */\n      tag_170\n      jump\t// in\n    tag_311:\n        /* \"#utility.yul\":10752:10891   */\n      swap1\n      pop\n        /* \"#utility.yul\":10479:10898   */\n      swap2\n      swap1\n      pop\n      jump\t// out\n        /* \"#utility.yul\":10904:11084   */\n    tag_81:\n        /* \"#utility.yul\":10952:11029   */\n      0x4e487b7100000000000000000000000000000000000000000000000000000000\n        /* \"#utility.yul\":10949:10950   */\n      0x00\n        /* \"#utility.yul\":10942:11030   */\n      mstore\n        /* \"#utility.yul\":11049:11053   */\n      0x32\n        /* \"#utility.yul\":11046:11047   */\n      0x04\n        /* \"#utility.yul\":11039:11054   */\n      mstore\n        /* \"#utility.yul\":11073:11077   */\n      0x24\n        /* \"#utility.yul\":11070:11071   */\n      0x00\n        /* \"#utility.yul\":11063:11078   */\n      revert\n        /* \"#utility.yul\":11090:11267   */\n    tag_171:\n        /* \"#utility.yul\":11182:11193   */\n      0x00\n        /* \"#utility.yul\":11216:11222   */\n      dup3\n        /* \"#utility.yul\":11211:11214   */\n      dup3\n        /* \"#utility.yul\":11204:11223   */\n      mstore\n        /* \"#utility.yul\":11256:11260   */\n      0x20\n        /* \"#utility.yul\":11251:11254   */\n      dup3\n        /* \"#utility.yul\":11247:11261   */\n      add\n        /* \"#utility.yul\":11232:11261   */\n      swap1\n      pop\n        /* \"#utility.yul\":11090:11267   */\n      swap3\n      swap2\n      pop\n      pop\n      jump\t// out\n        /* \"#utility.yul\":11273:11666   */\n    tag_172:\n        /* \"#utility.yul\":11369:11372   */\n      0x00\n        /* \"#utility.yul\":11397:11436   */\n      tag_315\n        /* \"#utility.yul\":11430:11435   */\n      dup3\n        /* \"#utility.yul\":11397:11436   */\n      tag_159\n      jump\t// in\n    tag_315:\n        /* \"#utility.yul\":11452:11531   */\n      tag_316\n        /* \"#utility.yul\":11524:11530   */\n      dup2\n        /* \"#utility.yul\":11519:11522   */\n      dup6\n        /* \"#utility.yul\":11452:11531   */\n      tag_171\n      jump\t// in\n    tag_316:\n        /* \"#utility.yul\":11445:11531   */\n      swap4\n      pop\n        /* \"#utility.yul\":11540:11605   */\n      tag_317\n        /* \"#utility.yul\":11598:11604   */\n      dup2\n        /* \"#utility.yul\":11593:11596   */\n      dup6\n        /* \"#utility.yul\":11586:11590   */\n      0x20\n        /* \"#utility.yul\":11579:11584   */\n      dup7\n        /* \"#utility.yul\":11575:11591   */\n      add\n        /* \"#utility.yul\":11540:11605   */\n      tag_161\n      jump\t// in\n    tag_317:\n        /* \"#utility.yul\":11630:11659   */\n      tag_318\n        /* \"#utility.yul\":11652:11658   */\n      dup2\n        /* \"#utility.yul\":11630:11659   */\n      tag_142\n      jump\t// in\n    tag_318:\n        /* \"#utility.yul\":11625:11628   */\n      dup5\n        /* \"#utility.yul\":11621:11660   */\n      add\n        /* \"#utility.yul\":11614:11660   */\n      swap2\n      pop\n        /* \"#utility.yul\":11373:11666   */\n      pop\n        /* \"#utility.yul\":11273:11666   */\n      swap3\n      swap2\n      pop\n      pop\n      jump\t// out\n        /* \"#utility.yul\":11672:11813   */\n    tag_173:\n        /* \"#utility.yul\":11721:11725   */\n      0x00\n        /* \"#utility.yul\":11744:11747   */\n      dup2\n        /* \"#utility.yul\":11736:11747   */\n      swap1\n      pop\n        /* \"#utility.yul\":11767:11770   */\n      dup2\n        /* \"#utility.yul\":11764:11765   */\n      0x00\n        /* \"#utility.yul\":11757:11771   */\n      mstore\n        /* \"#utility.yul\":11801:11805   */\n      0x20\n        /* \"#utility.yul\":11798:11799   */\n      0x00\n        /* \"#utility.yul\":11788:11806   */\n      keccak256\n        /* \"#utility.yul\":11780:11806   */\n      swap1\n      pop\n        /* \"#utility.yul\":11672:11813   */\n      swap2\n      swap1\n      pop\n      jump\t// out\n        /* \"#utility.yul\":11843:12690   */\n    tag_174:\n        /* \"#utility.yul\":11936:11939   */\n      0x00\n        /* \"#utility.yul\":11973:11978   */\n      dup2\n        /* \"#utility.yul\":11967:11979   */\n      sload\n        /* \"#utility.yul\":12002:12038   */\n      tag_321\n        /* \"#utility.yul\":12028:12037   */\n      dup2\n        /* \"#utility.yul\":12002:12038   */\n      tag_67\n      jump\t// in\n    tag_321:\n        /* \"#utility.yul\":12054:12133   */\n      tag_322\n        /* \"#utility.yul\":12126:12132   */\n      dup2\n        /* \"#utility.yul\":12121:12124   */\n      dup7\n        /* \"#utility.yul\":12054:12133   */\n      tag_171\n      jump\t// in\n    tag_322:\n        /* \"#utility.yul\":12047:12133   */\n      swap5\n      pop\n        /* \"#utility.yul\":12164:12165   */\n      0x01\n        /* \"#utility.yul\":12153:12162   */\n      dup3\n        /* \"#utility.yul\":12149:12166   */\n      and\n        /* \"#utility.yul\":12180:12181   */\n      0x00\n        /* \"#utility.yul\":12175:12339   */\n      dup2\n      eq\n      tag_324\n      jumpi\n        /* \"#utility.yul\":12353:12354   */\n      0x01\n        /* \"#utility.yul\":12348:12684   */\n      dup2\n      eq\n      tag_325\n      jumpi\n        /* \"#utility.yul\":12142:12684   */\n      jump(tag_323)\n        /* \"#utility.yul\":12175:12339   */\n    tag_324:\n        /* \"#utility.yul\":12259:12263   */\n      0xff\n        /* \"#utility.yul\":12255:12264   */\n      not\n        /* \"#utility.yul\":12244:12253   */\n      dup4\n        /* \"#utility.yul\":12240:12265   */\n      and\n        /* \"#utility.yul\":12235:12238   */\n      dup7\n        /* \"#utility.yul\":12228:12266   */\n      mstore\n        /* \"#utility.yul\":12319:12325   */\n      dup2\n        /* \"#utility.yul\":12312:12326   */\n      iszero\n        /* \"#utility.yul\":12305:12327   */\n      iszero\n        /* \"#utility.yul\":12299:12303   */\n      0x20\n        /* \"#utility.yul\":12295:12328   */\n      mul\n        /* \"#utility.yul\":12290:12293   */\n      dup7\n        /* \"#utility.yul\":12286:12329   */\n      add\n        /* \"#utility.yul\":12279:12329   */\n      swap4\n      pop\n        /* \"#utility.yul\":12175:12339   */\n      jump(tag_323)\n        /* \"#utility.yul\":12348:12684   */\n    tag_325:\n        /* \"#utility.yul\":12415:12453   */\n      tag_326\n        /* \"#utility.yul\":12447:12452   */\n      dup6\n        /* \"#utility.yul\":12415:12453   */\n      tag_173\n      jump\t// in\n    tag_326:\n        /* \"#utility.yul\":12475:12476   */\n      0x00\n        /* \"#utility.yul\":12489:12643   */\n    tag_327:\n        /* \"#utility.yul\":12503:12509   */\n      dup4\n        /* \"#utility.yul\":12500:12501   */\n      dup2\n        /* \"#utility.yul\":12497:12510   */\n      lt\n        /* \"#utility.yul\":12489:12643   */\n      iszero\n      tag_329\n      jumpi\n        /* \"#utility.yul\":12577:12584   */\n      dup2\n        /* \"#utility.yul\":12571:12585   */\n      sload\n        /* \"#utility.yul\":12567:12568   */\n      dup2\n        /* \"#utility.yul\":12562:12565   */\n      dup10\n        /* \"#utility.yul\":12558:12569   */\n      add\n        /* \"#utility.yul\":12551:12586   */\n      mstore\n        /* \"#utility.yul\":12627:12628   */\n      0x01\n        /* \"#utility.yul\":12618:12625   */\n      dup3\n        /* \"#utility.yul\":12614:12629   */\n      add\n        /* \"#utility.yul\":12603:12629   */\n      swap2\n      pop\n        /* \"#utility.yul\":12525:12529   */\n      0x20\n        /* \"#utility.yul\":12522:12523   */\n      dup2\n        /* \"#utility.yul\":12518:12530   */\n      add\n        /* \"#utility.yul\":12513:12530   */\n      swap1\n      pop\n        /* \"#utility.yul\":12489:12643   */\n      jump(tag_327)\n    tag_329:\n        /* \"#utility.yul\":12672:12673   */\n      dup1\n        /* \"#utility.yul\":12667:12670   */\n      dup9\n        /* \"#utility.yul\":12663:12674   */\n      add\n        /* \"#utility.yul\":12656:12674   */\n      swap6\n      pop\n        /* \"#utility.yul\":12355:12684   */\n      pop\n      pop\n        /* \"#utility.yul\":12142:12684   */\n    tag_323:\n      pop\n        /* \"#utility.yul\":11940:12690   */\n      pop\n      pop\n        /* \"#utility.yul\":11843:12690   */\n      swap3\n      swap2\n      pop\n      pop\n      jump\t// out\n        /* \"#utility.yul\":12696:13228   */\n    tag_84:\n        /* \"#utility.yul\":12862:12866   */\n      0x00\n        /* \"#utility.yul\":12900:12902   */\n      0x40\n        /* \"#utility.yul\":12889:12898   */\n      dup3\n        /* \"#utility.yul\":12885:12903   */\n      add\n        /* \"#utility.yul\":12877:12903   */\n      swap1\n      pop\n        /* \"#utility.yul\":12949:12958   */\n      dup2\n        /* \"#utility.yul\":12943:12947   */\n      dup2\n        /* \"#utility.yul\":12939:12959   */\n      sub\n        /* \"#utility.yul\":12935:12936   */\n      0x00\n        /* \"#utility.yul\":12924:12933   */\n      dup4\n        /* \"#utility.yul\":12920:12937   */\n      add\n        /* \"#utility.yul\":12913:12960   */\n      mstore\n        /* \"#utility.yul\":12977:13063   */\n      tag_331\n        /* \"#utility.yul\":13058:13062   */\n      dup2\n        /* \"#utility.yul\":13049:13055   */\n      dup6\n        /* \"#utility.yul\":12977:13063   */\n      tag_172\n      jump\t// in\n    tag_331:\n        /* \"#utility.yul\":12969:13063   */\n      swap1\n      pop\n        /* \"#utility.yul\":13110:13119   */\n      dup2\n        /* \"#utility.yul\":13104:13108   */\n      dup2\n        /* \"#utility.yul\":13100:13120   */\n      sub\n        /* \"#utility.yul\":13095:13097   */\n      0x20\n        /* \"#utility.yul\":13084:13093   */\n      dup4\n        /* \"#utility.yul\":13080:13098   */\n      add\n        /* \"#utility.yul\":13073:13121   */\n      mstore\n        /* \"#utility.yul\":13138:13221   */\n      tag_332\n        /* \"#utility.yul\":13216:13220   */\n      dup2\n        /* \"#utility.yul\":13207:13213   */\n      dup5\n        /* \"#utility.yul\":13138:13221   */\n      tag_174\n      jump\t// in\n    tag_332:\n        /* \"#utility.yul\":13130:13221   */\n      swap1\n      pop\n        /* \"#utility.yul\":12696:13228   */\n      swap4\n      swap3\n      pop\n      pop\n      pop\n      jump\t// out\n        /* \"#utility.yul\":13234:13324   */\n    tag_175:\n        /* \"#utility.yul\":13268:13275   */\n      0x00\n        /* \"#utility.yul\":13311:13316   */\n      dup2\n        /* \"#utility.yul\":13304:13317   */\n      iszero\n        /* \"#utility.yul\":13297:13318   */\n      iszero\n        /* \"#utility.yul\":13286:13318   */\n      swap1\n      pop\n        /* \"#utility.yul\":13234:13324   */\n      swap2\n      swap1\n      pop\n      jump\t// out\n        /* \"#utility.yul\":13330:13446   */\n    tag_176:\n        /* \"#utility.yul\":13400:13421   */\n      tag_335\n        /* \"#utility.yul\":13415:13420   */\n      dup2\n        /* \"#utility.yul\":13400:13421   */\n      tag_175\n      jump\t// in\n    tag_335:\n        /* \"#utility.yul\":13393:13398   */\n      dup2\n        /* \"#utility.yul\":13390:13422   */\n      eq\n        /* \"#utility.yul\":13380:13440   */\n      tag_336\n      jumpi\n        /* \"#utility.yul\":13436:13437   */\n      0x00\n        /* \"#utility.yul\":13433:13434   */\n      dup1\n        /* \"#utility.yul\":13426:13438   */\n      revert\n        /* \"#utility.yul\":13380:13440   */\n    tag_336:\n        /* \"#utility.yul\":13330:13446   */\n      pop\n      jump\t// out\n        /* \"#utility.yul\":13452:13589   */\n    tag_177:\n        /* \"#utility.yul\":13506:13511   */\n      0x00\n        /* \"#utility.yul\":13537:13543   */\n      dup2\n        /* \"#utility.yul\":13531:13544   */\n      mload\n        /* \"#utility.yul\":13522:13544   */\n      swap1\n      pop\n        /* \"#utility.yul\":13553:13583   */\n      tag_338\n        /* \"#utility.yul\":13577:13582   */\n      dup2\n        /* \"#utility.yul\":13553:13583   */\n      tag_176\n      jump\t// in\n    tag_338:\n        /* \"#utility.yul\":13452:13589   */\n      swap3\n      swap2\n      pop\n      pop\n      jump\t// out\n        /* \"#utility.yul\":13595:13940   */\n    tag_88:\n        /* \"#utility.yul\":13662:13668   */\n      0x00\n        /* \"#utility.yul\":13711:13713   */\n      0x20\n        /* \"#utility.yul\":13699:13708   */\n      dup3\n        /* \"#utility.yul\":13690:13697   */\n      dup5\n        /* \"#utility.yul\":13686:13709   */\n      sub\n        /* \"#utility.yul\":13682:13714   */\n      slt\n        /* \"#utility.yul\":13679:13798   */\n      iszero\n      tag_340\n      jumpi\n        /* \"#utility.yul\":13717:13796   */\n      tag_341\n      tag_138\n      jump\t// in\n    tag_341:\n        /* \"#utility.yul\":13679:13798   */\n    tag_340:\n        /* \"#utility.yul\":13837:13838   */\n      0x00\n        /* \"#utility.yul\":13862:13923   */\n      tag_342\n        /* \"#utility.yul\":13915:13922   */\n      dup5\n        /* \"#utility.yul\":13906:13912   */\n      dup3\n        /* \"#utility.yul\":13895:13904   */\n      dup6\n        /* \"#utility.yul\":13891:13913   */\n      add\n        /* \"#utility.yul\":13862:13923   */\n      tag_177\n      jump\t// in\n    tag_342:\n        /* \"#utility.yul\":13852:13923   */\n      swap2\n      pop\n        /* \"#utility.yul\":13808:13933   */\n      pop\n        /* \"#utility.yul\":13595:13940   */\n      swap3\n      swap2\n      pop\n      pop\n      jump\t// out\n        /* \"#utility.yul\":13946:14118   */\n    tag_178:\n        /* \"#utility.yul\":14086:14110   */\n      0x4e6f7420737570706f7274207468617420746f6b656e00000000000000000000\n        /* \"#utility.yul\":14082:14083   */\n      0x00\n        /* \"#utility.yul\":14074:14080   */\n      dup3\n        /* \"#utility.yul\":14070:14084   */\n      add\n        /* \"#utility.yul\":14063:14111   */\n      mstore\n        /* \"#utility.yul\":13946:14118   */\n      pop\n      jump\t// out\n        /* \"#utility.yul\":14124:14490   */\n    tag_179:\n        /* \"#utility.yul\":14266:14269   */\n      0x00\n        /* \"#utility.yul\":14287:14354   */\n      tag_345\n        /* \"#utility.yul\":14351:14353   */\n      0x16\n        /* \"#utility.yul\":14346:14349   */\n      dup4\n        /* \"#utility.yul\":14287:14354   */\n      tag_160\n      jump\t// in\n    tag_345:\n        /* \"#utility.yul\":14280:14354   */\n      swap2\n      pop\n        /* \"#utility.yul\":14363:14456   */\n      tag_346\n        /* \"#utility.yul\":14452:14455   */\n      dup3\n        /* \"#utility.yul\":14363:14456   */\n      tag_178\n      jump\t// in\n    tag_346:\n        /* \"#utility.yul\":14481:14483   */\n      0x20\n        /* \"#utility.yul\":14476:14479   */\n      dup3\n        /* \"#utility.yul\":14472:14484   */\n      add\n        /* \"#utility.yul\":14465:14484   */\n      swap1\n      pop\n        /* \"#utility.yul\":14124:14490   */\n      swap2\n      swap1\n      pop\n      jump\t// out\n        /* \"#utility.yul\":14496:14915   */\n    tag_92:\n        /* \"#utility.yul\":14662:14666   */\n      0x00\n        /* \"#utility.yul\":14700:14702   */\n      0x20\n        /* \"#utility.yul\":14689:14698   */\n      dup3\n        /* \"#utility.yul\":14685:14703   */\n      add\n        /* \"#utility.yul\":14677:14703   */\n      swap1\n      pop\n        /* \"#utility.yul\":14749:14758   */\n      dup2\n        /* \"#utility.yul\":14743:14747   */\n      dup2\n        /* \"#utility.yul\":14739:14759   */\n      sub\n        /* \"#utility.yul\":14735:14736   */\n      0x00\n        /* \"#utility.yul\":14724:14733   */\n      dup4\n        /* \"#utility.yul\":14720:14737   */\n      add\n        /* \"#utility.yul\":14713:14760   */\n      mstore\n        /* \"#utility.yul\":14777:14908   */\n      tag_348\n        /* \"#utility.yul\":14903:14907   */\n      dup2\n        /* \"#utility.yul\":14777:14908   */\n      tag_179\n      jump\t// in\n    tag_348:\n        /* \"#utility.yul\":14769:14908   */\n      swap1\n      pop\n        /* \"#utility.yul\":14496:14915   */\n      swap2\n      swap1\n      pop\n      jump\t// out\n        /* \"#utility.yul\":14921:15069   */\n    tag_180:\n        /* \"#utility.yul\":15023:15034   */\n      0x00\n        /* \"#utility.yul\":15060:15063   */\n      dup2\n        /* \"#utility.yul\":15045:15063   */\n      swap1\n      pop\n        /* \"#utility.yul\":14921:15069   */\n      swap3\n      swap2\n      pop\n      pop\n      jump\t// out\n        /* \"#utility.yul\":15075:15465   */\n    tag_181:\n        /* \"#utility.yul\":15181:15184   */\n      0x00\n        /* \"#utility.yul\":15209:15248   */\n      tag_351\n        /* \"#utility.yul\":15242:15247   */\n      dup3\n        /* \"#utility.yul\":15209:15248   */\n      tag_159\n      jump\t// in\n    tag_351:\n        /* \"#utility.yul\":15264:15353   */\n      tag_352\n        /* \"#utility.yul\":15346:15352   */\n      dup2\n        /* \"#utility.yul\":15341:15344   */\n      dup6\n        /* \"#utility.yul\":15264:15353   */\n      tag_180\n      jump\t// in\n    tag_352:\n        /* \"#utility.yul\":15257:15353   */\n      swap4\n      pop\n        /* \"#utility.yul\":15362:15427   */\n      tag_353\n        /* \"#utility.yul\":15420:15426   */\n      dup2\n        /* \"#utility.yul\":15415:15418   */\n      dup6\n        /* \"#utility.yul\":15408:15412   */\n      0x20\n        /* \"#utility.yul\":15401:15406   */\n      dup7\n        /* \"#utility.yul\":15397:15413   */\n      add\n        /* \"#utility.yul\":15362:15427   */\n      tag_161\n      jump\t// in\n    tag_353:\n        /* \"#utility.yul\":15452:15458   */\n      dup1\n        /* \"#utility.yul\":15447:15450   */\n      dup5\n        /* \"#utility.yul\":15443:15459   */\n      add\n        /* \"#utility.yul\":15436:15459   */\n      swap2\n      pop\n        /* \"#utility.yul\":15185:15465   */\n      pop\n        /* \"#utility.yul\":15075:15465   */\n      swap3\n      swap2\n      pop\n      pop\n      jump\t// out\n        /* \"#utility.yul\":15471:15746   */\n    tag_94:\n        /* \"#utility.yul\":15603:15606   */\n      0x00\n        /* \"#utility.yul\":15625:15720   */\n      tag_355\n        /* \"#utility.yul\":15716:15719   */\n      dup3\n        /* \"#utility.yul\":15707:15713   */\n      dup5\n        /* \"#utility.yul\":15625:15720   */\n      tag_181\n      jump\t// in\n    tag_355:\n        /* \"#utility.yul\":15618:15720   */\n      swap2\n      pop\n        /* \"#utility.yul\":15737:15740   */\n      dup2\n        /* \"#utility.yul\":15730:15740   */\n      swap1\n      pop\n        /* \"#utility.yul\":15471:15746   */\n      swap3\n      swap2\n      pop\n      pop\n      jump\t// out\n        /* \"#utility.yul\":15752:15932   */\n    tag_182:\n        /* \"#utility.yul\":15800:15877   */\n      0x4e487b7100000000000000000000000000000000000000000000000000000000\n        /* \"#utility.yul\":15797:15798   */\n      0x00\n        /* \"#utility.yul\":15790:15878   */\n      mstore\n        /* \"#utility.yul\":15897:15901   */\n      0x12\n        /* \"#utility.yul\":15894:15895   */\n      0x04\n        /* \"#utility.yul\":15887:15902   */\n      mstore\n        /* \"#utility.yul\":15921:15925   */\n      0x24\n        /* \"#utility.yul\":15918:15919   */\n      0x00\n        /* \"#utility.yul\":15911:15926   */\n      revert\n        /* \"#utility.yul\":15938:16118   */\n    tag_183:\n        /* \"#utility.yul\":15986:16063   */\n      0x4e487b7100000000000000000000000000000000000000000000000000000000\n        /* \"#utility.yul\":15983:15984   */\n      0x00\n        /* \"#utility.yul\":15976:16064   */\n      mstore\n        /* \"#utility.yul\":16083:16087   */\n      0x11\n        /* \"#utility.yul\":16080:16081   */\n      0x04\n        /* \"#utility.yul\":16073:16088   */\n      mstore\n        /* \"#utility.yul\":16107:16111   */\n      0x24\n        /* \"#utility.yul\":16104:16105   */\n      0x00\n        /* \"#utility.yul\":16097:16112   */\n      revert\n        /* \"#utility.yul\":16124:16309   */\n    tag_96:\n        /* \"#utility.yul\":16164:16165   */\n      0x00\n        /* \"#utility.yul\":16181:16201   */\n      tag_359\n        /* \"#utility.yul\":16199:16200   */\n      dup3\n        /* \"#utility.yul\":16181:16201   */\n      tag_156\n      jump\t// in\n    tag_359:\n        /* \"#utility.yul\":16176:16201   */\n      swap2\n      pop\n        /* \"#utility.yul\":16215:16235   */\n      tag_360\n        /* \"#utility.yul\":16233:16234   */\n      dup4\n        /* \"#utility.yul\":16215:16235   */\n      tag_156\n      jump\t// in\n    tag_360:\n        /* \"#utility.yul\":16210:16235   */\n      swap3\n      pop\n        /* \"#utility.yul\":16254:16255   */\n      dup3\n        /* \"#utility.yul\":16244:16279   */\n      tag_361\n      jumpi\n        /* \"#utility.yul\":16259:16277   */\n      tag_362\n      tag_182\n      jump\t// in\n    tag_362:\n        /* \"#utility.yul\":16244:16279   */\n    tag_361:\n        /* \"#utility.yul\":16301:16302   */\n      dup3\n        /* \"#utility.yul\":16298:16299   */\n      dup3\n        /* \"#utility.yul\":16294:16303   */\n      div\n        /* \"#utility.yul\":16289:16303   */\n      swap1\n      pop\n        /* \"#utility.yul\":16124:16309   */\n      swap3\n      swap2\n      pop\n      pop\n      jump\t// out\n        /* \"#utility.yul\":16315:16725   */\n    tag_98:\n        /* \"#utility.yul\":16355:16362   */\n      0x00\n        /* \"#utility.yul\":16378:16398   */\n      tag_364\n        /* \"#utility.yul\":16396:16397   */\n      dup3\n        /* \"#utility.yul\":16378:16398   */\n      tag_156\n      jump\t// in\n    tag_364:\n        /* \"#utility.yul\":16373:16398   */\n      swap2\n      pop\n        /* \"#utility.yul\":16412:16432   */\n      tag_365\n        /* \"#utility.yul\":16430:16431   */\n      dup4\n        /* \"#utility.yul\":16412:16432   */\n      tag_156\n      jump\t// in\n    tag_365:\n        /* \"#utility.yul\":16407:16432   */\n      swap3\n      pop\n        /* \"#utility.yul\":16467:16468   */\n      dup3\n        /* \"#utility.yul\":16464:16465   */\n      dup3\n        /* \"#utility.yul\":16460:16469   */\n      mul\n        /* \"#utility.yul\":16489:16519   */\n      tag_366\n        /* \"#utility.yul\":16507:16518   */\n      dup2\n        /* \"#utility.yul\":16489:16519   */\n      tag_156\n      jump\t// in\n    tag_366:\n        /* \"#utility.yul\":16478:16519   */\n      swap2\n      pop\n        /* \"#utility.yul\":16668:16669   */\n      dup3\n        /* \"#utility.yul\":16659:16666   */\n      dup3\n        /* \"#utility.yul\":16655:16670   */\n      div\n        /* \"#utility.yul\":16652:16653   */\n      dup5\n        /* \"#utility.yul\":16649:16671   */\n      eq\n        /* \"#utility.yul\":16629:16630   */\n      dup4\n        /* \"#utility.yul\":16622:16631   */\n      iszero\n        /* \"#utility.yul\":16602:16685   */\n      or\n        /* \"#utility.yul\":16579:16718   */\n      tag_367\n      jumpi\n        /* \"#utility.yul\":16698:16716   */\n      tag_368\n      tag_183\n      jump\t// in\n    tag_368:\n        /* \"#utility.yul\":16579:16718   */\n    tag_367:\n        /* \"#utility.yul\":16363:16725   */\n      pop\n        /* \"#utility.yul\":16315:16725   */\n      swap3\n      swap2\n      pop\n      pop\n      jump\t// out\n        /* \"#utility.yul\":16731:17165   */\n    tag_184:\n        /* \"#utility.yul\":16820:16825   */\n      0x00\n        /* \"#utility.yul\":16845:16911   */\n      tag_370\n        /* \"#utility.yul\":16861:16910   */\n      tag_371\n        /* \"#utility.yul\":16903:16909   */\n      dup5\n        /* \"#utility.yul\":16861:16910   */\n      tag_146\n      jump\t// in\n    tag_371:\n        /* \"#utility.yul\":16845:16911   */\n      tag_145\n      jump\t// in\n    tag_370:\n        /* \"#utility.yul\":16836:16911   */\n      swap1\n      pop\n        /* \"#utility.yul\":16934:16940   */\n      dup3\n        /* \"#utility.yul\":16927:16932   */\n      dup2\n        /* \"#utility.yul\":16920:16941   */\n      mstore\n        /* \"#utility.yul\":16972:16976   */\n      0x20\n        /* \"#utility.yul\":16965:16970   */\n      dup2\n        /* \"#utility.yul\":16961:16977   */\n      add\n        /* \"#utility.yul\":17010:17013   */\n      dup5\n        /* \"#utility.yul\":17001:17007   */\n      dup5\n        /* \"#utility.yul\":16996:16999   */\n      dup5\n        /* \"#utility.yul\":16992:17008   */\n      add\n        /* \"#utility.yul\":16989:17014   */\n      gt\n        /* \"#utility.yul\":16986:17098   */\n      iszero\n      tag_372\n      jumpi\n        /* \"#utility.yul\":17017:17096   */\n      tag_373\n      tag_141\n      jump\t// in\n    tag_373:\n        /* \"#utility.yul\":16986:17098   */\n    tag_372:\n        /* \"#utility.yul\":17107:17159   */\n      tag_374\n        /* \"#utility.yul\":17152:17158   */\n      dup5\n        /* \"#utility.yul\":17147:17150   */\n      dup3\n        /* \"#utility.yul\":17142:17145   */\n      dup6\n        /* \"#utility.yul\":17107:17159   */\n      tag_161\n      jump\t// in\n    tag_374:\n        /* \"#utility.yul\":16826:17165   */\n      pop\n        /* \"#utility.yul\":16731:17165   */\n      swap4\n      swap3\n      pop\n      pop\n      pop\n      jump\t// out\n        /* \"#utility.yul\":17185:17540   */\n    tag_185:\n        /* \"#utility.yul\":17252:17257   */\n      0x00\n        /* \"#utility.yul\":17301:17304   */\n      dup3\n        /* \"#utility.yul\":17294:17298   */\n      0x1f\n        /* \"#utility.yul\":17286:17292   */\n      dup4\n        /* \"#utility.yul\":17282:17299   */\n      add\n        /* \"#utility.yul\":17278:17305   */\n      slt\n        /* \"#utility.yul\":17268:17390   */\n      tag_376\n      jumpi\n        /* \"#utility.yul\":17309:17388   */\n      tag_377\n      tag_140\n      jump\t// in\n    tag_377:\n        /* \"#utility.yul\":17268:17390   */\n    tag_376:\n        /* \"#utility.yul\":17419:17425   */\n      dup2\n        /* \"#utility.yul\":17413:17426   */\n      mload\n        /* \"#utility.yul\":17444:17534   */\n      tag_378\n        /* \"#utility.yul\":17530:17533   */\n      dup5\n        /* \"#utility.yul\":17522:17528   */\n      dup3\n        /* \"#utility.yul\":17515:17519   */\n      0x20\n        /* \"#utility.yul\":17507:17513   */\n      dup7\n        /* \"#utility.yul\":17503:17520   */\n      add\n        /* \"#utility.yul\":17444:17534   */\n      tag_184\n      jump\t// in\n    tag_378:\n        /* \"#utility.yul\":17435:17534   */\n      swap2\n      pop\n        /* \"#utility.yul\":17258:17540   */\n      pop\n        /* \"#utility.yul\":17185:17540   */\n      swap3\n      swap2\n      pop\n      pop\n      jump\t// out\n        /* \"#utility.yul\":17546:18070   */\n    tag_104:\n        /* \"#utility.yul\":17626:17632   */\n      0x00\n        /* \"#utility.yul\":17675:17677   */\n      0x20\n        /* \"#utility.yul\":17663:17672   */\n      dup3\n        /* \"#utility.yul\":17654:17661   */\n      dup5\n        /* \"#utility.yul\":17650:17673   */\n      sub\n        /* \"#utility.yul\":17646:17678   */\n      slt\n        /* \"#utility.yul\":17643:17762   */\n      iszero\n      tag_380\n      jumpi\n        /* \"#utility.yul\":17681:17760   */\n      tag_381\n      tag_138\n      jump\t// in\n    tag_381:\n        /* \"#utility.yul\":17643:17762   */\n    tag_380:\n        /* \"#utility.yul\":17822:17823   */\n      0x00\n        /* \"#utility.yul\":17811:17820   */\n      dup3\n        /* \"#utility.yul\":17807:17824   */\n      add\n        /* \"#utility.yul\":17801:17825   */\n      mload\n        /* \"#utility.yul\":17852:17870   */\n      0xffffffffffffffff\n        /* \"#utility.yul\":17844:17850   */\n      dup2\n        /* \"#utility.yul\":17841:17871   */\n      gt\n        /* \"#utility.yul\":17838:17955   */\n      iszero\n      tag_382\n      jumpi\n        /* \"#utility.yul\":17874:17953   */\n      tag_383\n      tag_139\n      jump\t// in\n    tag_383:\n        /* \"#utility.yul\":17838:17955   */\n    tag_382:\n        /* \"#utility.yul\":17979:18053   */\n      tag_384\n        /* \"#utility.yul\":18045:18052   */\n      dup5\n        /* \"#utility.yul\":18036:18042   */\n      dup3\n        /* \"#utility.yul\":18025:18034   */\n      dup6\n        /* \"#utility.yul\":18021:18043   */\n      add\n        /* \"#utility.yul\":17979:18053   */\n      tag_185\n      jump\t// in\n    tag_384:\n        /* \"#utility.yul\":17969:18053   */\n      swap2\n      pop\n        /* \"#utility.yul\":17772:18063   */\n      pop\n        /* \"#utility.yul\":17546:18070   */\n      swap3\n      swap2\n      pop\n      pop\n      jump\t// out\n        /* \"#utility.yul\":18076:18219   */\n    tag_186:\n        /* \"#utility.yul\":18133:18138   */\n      0x00\n        /* \"#utility.yul\":18164:18170   */\n      dup2\n        /* \"#utility.yul\":18158:18171   */\n      mload\n        /* \"#utility.yul\":18149:18171   */\n      swap1\n      pop\n        /* \"#utility.yul\":18180:18213   */\n      tag_386\n        /* \"#utility.yul\":18207:18212   */\n      dup2\n        /* \"#utility.yul\":18180:18213   */\n      tag_157\n      jump\t// in\n    tag_386:\n        /* \"#utility.yul\":18076:18219   */\n      swap3\n      swap2\n      pop\n      pop\n      jump\t// out\n        /* \"#utility.yul\":18225:18576   */\n    tag_118:\n        /* \"#utility.yul\":18295:18301   */\n      0x00\n        /* \"#utility.yul\":18344:18346   */\n      0x20\n        /* \"#utility.yul\":18332:18341   */\n      dup3\n        /* \"#utility.yul\":18323:18330   */\n      dup5\n        /* \"#utility.yul\":18319:18342   */\n      sub\n        /* \"#utility.yul\":18315:18347   */\n      slt\n        /* \"#utility.yul\":18312:18431   */\n      iszero\n      tag_388\n      jumpi\n        /* \"#utility.yul\":18350:18429   */\n      tag_389\n      tag_138\n      jump\t// in\n    tag_389:\n        /* \"#utility.yul\":18312:18431   */\n    tag_388:\n        /* \"#utility.yul\":18470:18471   */\n      0x00\n        /* \"#utility.yul\":18495:18559   */\n      tag_390\n        /* \"#utility.yul\":18551:18558   */\n      dup5\n        /* \"#utility.yul\":18542:18548   */\n      dup3\n        /* \"#utility.yul\":18531:18540   */\n      dup6\n        /* \"#utility.yul\":18527:18549   */\n      add\n        /* \"#utility.yul\":18495:18559   */\n      tag_186\n      jump\t// in\n    tag_390:\n        /* \"#utility.yul\":18485:18559   */\n      swap2\n      pop\n        /* \"#utility.yul\":18441:18569   */\n      pop\n        /* \"#utility.yul\":18225:18576   */\n      swap3\n      swap2\n      pop\n      pop\n      jump\t// out\n        /* \"#utility.yul\":18582:18749   */\n    tag_187:\n        /* \"#utility.yul\":18722:18741   */\n      0x4465782063616e6e6f7420737570706c79000000000000000000000000000000\n        /* \"#utility.yul\":18718:18719   */\n      0x00\n        /* \"#utility.yul\":18710:18716   */\n      dup3\n        /* \"#utility.yul\":18706:18720   */\n      add\n        /* \"#utility.yul\":18699:18742   */\n      mstore\n        /* \"#utility.yul\":18582:18749   */\n      pop\n      jump\t// out\n        /* \"#utility.yul\":18755:19121   */\n    tag_188:\n        /* \"#utility.yul\":18897:18900   */\n      0x00\n        /* \"#utility.yul\":18918:18985   */\n      tag_393\n        /* \"#utility.yul\":18982:18984   */\n      0x11\n        /* \"#utility.yul\":18977:18980   */\n      dup4\n        /* \"#utility.yul\":18918:18985   */\n      tag_160\n      jump\t// in\n    tag_393:\n        /* \"#utility.yul\":18911:18985   */\n      swap2\n      pop\n        /* \"#utility.yul\":18994:19087   */\n      tag_394\n        /* \"#utility.yul\":19083:19086   */\n      dup3\n        /* \"#utility.yul\":18994:19087   */\n      tag_187\n      jump\t// in\n    tag_394:\n        /* \"#utility.yul\":19112:19114   */\n      0x20\n        /* \"#utility.yul\":19107:19110   */\n      dup3\n        /* \"#utility.yul\":19103:19115   */\n      add\n        /* \"#utility.yul\":19096:19115   */\n      swap1\n      pop\n        /* \"#utility.yul\":18755:19121   */\n      swap2\n      swap1\n      pop\n      jump\t// out\n        /* \"#utility.yul\":19127:19546   */\n    tag_128:\n        /* \"#utility.yul\":19293:19297   */\n      0x00\n        /* \"#utility.yul\":19331:19333   */\n      0x20\n        /* \"#utility.yul\":19320:19329   */\n      dup3\n        /* \"#utility.yul\":19316:19334   */\n      add\n        /* \"#utility.yul\":19308:19334   */\n      swap1\n      pop\n        /* \"#utility.yul\":19380:19389   */\n      dup2\n        /* \"#utility.yul\":19374:19378   */\n      dup2\n        /* \"#utility.yul\":19370:19390   */\n      sub\n        /* \"#utility.yul\":19366:19367   */\n      0x00\n        /* \"#utility.yul\":19355:19364   */\n      dup4\n        /* \"#utility.yul\":19351:19368   */\n      add\n        /* \"#utility.yul\":19344:19391   */\n      mstore\n        /* \"#utility.yul\":19408:19539   */\n      tag_396\n        /* \"#utility.yul\":19534:19538   */\n      dup2\n        /* \"#utility.yul\":19408:19539   */\n      tag_188\n      jump\t// in\n    tag_396:\n        /* \"#utility.yul\":19400:19539   */\n      swap1\n      pop\n        /* \"#utility.yul\":19127:19546   */\n      swap2\n      swap1\n      pop\n      jump\t// out\n        /* \"#utility.yul\":19552:19994   */\n    tag_133:\n        /* \"#utility.yul\":19701:19705   */\n      0x00\n        /* \"#utility.yul\":19739:19741   */\n      0x60\n        /* \"#utility.yul\":19728:19737   */\n      dup3\n        /* \"#utility.yul\":19724:19742   */\n      add\n        /* \"#utility.yul\":19716:19742   */\n      swap1\n      pop\n        /* \"#utility.yul\":19752:19823   */\n      tag_398\n        /* \"#utility.yul\":19820:19821   */\n      0x00\n        /* \"#utility.yul\":19809:19818   */\n      dup4\n        /* \"#utility.yul\":19805:19822   */\n      add\n        /* \"#utility.yul\":19796:19802   */\n      dup7\n        /* \"#utility.yul\":19752:19823   */\n      tag_167\n      jump\t// in\n    tag_398:\n        /* \"#utility.yul\":19833:19905   */\n      tag_399\n        /* \"#utility.yul\":19901:19903   */\n      0x20\n        /* \"#utility.yul\":19890:19899   */\n      dup4\n        /* \"#utility.yul\":19886:19904   */\n      add\n        /* \"#utility.yul\":19877:19883   */\n      dup6\n        /* \"#utility.yul\":19833:19905   */\n      tag_167\n      jump\t// in\n    tag_399:\n        /* \"#utility.yul\":19915:19987   */\n      tag_400\n        /* \"#utility.yul\":19983:19985   */\n      0x40\n        /* \"#utility.yul\":19972:19981   */\n      dup4\n        /* \"#utility.yul\":19968:19986   */\n      add\n        /* \"#utility.yul\":19959:19965   */\n      dup5\n        /* \"#utility.yul\":19915:19987   */\n      tag_163\n      jump\t// in\n    tag_400:\n        /* \"#utility.yul\":19552:19994   */\n      swap5\n      swap4\n      pop\n      pop\n      pop\n      pop\n      jump\t// out\n\n    auxdata: 0xa26469706673582212207a2612dc5b01e37adac7b42d604be5a0f69942c67b3987aea1269ed98408f5b664736f6c63430008160033\n}\n\nsub_1: assembly {\n        /* \"UniSwap.sol\":136:339  contract CustomToken is ERC20 {... */\n      mstore(0x40, 0x80)\n        /* \"UniSwap.sol\":172:337  constructor(string memory _tokenName, string... */\n      callvalue\n      dup1\n      iszero\n      tag_1\n      jumpi\n      0x00\n      dup1\n      revert\n    tag_1:\n      pop\n      mload(0x40)\n      sub(codesize, bytecodeSize)\n      dup1\n      bytecodeSize\n      dup4\n      codecopy\n      dup2\n      dup2\n      add\n      0x40\n      mstore\n      dup2\n      add\n      swap1\n      tag_2\n      swap2\n      swap1\n      tag_3\n      jump\t// in\n    tag_2:\n        /* \"UniSwap.sol\":256:266  _tokenName */\n      dup2\n        /* \"UniSwap.sol\":268:279  _symbolName */\n      dup2\n        /* \"@openzeppelin/contracts/token/ERC20/ERC20.sol\":1970:1975  name_ */\n      dup2\n        /* \"@openzeppelin/contracts/token/ERC20/ERC20.sol\":1962:1967  _name */\n      0x03\n        /* \"@openzeppelin/contracts/token/ERC20/ERC20.sol\":1962:1975  _name = name_ */\n      swap1\n      dup2\n      tag_7\n      swap2\n      swap1\n      tag_8\n      jump\t// in\n    tag_7:\n      pop\n        /* \"@openzeppelin/contracts/token/ERC20/ERC20.sol\":1995:2002  symbol_ */\n      dup1\n        /* \"@openzeppelin/contracts/token/ERC20/ERC20.sol\":1985:1992  _symbol */\n      0x04\n        /* \"@openzeppelin/contracts/token/ERC20/ERC20.sol\":1985:2002  _symbol = symbol_ */\n      swap1\n      dup2\n      tag_9\n      swap2\n      swap1\n      tag_8\n      jump\t// in\n    tag_9:\n      pop\n        /* \"@openzeppelin/contracts/token/ERC20/ERC20.sol\":1896:2009  constructor(string memory name_, string memory symbol_) {... */\n      pop\n      pop\n        /* \"UniSwap.sol\":295:330  _mint(msg.sender, 1000000 * 10**18) */\n      tag_11\n        /* \"UniSwap.sol\":301:311  msg.sender */\n      caller\n        /* \"UniSwap.sol\":313:329  1000000 * 10**18 */\n      0xd3c21bcecceda1000000\n        /* \"UniSwap.sol\":295:300  _mint */\n      shl(0x20, tag_12)\n        /* \"UniSwap.sol\":295:330  _mint(msg.sender, 1000000 * 10**18) */\n      0x20\n      shr\n      jump\t// in\n    tag_11:\n        /* \"UniSwap.sol\":172:337  constructor(string memory _tokenName, string... */\n      pop\n      pop\n        /* \"UniSwap.sol\":136:339  contract CustomToken is ERC20 {... */\n      jump(tag_13)\n        /* \"@openzeppelin/contracts/token/ERC20/ERC20.sol\":7721:7929  function _mint(address account, uint256 value) internal {... */\n    tag_12:\n        /* \"@openzeppelin/contracts/token/ERC20/ERC20.sol\":7810:7811  0 */\n      0x00\n        /* \"@openzeppelin/contracts/token/ERC20/ERC20.sol\":7791:7812  account == address(0) */\n      0xffffffffffffffffffffffffffffffffffffffff\n      and\n        /* \"@openzeppelin/contracts/token/ERC20/ERC20.sol\":7791:7798  account */\n      dup3\n        /* \"@openzeppelin/contracts/token/ERC20/ERC20.sol\":7791:7812  account == address(0) */\n      0xffffffffffffffffffffffffffffffffffffffff\n      and\n      sub\n        /* \"@openzeppelin/contracts/token/ERC20/ERC20.sol\":7787:7878  if (account == address(0)) {... */\n      tag_15\n      jumpi\n        /* \"@openzeppelin/contracts/token/ERC20/ERC20.sol\":7864:7865  0 */\n      0x00\n        /* \"@openzeppelin/contracts/token/ERC20/ERC20.sol\":7835:7867  ERC20InvalidReceiver(address(0)) */\n      mload(0x40)\n      0xec442f0500000000000000000000000000000000000000000000000000000000\n      dup2\n      mstore\n      0x04\n      add\n      tag_16\n      swap2\n      swap1\n      tag_17\n      jump\t// in\n    tag_16:\n      mload(0x40)\n      dup1\n      swap2\n      sub\n      swap1\n      revert\n        /* \"@openzeppelin/contracts/token/ERC20/ERC20.sol\":7787:7878  if (account == address(0)) {... */\n    tag_15:\n        /* \"@openzeppelin/contracts/token/ERC20/ERC20.sol\":7887:7922  _update(address(0), account, value) */\n      tag_18\n        /* \"@openzeppelin/contracts/token/ERC20/ERC20.sol\":7903:7904  0 */\n      0x00\n        /* \"@openzeppelin/contracts/token/ERC20/ERC20.sol\":7907:7914  account */\n      dup4\n        /* \"@openzeppelin/contracts/token/ERC20/ERC20.sol\":7916:7921  value */\n      dup4\n        /* \"@openzeppelin/contracts/token/ERC20/ERC20.sol\":7887:7894  _update */\n      shl(0x20, tag_19)\n        /* \"@openzeppelin/contracts/token/ERC20/ERC20.sol\":7887:7922  _update(address(0), account, value) */\n      0x20\n      shr\n      jump\t// in\n    tag_18:\n        /* \"@openzeppelin/contracts/token/ERC20/ERC20.sol\":7721:7929  function _mint(address account, uint256 value) internal {... */\n      pop\n      pop\n      jump\t// out\n        /* \"@openzeppelin/contracts/token/ERC20/ERC20.sol\":6271:7378  function _update(address from, address to, uint256 value) internal virtual {... */\n    tag_19:\n        /* \"@openzeppelin/contracts/token/ERC20/ERC20.sol\":6376:6377  0 */\n      0x00\n        /* \"@openzeppelin/contracts/token/ERC20/ERC20.sol\":6360:6378  from == address(0) */\n      0xffffffffffffffffffffffffffffffffffffffff\n      and\n        /* \"@openzeppelin/contracts/token/ERC20/ERC20.sol\":6360:6364  from */\n      dup4\n        /* \"@openzeppelin/contracts/token/ERC20/ERC20.sol\":6360:6378  from == address(0) */\n      0xffffffffffffffffffffffffffffffffffffffff\n      and\n      sub\n        /* \"@openzeppelin/contracts/token/ERC20/ERC20.sol\":6356:6896  if (from == address(0)) {... */\n      tag_21\n      jumpi\n        /* \"@openzeppelin/contracts/token/ERC20/ERC20.sol\":6512:6517  value */\n      dup1\n        /* \"@openzeppelin/contracts/token/ERC20/ERC20.sol\":6496:6508  _totalSupply */\n      0x02\n      0x00\n        /* \"@openzeppelin/contracts/token/ERC20/ERC20.sol\":6496:6517  _totalSupply += value */\n      dup3\n      dup3\n      sload\n      tag_22\n      swap2\n      swap1\n      tag_23\n      jump\t// in\n    tag_22:\n      swap3\n      pop\n      pop\n      dup2\n      swap1\n      sstore\n      pop\n        /* \"@openzeppelin/contracts/token/ERC20/ERC20.sol\":6356:6896  if (from == address(0)) {... */\n      jump(tag_24)\n    tag_21:\n        /* \"@openzeppelin/contracts/token/ERC20/ERC20.sol\":6548:6567  uint256 fromBalance */\n      0x00\n        /* \"@openzeppelin/contracts/token/ERC20/ERC20.sol\":6570:6579  _balances */\n      dup1\n        /* \"@openzeppelin/contracts/token/ERC20/ERC20.sol\":6570:6585  _balances[from] */\n      0x00\n        /* \"@openzeppelin/contracts/token/ERC20/ERC20.sol\":6580:6584  from */\n      dup6\n        /* \"@openzeppelin/contracts/token/ERC20/ERC20.sol\":6570:6585  _balances[from] */\n      0xffffffffffffffffffffffffffffffffffffffff\n      and\n      0xffffffffffffffffffffffffffffffffffffffff\n      and\n      dup2\n      mstore\n      0x20\n      add\n      swap1\n      dup2\n      mstore\n      0x20\n      add\n      0x00\n      keccak256\n      sload\n        /* \"@openzeppelin/contracts/token/ERC20/ERC20.sol\":6548:6585  uint256 fromBalance = _balances[from] */\n      swap1\n      pop\n        /* \"@openzeppelin/contracts/token/ERC20/ERC20.sol\":6617:6622  value */\n      dup2\n        /* \"@openzeppelin/contracts/token/ERC20/ERC20.sol\":6603:6614  fromBalance */\n      dup2\n        /* \"@openzeppelin/contracts/token/ERC20/ERC20.sol\":6603:6622  fromBalance < value */\n      lt\n        /* \"@openzeppelin/contracts/token/ERC20/ERC20.sol\":6599:6714  if (fromBalance < value) {... */\n      iszero\n      tag_25\n      jumpi\n        /* \"@openzeppelin/contracts/token/ERC20/ERC20.sol\":6674:6678  from */\n      dup4\n        /* \"@openzeppelin/contracts/token/ERC20/ERC20.sol\":6680:6691  fromBalance */\n      dup2\n        /* \"@openzeppelin/contracts/token/ERC20/ERC20.sol\":6693:6698  value */\n      dup4\n        /* \"@openzeppelin/contracts/token/ERC20/ERC20.sol\":6649:6699  ERC20InsufficientBalance(from, fromBalance, value) */\n      mload(0x40)\n      0xe450d38c00000000000000000000000000000000000000000000000000000000\n      dup2\n      mstore\n      0x04\n      add\n      tag_26\n      swap4\n      swap3\n      swap2\n      swap1\n      tag_27\n      jump\t// in\n    tag_26:\n      mload(0x40)\n      dup1\n      swap2\n      sub\n      swap1\n      revert\n        /* \"@openzeppelin/contracts/token/ERC20/ERC20.sol\":6599:6714  if (fromBalance < value) {... */\n    tag_25:\n        /* \"@openzeppelin/contracts/token/ERC20/ERC20.sol\":6866:6871  value */\n      dup2\n        /* \"@openzeppelin/contracts/token/ERC20/ERC20.sol\":6852:6863  fromBalance */\n      dup2\n        /* \"@openzeppelin/contracts/token/ERC20/ERC20.sol\":6852:6871  fromBalance - value */\n      sub\n        /* \"@openzeppelin/contracts/token/ERC20/ERC20.sol\":6834:6843  _balances */\n      0x00\n        /* \"@openzeppelin/contracts/token/ERC20/ERC20.sol\":6834:6849  _balances[from] */\n      dup1\n        /* \"@openzeppelin/contracts/token/ERC20/ERC20.sol\":6844:6848  from */\n      dup7\n        /* \"@openzeppelin/contracts/token/ERC20/ERC20.sol\":6834:6849  _balances[from] */\n      0xffffffffffffffffffffffffffffffffffffffff\n      and\n      0xffffffffffffffffffffffffffffffffffffffff\n      and\n      dup2\n      mstore\n      0x20\n      add\n      swap1\n      dup2\n      mstore\n      0x20\n      add\n      0x00\n      keccak256\n        /* \"@openzeppelin/contracts/token/ERC20/ERC20.sol\":6834:6871  _balances[from] = fromBalance - value */\n      dup2\n      swap1\n      sstore\n      pop\n        /* \"@openzeppelin/contracts/token/ERC20/ERC20.sol\":6534:6896  {... */\n      pop\n        /* \"@openzeppelin/contracts/token/ERC20/ERC20.sol\":6356:6896  if (from == address(0)) {... */\n    tag_24:\n        /* \"@openzeppelin/contracts/token/ERC20/ERC20.sol\":6924:6925  0 */\n      0x00\n        /* \"@openzeppelin/contracts/token/ERC20/ERC20.sol\":6910:6926  to == address(0) */\n      0xffffffffffffffffffffffffffffffffffffffff\n      and\n        /* \"@openzeppelin/contracts/token/ERC20/ERC20.sol\":6910:6912  to */\n      dup3\n        /* \"@openzeppelin/contracts/token/ERC20/ERC20.sol\":6910:6926  to == address(0) */\n      0xffffffffffffffffffffffffffffffffffffffff\n      and\n      sub\n        /* \"@openzeppelin/contracts/token/ERC20/ERC20.sol\":6906:7331  if (to == address(0)) {... */\n      tag_28\n      jumpi\n        /* \"@openzeppelin/contracts/token/ERC20/ERC20.sol\":7089:7094  value */\n      dup1\n        /* \"@openzeppelin/contracts/token/ERC20/ERC20.sol\":7073:7085  _totalSupply */\n      0x02\n      0x00\n        /* \"@openzeppelin/contracts/token/ERC20/ERC20.sol\":7073:7094  _totalSupply -= value */\n      dup3\n      dup3\n      sload\n      sub\n      swap3\n      pop\n      pop\n      dup2\n      swap1\n      sstore\n      pop\n        /* \"@openzeppelin/contracts/token/ERC20/ERC20.sol\":6906:7331  if (to == address(0)) {... */\n      jump(tag_29)\n    tag_28:\n        /* \"@openzeppelin/contracts/token/ERC20/ERC20.sol\":7301:7306  value */\n      dup1\n        /* \"@openzeppelin/contracts/token/ERC20/ERC20.sol\":7284:7293  _balances */\n      0x00\n        /* \"@openzeppelin/contracts/token/ERC20/ERC20.sol\":7284:7297  _balances[to] */\n      dup1\n        /* \"@openzeppelin/contracts/token/ERC20/ERC20.sol\":7294:7296  to */\n      dup5\n        /* \"@openzeppelin/contracts/token/ERC20/ERC20.sol\":7284:7297  _balances[to] */\n      0xffffffffffffffffffffffffffffffffffffffff\n      and\n      0xffffffffffffffffffffffffffffffffffffffff\n      and\n      dup2\n      mstore\n      0x20\n      add\n      swap1\n      dup2\n      mstore\n      0x20\n      add\n      0x00\n      keccak256\n      0x00\n        /* \"@openzeppelin/contracts/token/ERC20/ERC20.sol\":7284:7306  _balances[to] += value */\n      dup3\n      dup3\n      sload\n      add\n      swap3\n      pop\n      pop\n      dup2\n      swap1\n      sstore\n      pop\n        /* \"@openzeppelin/contracts/token/ERC20/ERC20.sol\":6906:7331  if (to == address(0)) {... */\n    tag_29:\n        /* \"@openzeppelin/contracts/token/ERC20/ERC20.sol\":7361:7363  to */\n      dup2\n        /* \"@openzeppelin/contracts/token/ERC20/ERC20.sol\":7346:7371  Transfer(from, to, value) */\n      0xffffffffffffffffffffffffffffffffffffffff\n      and\n        /* \"@openzeppelin/contracts/token/ERC20/ERC20.sol\":7355:7359  from */\n      dup4\n        /* \"@openzeppelin/contracts/token/ERC20/ERC20.sol\":7346:7371  Transfer(from, to, value) */\n      0xffffffffffffffffffffffffffffffffffffffff\n      and\n      0xddf252ad1be2c89b69c2b068fc378daa952ba7f163c4a11628f55a4df523b3ef\n        /* \"@openzeppelin/contracts/token/ERC20/ERC20.sol\":7365:7370  value */\n      dup4\n        /* \"@openzeppelin/contracts/token/ERC20/ERC20.sol\":7346:7371  Transfer(from, to, value) */\n      mload(0x40)\n      tag_30\n      swap2\n      swap1\n      tag_31\n      jump\t// in\n    tag_30:\n      mload(0x40)\n      dup1\n      swap2\n      sub\n      swap1\n      log3\n        /* \"@openzeppelin/contracts/token/ERC20/ERC20.sol\":6271:7378  function _update(address from, address to, uint256 value) internal virtual {... */\n      pop\n      pop\n      pop\n      jump\t// out\n        /* \"#utility.yul\":7:82   */\n    tag_32:\n        /* \"#utility.yul\":40:46   */\n      0x00\n        /* \"#utility.yul\":73:75   */\n      0x40\n        /* \"#utility.yul\":67:76   */\n      mload\n        /* \"#utility.yul\":57:76   */\n      swap1\n      pop\n        /* \"#utility.yul\":7:82   */\n      swap1\n      jump\t// out\n        /* \"#utility.yul\":88:205   */\n    tag_33:\n        /* \"#utility.yul\":197:198   */\n      0x00\n        /* \"#utility.yul\":194:195   */\n      dup1\n        /* \"#utility.yul\":187:199   */\n      revert\n        /* \"#utility.yul\":211:328   */\n    tag_34:\n        /* \"#utility.yul\":320:321   */\n      0x00\n        /* \"#utility.yul\":317:318   */\n      dup1\n        /* \"#utility.yul\":310:322   */\n      revert\n        /* \"#utility.yul\":334:451   */\n    tag_35:\n        /* \"#utility.yul\":443:444   */\n      0x00\n        /* \"#utility.yul\":440:441   */\n      dup1\n        /* \"#utility.yul\":433:445   */\n      revert\n        /* \"#utility.yul\":457:574   */\n    tag_36:\n        /* \"#utility.yul\":566:567   */\n      0x00\n        /* \"#utility.yul\":563:564   */\n      dup1\n        /* \"#utility.yul\":556:568   */\n      revert\n        /* \"#utility.yul\":580:682   */\n    tag_37:\n        /* \"#utility.yul\":621:627   */\n      0x00\n        /* \"#utility.yul\":672:674   */\n      0x1f\n        /* \"#utility.yul\":668:675   */\n      not\n        /* \"#utility.yul\":663:665   */\n      0x1f\n        /* \"#utility.yul\":656:661   */\n      dup4\n        /* \"#utility.yul\":652:666   */\n      add\n        /* \"#utility.yul\":648:676   */\n      and\n        /* \"#utility.yul\":638:676   */\n      swap1\n      pop\n        /* \"#utility.yul\":580:682   */\n      swap2\n      swap1\n      pop\n      jump\t// out\n        /* \"#utility.yul\":688:868   */\n    tag_38:\n        /* \"#utility.yul\":736:813   */\n      0x4e487b7100000000000000000000000000000000000000000000000000000000\n        /* \"#utility.yul\":733:734   */\n      0x00\n        /* \"#utility.yul\":726:814   */\n      mstore\n        /* \"#utility.yul\":833:837   */\n      0x41\n        /* \"#utility.yul\":830:831   */\n      0x04\n        /* \"#utility.yul\":823:838   */\n      mstore\n        /* \"#utility.yul\":857:861   */\n      0x24\n        /* \"#utility.yul\":854:855   */\n      0x00\n        /* \"#utility.yul\":847:862   */\n      revert\n        /* \"#utility.yul\":874:1155   */\n    tag_39:\n        /* \"#utility.yul\":957:984   */\n      tag_78\n        /* \"#utility.yul\":979:983   */\n      dup3\n        /* \"#utility.yul\":957:984   */\n      tag_37\n      jump\t// in\n    tag_78:\n        /* \"#utility.yul\":949:955   */\n      dup2\n        /* \"#utility.yul\":945:985   */\n      add\n        /* \"#utility.yul\":1087:1093   */\n      dup2\n        /* \"#utility.yul\":1075:1085   */\n      dup2\n        /* \"#utility.yul\":1072:1094   */\n      lt\n        /* \"#utility.yul\":1051:1069   */\n      0xffffffffffffffff\n        /* \"#utility.yul\":1039:1049   */\n      dup3\n        /* \"#utility.yul\":1036:1070   */\n      gt\n        /* \"#utility.yul\":1033:1095   */\n      or\n        /* \"#utility.yul\":1030:1118   */\n      iszero\n      tag_79\n      jumpi\n        /* \"#utility.yul\":1098:1116   */\n      tag_80\n      tag_38\n      jump\t// in\n    tag_80:\n        /* \"#utility.yul\":1030:1118   */\n    tag_79:\n        /* \"#utility.yul\":1138:1148   */\n      dup1\n        /* \"#utility.yul\":1134:1136   */\n      0x40\n        /* \"#utility.yul\":1127:1149   */\n      mstore\n        /* \"#utility.yul\":917:1155   */\n      pop\n        /* \"#utility.yul\":874:1155   */\n      pop\n      pop\n      jump\t// out\n        /* \"#utility.yul\":1161:1290   */\n    tag_40:\n        /* \"#utility.yul\":1195:1201   */\n      0x00\n        /* \"#utility.yul\":1222:1242   */\n      tag_82\n      tag_32\n      jump\t// in\n    tag_82:\n        /* \"#utility.yul\":1212:1242   */\n      swap1\n      pop\n        /* \"#utility.yul\":1251:1284   */\n      tag_83\n        /* \"#utility.yul\":1279:1283   */\n      dup3\n        /* \"#utility.yul\":1271:1277   */\n      dup3\n        /* \"#utility.yul\":1251:1284   */\n      tag_39\n      jump\t// in\n    tag_83:\n        /* \"#utility.yul\":1161:1290   */\n      swap2\n      swap1\n      pop\n      jump\t// out\n        /* \"#utility.yul\":1296:1604   */\n    tag_41:\n        /* \"#utility.yul\":1358:1362   */\n      0x00\n        /* \"#utility.yul\":1448:1466   */\n      0xffffffffffffffff\n        /* \"#utility.yul\":1440:1446   */\n      dup3\n        /* \"#utility.yul\":1437:1467   */\n      gt\n        /* \"#utility.yul\":1434:1490   */\n      iszero\n      tag_85\n      jumpi\n        /* \"#utility.yul\":1470:1488   */\n      tag_86\n      tag_38\n      jump\t// in\n    tag_86:\n        /* \"#utility.yul\":1434:1490   */\n    tag_85:\n        /* \"#utility.yul\":1508:1537   */\n      tag_87\n        /* \"#utility.yul\":1530:1536   */\n      dup3\n        /* \"#utility.yul\":1508:1537   */\n      tag_37\n      jump\t// in\n    tag_87:\n        /* \"#utility.yul\":1500:1537   */\n      swap1\n      pop\n        /* \"#utility.yul\":1592:1596   */\n      0x20\n        /* \"#utility.yul\":1586:1590   */\n      dup2\n        /* \"#utility.yul\":1582:1597   */\n      add\n        /* \"#utility.yul\":1574:1597   */\n      swap1\n      pop\n        /* \"#utility.yul\":1296:1604   */\n      swap2\n      swap1\n      pop\n      jump\t// out\n        /* \"#utility.yul\":1610:1856   */\n    tag_42:\n        /* \"#utility.yul\":1691:1692   */\n      0x00\n        /* \"#utility.yul\":1701:1814   */\n    tag_89:\n        /* \"#utility.yul\":1715:1721   */\n      dup4\n        /* \"#utility.yul\":1712:1713   */\n      dup2\n        /* \"#utility.yul\":1709:1722   */\n      lt\n        /* \"#utility.yul\":1701:1814   */\n      iszero\n      tag_91\n      jumpi\n        /* \"#utility.yul\":1800:1801   */\n      dup1\n        /* \"#utility.yul\":1795:1798   */\n      dup3\n        /* \"#utility.yul\":1791:1802   */\n      add\n        /* \"#utility.yul\":1785:1803   */\n      mload\n        /* \"#utility.yul\":1781:1782   */\n      dup2\n        /* \"#utility.yul\":1776:1779   */\n      dup5\n        /* \"#utility.yul\":1772:1783   */\n      add\n        /* \"#utility.yul\":1765:1804   */\n      mstore\n        /* \"#utility.yul\":1737:1739   */\n      0x20\n        /* \"#utility.yul\":1734:1735   */\n      dup2\n        /* \"#utility.yul\":1730:1740   */\n      add\n        /* \"#utility.yul\":1725:1740   */\n      swap1\n      pop\n        /* \"#utility.yul\":1701:1814   */\n      jump(tag_89)\n    tag_91:\n        /* \"#utility.yul\":1848:1849   */\n      0x00\n        /* \"#utility.yul\":1839:1845   */\n      dup5\n        /* \"#utility.yul\":1834:1837   */\n      dup5\n        /* \"#utility.yul\":1830:1846   */\n      add\n        /* \"#utility.yul\":1823:1850   */\n      mstore\n        /* \"#utility.yul\":1672:1856   */\n      pop\n        /* \"#utility.yul\":1610:1856   */\n      pop\n      pop\n      pop\n      jump\t// out\n        /* \"#utility.yul\":1862:2296   */\n    tag_43:\n        /* \"#utility.yul\":1951:1956   */\n      0x00\n        /* \"#utility.yul\":1976:2042   */\n      tag_93\n        /* \"#utility.yul\":1992:2041   */\n      tag_94\n        /* \"#utility.yul\":2034:2040   */\n      dup5\n        /* \"#utility.yul\":1992:2041   */\n      tag_41\n      jump\t// in\n    tag_94:\n        /* \"#utility.yul\":1976:2042   */\n      tag_40\n      jump\t// in\n    tag_93:\n        /* \"#utility.yul\":1967:2042   */\n      swap1\n      pop\n        /* \"#utility.yul\":2065:2071   */\n      dup3\n        /* \"#utility.yul\":2058:2063   */\n      dup2\n        /* \"#utility.yul\":2051:2072   */\n      mstore\n        /* \"#utility.yul\":2103:2107   */\n      0x20\n        /* \"#utility.yul\":2096:2101   */\n      dup2\n        /* \"#utility.yul\":2092:2108   */\n      add\n        /* \"#utility.yul\":2141:2144   */\n      dup5\n        /* \"#utility.yul\":2132:2138   */\n      dup5\n        /* \"#utility.yul\":2127:2130   */\n      dup5\n        /* \"#utility.yul\":2123:2139   */\n      add\n        /* \"#utility.yul\":2120:2145   */\n      gt\n        /* \"#utility.yul\":2117:2229   */\n      iszero\n      tag_95\n      jumpi\n        /* \"#utility.yul\":2148:2227   */\n      tag_96\n      tag_36\n      jump\t// in\n    tag_96:\n        /* \"#utility.yul\":2117:2229   */\n    tag_95:\n        /* \"#utility.yul\":2238:2290   */\n      tag_97\n        /* \"#utility.yul\":2283:2289   */\n      dup5\n        /* \"#utility.yul\":2278:2281   */\n      dup3\n        /* \"#utility.yul\":2273:2276   */\n      dup6\n        /* \"#utility.yul\":2238:2290   */\n      tag_42\n      jump\t// in\n    tag_97:\n        /* \"#utility.yul\":1957:2296   */\n      pop\n        /* \"#utility.yul\":1862:2296   */\n      swap4\n      swap3\n      pop\n      pop\n      pop\n      jump\t// out\n        /* \"#utility.yul\":2316:2671   */\n    tag_44:\n        /* \"#utility.yul\":2383:2388   */\n      0x00\n        /* \"#utility.yul\":2432:2435   */\n      dup3\n        /* \"#utility.yul\":2425:2429   */\n      0x1f\n        /* \"#utility.yul\":2417:2423   */\n      dup4\n        /* \"#utility.yul\":2413:2430   */\n      add\n        /* \"#utility.yul\":2409:2436   */\n      slt\n        /* \"#utility.yul\":2399:2521   */\n      tag_99\n      jumpi\n        /* \"#utility.yul\":2440:2519   */\n      tag_100\n      tag_35\n      jump\t// in\n    tag_100:\n        /* \"#utility.yul\":2399:2521   */\n    tag_99:\n        /* \"#utility.yul\":2550:2556   */\n      dup2\n        /* \"#utility.yul\":2544:2557   */\n      mload\n        /* \"#utility.yul\":2575:2665   */\n      tag_101\n        /* \"#utility.yul\":2661:2664   */\n      dup5\n        /* \"#utility.yul\":2653:2659   */\n      dup3\n        /* \"#utility.yul\":2646:2650   */\n      0x20\n        /* \"#utility.yul\":2638:2644   */\n      dup7\n        /* \"#utility.yul\":2634:2651   */\n      add\n        /* \"#utility.yul\":2575:2665   */\n      tag_43\n      jump\t// in\n    tag_101:\n        /* \"#utility.yul\":2566:2665   */\n      swap2\n      pop\n        /* \"#utility.yul\":2389:2671   */\n      pop\n        /* \"#utility.yul\":2316:2671   */\n      swap3\n      swap2\n      pop\n      pop\n      jump\t// out\n        /* \"#utility.yul\":2677:3530   */\n    tag_3:\n        /* \"#utility.yul\":2776:2782   */\n      0x00\n        /* \"#utility.yul\":2784:2790   */\n      dup1\n        /* \"#utility.yul\":2833:2835   */\n      0x40\n        /* \"#utility.yul\":2821:2830   */\n      dup4\n        /* \"#utility.yul\":2812:2819   */\n      dup6\n        /* \"#utility.yul\":2808:2831   */\n      sub\n        /* \"#utility.yul\":2804:2836   */\n      slt\n        /* \"#utility.yul\":2801:2920   */\n      iszero\n      tag_103\n      jumpi\n        /* \"#utility.yul\":2839:2918   */\n      tag_104\n      tag_33\n      jump\t// in\n    tag_104:\n        /* \"#utility.yul\":2801:2920   */\n    tag_103:\n        /* \"#utility.yul\":2980:2981   */\n      0x00\n        /* \"#utility.yul\":2969:2978   */\n      dup4\n        /* \"#utility.yul\":2965:2982   */\n      add\n        /* \"#utility.yul\":2959:2983   */\n      mload\n        /* \"#utility.yul\":3010:3028   */\n      0xffffffffffffffff\n        /* \"#utility.yul\":3002:3008   */\n      dup2\n        /* \"#utility.yul\":2999:3029   */\n      gt\n        /* \"#utility.yul\":2996:3113   */\n      iszero\n      tag_105\n      jumpi\n        /* \"#utility.yul\":3032:3111   */\n      tag_106\n      tag_34\n      jump\t// in\n    tag_106:\n        /* \"#utility.yul\":2996:3113   */\n    tag_105:\n        /* \"#utility.yul\":3137:3211   */\n      tag_107\n        /* \"#utility.yul\":3203:3210   */\n      dup6\n        /* \"#utility.yul\":3194:3200   */\n      dup3\n        /* \"#utility.yul\":3183:3192   */\n      dup7\n        /* \"#utility.yul\":3179:3201   */\n      add\n        /* \"#utility.yul\":3137:3211   */\n      tag_44\n      jump\t// in\n    tag_107:\n        /* \"#utility.yul\":3127:3211   */\n      swap3\n      pop\n        /* \"#utility.yul\":2930:3221   */\n      pop\n        /* \"#utility.yul\":3281:3283   */\n      0x20\n        /* \"#utility.yul\":3270:3279   */\n      dup4\n        /* \"#utility.yul\":3266:3284   */\n      add\n        /* \"#utility.yul\":3260:3285   */\n      mload\n        /* \"#utility.yul\":3312:3330   */\n      0xffffffffffffffff\n        /* \"#utility.yul\":3304:3310   */\n      dup2\n        /* \"#utility.yul\":3301:3331   */\n      gt\n        /* \"#utility.yul\":3298:3415   */\n      iszero\n      tag_108\n      jumpi\n        /* \"#utility.yul\":3334:3413   */\n      tag_109\n      tag_34\n      jump\t// in\n    tag_109:\n        /* \"#utility.yul\":3298:3415   */\n    tag_108:\n        /* \"#utility.yul\":3439:3513   */\n      tag_110\n        /* \"#utility.yul\":3505:3512   */\n      dup6\n        /* \"#utility.yul\":3496:3502   */\n      dup3\n        /* \"#utility.yul\":3485:3494   */\n      dup7\n        /* \"#utility.yul\":3481:3503   */\n      add\n        /* \"#utility.yul\":3439:3513   */\n      tag_44\n      jump\t// in\n    tag_110:\n        /* \"#utility.yul\":3429:3513   */\n      swap2\n      pop\n        /* \"#utility.yul\":3231:3523   */\n      pop\n        /* \"#utility.yul\":2677:3530   */\n      swap3\n      pop\n      swap3\n      swap1\n      pop\n      jump\t// out\n        /* \"#utility.yul\":3536:3635   */\n    tag_45:\n        /* \"#utility.yul\":3588:3594   */\n      0x00\n        /* \"#utility.yul\":3622:3627   */\n      dup2\n        /* \"#utility.yul\":3616:3628   */\n      mload\n        /* \"#utility.yul\":3606:3628   */\n      swap1\n      pop\n        /* \"#utility.yul\":3536:3635   */\n      swap2\n      swap1\n      pop\n      jump\t// out\n        /* \"#utility.yul\":3641:3821   */\n    tag_46:\n        /* \"#utility.yul\":3689:3766   */\n      0x4e487b7100000000000000000000000000000000000000000000000000000000\n        /* \"#utility.yul\":3686:3687   */\n      0x00\n        /* \"#utility.yul\":3679:3767   */\n      mstore\n        /* \"#utility.yul\":3786:3790   */\n      0x22\n        /* \"#utility.yul\":3783:3784   */\n      0x04\n        /* \"#utility.yul\":3776:3791   */\n      mstore\n        /* \"#utility.yul\":3810:3814   */\n      0x24\n        /* \"#utility.yul\":3807:3808   */\n      0x00\n        /* \"#utility.yul\":3800:3815   */\n      revert\n        /* \"#utility.yul\":3827:4147   */\n    tag_47:\n        /* \"#utility.yul\":3871:3877   */\n      0x00\n        /* \"#utility.yul\":3908:3909   */\n      0x02\n        /* \"#utility.yul\":3902:3906   */\n      dup3\n        /* \"#utility.yul\":3898:3910   */\n      div\n        /* \"#utility.yul\":3888:3910   */\n      swap1\n      pop\n        /* \"#utility.yul\":3955:3956   */\n      0x01\n        /* \"#utility.yul\":3949:3953   */\n      dup3\n        /* \"#utility.yul\":3945:3957   */\n      and\n        /* \"#utility.yul\":3976:3994   */\n      dup1\n        /* \"#utility.yul\":3966:4047   */\n      tag_114\n      jumpi\n        /* \"#utility.yul\":4032:4036   */\n      0x7f\n        /* \"#utility.yul\":4024:4030   */\n      dup3\n        /* \"#utility.yul\":4020:4037   */\n      and\n        /* \"#utility.yul\":4010:4037   */\n      swap2\n      pop\n        /* \"#utility.yul\":3966:4047   */\n    tag_114:\n        /* \"#utility.yul\":4094:4096   */\n      0x20\n        /* \"#utility.yul\":4086:4092   */\n      dup3\n        /* \"#utility.yul\":4083:4097   */\n      lt\n        /* \"#utility.yul\":4063:4081   */\n      dup2\n        /* \"#utility.yul\":4060:4098   */\n      sub\n        /* \"#utility.yul\":4057:4141   */\n      tag_115\n      jumpi\n        /* \"#utility.yul\":4113:4131   */\n      tag_116\n      tag_46\n      jump\t// in\n    tag_116:\n        /* \"#utility.yul\":4057:4141   */\n    tag_115:\n        /* \"#utility.yul\":3878:4147   */\n      pop\n        /* \"#utility.yul\":3827:4147   */\n      swap2\n      swap1\n      pop\n      jump\t// out\n        /* \"#utility.yul\":4153:4294   */\n    tag_48:\n        /* \"#utility.yul\":4202:4206   */\n      0x00\n        /* \"#utility.yul\":4225:4228   */\n      dup2\n        /* \"#utility.yul\":4217:4228   */\n      swap1\n      pop\n        /* \"#utility.yul\":4248:4251   */\n      dup2\n        /* \"#utility.yul\":4245:4246   */\n      0x00\n        /* \"#utility.yul\":4238:4252   */\n      mstore\n        /* \"#utility.yul\":4282:4286   */\n      0x20\n        /* \"#utility.yul\":4279:4280   */\n      0x00\n        /* \"#utility.yul\":4269:4287   */\n      keccak256\n        /* \"#utility.yul\":4261:4287   */\n      swap1\n      pop\n        /* \"#utility.yul\":4153:4294   */\n      swap2\n      swap1\n      pop\n      jump\t// out\n        /* \"#utility.yul\":4300:4393   */\n    tag_49:\n        /* \"#utility.yul\":4337:4343   */\n      0x00\n        /* \"#utility.yul\":4384:4386   */\n      0x20\n        /* \"#utility.yul\":4379:4381   */\n      0x1f\n        /* \"#utility.yul\":4372:4377   */\n      dup4\n        /* \"#utility.yul\":4368:4382   */\n      add\n        /* \"#utility.yul\":4364:4387   */\n      div\n        /* \"#utility.yul\":4354:4387   */\n      swap1\n      pop\n        /* \"#utility.yul\":4300:4393   */\n      swap2\n      swap1\n      pop\n      jump\t// out\n        /* \"#utility.yul\":4399:4506   */\n    tag_50:\n        /* \"#utility.yul\":4443:4451   */\n      0x00\n        /* \"#utility.yul\":4493:4498   */\n      dup3\n        /* \"#utility.yul\":4487:4491   */\n      dup3\n        /* \"#utility.yul\":4483:4499   */\n      shl\n        /* \"#utility.yul\":4462:4499   */\n      swap1\n      pop\n        /* \"#utility.yul\":4399:4506   */\n      swap3\n      swap2\n      pop\n      pop\n      jump\t// out\n        /* \"#utility.yul\":4512:4905   */\n    tag_51:\n        /* \"#utility.yul\":4581:4587   */\n      0x00\n        /* \"#utility.yul\":4631:4632   */\n      0x08\n        /* \"#utility.yul\":4619:4629   */\n      dup4\n        /* \"#utility.yul\":4615:4633   */\n      mul\n        /* \"#utility.yul\":4654:4751   */\n      tag_121\n        /* \"#utility.yul\":4684:4750   */\n      0xffffffffffffffffffffffffffffffffffffffffffffffffffffffffffffffff\n        /* \"#utility.yul\":4673:4682   */\n      dup3\n        /* \"#utility.yul\":4654:4751   */\n      tag_50\n      jump\t// in\n    tag_121:\n        /* \"#utility.yul\":4772:4811   */\n      tag_122\n        /* \"#utility.yul\":4802:4810   */\n      dup7\n        /* \"#utility.yul\":4791:4800   */\n      dup4\n        /* \"#utility.yul\":4772:4811   */\n      tag_50\n      jump\t// in\n    tag_122:\n        /* \"#utility.yul\":4760:4811   */\n      swap6\n      pop\n        /* \"#utility.yul\":4844:4848   */\n      dup1\n        /* \"#utility.yul\":4840:4849   */\n      not\n        /* \"#utility.yul\":4833:4838   */\n      dup5\n        /* \"#utility.yul\":4829:4850   */\n      and\n        /* \"#utility.yul\":4820:4850   */\n      swap4\n      pop\n        /* \"#utility.yul\":4893:4897   */\n      dup1\n        /* \"#utility.yul\":4883:4891   */\n      dup7\n        /* \"#utility.yul\":4879:4898   */\n      and\n        /* \"#utility.yul\":4872:4877   */\n      dup5\n        /* \"#utility.yul\":4869:4899   */\n      or\n        /* \"#utility.yul\":4859:4899   */\n      swap3\n      pop\n        /* \"#utility.yul\":4588:4905   */\n      pop\n      pop\n        /* \"#utility.yul\":4512:4905   */\n      swap4\n      swap3\n      pop\n      pop\n      pop\n      jump\t// out\n        /* \"#utility.yul\":4911:4988   */\n    tag_52:\n        /* \"#utility.yul\":4948:4955   */\n      0x00\n        /* \"#utility.yul\":4977:4982   */\n      dup2\n        /* \"#utility.yul\":4966:4982   */\n      swap1\n      pop\n        /* \"#utility.yul\":4911:4988   */\n      swap2\n      swap1\n      pop\n      jump\t// out\n        /* \"#utility.yul\":4994:5054   */\n    tag_53:\n        /* \"#utility.yul\":5022:5025   */\n      0x00\n        /* \"#utility.yul\":5043:5048   */\n      dup2\n        /* \"#utility.yul\":5036:5048   */\n      swap1\n      pop\n        /* \"#utility.yul\":4994:5054   */\n      swap2\n      swap1\n      pop\n      jump\t// out\n        /* \"#utility.yul\":5060:5202   */\n    tag_54:\n        /* \"#utility.yul\":5110:5119   */\n      0x00\n        /* \"#utility.yul\":5143:5196   */\n      tag_126\n        /* \"#utility.yul\":5161:5195   */\n      tag_127\n        /* \"#utility.yul\":5170:5194   */\n      tag_128\n        /* \"#utility.yul\":5188:5193   */\n      dup5\n        /* \"#utility.yul\":5170:5194   */\n      tag_52\n      jump\t// in\n    tag_128:\n        /* \"#utility.yul\":5161:5195   */\n      tag_53\n      jump\t// in\n    tag_127:\n        /* \"#utility.yul\":5143:5196   */\n      tag_52\n      jump\t// in\n    tag_126:\n        /* \"#utility.yul\":5130:5196   */\n      swap1\n      pop\n        /* \"#utility.yul\":5060:5202   */\n      swap2\n      swap1\n      pop\n      jump\t// out\n        /* \"#utility.yul\":5208:5283   */\n    tag_55:\n        /* \"#utility.yul\":5251:5254   */\n      0x00\n        /* \"#utility.yul\":5272:5277   */\n      dup2\n        /* \"#utility.yul\":5265:5277   */\n      swap1\n      pop\n        /* \"#utility.yul\":5208:5283   */\n      swap2\n      swap1\n      pop\n      jump\t// out\n        /* \"#utility.yul\":5289:5558   */\n    tag_56:\n        /* \"#utility.yul\":5399:5438   */\n      tag_131\n        /* \"#utility.yul\":5430:5437   */\n      dup4\n        /* \"#utility.yul\":5399:5438   */\n      tag_54\n      jump\t// in\n    tag_131:\n        /* \"#utility.yul\":5460:5551   */\n      tag_132\n        /* \"#utility.yul\":5509:5550   */\n      tag_133\n        /* \"#utility.yul\":5533:5549   */\n      dup3\n        /* \"#utility.yul\":5509:5550   */\n      tag_55\n      jump\t// in\n    tag_133:\n        /* \"#utility.yul\":5501:5507   */\n      dup5\n        /* \"#utility.yul\":5494:5498   */\n      dup5\n        /* \"#utility.yul\":5488:5499   */\n      sload\n        /* \"#utility.yul\":5460:5551   */\n      tag_51\n      jump\t// in\n    tag_132:\n        /* \"#utility.yul\":5454:5458   */\n      dup3\n        /* \"#utility.yul\":5447:5552   */\n      sstore\n        /* \"#utility.yul\":5365:5558   */\n      pop\n        /* \"#utility.yul\":5289:5558   */\n      pop\n      pop\n      pop\n      jump\t// out\n        /* \"#utility.yul\":5564:5637   */\n    tag_57:\n        /* \"#utility.yul\":5609:5612   */\n      0x00\n        /* \"#utility.yul\":5564:5637   */\n      swap1\n      jump\t// out\n        /* \"#utility.yul\":5643:5832   */\n    tag_58:\n        /* \"#utility.yul\":5720:5752   */\n      tag_136\n      tag_57\n      jump\t// in\n    tag_136:\n        /* \"#utility.yul\":5761:5826   */\n      tag_137\n        /* \"#utility.yul\":5819:5825   */\n      dup2\n        /* \"#utility.yul\":5811:5817   */\n      dup5\n        /* \"#utility.yul\":5805:5809   */\n      dup5\n        /* \"#utility.yul\":5761:5826   */\n      tag_56\n      jump\t// in\n    tag_137:\n        /* \"#utility.yul\":5696:5832   */\n      pop\n        /* \"#utility.yul\":5643:5832   */\n      pop\n      pop\n      jump\t// out\n        /* \"#utility.yul\":5838:6024   */\n    tag_59:\n        /* \"#utility.yul\":5898:6018   */\n    tag_139:\n        /* \"#utility.yul\":5915:5918   */\n      dup2\n        /* \"#utility.yul\":5908:5913   */\n      dup2\n        /* \"#utility.yul\":5905:5919   */\n      lt\n        /* \"#utility.yul\":5898:6018   */\n      iszero\n      tag_141\n      jumpi\n        /* \"#utility.yul\":5969:6008   */\n      tag_142\n        /* \"#utility.yul\":6006:6007   */\n      0x00\n        /* \"#utility.yul\":5999:6004   */\n      dup3\n        /* \"#utility.yul\":5969:6008   */\n      tag_58\n      jump\t// in\n    tag_142:\n        /* \"#utility.yul\":5942:5943   */\n      0x01\n        /* \"#utility.yul\":5935:5940   */\n      dup2\n        /* \"#utility.yul\":5931:5944   */\n      add\n        /* \"#utility.yul\":5922:5944   */\n      swap1\n      pop\n        /* \"#utility.yul\":5898:6018   */\n      jump(tag_139)\n    tag_141:\n        /* \"#utility.yul\":5838:6024   */\n      pop\n      pop\n      jump\t// out\n        /* \"#utility.yul\":6030:6573   */\n    tag_60:\n        /* \"#utility.yul\":6131:6133   */\n      0x1f\n        /* \"#utility.yul\":6126:6129   */\n      dup3\n        /* \"#utility.yul\":6123:6134   */\n      gt\n        /* \"#utility.yul\":6120:6566   */\n      iszero\n      tag_144\n      jumpi\n        /* \"#utility.yul\":6165:6203   */\n      tag_145\n        /* \"#utility.yul\":6197:6202   */\n      dup2\n        /* \"#utility.yul\":6165:6203   */\n      tag_48\n      jump\t// in\n    tag_145:\n        /* \"#utility.yul\":6249:6278   */\n      tag_146\n        /* \"#utility.yul\":6267:6277   */\n      dup5\n        /* \"#utility.yul\":6249:6278   */\n      tag_49\n      jump\t// in\n    tag_146:\n        /* \"#utility.yul\":6239:6247   */\n      dup2\n        /* \"#utility.yul\":6235:6279   */\n      add\n        /* \"#utility.yul\":6432:6434   */\n      0x20\n        /* \"#utility.yul\":6420:6430   */\n      dup6\n        /* \"#utility.yul\":6417:6435   */\n      lt\n        /* \"#utility.yul\":6414:6463   */\n      iszero\n      tag_147\n      jumpi\n        /* \"#utility.yul\":6453:6461   */\n      dup2\n        /* \"#utility.yul\":6438:6461   */\n      swap1\n      pop\n        /* \"#utility.yul\":6414:6463   */\n    tag_147:\n        /* \"#utility.yul\":6476:6556   */\n      tag_148\n        /* \"#utility.yul\":6532:6554   */\n      tag_149\n        /* \"#utility.yul\":6550:6553   */\n      dup6\n        /* \"#utility.yul\":6532:6554   */\n      tag_49\n      jump\t// in\n    tag_149:\n        /* \"#utility.yul\":6522:6530   */\n      dup4\n        /* \"#utility.yul\":6518:6555   */\n      add\n        /* \"#utility.yul\":6505:6516   */\n      dup3\n        /* \"#utility.yul\":6476:6556   */\n      tag_59\n      jump\t// in\n    tag_148:\n        /* \"#utility.yul\":6135:6566   */\n      pop\n      pop\n        /* \"#utility.yul\":6120:6566   */\n    tag_144:\n        /* \"#utility.yul\":6030:6573   */\n      pop\n      pop\n      pop\n      jump\t// out\n        /* \"#utility.yul\":6579:6696   */\n    tag_61:\n        /* \"#utility.yul\":6633:6641   */\n      0x00\n        /* \"#utility.yul\":6683:6688   */\n      dup3\n        /* \"#utility.yul\":6677:6681   */\n      dup3\n        /* \"#utility.yul\":6673:6689   */\n      shr\n        /* \"#utility.yul\":6652:6689   */\n      swap1\n      pop\n        /* \"#utility.yul\":6579:6696   */\n      swap3\n      swap2\n      pop\n      pop\n      jump\t// out\n        /* \"#utility.yul\":6702:6871   */\n    tag_62:\n        /* \"#utility.yul\":6746:6752   */\n      0x00\n        /* \"#utility.yul\":6779:6830   */\n      tag_152\n        /* \"#utility.yul\":6827:6828   */\n      0x00\n        /* \"#utility.yul\":6823:6829   */\n      not\n        /* \"#utility.yul\":6815:6820   */\n      dup5\n        /* \"#utility.yul\":6812:6813   */\n      0x08\n        /* \"#utility.yul\":6808:6821   */\n      mul\n        /* \"#utility.yul\":6779:6830   */\n      tag_61\n      jump\t// in\n    tag_152:\n        /* \"#utility.yul\":6775:6831   */\n      not\n        /* \"#utility.yul\":6860:6864   */\n      dup1\n        /* \"#utility.yul\":6854:6858   */\n      dup4\n        /* \"#utility.yul\":6850:6865   */\n      and\n        /* \"#utility.yul\":6840:6865   */\n      swap2\n      pop\n        /* \"#utility.yul\":6753:6871   */\n      pop\n        /* \"#utility.yul\":6702:6871   */\n      swap3\n      swap2\n      pop\n      pop\n      jump\t// out\n        /* \"#utility.yul\":6876:7171   */\n    tag_63:\n        /* \"#utility.yul\":6952:6956   */\n      0x00\n        /* \"#utility.yul\":7098:7127   */\n      tag_154\n        /* \"#utility.yul\":7123:7126   */\n      dup4\n        /* \"#utility.yul\":7117:7121   */\n      dup4\n        /* \"#utility.yul\":7098:7127   */\n      tag_62\n      jump\t// in\n    tag_154:\n        /* \"#utility.yul\":7090:7127   */\n      swap2\n      pop\n        /* \"#utility.yul\":7160:7163   */\n      dup3\n        /* \"#utility.yul\":7157:7158   */\n      0x02\n        /* \"#utility.yul\":7153:7164   */\n      mul\n        /* \"#utility.yul\":7147:7151   */\n      dup3\n        /* \"#utility.yul\":7144:7165   */\n      or\n        /* \"#utility.yul\":7136:7165   */\n      swap1\n      pop\n        /* \"#utility.yul\":6876:7171   */\n      swap3\n      swap2\n      pop\n      pop\n      jump\t// out\n        /* \"#utility.yul\":7176:8571   */\n    tag_8:\n        /* \"#utility.yul\":7293:7330   */\n      tag_156\n        /* \"#utility.yul\":7326:7329   */\n      dup3\n        /* \"#utility.yul\":7293:7330   */\n      tag_45\n      jump\t// in\n    tag_156:\n        /* \"#utility.yul\":7395:7413   */\n      0xffffffffffffffff\n        /* \"#utility.yul\":7387:7393   */\n      dup2\n        /* \"#utility.yul\":7384:7414   */\n      gt\n        /* \"#utility.yul\":7381:7437   */\n      iszero\n      tag_157\n      jumpi\n        /* \"#utility.yul\":7417:7435   */\n      tag_158\n      tag_38\n      jump\t// in\n    tag_158:\n        /* \"#utility.yul\":7381:7437   */\n    tag_157:\n        /* \"#utility.yul\":7461:7499   */\n      tag_159\n        /* \"#utility.yul\":7493:7497   */\n      dup3\n        /* \"#utility.yul\":7487:7498   */\n      sload\n        /* \"#utility.yul\":7461:7499   */\n      tag_47\n      jump\t// in\n    tag_159:\n        /* \"#utility.yul\":7546:7613   */\n      tag_160\n        /* \"#utility.yul\":7606:7612   */\n      dup3\n        /* \"#utility.yul\":7598:7604   */\n      dup3\n        /* \"#utility.yul\":7592:7596   */\n      dup6\n        /* \"#utility.yul\":7546:7613   */\n      tag_60\n      jump\t// in\n    tag_160:\n        /* \"#utility.yul\":7640:7641   */\n      0x00\n        /* \"#utility.yul\":7664:7668   */\n      0x20\n        /* \"#utility.yul\":7651:7668   */\n      swap1\n      pop\n        /* \"#utility.yul\":7696:7698   */\n      0x1f\n        /* \"#utility.yul\":7688:7694   */\n      dup4\n        /* \"#utility.yul\":7685:7699   */\n      gt\n        /* \"#utility.yul\":7713:7714   */\n      0x01\n        /* \"#utility.yul\":7708:8326   */\n      dup2\n      eq\n      tag_162\n      jumpi\n        /* \"#utility.yul\":8370:8371   */\n      0x00\n        /* \"#utility.yul\":8387:8393   */\n      dup5\n        /* \"#utility.yul\":8384:8461   */\n      iszero\n      tag_163\n      jumpi\n        /* \"#utility.yul\":8436:8445   */\n      dup3\n        /* \"#utility.yul\":8431:8434   */\n      dup8\n        /* \"#utility.yul\":8427:8446   */\n      add\n        /* \"#utility.yul\":8421:8447   */\n      mload\n        /* \"#utility.yul\":8412:8447   */\n      swap1\n      pop\n        /* \"#utility.yul\":8384:8461   */\n    tag_163:\n        /* \"#utility.yul\":8487:8554   */\n      tag_164\n        /* \"#utility.yul\":8547:8553   */\n      dup6\n        /* \"#utility.yul\":8540:8545   */\n      dup3\n        /* \"#utility.yul\":8487:8554   */\n      tag_63\n      jump\t// in\n    tag_164:\n        /* \"#utility.yul\":8481:8485   */\n      dup7\n        /* \"#utility.yul\":8474:8555   */\n      sstore\n        /* \"#utility.yul\":8343:8565   */\n      pop\n        /* \"#utility.yul\":7678:8565   */\n      jump(tag_161)\n        /* \"#utility.yul\":7708:8326   */\n    tag_162:\n        /* \"#utility.yul\":7760:7764   */\n      0x1f\n        /* \"#utility.yul\":7756:7765   */\n      not\n        /* \"#utility.yul\":7748:7754   */\n      dup5\n        /* \"#utility.yul\":7744:7766   */\n      and\n        /* \"#utility.yul\":7794:7831   */\n      tag_165\n        /* \"#utility.yul\":7826:7830   */\n      dup7\n        /* \"#utility.yul\":7794:7831   */\n      tag_48\n      jump\t// in\n    tag_165:\n        /* \"#utility.yul\":7853:7854   */\n      0x00\n        /* \"#utility.yul\":7867:8075   */\n    tag_166:\n        /* \"#utility.yul\":7881:7888   */\n      dup3\n        /* \"#utility.yul\":7878:7879   */\n      dup2\n        /* \"#utility.yul\":7875:7889   */\n      lt\n        /* \"#utility.yul\":7867:8075   */\n      iszero\n      tag_168\n      jumpi\n        /* \"#utility.yul\":7960:7969   */\n      dup5\n        /* \"#utility.yul\":7955:7958   */\n      dup10\n        /* \"#utility.yul\":7951:7970   */\n      add\n        /* \"#utility.yul\":7945:7971   */\n      mload\n        /* \"#utility.yul\":7937:7943   */\n      dup3\n        /* \"#utility.yul\":7930:7972   */\n      sstore\n        /* \"#utility.yul\":8011:8012   */\n      0x01\n        /* \"#utility.yul\":8003:8009   */\n      dup3\n        /* \"#utility.yul\":7999:8013   */\n      add\n        /* \"#utility.yul\":7989:8013   */\n      swap2\n      pop\n        /* \"#utility.yul\":8058:8060   */\n      0x20\n        /* \"#utility.yul\":8047:8056   */\n      dup6\n        /* \"#utility.yul\":8043:8061   */\n      add\n        /* \"#utility.yul\":8030:8061   */\n      swap5\n      pop\n        /* \"#utility.yul\":7904:7908   */\n      0x20\n        /* \"#utility.yul\":7901:7902   */\n      dup2\n        /* \"#utility.yul\":7897:7909   */\n      add\n        /* \"#utility.yul\":7892:7909   */\n      swap1\n      pop\n        /* \"#utility.yul\":7867:8075   */\n      jump(tag_166)\n    tag_168:\n        /* \"#utility.yul\":8103:8109   */\n      dup7\n        /* \"#utility.yul\":8094:8101   */\n      dup4\n        /* \"#utility.yul\":8091:8110   */\n      lt\n        /* \"#utility.yul\":8088:8267   */\n      iszero\n      tag_169\n      jumpi\n        /* \"#utility.yul\":8161:8170   */\n      dup5\n        /* \"#utility.yul\":8156:8159   */\n      dup10\n        /* \"#utility.yul\":8152:8171   */\n      add\n        /* \"#utility.yul\":8146:8172   */\n      mload\n        /* \"#utility.yul\":8204:8252   */\n      tag_170\n        /* \"#utility.yul\":8246:8250   */\n      0x1f\n        /* \"#utility.yul\":8238:8244   */\n      dup10\n        /* \"#utility.yul\":8234:8251   */\n      and\n        /* \"#utility.yul\":8223:8232   */\n      dup3\n        /* \"#utility.yul\":8204:8252   */\n      tag_62\n      jump\t// in\n    tag_170:\n        /* \"#utility.yul\":8196:8202   */\n      dup4\n        /* \"#utility.yul\":8189:8253   */\n      sstore\n        /* \"#utility.yul\":8111:8267   */\n      pop\n        /* \"#utility.yul\":8088:8267   */\n    tag_169:\n        /* \"#utility.yul\":8313:8314   */\n      0x01\n        /* \"#utility.yul\":8309:8310   */\n      0x02\n        /* \"#utility.yul\":8301:8307   */\n      dup9\n        /* \"#utility.yul\":8297:8311   */\n      mul\n        /* \"#utility.yul\":8293:8315   */\n      add\n        /* \"#utility.yul\":8287:8291   */\n      dup9\n        /* \"#utility.yul\":8280:8316   */\n      sstore\n        /* \"#utility.yul\":7715:8326   */\n      pop\n      pop\n      pop\n        /* \"#utility.yul\":7678:8565   */\n    tag_161:\n      pop\n        /* \"#utility.yul\":7268:8571   */\n      pop\n      pop\n      pop\n        /* \"#utility.yul\":7176:8571   */\n      pop\n      pop\n      jump\t// out\n        /* \"#utility.yul\":8577:8703   */\n    tag_64:\n        /* \"#utility.yul\":8614:8621   */\n      0x00\n        /* \"#utility.yul\":8654:8696   */\n      0xffffffffffffffffffffffffffffffffffffffff\n        /* \"#utility.yul\":8647:8652   */\n      dup3\n        /* \"#utility.yul\":8643:8697   */\n      and\n        /* \"#utility.yul\":8632:8697   */\n      swap1\n      pop\n        /* \"#utility.yul\":8577:8703   */\n      swap2\n      swap1\n      pop\n      jump\t// out\n        /* \"#utility.yul\":8709:8805   */\n    tag_65:\n        /* \"#utility.yul\":8746:8753   */\n      0x00\n        /* \"#utility.yul\":8775:8799   */\n      tag_173\n        /* \"#utility.yul\":8793:8798   */\n      dup3\n        /* \"#utility.yul\":8775:8799   */\n      tag_64\n      jump\t// in\n    tag_173:\n        /* \"#utility.yul\":8764:8799   */\n      swap1\n      pop\n        /* \"#utility.yul\":8709:8805   */\n      swap2\n      swap1\n      pop\n      jump\t// out\n        /* \"#utility.yul\":8811:8929   */\n    tag_66:\n        /* \"#utility.yul\":8898:8922   */\n      tag_175\n        /* \"#utility.yul\":8916:8921   */\n      dup2\n        /* \"#utility.yul\":8898:8922   */\n      tag_65\n      jump\t// in\n    tag_175:\n        /* \"#utility.yul\":8893:8896   */\n      dup3\n        /* \"#utility.yul\":8886:8923   */\n      mstore\n        /* \"#utility.yul\":8811:8929   */\n      pop\n      pop\n      jump\t// out\n        /* \"#utility.yul\":8935:9157   */\n    tag_17:\n        /* \"#utility.yul\":9028:9032   */\n      0x00\n        /* \"#utility.yul\":9066:9068   */\n      0x20\n        /* \"#utility.yul\":9055:9064   */\n      dup3\n        /* \"#utility.yul\":9051:9069   */\n      add\n        /* \"#utility.yul\":9043:9069   */\n      swap1\n      pop\n        /* \"#utility.yul\":9079:9150   */\n      tag_177\n        /* \"#utility.yul\":9147:9148   */\n      0x00\n        /* \"#utility.yul\":9136:9145   */\n      dup4\n        /* \"#utility.yul\":9132:9149   */\n      add\n        /* \"#utility.yul\":9123:9129   */\n      dup5\n        /* \"#utility.yul\":9079:9150   */\n      tag_66\n      jump\t// in\n    tag_177:\n        /* \"#utility.yul\":8935:9157   */\n      swap3\n      swap2\n      pop\n      pop\n      jump\t// out\n        /* \"#utility.yul\":9163:9343   */\n    tag_67:\n        /* \"#utility.yul\":9211:9288   */\n      0x4e487b7100000000000000000000000000000000000000000000000000000000\n        /* \"#utility.yul\":9208:9209   */\n      0x00\n        /* \"#utility.yul\":9201:9289   */\n      mstore\n        /* \"#utility.yul\":9308:9312   */\n      0x11\n        /* \"#utility.yul\":9305:9306   */\n      0x04\n        /* \"#utility.yul\":9298:9313   */\n      mstore\n        /* \"#utility.yul\":9332:9336   */\n      0x24\n        /* \"#utility.yul\":9329:9330   */\n      0x00\n        /* \"#utility.yul\":9322:9337   */\n      revert\n        /* \"#utility.yul\":9349:9540   */\n    tag_23:\n        /* \"#utility.yul\":9389:9392   */\n      0x00\n        /* \"#utility.yul\":9408:9428   */\n      tag_180\n        /* \"#utility.yul\":9426:9427   */\n      dup3\n        /* \"#utility.yul\":9408:9428   */\n      tag_52\n      jump\t// in\n    tag_180:\n        /* \"#utility.yul\":9403:9428   */\n      swap2\n      pop\n        /* \"#utility.yul\":9442:9462   */\n      tag_181\n        /* \"#utility.yul\":9460:9461   */\n      dup4\n        /* \"#utility.yul\":9442:9462   */\n      tag_52\n      jump\t// in\n    tag_181:\n        /* \"#utility.yul\":9437:9462   */\n      swap3\n      pop\n        /* \"#utility.yul\":9485:9486   */\n      dup3\n        /* \"#utility.yul\":9482:9483   */\n      dup3\n        /* \"#utility.yul\":9478:9487   */\n      add\n        /* \"#utility.yul\":9471:9487   */\n      swap1\n      pop\n        /* \"#utility.yul\":9506:9509   */\n      dup1\n        /* \"#utility.yul\":9503:9504   */\n      dup3\n        /* \"#utility.yul\":9500:9510   */\n      gt\n        /* \"#utility.yul\":9497:9533   */\n      iszero\n      tag_182\n      jumpi\n        /* \"#utility.yul\":9513:9531   */\n      tag_183\n      tag_67\n      jump\t// in\n    tag_183:\n        /* \"#utility.yul\":9497:9533   */\n    tag_182:\n        /* \"#utility.yul\":9349:9540   */\n      swap3\n      swap2\n      pop\n      pop\n      jump\t// out\n        /* \"#utility.yul\":9546:9664   */\n    tag_68:\n        /* \"#utility.yul\":9633:9657   */\n      tag_185\n        /* \"#utility.yul\":9651:9656   */\n      dup2\n        /* \"#utility.yul\":9633:9657   */\n      tag_52\n      jump\t// in\n    tag_185:\n        /* \"#utility.yul\":9628:9631   */\n      dup3\n        /* \"#utility.yul\":9621:9658   */\n      mstore\n        /* \"#utility.yul\":9546:9664   */\n      pop\n      pop\n      jump\t// out\n        /* \"#utility.yul\":9670:10112   */\n    tag_27:\n        /* \"#utility.yul\":9819:9823   */\n      0x00\n        /* \"#utility.yul\":9857:9859   */\n      0x60\n        /* \"#utility.yul\":9846:9855   */\n      dup3\n        /* \"#utility.yul\":9842:9860   */\n      add\n        /* \"#utility.yul\":9834:9860   */\n      swap1\n      pop\n        /* \"#utility.yul\":9870:9941   */\n      tag_187\n        /* \"#utility.yul\":9938:9939   */\n      0x00\n        /* \"#utility.yul\":9927:9936   */\n      dup4\n        /* \"#utility.yul\":9923:9940   */\n      add\n        /* \"#utility.yul\":9914:9920   */\n      dup7\n        /* \"#utility.yul\":9870:9941   */\n      tag_66\n      jump\t// in\n    tag_187:\n        /* \"#utility.yul\":9951:10023   */\n      tag_188\n        /* \"#utility.yul\":10019:10021   */\n      0x20\n        /* \"#utility.yul\":10008:10017   */\n      dup4\n        /* \"#utility.yul\":10004:10022   */\n      add\n        /* \"#utility.yul\":9995:10001   */\n      dup6\n        /* \"#utility.yul\":9951:10023   */\n      tag_68\n      jump\t// in\n    tag_188:\n        /* \"#utility.yul\":10033:10105   */\n      tag_189\n        /* \"#utility.yul\":10101:10103   */\n      0x40\n        /* \"#utility.yul\":10090:10099   */\n      dup4\n        /* \"#utility.yul\":10086:10104   */\n      add\n        /* \"#utility.yul\":10077:10083   */\n      dup5\n        /* \"#utility.yul\":10033:10105   */\n      tag_68\n      jump\t// in\n    tag_189:\n        /* \"#utility.yul\":9670:10112   */\n      swap5\n      swap4\n      pop\n      pop\n      pop\n      pop\n      jump\t// out\n        /* \"#utility.yul\":10118:10340   */\n    tag_31:\n        /* \"#utility.yul\":10211:10215   */\n      0x00\n        /* \"#utility.yul\":10249:10251   */\n      0x20\n        /* \"#utility.yul\":10238:10247   */\n      dup3\n        /* \"#utility.yul\":10234:10252   */\n      add\n        /* \"#utility.yul\":10226:10252   */\n      swap1\n      pop\n        /* \"#utility.yul\":10262:10333   */\n      tag_191\n        /* \"#utility.yul\":10330:10331   */\n      0x00\n        /* \"#utility.yul\":10319:10328   */\n      dup4\n        /* \"#utility.yul\":10315:10332   */\n      add\n        /* \"#utility.yul\":10306:10312   */\n      dup5\n        /* \"#utility.yul\":10262:10333   */\n      tag_68\n      jump\t// in\n    tag_191:\n        /* \"#utility.yul\":10118:10340   */\n      swap3\n      swap2\n      pop\n      pop\n      jump\t// out\n        /* \"UniSwap.sol\":136:339  contract CustomToken is ERC20 {... */\n    tag_13:\n      dataSize(sub_0)\n      dup1\n      dataOffset(sub_0)\n      0x00\n      codecopy\n      0x00\n      return\n    stop\n\n    sub_0: assembly {\n            /* \"UniSwap.sol\":136:339  contract CustomToken is ERC20 {... */\n          mstore(0x40, 0x80)\n          callvalue\n          dup1\n          iszero\n          tag_1\n          jumpi\n          0x00\n          dup1\n          revert\n        tag_1:\n          pop\n          jumpi(tag_2, lt(calldatasize, 0x04))\n          shr(0xe0, calldataload(0x00))\n          dup1\n          0x313ce567\n          gt\n          tag_12\n          jumpi\n          dup1\n          0x313ce567\n          eq\n          tag_7\n          jumpi\n          dup1\n          0x70a08231\n          eq\n          tag_8\n          jumpi\n          dup1\n          0x95d89b41\n          eq\n          tag_9\n          jumpi\n          dup1\n          0xa9059cbb\n          eq\n          tag_10\n          jumpi\n          dup1\n          0xdd62ed3e\n          eq\n          tag_11\n          jumpi\n          jump(tag_2)\n        tag_12:\n          dup1\n          0x06fdde03\n          eq\n          tag_3\n          jumpi\n          dup1\n          0x095ea7b3\n          eq\n          tag_4\n          jumpi\n          dup1\n          0x18160ddd\n          eq\n          tag_5\n          jumpi\n          dup1\n          0x23b872dd\n          eq\n          tag_6\n          jumpi\n        tag_2:\n          0x00\n          dup1\n          revert\n            /* \"@openzeppelin/contracts/token/ERC20/ERC20.sol\":2074:2163  function name() public view virtual returns (string memory) {... */\n        tag_3:\n          tag_13\n          tag_14\n          jump\t// in\n        tag_13:\n          mload(0x40)\n          tag_15\n          swap2\n          swap1\n          tag_16\n          jump\t// in\n        tag_15:\n          mload(0x40)\n          dup1\n          swap2\n          sub\n          swap1\n          return\n            /* \"@openzeppelin/contracts/token/ERC20/ERC20.sol\":4293:4479  function approve(address spender, uint256 value) public virtual returns (bool) {... */\n        tag_4:\n          tag_17\n          0x04\n          dup1\n          calldatasize\n          sub\n          dup2\n          add\n          swap1\n          tag_18\n          swap2\n          swap1\n          tag_19\n          jump\t// in\n        tag_18:\n          tag_20\n          jump\t// in\n        tag_17:\n          mload(0x40)\n          tag_21\n          swap2\n          swap1\n          tag_22\n          jump\t// in\n        tag_21:\n          mload(0x40)\n          dup1\n          swap2\n          sub\n          swap1\n          return\n            /* \"@openzeppelin/contracts/token/ERC20/ERC20.sol\":3144:3241  function totalSupply() public view virtual returns (uint256) {... */\n        tag_5:\n          tag_23\n          tag_24\n          jump\t// in\n        tag_23:\n          mload(0x40)\n          tag_25\n          swap2\n          swap1\n          tag_26\n          jump\t// in\n        tag_25:\n          mload(0x40)\n          dup1\n          swap2\n          sub\n          swap1\n          return\n            /* \"@openzeppelin/contracts/token/ERC20/ERC20.sol\":5039:5283  function transferFrom(address from, address to, uint256 value) public virtual returns (bool) {... */\n        tag_6:\n          tag_27\n          0x04\n          dup1\n          calldatasize\n          sub\n          dup2\n          add\n          swap1\n          tag_28\n          swap2\n          swap1\n          tag_29\n          jump\t// in\n        tag_28:\n          tag_30\n          jump\t// in\n        tag_27:\n          mload(0x40)\n          tag_31\n          swap2\n          swap1\n          tag_22\n          jump\t// in\n        tag_31:\n          mload(0x40)\n          dup1\n          swap2\n          sub\n          swap1\n          return\n            /* \"@openzeppelin/contracts/token/ERC20/ERC20.sol\":3002:3084  function decimals() public view virtual returns (uint8) {... */\n        tag_7:\n          tag_32\n          tag_33\n          jump\t// in\n        tag_32:\n          mload(0x40)\n          tag_34\n          swap2\n          swap1\n          tag_35\n          jump\t// in\n        tag_34:\n          mload(0x40)\n          dup1\n          swap2\n          sub\n          swap1\n          return\n            /* \"@openzeppelin/contracts/token/ERC20/ERC20.sol\":3299:3415  function balanceOf(address account) public view virtual returns (uint256) {... */\n        tag_8:\n          tag_36\n          0x04\n          dup1\n          calldatasize\n          sub\n          dup2\n          add\n          swap1\n          tag_37\n          swap2\n          swap1\n          tag_38\n          jump\t// in\n        tag_37:\n          tag_39\n          jump\t// in\n        tag_36:\n          mload(0x40)\n          tag_40\n          swap2\n          swap1\n          tag_26\n          jump\t// in\n        tag_40:\n          mload(0x40)\n          dup1\n          swap2\n          sub\n          swap1\n          return\n            /* \"@openzeppelin/contracts/token/ERC20/ERC20.sol\":2276:2369  function symbol() public view virtual returns (string memory) {... */\n        tag_9:\n          tag_41\n          tag_42\n          jump\t// in\n        tag_41:\n          mload(0x40)\n          tag_43\n          swap2\n          swap1\n          tag_16\n          jump\t// in\n        tag_43:\n          mload(0x40)\n          dup1\n          swap2\n          sub\n          swap1\n          return\n            /* \"@openzeppelin/contracts/token/ERC20/ERC20.sol\":3610:3788  function transfer(address to, uint256 value) public virtual returns (bool) {... */\n        tag_10:\n          tag_44\n          0x04\n          dup1\n          calldatasize\n          sub\n          dup2\n          add\n          swap1\n          tag_45\n          swap2\n          swap1\n          tag_19\n          jump\t// in\n        tag_45:\n          tag_46\n          jump\t// in\n        tag_44:\n          mload(0x40)\n          tag_47\n          swap2\n          swap1\n          tag_22\n          jump\t// in\n        tag_47:\n          mload(0x40)\n          dup1\n          swap2\n          sub\n          swap1\n          return\n            /* \"@openzeppelin/contracts/token/ERC20/ERC20.sol\":3846:3986  function allowance(address owner, address spender) public view virtual returns (uint256) {... */\n        tag_11:\n          tag_48\n          0x04\n          dup1\n          calldatasize\n          sub\n          dup2\n          add\n          swap1\n          tag_49\n          swap2\n          swap1\n          tag_50\n          jump\t// in\n        tag_49:\n          tag_51\n          jump\t// in\n        tag_48:\n          mload(0x40)\n          tag_52\n          swap2\n          swap1\n          tag_26\n          jump\t// in\n        tag_52:\n          mload(0x40)\n          dup1\n          swap2\n          sub\n          swap1\n          return\n            /* \"@openzeppelin/contracts/token/ERC20/ERC20.sol\":2074:2163  function name() public view virtual returns (string memory) {... */\n        tag_14:\n            /* \"@openzeppelin/contracts/token/ERC20/ERC20.sol\":2119:2132  string memory */\n          0x60\n            /* \"@openzeppelin/contracts/token/ERC20/ERC20.sol\":2151:2156  _name */\n          0x03\n            /* \"@openzeppelin/contracts/token/ERC20/ERC20.sol\":2144:2156  return _name */\n          dup1\n          sload\n          tag_54\n          swap1\n          tag_55\n          jump\t// in\n        tag_54:\n          dup1\n          0x1f\n          add\n          0x20\n          dup1\n          swap2\n          div\n          mul\n          0x20\n          add\n          mload(0x40)\n          swap1\n          dup2\n          add\n          0x40\n          mstore\n          dup1\n          swap3\n          swap2\n          swap1\n          dup2\n          dup2\n          mstore\n          0x20\n          add\n          dup3\n          dup1\n          sload\n          tag_56\n          swap1\n          tag_55\n          jump\t// in\n        tag_56:\n          dup1\n          iszero\n          tag_57\n          jumpi\n          dup1\n          0x1f\n          lt\n          tag_58\n          jumpi\n          0x0100\n          dup1\n          dup4\n          sload\n          div\n          mul\n          dup4\n          mstore\n          swap2\n          0x20\n          add\n          swap2\n          jump(tag_57)\n        tag_58:\n          dup3\n          add\n          swap2\n          swap1\n          0x00\n          mstore\n          keccak256(0x00, 0x20)\n          swap1\n        tag_59:\n          dup2\n          sload\n          dup2\n          mstore\n          swap1\n          0x01\n          add\n          swap1\n          0x20\n          add\n          dup1\n          dup4\n          gt\n          tag_59\n          jumpi\n          dup3\n          swap1\n          sub\n          0x1f\n          and\n          dup3\n          add\n          swap2\n        tag_57:\n          pop\n          pop\n          pop\n          pop\n          pop\n          swap1\n          pop\n            /* \"@openzeppelin/contracts/token/ERC20/ERC20.sol\":2074:2163  function name() public view virtual returns (string memory) {... */\n          swap1\n          jump\t// out\n            /* \"@openzeppelin/contracts/token/ERC20/ERC20.sol\":4293:4479  function approve(address spender, uint256 value) public virtual returns (bool) {... */\n        tag_20:\n            /* \"@openzeppelin/contracts/token/ERC20/ERC20.sol\":4366:4370  bool */\n          0x00\n            /* \"@openzeppelin/contracts/token/ERC20/ERC20.sol\":4382:4395  address owner */\n          dup1\n            /* \"@openzeppelin/contracts/token/ERC20/ERC20.sol\":4398:4410  _msgSender() */\n          tag_61\n            /* \"@openzeppelin/contracts/token/ERC20/ERC20.sol\":4398:4408  _msgSender */\n          tag_62\n            /* \"@openzeppelin/contracts/token/ERC20/ERC20.sol\":4398:4410  _msgSender() */\n          jump\t// in\n        tag_61:\n            /* \"@openzeppelin/contracts/token/ERC20/ERC20.sol\":4382:4410  address owner = _msgSender() */\n          swap1\n          pop\n            /* \"@openzeppelin/contracts/token/ERC20/ERC20.sol\":4420:4451  _approve(owner, spender, value) */\n          tag_63\n            /* \"@openzeppelin/contracts/token/ERC20/ERC20.sol\":4429:4434  owner */\n          dup2\n            /* \"@openzeppelin/contracts/token/ERC20/ERC20.sol\":4436:4443  spender */\n          dup6\n            /* \"@openzeppelin/contracts/token/ERC20/ERC20.sol\":4445:4450  value */\n          dup6\n            /* \"@openzeppelin/contracts/token/ERC20/ERC20.sol\":4420:4428  _approve */\n          tag_64\n            /* \"@openzeppelin/contracts/token/ERC20/ERC20.sol\":4420:4451  _approve(owner, spender, value) */\n          jump\t// in\n        tag_63:\n            /* \"@openzeppelin/contracts/token/ERC20/ERC20.sol\":4468:4472  true */\n          0x01\n            /* \"@openzeppelin/contracts/token/ERC20/ERC20.sol\":4461:4472  return true */\n          swap2\n          pop\n          pop\n            /* \"@openzeppelin/contracts/token/ERC20/ERC20.sol\":4293:4479  function approve(address spender, uint256 value) public virtual returns (bool) {... */\n          swap3\n          swap2\n          pop\n          pop\n          jump\t// out\n            /* \"@openzeppelin/contracts/token/ERC20/ERC20.sol\":3144:3241  function totalSupply() public view virtual returns (uint256) {... */\n        tag_24:\n            /* \"@openzeppelin/contracts/token/ERC20/ERC20.sol\":3196:3203  uint256 */\n          0x00\n            /* \"@openzeppelin/contracts/token/ERC20/ERC20.sol\":3222:3234  _totalSupply */\n          sload(0x02)\n            /* \"@openzeppelin/contracts/token/ERC20/ERC20.sol\":3215:3234  return _totalSupply */\n          swap1\n          pop\n            /* \"@openzeppelin/contracts/token/ERC20/ERC20.sol\":3144:3241  function totalSupply() public view virtual returns (uint256) {... */\n          swap1\n          jump\t// out\n            /* \"@openzeppelin/contracts/token/ERC20/ERC20.sol\":5039:5283  function transferFrom(address from, address to, uint256 value) public virtual returns (bool) {... */\n        tag_30:\n            /* \"@openzeppelin/contracts/token/ERC20/ERC20.sol\":5126:5130  bool */\n          0x00\n            /* \"@openzeppelin/contracts/token/ERC20/ERC20.sol\":5142:5157  address spender */\n          dup1\n            /* \"@openzeppelin/contracts/token/ERC20/ERC20.sol\":5160:5172  _msgSender() */\n          tag_67\n            /* \"@openzeppelin/contracts/token/ERC20/ERC20.sol\":5160:5170  _msgSender */\n          tag_62\n            /* \"@openzeppelin/contracts/token/ERC20/ERC20.sol\":5160:5172  _msgSender() */\n          jump\t// in\n        tag_67:\n            /* \"@openzeppelin/contracts/token/ERC20/ERC20.sol\":5142:5172  address spender = _msgSender() */\n          swap1\n          pop\n            /* \"@openzeppelin/contracts/token/ERC20/ERC20.sol\":5182:5219  _spendAllowance(from, spender, value) */\n          tag_68\n            /* \"@openzeppelin/contracts/token/ERC20/ERC20.sol\":5198:5202  from */\n          dup6\n            /* \"@openzeppelin/contracts/token/ERC20/ERC20.sol\":5204:5211  spender */\n          dup3\n            /* \"@openzeppelin/contracts/token/ERC20/ERC20.sol\":5213:5218  value */\n          dup6\n            /* \"@openzeppelin/contracts/token/ERC20/ERC20.sol\":5182:5197  _spendAllowance */\n          tag_69\n            /* \"@openzeppelin/contracts/token/ERC20/ERC20.sol\":5182:5219  _spendAllowance(from, spender, value) */\n          jump\t// in\n        tag_68:\n            /* \"@openzeppelin/contracts/token/ERC20/ERC20.sol\":5229:5255  _transfer(from, to, value) */\n          tag_70\n            /* \"@openzeppelin/contracts/token/ERC20/ERC20.sol\":5239:5243  from */\n          dup6\n            /* \"@openzeppelin/contracts/token/ERC20/ERC20.sol\":5245:5247  to */\n          dup6\n            /* \"@openzeppelin/contracts/token/ERC20/ERC20.sol\":5249:5254  value */\n          dup6\n            /* \"@openzeppelin/contracts/token/ERC20/ERC20.sol\":5229:5238  _transfer */\n          tag_71\n            /* \"@openzeppelin/contracts/token/ERC20/ERC20.sol\":5229:5255  _transfer(from, to, value) */\n          jump\t// in\n        tag_70:\n            /* \"@openzeppelin/contracts/token/ERC20/ERC20.sol\":5272:5276  true */\n          0x01\n            /* \"@openzeppelin/contracts/token/ERC20/ERC20.sol\":5265:5276  return true */\n          swap2\n          pop\n          pop\n            /* \"@openzeppelin/contracts/token/ERC20/ERC20.sol\":5039:5283  function transferFrom(address from, address to, uint256 value) public virtual returns (bool) {... */\n          swap4\n          swap3\n          pop\n          pop\n          pop\n          jump\t// out\n            /* \"@openzeppelin/contracts/token/ERC20/ERC20.sol\":3002:3084  function decimals() public view virtual returns (uint8) {... */\n        tag_33:\n            /* \"@openzeppelin/contracts/token/ERC20/ERC20.sol\":3051:3056  uint8 */\n          0x00\n            /* \"@openzeppelin/contracts/token/ERC20/ERC20.sol\":3075:3077  18 */\n          0x12\n            /* \"@openzeppelin/contracts/token/ERC20/ERC20.sol\":3068:3077  return 18 */\n          swap1\n          pop\n            /* \"@openzeppelin/contracts/token/ERC20/ERC20.sol\":3002:3084  function decimals() public view virtual returns (uint8) {... */\n          swap1\n          jump\t// out\n            /* \"@openzeppelin/contracts/token/ERC20/ERC20.sol\":3299:3415  function balanceOf(address account) public view virtual returns (uint256) {... */\n        tag_39:\n            /* \"@openzeppelin/contracts/token/ERC20/ERC20.sol\":3364:3371  uint256 */\n          0x00\n            /* \"@openzeppelin/contracts/token/ERC20/ERC20.sol\":3390:3399  _balances */\n          dup1\n            /* \"@openzeppelin/contracts/token/ERC20/ERC20.sol\":3390:3408  _balances[account] */\n          0x00\n            /* \"@openzeppelin/contracts/token/ERC20/ERC20.sol\":3400:3407  account */\n          dup4\n            /* \"@openzeppelin/contracts/token/ERC20/ERC20.sol\":3390:3408  _balances[account] */\n          0xffffffffffffffffffffffffffffffffffffffff\n          and\n          0xffffffffffffffffffffffffffffffffffffffff\n          and\n          dup2\n          mstore\n          0x20\n          add\n          swap1\n          dup2\n          mstore\n          0x20\n          add\n          0x00\n          keccak256\n          sload\n            /* \"@openzeppelin/contracts/token/ERC20/ERC20.sol\":3383:3408  return _balances[account] */\n          swap1\n          pop\n            /* \"@openzeppelin/contracts/token/ERC20/ERC20.sol\":3299:3415  function balanceOf(address account) public view virtual returns (uint256) {... */\n          swap2\n          swap1\n          pop\n          jump\t// out\n            /* \"@openzeppelin/contracts/token/ERC20/ERC20.sol\":2276:2369  function symbol() public view virtual returns (string memory) {... */\n        tag_42:\n            /* \"@openzeppelin/contracts/token/ERC20/ERC20.sol\":2323:2336  string memory */\n          0x60\n            /* \"@openzeppelin/contracts/token/ERC20/ERC20.sol\":2355:2362  _symbol */\n          0x04\n            /* \"@openzeppelin/contracts/token/ERC20/ERC20.sol\":2348:2362  return _symbol */\n          dup1\n          sload\n          tag_75\n          swap1\n          tag_55\n          jump\t// in\n        tag_75:\n          dup1\n          0x1f\n          add\n          0x20\n          dup1\n          swap2\n          div\n          mul\n          0x20\n          add\n          mload(0x40)\n          swap1\n          dup2\n          add\n          0x40\n          mstore\n          dup1\n          swap3\n          swap2\n          swap1\n          dup2\n          dup2\n          mstore\n          0x20\n          add\n          dup3\n          dup1\n          sload\n          tag_76\n          swap1\n          tag_55\n          jump\t// in\n        tag_76:\n          dup1\n          iszero\n          tag_77\n          jumpi\n          dup1\n          0x1f\n          lt\n          tag_78\n          jumpi\n          0x0100\n          dup1\n          dup4\n          sload\n          div\n          mul\n          dup4\n          mstore\n          swap2\n          0x20\n          add\n          swap2\n          jump(tag_77)\n        tag_78:\n          dup3\n          add\n          swap2\n          swap1\n          0x00\n          mstore\n          keccak256(0x00, 0x20)\n          swap1\n        tag_79:\n          dup2\n          sload\n          dup2\n          mstore\n          swap1\n          0x01\n          add\n          swap1\n          0x20\n          add\n          dup1\n          dup4\n          gt\n          tag_79\n          jumpi\n          dup3\n          swap1\n          sub\n          0x1f\n          and\n          dup3\n          add\n          swap2\n        tag_77:\n          pop\n          pop\n          pop\n          pop\n          pop\n          swap1\n          pop\n            /* \"@openzeppelin/contracts/token/ERC20/ERC20.sol\":2276:2369  function symbol() public view virtual returns (string memory) {... */\n          swap1\n          jump\t// out\n            /* \"@openzeppelin/contracts/token/ERC20/ERC20.sol\":3610:3788  function transfer(address to, uint256 value) public virtual returns (bool) {... */\n        tag_46:\n            /* \"@openzeppelin/contracts/token/ERC20/ERC20.sol\":3679:3683  bool */\n          0x00\n            /* \"@openzeppelin/contracts/token/ERC20/ERC20.sol\":3695:3708  address owner */\n          dup1\n            /* \"@openzeppelin/contracts/token/ERC20/ERC20.sol\":3711:3723  _msgSender() */\n          tag_81\n            /* \"@openzeppelin/contracts/token/ERC20/ERC20.sol\":3711:3721  _msgSender */\n          tag_62\n            /* \"@openzeppelin/contracts/token/ERC20/ERC20.sol\":3711:3723  _msgSender() */\n          jump\t// in\n        tag_81:\n            /* \"@openzeppelin/contracts/token/ERC20/ERC20.sol\":3695:3723  address owner = _msgSender() */\n          swap1\n          pop\n            /* \"@openzeppelin/contracts/token/ERC20/ERC20.sol\":3733:3760  _transfer(owner, to, value) */\n          tag_82\n            /* \"@openzeppelin/contracts/token/ERC20/ERC20.sol\":3743:3748  owner */\n          dup2\n            /* \"@openzeppelin/contracts/token/ERC20/ERC20.sol\":3750:3752  to */\n          dup6\n            /* \"@openzeppelin/contracts/token/ERC20/ERC20.sol\":3754:3759  value */\n          dup6\n            /* \"@openzeppelin/contracts/token/ERC20/ERC20.sol\":3733:3742  _transfer */\n          tag_71\n            /* \"@openzeppelin/contracts/token/ERC20/ERC20.sol\":3733:3760  _transfer(owner, to, value) */\n          jump\t// in\n        tag_82:\n            /* \"@openzeppelin/contracts/token/ERC20/ERC20.sol\":3777:3781  true */\n          0x01\n            /* \"@openzeppelin/contracts/token/ERC20/ERC20.sol\":3770:3781  return true */\n          swap2\n          pop\n          pop\n            /* \"@openzeppelin/contracts/token/ERC20/ERC20.sol\":3610:3788  function transfer(address to, uint256 value) public virtual returns (bool) {... */\n          swap3\n          swap2\n          pop\n          pop\n          jump\t// out\n            /* \"@openzeppelin/contracts/token/ERC20/ERC20.sol\":3846:3986  function allowance(address owner, address spender) public view virtual returns (uint256) {... */\n        tag_51:\n            /* \"@openzeppelin/contracts/token/ERC20/ERC20.sol\":3926:3933  uint256 */\n          0x00\n            /* \"@openzeppelin/contracts/token/ERC20/ERC20.sol\":3952:3963  _allowances */\n          0x01\n            /* \"@openzeppelin/contracts/token/ERC20/ERC20.sol\":3952:3970  _allowances[owner] */\n          0x00\n            /* \"@openzeppelin/contracts/token/ERC20/ERC20.sol\":3964:3969  owner */\n          dup5\n            /* \"@openzeppelin/contracts/token/ERC20/ERC20.sol\":3952:3970  _allowances[owner] */\n          0xffffffffffffffffffffffffffffffffffffffff\n          and\n          0xffffffffffffffffffffffffffffffffffffffff\n          and\n          dup2\n          mstore\n          0x20\n          add\n          swap1\n          dup2\n          mstore\n          0x20\n          add\n          0x00\n          keccak256\n            /* \"@openzeppelin/contracts/token/ERC20/ERC20.sol\":3952:3979  _allowances[owner][spender] */\n          0x00\n            /* \"@openzeppelin/contracts/token/ERC20/ERC20.sol\":3971:3978  spender */\n          dup4\n            /* \"@openzeppelin/contracts/token/ERC20/ERC20.sol\":3952:3979  _allowances[owner][spender] */\n          0xffffffffffffffffffffffffffffffffffffffff\n          and\n          0xffffffffffffffffffffffffffffffffffffffff\n          and\n          dup2\n          mstore\n          0x20\n          add\n          swap1\n          dup2\n          mstore\n          0x20\n          add\n          0x00\n          keccak256\n          sload\n            /* \"@openzeppelin/contracts/token/ERC20/ERC20.sol\":3945:3979  return _allowances[owner][spender] */\n          swap1\n          pop\n            /* \"@openzeppelin/contracts/token/ERC20/ERC20.sol\":3846:3986  function allowance(address owner, address spender) public view virtual returns (uint256) {... */\n          swap3\n          swap2\n          pop\n          pop\n          jump\t// out\n            /* \"@openzeppelin/contracts/utils/Context.sol\":656:752  function _msgSender() internal view virtual returns (address) {... */\n        tag_62:\n            /* \"@openzeppelin/contracts/utils/Context.sol\":709:716  address */\n          0x00\n            /* \"@openzeppelin/contracts/utils/Context.sol\":735:745  msg.sender */\n          caller\n            /* \"@openzeppelin/contracts/utils/Context.sol\":728:745  return msg.sender */\n          swap1\n          pop\n            /* \"@openzeppelin/contracts/utils/Context.sol\":656:752  function _msgSender() internal view virtual returns (address) {... */\n          swap1\n          jump\t// out\n            /* \"@openzeppelin/contracts/token/ERC20/ERC20.sol\":8989:9117  function _approve(address owner, address spender, uint256 value) internal {... */\n        tag_64:\n            /* \"@openzeppelin/contracts/token/ERC20/ERC20.sol\":9073:9110  _approve(owner, spender, value, true) */\n          tag_86\n            /* \"@openzeppelin/contracts/token/ERC20/ERC20.sol\":9082:9087  owner */\n          dup4\n            /* \"@openzeppelin/contracts/token/ERC20/ERC20.sol\":9089:9096  spender */\n          dup4\n            /* \"@openzeppelin/contracts/token/ERC20/ERC20.sol\":9098:9103  value */\n          dup4\n            /* \"@openzeppelin/contracts/token/ERC20/ERC20.sol\":9105:9109  true */\n          0x01\n            /* \"@openzeppelin/contracts/token/ERC20/ERC20.sol\":9073:9081  _approve */\n          tag_87\n            /* \"@openzeppelin/contracts/token/ERC20/ERC20.sol\":9073:9110  _approve(owner, spender, value, true) */\n          jump\t// in\n        tag_86:\n            /* \"@openzeppelin/contracts/token/ERC20/ERC20.sol\":8989:9117  function _approve(address owner, address spender, uint256 value) internal {... */\n          pop\n          pop\n          pop\n          jump\t// out\n            /* \"@openzeppelin/contracts/token/ERC20/ERC20.sol\":10663:11140  function _spendAllowance(address owner, address spender, uint256 value) internal virtual {... */\n        tag_69:\n            /* \"@openzeppelin/contracts/token/ERC20/ERC20.sol\":10762:10786  uint256 currentAllowance */\n          0x00\n            /* \"@openzeppelin/contracts/token/ERC20/ERC20.sol\":10789:10814  allowance(owner, spender) */\n          tag_89\n            /* \"@openzeppelin/contracts/token/ERC20/ERC20.sol\":10799:10804  owner */\n          dup5\n            /* \"@openzeppelin/contracts/token/ERC20/ERC20.sol\":10806:10813  spender */\n          dup5\n            /* \"@openzeppelin/contracts/token/ERC20/ERC20.sol\":10789:10798  allowance */\n          tag_51\n            /* \"@openzeppelin/contracts/token/ERC20/ERC20.sol\":10789:10814  allowance(owner, spender) */\n          jump\t// in\n        tag_89:\n            /* \"@openzeppelin/contracts/token/ERC20/ERC20.sol\":10762:10814  uint256 currentAllowance = allowance(owner, spender) */\n          swap1\n          pop\n            /* \"@openzeppelin/contracts/token/ERC20/ERC20.sol\":10848:10865  type(uint256).max */\n          0xffffffffffffffffffffffffffffffffffffffffffffffffffffffffffffffff\n            /* \"@openzeppelin/contracts/token/ERC20/ERC20.sol\":10828:10844  currentAllowance */\n          dup2\n            /* \"@openzeppelin/contracts/token/ERC20/ERC20.sol\":10828:10865  currentAllowance != type(uint256).max */\n          eq\n            /* \"@openzeppelin/contracts/token/ERC20/ERC20.sol\":10824:11134  if (currentAllowance != type(uint256).max) {... */\n          tag_90\n          jumpi\n            /* \"@openzeppelin/contracts/token/ERC20/ERC20.sol\":10904:10909  value */\n          dup2\n            /* \"@openzeppelin/contracts/token/ERC20/ERC20.sol\":10885:10901  currentAllowance */\n          dup2\n            /* \"@openzeppelin/contracts/token/ERC20/ERC20.sol\":10885:10909  currentAllowance < value */\n          lt\n            /* \"@openzeppelin/contracts/token/ERC20/ERC20.sol\":10881:11011  if (currentAllowance < value) {... */\n          iszero\n          tag_91\n          jumpi\n            /* \"@openzeppelin/contracts/token/ERC20/ERC20.sol\":10963:10970  spender */\n          dup3\n            /* \"@openzeppelin/contracts/token/ERC20/ERC20.sol\":10972:10988  currentAllowance */\n          dup2\n            /* \"@openzeppelin/contracts/token/ERC20/ERC20.sol\":10990:10995  value */\n          dup4\n            /* \"@openzeppelin/contracts/token/ERC20/ERC20.sol\":10936:10996  ERC20InsufficientAllowance(spender, currentAllowance, value) */\n          mload(0x40)\n          0xfb8f41b200000000000000000000000000000000000000000000000000000000\n          dup2\n          mstore\n          0x04\n          add\n          tag_92\n          swap4\n          swap3\n          swap2\n          swap1\n          tag_93\n          jump\t// in\n        tag_92:\n          mload(0x40)\n          dup1\n          swap2\n          sub\n          swap1\n          revert\n            /* \"@openzeppelin/contracts/token/ERC20/ERC20.sol\":10881:11011  if (currentAllowance < value) {... */\n        tag_91:\n            /* \"@openzeppelin/contracts/token/ERC20/ERC20.sol\":11052:11109  _approve(owner, spender, currentAllowance - value, false) */\n          tag_94\n            /* \"@openzeppelin/contracts/token/ERC20/ERC20.sol\":11061:11066  owner */\n          dup5\n            /* \"@openzeppelin/contracts/token/ERC20/ERC20.sol\":11068:11075  spender */\n          dup5\n            /* \"@openzeppelin/contracts/token/ERC20/ERC20.sol\":11096:11101  value */\n          dup5\n            /* \"@openzeppelin/contracts/token/ERC20/ERC20.sol\":11077:11093  currentAllowance */\n          dup5\n            /* \"@openzeppelin/contracts/token/ERC20/ERC20.sol\":11077:11101  currentAllowance - value */\n          sub\n            /* \"@openzeppelin/contracts/token/ERC20/ERC20.sol\":11103:11108  false */\n          0x00\n            /* \"@openzeppelin/contracts/token/ERC20/ERC20.sol\":11052:11060  _approve */\n          tag_87\n            /* \"@openzeppelin/contracts/token/ERC20/ERC20.sol\":11052:11109  _approve(owner, spender, currentAllowance - value, false) */\n          jump\t// in\n        tag_94:\n            /* \"@openzeppelin/contracts/token/ERC20/ERC20.sol\":10824:11134  if (currentAllowance != type(uint256).max) {... */\n        tag_90:\n            /* \"@openzeppelin/contracts/token/ERC20/ERC20.sol\":10752:11140  {... */\n          pop\n            /* \"@openzeppelin/contracts/token/ERC20/ERC20.sol\":10663:11140  function _spendAllowance(address owner, address spender, uint256 value) internal virtual {... */\n          pop\n          pop\n          pop\n          jump\t// out\n            /* \"@openzeppelin/contracts/token/ERC20/ERC20.sol\":5656:5956  function _transfer(address from, address to, uint256 value) internal {... */\n        tag_71:\n            /* \"@openzeppelin/contracts/token/ERC20/ERC20.sol\":5755:5756  0 */\n          0x00\n            /* \"@openzeppelin/contracts/token/ERC20/ERC20.sol\":5739:5757  from == address(0) */\n          0xffffffffffffffffffffffffffffffffffffffff\n          and\n            /* \"@openzeppelin/contracts/token/ERC20/ERC20.sol\":5739:5743  from */\n          dup4\n            /* \"@openzeppelin/contracts/token/ERC20/ERC20.sol\":5739:5757  from == address(0) */\n          0xffffffffffffffffffffffffffffffffffffffff\n          and\n          sub\n            /* \"@openzeppelin/contracts/token/ERC20/ERC20.sol\":5735:5821  if (from == address(0)) {... */\n          tag_96\n          jumpi\n            /* \"@openzeppelin/contracts/token/ERC20/ERC20.sol\":5807:5808  0 */\n          0x00\n            /* \"@openzeppelin/contracts/token/ERC20/ERC20.sol\":5780:5810  ERC20InvalidSender(address(0)) */\n          mload(0x40)\n          0x96c6fd1e00000000000000000000000000000000000000000000000000000000\n          dup2\n          mstore\n          0x04\n          add\n          tag_97\n          swap2\n          swap1\n          tag_98\n          jump\t// in\n        tag_97:\n          mload(0x40)\n          dup1\n          swap2\n          sub\n          swap1\n          revert\n            /* \"@openzeppelin/contracts/token/ERC20/ERC20.sol\":5735:5821  if (from == address(0)) {... */\n        tag_96:\n            /* \"@openzeppelin/contracts/token/ERC20/ERC20.sol\":5848:5849  0 */\n          0x00\n            /* \"@openzeppelin/contracts/token/ERC20/ERC20.sol\":5834:5850  to == address(0) */\n          0xffffffffffffffffffffffffffffffffffffffff\n          and\n            /* \"@openzeppelin/contracts/token/ERC20/ERC20.sol\":5834:5836  to */\n          dup3\n            /* \"@openzeppelin/contracts/token/ERC20/ERC20.sol\":5834:5850  to == address(0) */\n          0xffffffffffffffffffffffffffffffffffffffff\n          and\n          sub\n            /* \"@openzeppelin/contracts/token/ERC20/ERC20.sol\":5830:5916  if (to == address(0)) {... */\n          tag_99\n          jumpi\n            /* \"@openzeppelin/contracts/token/ERC20/ERC20.sol\":5902:5903  0 */\n          0x00\n            /* \"@openzeppelin/contracts/token/ERC20/ERC20.sol\":5873:5905  ERC20InvalidReceiver(address(0)) */\n          mload(0x40)\n          0xec442f0500000000000000000000000000000000000000000000000000000000\n          dup2\n          mstore\n          0x04\n          add\n          tag_100\n          swap2\n          swap1\n          tag_98\n          jump\t// in\n        tag_100:\n          mload(0x40)\n          dup1\n          swap2\n          sub\n          swap1\n          revert\n            /* \"@openzeppelin/contracts/token/ERC20/ERC20.sol\":5830:5916  if (to == address(0)) {... */\n        tag_99:\n            /* \"@openzeppelin/contracts/token/ERC20/ERC20.sol\":5925:5949  _update(from, to, value) */\n          tag_101\n            /* \"@openzeppelin/contracts/token/ERC20/ERC20.sol\":5933:5937  from */\n          dup4\n            /* \"@openzeppelin/contracts/token/ERC20/ERC20.sol\":5939:5941  to */\n          dup4\n            /* \"@openzeppelin/contracts/token/ERC20/ERC20.sol\":5943:5948  value */\n          dup4\n            /* \"@openzeppelin/contracts/token/ERC20/ERC20.sol\":5925:5932  _update */\n          tag_102\n            /* \"@openzeppelin/contracts/token/ERC20/ERC20.sol\":5925:5949  _update(from, to, value) */\n          jump\t// in\n        tag_101:\n            /* \"@openzeppelin/contracts/token/ERC20/ERC20.sol\":5656:5956  function _transfer(address from, address to, uint256 value) internal {... */\n          pop\n          pop\n          pop\n          jump\t// out\n            /* \"@openzeppelin/contracts/token/ERC20/ERC20.sol\":9949:10381  function _approve(address owner, address spender, uint256 value, bool emitEvent) internal virtual {... */\n        tag_87:\n            /* \"@openzeppelin/contracts/token/ERC20/ERC20.sol\":10078:10079  0 */\n          0x00\n            /* \"@openzeppelin/contracts/token/ERC20/ERC20.sol\":10061:10080  owner == address(0) */\n          0xffffffffffffffffffffffffffffffffffffffff\n          and\n            /* \"@openzeppelin/contracts/token/ERC20/ERC20.sol\":10061:10066  owner */\n          dup5\n            /* \"@openzeppelin/contracts/token/ERC20/ERC20.sol\":10061:10080  owner == address(0) */\n          0xffffffffffffffffffffffffffffffffffffffff\n          and\n          sub\n            /* \"@openzeppelin/contracts/token/ERC20/ERC20.sol\":10057:10146  if (owner == address(0)) {... */\n          tag_104\n          jumpi\n            /* \"@openzeppelin/contracts/token/ERC20/ERC20.sol\":10132:10133  0 */\n          0x00\n            /* \"@openzeppelin/contracts/token/ERC20/ERC20.sol\":10103:10135  ERC20InvalidApprover(address(0)) */\n          mload(0x40)\n          0xe602df0500000000000000000000000000000000000000000000000000000000\n          dup2\n          mstore\n          0x04\n          add\n          tag_105\n          swap2\n          swap1\n          tag_98\n          jump\t// in\n        tag_105:\n          mload(0x40)\n          dup1\n          swap2\n          sub\n          swap1\n          revert\n            /* \"@openzeppelin/contracts/token/ERC20/ERC20.sol\":10057:10146  if (owner == address(0)) {... */\n        tag_104:\n            /* \"@openzeppelin/contracts/token/ERC20/ERC20.sol\":10178:10179  0 */\n          0x00\n            /* \"@openzeppelin/contracts/token/ERC20/ERC20.sol\":10159:10180  spender == address(0) */\n          0xffffffffffffffffffffffffffffffffffffffff\n          and\n            /* \"@openzeppelin/contracts/token/ERC20/ERC20.sol\":10159:10166  spender */\n          dup4\n            /* \"@openzeppelin/contracts/token/ERC20/ERC20.sol\":10159:10180  spender == address(0) */\n          0xffffffffffffffffffffffffffffffffffffffff\n          and\n          sub\n            /* \"@openzeppelin/contracts/token/ERC20/ERC20.sol\":10155:10245  if (spender == address(0)) {... */\n          tag_106\n          jumpi\n            /* \"@openzeppelin/contracts/token/ERC20/ERC20.sol\":10231:10232  0 */\n          0x00\n            /* \"@openzeppelin/contracts/token/ERC20/ERC20.sol\":10203:10234  ERC20InvalidSpender(address(0)) */\n          mload(0x40)\n          0x94280d6200000000000000000000000000000000000000000000000000000000\n          dup2\n          mstore\n          0x04\n          add\n          tag_107\n          swap2\n          swap1\n          tag_98\n          jump\t// in\n        tag_107:\n          mload(0x40)\n          dup1\n          swap2\n          sub\n          swap1\n          revert\n            /* \"@openzeppelin/contracts/token/ERC20/ERC20.sol\":10155:10245  if (spender == address(0)) {... */\n        tag_106:\n            /* \"@openzeppelin/contracts/token/ERC20/ERC20.sol\":10284:10289  value */\n          dup2\n            /* \"@openzeppelin/contracts/token/ERC20/ERC20.sol\":10254:10265  _allowances */\n          0x01\n            /* \"@openzeppelin/contracts/token/ERC20/ERC20.sol\":10254:10272  _allowances[owner] */\n          0x00\n            /* \"@openzeppelin/contracts/token/ERC20/ERC20.sol\":10266:10271  owner */\n          dup7\n            /* \"@openzeppelin/contracts/token/ERC20/ERC20.sol\":10254:10272  _allowances[owner] */\n          0xffffffffffffffffffffffffffffffffffffffff\n          and\n          0xffffffffffffffffffffffffffffffffffffffff\n          and\n          dup2\n          mstore\n          0x20\n          add\n          swap1\n          dup2\n          mstore\n          0x20\n          add\n          0x00\n          keccak256\n            /* \"@openzeppelin/contracts/token/ERC20/ERC20.sol\":10254:10281  _allowances[owner][spender] */\n          0x00\n            /* \"@openzeppelin/contracts/token/ERC20/ERC20.sol\":10273:10280  spender */\n          dup6\n            /* \"@openzeppelin/contracts/token/ERC20/ERC20.sol\":10254:10281  _allowances[owner][spender] */\n          0xffffffffffffffffffffffffffffffffffffffff\n          and\n          0xffffffffffffffffffffffffffffffffffffffff\n          and\n          dup2\n          mstore\n          0x20\n          add\n          swap1\n          dup2\n          mstore\n          0x20\n          add\n          0x00\n          keccak256\n            /* \"@openzeppelin/contracts/token/ERC20/ERC20.sol\":10254:10289  _allowances[owner][spender] = value */\n          dup2\n          swap1\n          sstore\n          pop\n            /* \"@openzeppelin/contracts/token/ERC20/ERC20.sol\":10303:10312  emitEvent */\n          dup1\n            /* \"@openzeppelin/contracts/token/ERC20/ERC20.sol\":10299:10375  if (emitEvent) {... */\n          iszero\n          tag_108\n          jumpi\n            /* \"@openzeppelin/contracts/token/ERC20/ERC20.sol\":10349:10356  spender */\n          dup3\n            /* \"@openzeppelin/contracts/token/ERC20/ERC20.sol\":10333:10364  Approval(owner, spender, value) */\n          0xffffffffffffffffffffffffffffffffffffffff\n          and\n            /* \"@openzeppelin/contracts/token/ERC20/ERC20.sol\":10342:10347  owner */\n          dup5\n            /* \"@openzeppelin/contracts/token/ERC20/ERC20.sol\":10333:10364  Approval(owner, spender, value) */\n          0xffffffffffffffffffffffffffffffffffffffff\n          and\n          0x8c5be1e5ebec7d5bd14f71427d1e84f3dd0314c0f7b2291e5b200ac8c7c3b925\n            /* \"@openzeppelin/contracts/token/ERC20/ERC20.sol\":10358:10363  value */\n          dup5\n            /* \"@openzeppelin/contracts/token/ERC20/ERC20.sol\":10333:10364  Approval(owner, spender, value) */\n          mload(0x40)\n          tag_109\n          swap2\n          swap1\n          tag_26\n          jump\t// in\n        tag_109:\n          mload(0x40)\n          dup1\n          swap2\n          sub\n          swap1\n          log3\n            /* \"@openzeppelin/contracts/token/ERC20/ERC20.sol\":10299:10375  if (emitEvent) {... */\n        tag_108:\n            /* \"@openzeppelin/contracts/token/ERC20/ERC20.sol\":9949:10381  function _approve(address owner, address spender, uint256 value, bool emitEvent) internal virtual {... */\n          pop\n          pop\n          pop\n          pop\n          jump\t// out\n            /* \"@openzeppelin/contracts/token/ERC20/ERC20.sol\":6271:7378  function _update(address from, address to, uint256 value) internal virtual {... */\n        tag_102:\n            /* \"@openzeppelin/contracts/token/ERC20/ERC20.sol\":6376:6377  0 */\n          0x00\n            /* \"@openzeppelin/contracts/token/ERC20/ERC20.sol\":6360:6378  from == address(0) */\n          0xffffffffffffffffffffffffffffffffffffffff\n          and\n            /* \"@openzeppelin/contracts/token/ERC20/ERC20.sol\":6360:6364  from */\n          dup4\n            /* \"@openzeppelin/contracts/token/ERC20/ERC20.sol\":6360:6378  from == address(0) */\n          0xffffffffffffffffffffffffffffffffffffffff\n          and\n          sub\n            /* \"@openzeppelin/contracts/token/ERC20/ERC20.sol\":6356:6896  if (from == address(0)) {... */\n          tag_111\n          jumpi\n            /* \"@openzeppelin/contracts/token/ERC20/ERC20.sol\":6512:6517  value */\n          dup1\n            /* \"@openzeppelin/contracts/token/ERC20/ERC20.sol\":6496:6508  _totalSupply */\n          0x02\n          0x00\n            /* \"@openzeppelin/contracts/token/ERC20/ERC20.sol\":6496:6517  _totalSupply += value */\n          dup3\n          dup3\n          sload\n          tag_112\n          swap2\n          swap1\n          tag_113\n          jump\t// in\n        tag_112:\n          swap3\n          pop\n          pop\n          dup2\n          swap1\n          sstore\n          pop\n            /* \"@openzeppelin/contracts/token/ERC20/ERC20.sol\":6356:6896  if (from == address(0)) {... */\n          jump(tag_114)\n        tag_111:\n            /* \"@openzeppelin/contracts/token/ERC20/ERC20.sol\":6548:6567  uint256 fromBalance */\n          0x00\n            /* \"@openzeppelin/contracts/token/ERC20/ERC20.sol\":6570:6579  _balances */\n          dup1\n            /* \"@openzeppelin/contracts/token/ERC20/ERC20.sol\":6570:6585  _balances[from] */\n          0x00\n            /* \"@openzeppelin/contracts/token/ERC20/ERC20.sol\":6580:6584  from */\n          dup6\n            /* \"@openzeppelin/contracts/token/ERC20/ERC20.sol\":6570:6585  _balances[from] */\n          0xffffffffffffffffffffffffffffffffffffffff\n          and\n          0xffffffffffffffffffffffffffffffffffffffff\n          and\n          dup2\n          mstore\n          0x20\n          add\n          swap1\n          dup2\n          mstore\n          0x20\n          add\n          0x00\n          keccak256\n          sload\n            /* \"@openzeppelin/contracts/token/ERC20/ERC20.sol\":6548:6585  uint256 fromBalance = _balances[from] */\n          swap1\n          pop\n            /* \"@openzeppelin/contracts/token/ERC20/ERC20.sol\":6617:6622  value */\n          dup2\n            /* \"@openzeppelin/contracts/token/ERC20/ERC20.sol\":6603:6614  fromBalance */\n          dup2\n            /* \"@openzeppelin/contracts/token/ERC20/ERC20.sol\":6603:6622  fromBalance < value */\n          lt\n            /* \"@openzeppelin/contracts/token/ERC20/ERC20.sol\":6599:6714  if (fromBalance < value) {... */\n          iszero\n          tag_115\n          jumpi\n            /* \"@openzeppelin/contracts/token/ERC20/ERC20.sol\":6674:6678  from */\n          dup4\n            /* \"@openzeppelin/contracts/token/ERC20/ERC20.sol\":6680:6691  fromBalance */\n          dup2\n            /* \"@openzeppelin/contracts/token/ERC20/ERC20.sol\":6693:6698  value */\n          dup4\n            /* \"@openzeppelin/contracts/token/ERC20/ERC20.sol\":6649:6699  ERC20InsufficientBalance(from, fromBalance, value) */\n          mload(0x40)\n          0xe450d38c00000000000000000000000000000000000000000000000000000000\n          dup2\n          mstore\n          0x04\n          add\n          tag_116\n          swap4\n          swap3\n          swap2\n          swap1\n          tag_93\n          jump\t// in\n        tag_116:\n          mload(0x40)\n          dup1\n          swap2\n          sub\n          swap1\n          revert\n            /* \"@openzeppelin/contracts/token/ERC20/ERC20.sol\":6599:6714  if (fromBalance < value) {... */\n        tag_115:\n            /* \"@openzeppelin/contracts/token/ERC20/ERC20.sol\":6866:6871  value */\n          dup2\n            /* \"@openzeppelin/contracts/token/ERC20/ERC20.sol\":6852:6863  fromBalance */\n          dup2\n            /* \"@openzeppelin/contracts/token/ERC20/ERC20.sol\":6852:6871  fromBalance - value */\n          sub\n            /* \"@openzeppelin/contracts/token/ERC20/ERC20.sol\":6834:6843  _balances */\n          0x00\n            /* \"@openzeppelin/contracts/token/ERC20/ERC20.sol\":6834:6849  _balances[from] */\n          dup1\n            /* \"@openzeppelin/contracts/token/ERC20/ERC20.sol\":6844:6848  from */\n          dup7\n            /* \"@openzeppelin/contracts/token/ERC20/ERC20.sol\":6834:6849  _balances[from] */\n          0xffffffffffffffffffffffffffffffffffffffff\n          and\n          0xffffffffffffffffffffffffffffffffffffffff\n          and\n          dup2\n          mstore\n          0x20\n          add\n          swap1\n          dup2\n          mstore\n          0x20\n          add\n          0x00\n          keccak256\n            /* \"@openzeppelin/contracts/token/ERC20/ERC20.sol\":6834:6871  _balances[from] = fromBalance - value */\n          dup2\n          swap1\n          sstore\n          pop\n            /* \"@openzeppelin/contracts/token/ERC20/ERC20.sol\":6534:6896  {... */\n          pop\n            /* \"@openzeppelin/contracts/token/ERC20/ERC20.sol\":6356:6896  if (from == address(0)) {... */\n        tag_114:\n            /* \"@openzeppelin/contracts/token/ERC20/ERC20.sol\":6924:6925  0 */\n          0x00\n            /* \"@openzeppelin/contracts/token/ERC20/ERC20.sol\":6910:6926  to == address(0) */\n          0xffffffffffffffffffffffffffffffffffffffff\n          and\n            /* \"@openzeppelin/contracts/token/ERC20/ERC20.sol\":6910:6912  to */\n          dup3\n            /* \"@openzeppelin/contracts/token/ERC20/ERC20.sol\":6910:6926  to == address(0) */\n          0xffffffffffffffffffffffffffffffffffffffff\n          and\n          sub\n            /* \"@openzeppelin/contracts/token/ERC20/ERC20.sol\":6906:7331  if (to == address(0)) {... */\n          tag_117\n          jumpi\n            /* \"@openzeppelin/contracts/token/ERC20/ERC20.sol\":7089:7094  value */\n          dup1\n            /* \"@openzeppelin/contracts/token/ERC20/ERC20.sol\":7073:7085  _totalSupply */\n          0x02\n          0x00\n            /* \"@openzeppelin/contracts/token/ERC20/ERC20.sol\":7073:7094  _totalSupply -= value */\n          dup3\n          dup3\n          sload\n          sub\n          swap3\n          pop\n          pop\n          dup2\n          swap1\n          sstore\n          pop\n            /* \"@openzeppelin/contracts/token/ERC20/ERC20.sol\":6906:7331  if (to == address(0)) {... */\n          jump(tag_118)\n        tag_117:\n            /* \"@openzeppelin/contracts/token/ERC20/ERC20.sol\":7301:7306  value */\n          dup1\n            /* \"@openzeppelin/contracts/token/ERC20/ERC20.sol\":7284:7293  _balances */\n          0x00\n            /* \"@openzeppelin/contracts/token/ERC20/ERC20.sol\":7284:7297  _balances[to] */\n          dup1\n            /* \"@openzeppelin/contracts/token/ERC20/ERC20.sol\":7294:7296  to */\n          dup5\n            /* \"@openzeppelin/contracts/token/ERC20/ERC20.sol\":7284:7297  _balances[to] */\n          0xffffffffffffffffffffffffffffffffffffffff\n          and\n          0xffffffffffffffffffffffffffffffffffffffff\n          and\n          dup2\n          mstore\n          0x20\n          add\n          swap1\n          dup2\n          mstore\n          0x20\n          add\n          0x00\n          keccak256\n          0x00\n            /* \"@openzeppelin/contracts/token/ERC20/ERC20.sol\":7284:7306  _balances[to] += value */\n          dup3\n          dup3\n          sload\n          add\n          swap3\n          pop\n          pop\n          dup2\n          swap1\n          sstore\n          pop\n            /* \"@openzeppelin/contracts/token/ERC20/ERC20.sol\":6906:7331  if (to == address(0)) {... */\n        tag_118:\n            /* \"@openzeppelin/contracts/token/ERC20/ERC20.sol\":7361:7363  to */\n          dup2\n            /* \"@openzeppelin/contracts/token/ERC20/ERC20.sol\":7346:7371  Transfer(from, to, value) */\n          0xffffffffffffffffffffffffffffffffffffffff\n          and\n            /* \"@openzeppelin/contracts/token/ERC20/ERC20.sol\":7355:7359  from */\n          dup4\n            /* \"@openzeppelin/contracts/token/ERC20/ERC20.sol\":7346:7371  Transfer(from, to, value) */\n          0xffffffffffffffffffffffffffffffffffffffff\n          and\n          0xddf252ad1be2c89b69c2b068fc378daa952ba7f163c4a11628f55a4df523b3ef\n            /* \"@openzeppelin/contracts/token/ERC20/ERC20.sol\":7365:7370  value */\n          dup4\n            /* \"@openzeppelin/contracts/token/ERC20/ERC20.sol\":7346:7371  Transfer(from, to, value) */\n          mload(0x40)\n          tag_119\n          swap2\n          swap1\n          tag_26\n          jump\t// in\n        tag_119:\n          mload(0x40)\n          dup1\n          swap2\n          sub\n          swap1\n          log3\n            /* \"@openzeppelin/contracts/token/ERC20/ERC20.sol\":6271:7378  function _update(address from, address to, uint256 value) internal virtual {... */\n          pop\n          pop\n          pop\n          jump\t// out\n            /* \"#utility.yul\":7:106   */\n        tag_120:\n            /* \"#utility.yul\":59:65   */\n          0x00\n            /* \"#utility.yul\":93:98   */\n          dup2\n            /* \"#utility.yul\":87:99   */\n          mload\n            /* \"#utility.yul\":77:99   */\n          swap1\n          pop\n            /* \"#utility.yul\":7:106   */\n          swap2\n          swap1\n          pop\n          jump\t// out\n            /* \"#utility.yul\":112:281   */\n        tag_121:\n            /* \"#utility.yul\":196:207   */\n          0x00\n            /* \"#utility.yul\":230:236   */\n          dup3\n            /* \"#utility.yul\":225:228   */\n          dup3\n            /* \"#utility.yul\":218:237   */\n          mstore\n            /* \"#utility.yul\":270:274   */\n          0x20\n            /* \"#utility.yul\":265:268   */\n          dup3\n            /* \"#utility.yul\":261:275   */\n          add\n            /* \"#utility.yul\":246:275   */\n          swap1\n          pop\n            /* \"#utility.yul\":112:281   */\n          swap3\n          swap2\n          pop\n          pop\n          jump\t// out\n            /* \"#utility.yul\":287:533   */\n        tag_122:\n            /* \"#utility.yul\":368:369   */\n          0x00\n            /* \"#utility.yul\":378:491   */\n        tag_147:\n            /* \"#utility.yul\":392:398   */\n          dup4\n            /* \"#utility.yul\":389:390   */\n          dup2\n            /* \"#utility.yul\":386:399   */\n          lt\n            /* \"#utility.yul\":378:491   */\n          iszero\n          tag_149\n          jumpi\n            /* \"#utility.yul\":477:478   */\n          dup1\n            /* \"#utility.yul\":472:475   */\n          dup3\n            /* \"#utility.yul\":468:479   */\n          add\n            /* \"#utility.yul\":462:480   */\n          mload\n            /* \"#utility.yul\":458:459   */\n          dup2\n            /* \"#utility.yul\":453:456   */\n          dup5\n            /* \"#utility.yul\":449:460   */\n          add\n            /* \"#utility.yul\":442:481   */\n          mstore\n            /* \"#utility.yul\":414:416   */\n          0x20\n            /* \"#utility.yul\":411:412   */\n          dup2\n            /* \"#utility.yul\":407:417   */\n          add\n            /* \"#utility.yul\":402:417   */\n          swap1\n          pop\n            /* \"#utility.yul\":378:491   */\n          jump(tag_147)\n        tag_149:\n            /* \"#utility.yul\":525:526   */\n          0x00\n            /* \"#utility.yul\":516:522   */\n          dup5\n            /* \"#utility.yul\":511:514   */\n          dup5\n            /* \"#utility.yul\":507:523   */\n          add\n            /* \"#utility.yul\":500:527   */\n          mstore\n            /* \"#utility.yul\":349:533   */\n          pop\n            /* \"#utility.yul\":287:533   */\n          pop\n          pop\n          pop\n          jump\t// out\n            /* \"#utility.yul\":539:641   */\n        tag_123:\n            /* \"#utility.yul\":580:586   */\n          0x00\n            /* \"#utility.yul\":631:633   */\n          0x1f\n            /* \"#utility.yul\":627:634   */\n          not\n            /* \"#utility.yul\":622:624   */\n          0x1f\n            /* \"#utility.yul\":615:620   */\n          dup4\n            /* \"#utility.yul\":611:625   */\n          add\n            /* \"#utility.yul\":607:635   */\n          and\n            /* \"#utility.yul\":597:635   */\n          swap1\n          pop\n            /* \"#utility.yul\":539:641   */\n          swap2\n          swap1\n          pop\n          jump\t// out\n            /* \"#utility.yul\":647:1024   */\n        tag_124:\n            /* \"#utility.yul\":735:738   */\n          0x00\n            /* \"#utility.yul\":763:802   */\n          tag_152\n            /* \"#utility.yul\":796:801   */\n          dup3\n            /* \"#utility.yul\":763:802   */\n          tag_120\n          jump\t// in\n        tag_152:\n            /* \"#utility.yul\":818:889   */\n          tag_153\n            /* \"#utility.yul\":882:888   */\n          dup2\n            /* \"#utility.yul\":877:880   */\n          dup6\n            /* \"#utility.yul\":818:889   */\n          tag_121\n          jump\t// in\n        tag_153:\n            /* \"#utility.yul\":811:889   */\n          swap4\n          pop\n            /* \"#utility.yul\":898:963   */\n          tag_154\n            /* \"#utility.yul\":956:962   */\n          dup2\n            /* \"#utility.yul\":951:954   */\n          dup6\n            /* \"#utility.yul\":944:948   */\n          0x20\n            /* \"#utility.yul\":937:942   */\n          dup7\n            /* \"#utility.yul\":933:949   */\n          add\n            /* \"#utility.yul\":898:963   */\n          tag_122\n          jump\t// in\n        tag_154:\n            /* \"#utility.yul\":988:1017   */\n          tag_155\n            /* \"#utility.yul\":1010:1016   */\n          dup2\n            /* \"#utility.yul\":988:1017   */\n          tag_123\n          jump\t// in\n        tag_155:\n            /* \"#utility.yul\":983:986   */\n          dup5\n            /* \"#utility.yul\":979:1018   */\n          add\n            /* \"#utility.yul\":972:1018   */\n          swap2\n          pop\n            /* \"#utility.yul\":739:1024   */\n          pop\n            /* \"#utility.yul\":647:1024   */\n          swap3\n          swap2\n          pop\n          pop\n          jump\t// out\n            /* \"#utility.yul\":1030:1343   */\n        tag_16:\n            /* \"#utility.yul\":1143:1147   */\n          0x00\n            /* \"#utility.yul\":1181:1183   */\n          0x20\n            /* \"#utility.yul\":1170:1179   */\n          dup3\n            /* \"#utility.yul\":1166:1184   */\n          add\n            /* \"#utility.yul\":1158:1184   */\n          swap1\n          pop\n            /* \"#utility.yul\":1230:1239   */\n          dup2\n            /* \"#utility.yul\":1224:1228   */\n          dup2\n            /* \"#utility.yul\":1220:1240   */\n          sub\n            /* \"#utility.yul\":1216:1217   */\n          0x00\n            /* \"#utility.yul\":1205:1214   */\n          dup4\n            /* \"#utility.yul\":1201:1218   */\n          add\n            /* \"#utility.yul\":1194:1241   */\n          mstore\n            /* \"#utility.yul\":1258:1336   */\n          tag_157\n            /* \"#utility.yul\":1331:1335   */\n          dup2\n            /* \"#utility.yul\":1322:1328   */\n          dup5\n            /* \"#utility.yul\":1258:1336   */\n          tag_124\n          jump\t// in\n        tag_157:\n            /* \"#utility.yul\":1250:1336   */\n          swap1\n          pop\n            /* \"#utility.yul\":1030:1343   */\n          swap3\n          swap2\n          pop\n          pop\n          jump\t// out\n            /* \"#utility.yul\":1430:1547   */\n        tag_126:\n            /* \"#utility.yul\":1539:1540   */\n          0x00\n            /* \"#utility.yul\":1536:1537   */\n          dup1\n            /* \"#utility.yul\":1529:1541   */\n          revert\n            /* \"#utility.yul\":1676:1802   */\n        tag_128:\n            /* \"#utility.yul\":1713:1720   */\n          0x00\n            /* \"#utility.yul\":1753:1795   */\n          0xffffffffffffffffffffffffffffffffffffffff\n            /* \"#utility.yul\":1746:1751   */\n          dup3\n            /* \"#utility.yul\":1742:1796   */\n          and\n            /* \"#utility.yul\":1731:1796   */\n          swap1\n          pop\n            /* \"#utility.yul\":1676:1802   */\n          swap2\n          swap1\n          pop\n          jump\t// out\n            /* \"#utility.yul\":1808:1904   */\n        tag_129:\n            /* \"#utility.yul\":1845:1852   */\n          0x00\n            /* \"#utility.yul\":1874:1898   */\n          tag_163\n            /* \"#utility.yul\":1892:1897   */\n          dup3\n            /* \"#utility.yul\":1874:1898   */\n          tag_128\n          jump\t// in\n        tag_163:\n            /* \"#utility.yul\":1863:1898   */\n          swap1\n          pop\n            /* \"#utility.yul\":1808:1904   */\n          swap2\n          swap1\n          pop\n          jump\t// out\n            /* \"#utility.yul\":1910:2032   */\n        tag_130:\n            /* \"#utility.yul\":1983:2007   */\n          tag_165\n            /* \"#utility.yul\":2001:2006   */\n          dup2\n            /* \"#utility.yul\":1983:2007   */\n          tag_129\n          jump\t// in\n        tag_165:\n            /* \"#utility.yul\":1976:1981   */\n          dup2\n            /* \"#utility.yul\":1973:2008   */\n          eq\n            /* \"#utility.yul\":1963:2026   */\n          tag_166\n          jumpi\n            /* \"#utility.yul\":2022:2023   */\n          0x00\n            /* \"#utility.yul\":2019:2020   */\n          dup1\n            /* \"#utility.yul\":2012:2024   */\n          revert\n            /* \"#utility.yul\":1963:2026   */\n        tag_166:\n            /* \"#utility.yul\":1910:2032   */\n          pop\n          jump\t// out\n            /* \"#utility.yul\":2038:2177   */\n        tag_131:\n            /* \"#utility.yul\":2084:2089   */\n          0x00\n            /* \"#utility.yul\":2122:2128   */\n          dup2\n            /* \"#utility.yul\":2109:2129   */\n          calldataload\n            /* \"#utility.yul\":2100:2129   */\n          swap1\n          pop\n            /* \"#utility.yul\":2138:2171   */\n          tag_168\n            /* \"#utility.yul\":2165:2170   */\n          dup2\n            /* \"#utility.yul\":2138:2171   */\n          tag_130\n          jump\t// in\n        tag_168:\n            /* \"#utility.yul\":2038:2177   */\n          swap3\n          swap2\n          pop\n          pop\n          jump\t// out\n            /* \"#utility.yul\":2183:2260   */\n        tag_132:\n            /* \"#utility.yul\":2220:2227   */\n          0x00\n            /* \"#utility.yul\":2249:2254   */\n          dup2\n            /* \"#utility.yul\":2238:2254   */\n          swap1\n          pop\n            /* \"#utility.yul\":2183:2260   */\n          swap2\n          swap1\n          pop\n          jump\t// out\n            /* \"#utility.yul\":2266:2388   */\n        tag_133:\n            /* \"#utility.yul\":2339:2363   */\n          tag_171\n            /* \"#utility.yul\":2357:2362   */\n          dup2\n            /* \"#utility.yul\":2339:2363   */\n          tag_132\n          jump\t// in\n        tag_171:\n            /* \"#utility.yul\":2332:2337   */\n          dup2\n            /* \"#utility.yul\":2329:2364   */\n          eq\n            /* \"#utility.yul\":2319:2382   */\n          tag_172\n          jumpi\n            /* \"#utility.yul\":2378:2379   */\n          0x00\n            /* \"#utility.yul\":2375:2376   */\n          dup1\n            /* \"#utility.yul\":2368:2380   */\n          revert\n            /* \"#utility.yul\":2319:2382   */\n        tag_172:\n            /* \"#utility.yul\":2266:2388   */\n          pop\n          jump\t// out\n            /* \"#utility.yul\":2394:2533   */\n        tag_134:\n            /* \"#utility.yul\":2440:2445   */\n          0x00\n            /* \"#utility.yul\":2478:2484   */\n          dup2\n            /* \"#utility.yul\":2465:2485   */\n          calldataload\n            /* \"#utility.yul\":2456:2485   */\n          swap1\n          pop\n            /* \"#utility.yul\":2494:2527   */\n          tag_174\n            /* \"#utility.yul\":2521:2526   */\n          dup2\n            /* \"#utility.yul\":2494:2527   */\n          tag_133\n          jump\t// in\n        tag_174:\n            /* \"#utility.yul\":2394:2533   */\n          swap3\n          swap2\n          pop\n          pop\n          jump\t// out\n            /* \"#utility.yul\":2539:3013   */\n        tag_19:\n            /* \"#utility.yul\":2607:2613   */\n          0x00\n            /* \"#utility.yul\":2615:2621   */\n          dup1\n            /* \"#utility.yul\":2664:2666   */\n          0x40\n            /* \"#utility.yul\":2652:2661   */\n          dup4\n            /* \"#utility.yul\":2643:2650   */\n          dup6\n            /* \"#utility.yul\":2639:2662   */\n          sub\n            /* \"#utility.yul\":2635:2667   */\n          slt\n            /* \"#utility.yul\":2632:2751   */\n          iszero\n          tag_176\n          jumpi\n            /* \"#utility.yul\":2670:2749   */\n          tag_177\n          tag_126\n          jump\t// in\n        tag_177:\n            /* \"#utility.yul\":2632:2751   */\n        tag_176:\n            /* \"#utility.yul\":2790:2791   */\n          0x00\n            /* \"#utility.yul\":2815:2868   */\n          tag_178\n            /* \"#utility.yul\":2860:2867   */\n          dup6\n            /* \"#utility.yul\":2851:2857   */\n          dup3\n            /* \"#utility.yul\":2840:2849   */\n          dup7\n            /* \"#utility.yul\":2836:2858   */\n          add\n            /* \"#utility.yul\":2815:2868   */\n          tag_131\n          jump\t// in\n        tag_178:\n            /* \"#utility.yul\":2805:2868   */\n          swap3\n          pop\n            /* \"#utility.yul\":2761:2878   */\n          pop\n            /* \"#utility.yul\":2917:2919   */\n          0x20\n            /* \"#utility.yul\":2943:2996   */\n          tag_179\n            /* \"#utility.yul\":2988:2995   */\n          dup6\n            /* \"#utility.yul\":2979:2985   */\n          dup3\n            /* \"#utility.yul\":2968:2977   */\n          dup7\n            /* \"#utility.yul\":2964:2986   */\n          add\n            /* \"#utility.yul\":2943:2996   */\n          tag_134\n          jump\t// in\n        tag_179:\n            /* \"#utility.yul\":2933:2996   */\n          swap2\n          pop\n            /* \"#utility.yul\":2888:3006   */\n          pop\n            /* \"#utility.yul\":2539:3013   */\n          swap3\n          pop\n          swap3\n          swap1\n          pop\n          jump\t// out\n            /* \"#utility.yul\":3019:3109   */\n        tag_135:\n            /* \"#utility.yul\":3053:3060   */\n          0x00\n            /* \"#utility.yul\":3096:3101   */\n          dup2\n            /* \"#utility.yul\":3089:3102   */\n          iszero\n            /* \"#utility.yul\":3082:3103   */\n          iszero\n            /* \"#utility.yul\":3071:3103   */\n          swap1\n          pop\n            /* \"#utility.yul\":3019:3109   */\n          swap2\n          swap1\n          pop\n          jump\t// out\n            /* \"#utility.yul\":3115:3224   */\n        tag_136:\n            /* \"#utility.yul\":3196:3217   */\n          tag_182\n            /* \"#utility.yul\":3211:3216   */\n          dup2\n            /* \"#utility.yul\":3196:3217   */\n          tag_135\n          jump\t// in\n        tag_182:\n            /* \"#utility.yul\":3191:3194   */\n          dup3\n            /* \"#utility.yul\":3184:3218   */\n          mstore\n            /* \"#utility.yul\":3115:3224   */\n          pop\n          pop\n          jump\t// out\n            /* \"#utility.yul\":3230:3440   */\n        tag_22:\n            /* \"#utility.yul\":3317:3321   */\n          0x00\n            /* \"#utility.yul\":3355:3357   */\n          0x20\n            /* \"#utility.yul\":3344:3353   */\n          dup3\n            /* \"#utility.yul\":3340:3358   */\n          add\n            /* \"#utility.yul\":3332:3358   */\n          swap1\n          pop\n            /* \"#utility.yul\":3368:3433   */\n          tag_184\n            /* \"#utility.yul\":3430:3431   */\n          0x00\n            /* \"#utility.yul\":3419:3428   */\n          dup4\n            /* \"#utility.yul\":3415:3432   */\n          add\n            /* \"#utility.yul\":3406:3412   */\n          dup5\n            /* \"#utility.yul\":3368:3433   */\n          tag_136\n          jump\t// in\n        tag_184:\n            /* \"#utility.yul\":3230:3440   */\n          swap3\n          swap2\n          pop\n          pop\n          jump\t// out\n            /* \"#utility.yul\":3446:3564   */\n        tag_137:\n            /* \"#utility.yul\":3533:3557   */\n          tag_186\n            /* \"#utility.yul\":3551:3556   */\n          dup2\n            /* \"#utility.yul\":3533:3557   */\n          tag_132\n          jump\t// in\n        tag_186:\n            /* \"#utility.yul\":3528:3531   */\n          dup3\n            /* \"#utility.yul\":3521:3558   */\n          mstore\n            /* \"#utility.yul\":3446:3564   */\n          pop\n          pop\n          jump\t// out\n            /* \"#utility.yul\":3570:3792   */\n        tag_26:\n            /* \"#utility.yul\":3663:3667   */\n          0x00\n            /* \"#utility.yul\":3701:3703   */\n          0x20\n            /* \"#utility.yul\":3690:3699   */\n          dup3\n            /* \"#utility.yul\":3686:3704   */\n          add\n            /* \"#utility.yul\":3678:3704   */\n          swap1\n          pop\n            /* \"#utility.yul\":3714:3785   */\n          tag_188\n            /* \"#utility.yul\":3782:3783   */\n          0x00\n            /* \"#utility.yul\":3771:3780   */\n          dup4\n            /* \"#utility.yul\":3767:3784   */\n          add\n            /* \"#utility.yul\":3758:3764   */\n          dup5\n            /* \"#utility.yul\":3714:3785   */\n          tag_137\n          jump\t// in\n        tag_188:\n            /* \"#utility.yul\":3570:3792   */\n          swap3\n          swap2\n          pop\n          pop\n          jump\t// out\n            /* \"#utility.yul\":3798:4417   */\n        tag_29:\n            /* \"#utility.yul\":3875:3881   */\n          0x00\n            /* \"#utility.yul\":3883:3889   */\n          dup1\n            /* \"#utility.yul\":3891:3897   */\n          0x00\n            /* \"#utility.yul\":3940:3942   */\n          0x60\n            /* \"#utility.yul\":3928:3937   */\n          dup5\n            /* \"#utility.yul\":3919:3926   */\n          dup7\n            /* \"#utility.yul\":3915:3938   */\n          sub\n            /* \"#utility.yul\":3911:3943   */\n          slt\n            /* \"#utility.yul\":3908:4027   */\n          iszero\n          tag_190\n          jumpi\n            /* \"#utility.yul\":3946:4025   */\n          tag_191\n          tag_126\n          jump\t// in\n        tag_191:\n            /* \"#utility.yul\":3908:4027   */\n        tag_190:\n            /* \"#utility.yul\":4066:4067   */\n          0x00\n            /* \"#utility.yul\":4091:4144   */\n          tag_192\n            /* \"#utility.yul\":4136:4143   */\n          dup7\n            /* \"#utility.yul\":4127:4133   */\n          dup3\n            /* \"#utility.yul\":4116:4125   */\n          dup8\n            /* \"#utility.yul\":4112:4134   */\n          add\n            /* \"#utility.yul\":4091:4144   */\n          tag_131\n          jump\t// in\n        tag_192:\n            /* \"#utility.yul\":4081:4144   */\n          swap4\n          pop\n            /* \"#utility.yul\":4037:4154   */\n          pop\n            /* \"#utility.yul\":4193:4195   */\n          0x20\n            /* \"#utility.yul\":4219:4272   */\n          tag_193\n            /* \"#utility.yul\":4264:4271   */\n          dup7\n            /* \"#utility.yul\":4255:4261   */\n          dup3\n            /* \"#utility.yul\":4244:4253   */\n          dup8\n            /* \"#utility.yul\":4240:4262   */\n          add\n            /* \"#utility.yul\":4219:4272   */\n          tag_131\n          jump\t// in\n        tag_193:\n            /* \"#utility.yul\":4209:4272   */\n          swap3\n          pop\n            /* \"#utility.yul\":4164:4282   */\n          pop\n            /* \"#utility.yul\":4321:4323   */\n          0x40\n            /* \"#utility.yul\":4347:4400   */\n          tag_194\n            /* \"#utility.yul\":4392:4399   */\n          dup7\n            /* \"#utility.yul\":4383:4389   */\n          dup3\n            /* \"#utility.yul\":4372:4381   */\n          dup8\n            /* \"#utility.yul\":4368:4390   */\n          add\n            /* \"#utility.yul\":4347:4400   */\n          tag_134\n          jump\t// in\n        tag_194:\n            /* \"#utility.yul\":4337:4400   */\n          swap2\n          pop\n            /* \"#utility.yul\":4292:4410   */\n          pop\n            /* \"#utility.yul\":3798:4417   */\n          swap3\n          pop\n          swap3\n          pop\n          swap3\n          jump\t// out\n            /* \"#utility.yul\":4423:4509   */\n        tag_138:\n            /* \"#utility.yul\":4458:4465   */\n          0x00\n            /* \"#utility.yul\":4498:4502   */\n          0xff\n            /* \"#utility.yul\":4491:4496   */\n          dup3\n            /* \"#utility.yul\":4487:4503   */\n          and\n            /* \"#utility.yul\":4476:4503   */\n          swap1\n          pop\n            /* \"#utility.yul\":4423:4509   */\n          swap2\n          swap1\n          pop\n          jump\t// out\n            /* \"#utility.yul\":4515:4627   */\n        tag_139:\n            /* \"#utility.yul\":4598:4620   */\n          tag_197\n            /* \"#utility.yul\":4614:4619   */\n          dup2\n            /* \"#utility.yul\":4598:4620   */\n          tag_138\n          jump\t// in\n        tag_197:\n            /* \"#utility.yul\":4593:4596   */\n          dup3\n            /* \"#utility.yul\":4586:4621   */\n          mstore\n            /* \"#utility.yul\":4515:4627   */\n          pop\n          pop\n          jump\t// out\n            /* \"#utility.yul\":4633:4847   */\n        tag_35:\n            /* \"#utility.yul\":4722:4726   */\n          0x00\n            /* \"#utility.yul\":4760:4762   */\n          0x20\n            /* \"#utility.yul\":4749:4758   */\n          dup3\n            /* \"#utility.yul\":4745:4763   */\n          add\n            /* \"#utility.yul\":4737:4763   */\n          swap1\n          pop\n            /* \"#utility.yul\":4773:4840   */\n          tag_199\n            /* \"#utility.yul\":4837:4838   */\n          0x00\n            /* \"#utility.yul\":4826:4835   */\n          dup4\n            /* \"#utility.yul\":4822:4839   */\n          add\n            /* \"#utility.yul\":4813:4819   */\n          dup5\n            /* \"#utility.yul\":4773:4840   */\n          tag_139\n          jump\t// in\n        tag_199:\n            /* \"#utility.yul\":4633:4847   */\n          swap3\n          swap2\n          pop\n          pop\n          jump\t// out\n            /* \"#utility.yul\":4853:5182   */\n        tag_38:\n            /* \"#utility.yul\":4912:4918   */\n          0x00\n            /* \"#utility.yul\":4961:4963   */\n          0x20\n            /* \"#utility.yul\":4949:4958   */\n          dup3\n            /* \"#utility.yul\":4940:4947   */\n          dup5\n            /* \"#utility.yul\":4936:4959   */\n          sub\n            /* \"#utility.yul\":4932:4964   */\n          slt\n            /* \"#utility.yul\":4929:5048   */\n          iszero\n          tag_201\n          jumpi\n            /* \"#utility.yul\":4967:5046   */\n          tag_202\n          tag_126\n          jump\t// in\n        tag_202:\n            /* \"#utility.yul\":4929:5048   */\n        tag_201:\n            /* \"#utility.yul\":5087:5088   */\n          0x00\n            /* \"#utility.yul\":5112:5165   */\n          tag_203\n            /* \"#utility.yul\":5157:5164   */\n          dup5\n            /* \"#utility.yul\":5148:5154   */\n          dup3\n            /* \"#utility.yul\":5137:5146   */\n          dup6\n            /* \"#utility.yul\":5133:5155   */\n          add\n            /* \"#utility.yul\":5112:5165   */\n          tag_131\n          jump\t// in\n        tag_203:\n            /* \"#utility.yul\":5102:5165   */\n          swap2\n          pop\n            /* \"#utility.yul\":5058:5175   */\n          pop\n            /* \"#utility.yul\":4853:5182   */\n          swap3\n          swap2\n          pop\n          pop\n          jump\t// out\n            /* \"#utility.yul\":5188:5662   */\n        tag_50:\n            /* \"#utility.yul\":5256:5262   */\n          0x00\n            /* \"#utility.yul\":5264:5270   */\n          dup1\n            /* \"#utility.yul\":5313:5315   */\n          0x40\n            /* \"#utility.yul\":5301:5310   */\n          dup4\n            /* \"#utility.yul\":5292:5299   */\n          dup6\n            /* \"#utility.yul\":5288:5311   */\n          sub\n            /* \"#utility.yul\":5284:5316   */\n          slt\n            /* \"#utility.yul\":5281:5400   */\n          iszero\n          tag_205\n          jumpi\n            /* \"#utility.yul\":5319:5398   */\n          tag_206\n          tag_126\n          jump\t// in\n        tag_206:\n            /* \"#utility.yul\":5281:5400   */\n        tag_205:\n            /* \"#utility.yul\":5439:5440   */\n          0x00\n            /* \"#utility.yul\":5464:5517   */\n          tag_207\n            /* \"#utility.yul\":5509:5516   */\n          dup6\n            /* \"#utility.yul\":5500:5506   */\n          dup3\n            /* \"#utility.yul\":5489:5498   */\n          dup7\n            /* \"#utility.yul\":5485:5507   */\n          add\n            /* \"#utility.yul\":5464:5517   */\n          tag_131\n          jump\t// in\n        tag_207:\n            /* \"#utility.yul\":5454:5517   */\n          swap3\n          pop\n            /* \"#utility.yul\":5410:5527   */\n          pop\n            /* \"#utility.yul\":5566:5568   */\n          0x20\n            /* \"#utility.yul\":5592:5645   */\n          tag_208\n            /* \"#utility.yul\":5637:5644   */\n          dup6\n            /* \"#utility.yul\":5628:5634   */\n          dup3\n            /* \"#utility.yul\":5617:5626   */\n          dup7\n            /* \"#utility.yul\":5613:5635   */\n          add\n            /* \"#utility.yul\":5592:5645   */\n          tag_131\n          jump\t// in\n        tag_208:\n            /* \"#utility.yul\":5582:5645   */\n          swap2\n          pop\n            /* \"#utility.yul\":5537:5655   */\n          pop\n            /* \"#utility.yul\":5188:5662   */\n          swap3\n          pop\n          swap3\n          swap1\n          pop\n          jump\t// out\n            /* \"#utility.yul\":5668:5848   */\n        tag_140:\n            /* \"#utility.yul\":5716:5793   */\n          0x4e487b7100000000000000000000000000000000000000000000000000000000\n            /* \"#utility.yul\":5713:5714   */\n          0x00\n            /* \"#utility.yul\":5706:5794   */\n          mstore\n            /* \"#utility.yul\":5813:5817   */\n          0x22\n            /* \"#utility.yul\":5810:5811   */\n          0x04\n            /* \"#utility.yul\":5803:5818   */\n          mstore\n            /* \"#utility.yul\":5837:5841   */\n          0x24\n            /* \"#utility.yul\":5834:5835   */\n          0x00\n            /* \"#utility.yul\":5827:5842   */\n          revert\n            /* \"#utility.yul\":5854:6174   */\n        tag_55:\n            /* \"#utility.yul\":5898:5904   */\n          0x00\n            /* \"#utility.yul\":5935:5936   */\n          0x02\n            /* \"#utility.yul\":5929:5933   */\n          dup3\n            /* \"#utility.yul\":5925:5937   */\n          div\n            /* \"#utility.yul\":5915:5937   */\n          swap1\n          pop\n            /* \"#utility.yul\":5982:5983   */\n          0x01\n            /* \"#utility.yul\":5976:5980   */\n          dup3\n            /* \"#utility.yul\":5972:5984   */\n          and\n            /* \"#utility.yul\":6003:6021   */\n          dup1\n            /* \"#utility.yul\":5993:6074   */\n          tag_211\n          jumpi\n            /* \"#utility.yul\":6059:6063   */\n          0x7f\n            /* \"#utility.yul\":6051:6057   */\n          dup3\n            /* \"#utility.yul\":6047:6064   */\n          and\n            /* \"#utility.yul\":6037:6064   */\n          swap2\n          pop\n            /* \"#utility.yul\":5993:6074   */\n        tag_211:\n            /* \"#utility.yul\":6121:6123   */\n          0x20\n            /* \"#utility.yul\":6113:6119   */\n          dup3\n            /* \"#utility.yul\":6110:6124   */\n          lt\n            /* \"#utility.yul\":6090:6108   */\n          dup2\n            /* \"#utility.yul\":6087:6125   */\n          sub\n            /* \"#utility.yul\":6084:6168   */\n          tag_212\n          jumpi\n            /* \"#utility.yul\":6140:6158   */\n          tag_213\n          tag_140\n          jump\t// in\n        tag_213:\n            /* \"#utility.yul\":6084:6168   */\n        tag_212:\n            /* \"#utility.yul\":5905:6174   */\n          pop\n            /* \"#utility.yul\":5854:6174   */\n          swap2\n          swap1\n          pop\n          jump\t// out\n            /* \"#utility.yul\":6180:6298   */\n        tag_141:\n            /* \"#utility.yul\":6267:6291   */\n          tag_215\n            /* \"#utility.yul\":6285:6290   */\n          dup2\n            /* \"#utility.yul\":6267:6291   */\n          tag_129\n          jump\t// in\n        tag_215:\n            /* \"#utility.yul\":6262:6265   */\n          dup3\n            /* \"#utility.yul\":6255:6292   */\n          mstore\n            /* \"#utility.yul\":6180:6298   */\n          pop\n          pop\n          jump\t// out\n            /* \"#utility.yul\":6304:6746   */\n        tag_93:\n            /* \"#utility.yul\":6453:6457   */\n          0x00\n            /* \"#utility.yul\":6491:6493   */\n          0x60\n            /* \"#utility.yul\":6480:6489   */\n          dup3\n            /* \"#utility.yul\":6476:6494   */\n          add\n            /* \"#utility.yul\":6468:6494   */\n          swap1\n          pop\n            /* \"#utility.yul\":6504:6575   */\n          tag_217\n            /* \"#utility.yul\":6572:6573   */\n          0x00\n            /* \"#utility.yul\":6561:6570   */\n          dup4\n            /* \"#utility.yul\":6557:6574   */\n          add\n            /* \"#utility.yul\":6548:6554   */\n          dup7\n            /* \"#utility.yul\":6504:6575   */\n          tag_141\n          jump\t// in\n        tag_217:\n            /* \"#utility.yul\":6585:6657   */\n          tag_218\n            /* \"#utility.yul\":6653:6655   */\n          0x20\n            /* \"#utility.yul\":6642:6651   */\n          dup4\n            /* \"#utility.yul\":6638:6656   */\n          add\n            /* \"#utility.yul\":6629:6635   */\n          dup6\n            /* \"#utility.yul\":6585:6657   */\n          tag_137\n          jump\t// in\n        tag_218:\n            /* \"#utility.yul\":6667:6739   */\n          tag_219\n            /* \"#utility.yul\":6735:6737   */\n          0x40\n            /* \"#utility.yul\":6724:6733   */\n          dup4\n            /* \"#utility.yul\":6720:6738   */\n          add\n            /* \"#utility.yul\":6711:6717   */\n          dup5\n            /* \"#utility.yul\":6667:6739   */\n          tag_137\n          jump\t// in\n        tag_219:\n            /* \"#utility.yul\":6304:6746   */\n          swap5\n          swap4\n          pop\n          pop\n          pop\n          pop\n          jump\t// out\n            /* \"#utility.yul\":6752:6974   */\n        tag_98:\n            /* \"#utility.yul\":6845:6849   */\n          0x00\n            /* \"#utility.yul\":6883:6885   */\n          0x20\n            /* \"#utility.yul\":6872:6881   */\n          dup3\n            /* \"#utility.yul\":6868:6886   */\n          add\n            /* \"#utility.yul\":6860:6886   */\n          swap1\n          pop\n            /* \"#utility.yul\":6896:6967   */\n          tag_221\n            /* \"#utility.yul\":6964:6965   */\n          0x00\n            /* \"#utility.yul\":6953:6962   */\n          dup4\n            /* \"#utility.yul\":6949:6966   */\n          add\n            /* \"#utility.yul\":6940:6946   */\n          dup5\n            /* \"#utility.yul\":6896:6967   */\n          tag_141\n          jump\t// in\n        tag_221:\n            /* \"#utility.yul\":6752:6974   */\n          swap3\n          swap2\n          pop\n          pop\n          jump\t// out\n            /* \"#utility.yul\":6980:7160   */\n        tag_142:\n            /* \"#utility.yul\":7028:7105   */\n          0x4e487b7100000000000000000000000000000000000000000000000000000000\n            /* \"#utility.yul\":7025:7026   */\n          0x00\n            /* \"#utility.yul\":7018:7106   */\n          mstore\n            /* \"#utility.yul\":7125:7129   */\n          0x11\n            /* \"#utility.yul\":7122:7123   */\n          0x04\n            /* \"#utility.yul\":7115:7130   */\n          mstore\n            /* \"#utility.yul\":7149:7153   */\n          0x24\n            /* \"#utility.yul\":7146:7147   */\n          0x00\n            /* \"#utility.yul\":7139:7154   */\n          revert\n            /* \"#utility.yul\":7166:7357   */\n        tag_113:\n            /* \"#utility.yul\":7206:7209   */\n          0x00\n            /* \"#utility.yul\":7225:7245   */\n          tag_224\n            /* \"#utility.yul\":7243:7244   */\n          dup3\n            /* \"#utility.yul\":7225:7245   */\n          tag_132\n          jump\t// in\n        tag_224:\n            /* \"#utility.yul\":7220:7245   */\n          swap2\n          pop\n            /* \"#utility.yul\":7259:7279   */\n          tag_225\n            /* \"#utility.yul\":7277:7278   */\n          dup4\n            /* \"#utility.yul\":7259:7279   */\n          tag_132\n          jump\t// in\n        tag_225:\n            /* \"#utility.yul\":7254:7279   */\n          swap3\n          pop\n            /* \"#utility.yul\":7302:7303   */\n          dup3\n            /* \"#utility.yul\":7299:7300   */\n          dup3\n            /* \"#utility.yul\":7295:7304   */\n          add\n            /* \"#utility.yul\":7288:7304   */\n          swap1\n          pop\n            /* \"#utility.yul\":7323:7326   */\n          dup1\n            /* \"#utility.yul\":7320:7321   */\n          dup3\n            /* \"#utility.yul\":7317:7327   */\n          gt\n            /* \"#utility.yul\":7314:7350   */\n          iszero\n          tag_226\n          jumpi\n            /* \"#utility.yul\":7330:7348   */\n          tag_227\n          tag_142\n          jump\t// in\n        tag_227:\n            /* \"#utility.yul\":7314:7350   */\n        tag_226:\n            /* \"#utility.yul\":7166:7357   */\n          swap3\n          swap2\n          pop\n          pop\n          jump\t// out\n\n        auxdata: 0xa2646970667358221220097ba5f498633311372f2242385ba873d24b432bf469d120da86ddee5ca6f6ec64736f6c63430008160033\n    }\n}\n",
				"bytecode": {
					"linkReferences": {
						"String.sol": {
							"String": [
								{
									"length": 20,
									"start": 3626
								}
							]
						}
					},
					"object": "608060405260405180606001604052806040518060400160405280600b81526020017f566965746e616d446f6e6700000000000000000000000000000000000000000081525081526020016040518060400160405280601181526020017f556e697465645374617465446f6c6c617200000000000000000000000000000081525081526020016040518060400160405280601081526020017f4175737472616c69616e446f6c6c6172000000000000000000000000000000008152508152505f906003620000cf92919062000337565b5060405180606001604052806040518060400160405280600381526020017f564e44000000000000000000000000000000000000000000000000000000000081525081526020016040518060400160405280600381526020017f555344000000000000000000000000000000000000000000000000000000000081525081526020016040518060400160405280600381526020017f415544000000000000000000000000000000000000000000000000000000000081525081525060019060036200019c92919062000337565b50348015620001a9575f80fd5b505f5b6003811015620002b5575f808281548110620001cd57620001cc6200042a565b5b905f5260205f200160018381548110620001ec57620001eb6200042a565b5b905f5260205f2001604051620002029062000395565b6200020f92919062000567565b604051809103905ff08015801562000229573d5f803e3d5ffd5b509050806003600184815481106200024657620002456200042a565b5b905f5260205f20016040516200025d919062000636565b90815260200160405180910390205f6101000a81548173ffffffffffffffffffffffffffffffffffffffff021916908373ffffffffffffffffffffffffffffffffffffffff16021790555050806001019050620001ac565b506403bf2ad3fb6002604051620002cc906200069c565b908152602001604051809103902081905550660162b3f37660006002604051620002f69062000700565b90815260200160405180910390208190555065efe521d4ff2460026040516200031f9062000764565b90815260200160405180910390208190555062000a4f565b828054828255905f5260205f2090810192821562000382579160200282015b82811115620003815782518290816200037091906200096b565b509160200191906001019062000356565b5b509050620003919190620003a3565b5090565b6117888062001df083390190565b5b80821115620003c6575f8181620003bc9190620003ca565b50600101620003a4565b5090565b508054620003d89062000484565b5f825580601f10620003eb57506200040a565b601f0160209004905f5260205f20908101906200040991906200040d565b5b50565b5b8082111562000426575f815f9055506001016200040e565b5090565b7f4e487b71000000000000000000000000000000000000000000000000000000005f52603260045260245ffd5b7f4e487b71000000000000000000000000000000000000000000000000000000005f52602260045260245ffd5b5f60028204905060018216806200049c57607f821691505b602082108103620004b257620004b162000457565b5b50919050565b5f82825260208201905092915050565b5f819050815f5260205f209050919050565b5f8154620004e88162000484565b620004f48186620004b8565b9450600182165f811462000511576001811462000528576200055e565b60ff1983168652811515602002860193506200055e565b6200053385620004c8565b5f5b83811015620005565781548189015260018201915060208101905062000535565b808801955050505b50505092915050565b5f6040820190508181035f830152620005818185620004da565b90508181036020830152620005978184620004da565b90509392505050565b5f81905092915050565b5f8154620005b88162000484565b620005c48186620005a0565b9450600182165f8114620005e15760018114620005f7576200062d565b60ff19831686528115158202860193506200062d565b6200060285620004c8565b5f5b83811015620006255781548189015260018201915060208101905062000604565b838801955050505b50505092915050565b5f620006438284620005aa565b915081905092915050565b7f564e4400000000000000000000000000000000000000000000000000000000005f82015250565b5f62000684600383620005a0565b915062000691826200064e565b600382019050919050565b5f620006a88262000676565b9150819050919050565b7f55534400000000000000000000000000000000000000000000000000000000005f82015250565b5f620006e8600383620005a0565b9150620006f582620006b2565b600382019050919050565b5f6200070c82620006da565b9150819050919050565b7f41554400000000000000000000000000000000000000000000000000000000005f82015250565b5f6200074c600383620005a0565b9150620007598262000716565b600382019050919050565b5f62000770826200073e565b9150819050919050565b5f81519050919050565b7f4e487b71000000000000000000000000000000000000000000000000000000005f52604160045260245ffd5b5f6020601f8301049050919050565b5f82821b905092915050565b5f60088302620007fd7fffffffffffffffffffffffffffffffffffffffffffffffffffffffffffffffff82620007c0565b620008098683620007c0565b95508019841693508086168417925050509392505050565b5f819050919050565b5f819050919050565b5f620008536200084d620008478462000821565b6200082a565b62000821565b9050919050565b5f819050919050565b6200086e8362000833565b620008866200087d826200085a565b848454620007cc565b825550505050565b5f90565b6200089c6200088e565b620008a981848462000863565b505050565b5b81811015620008d057620008c45f8262000892565b600181019050620008af565b5050565b601f8211156200091f57620008e981620004c8565b620008f484620007b1565b8101602085101562000904578190505b6200091c6200091385620007b1565b830182620008ae565b50505b505050565b5f82821c905092915050565b5f620009415f198460080262000924565b1980831691505092915050565b5f6200095b838362000930565b9150826002028217905092915050565b62000976826200077a565b67ffffffffffffffff81111562000992576200099162000784565b5b6200099e825462000484565b620009ab828285620008d4565b5f60209050601f831160018114620009e1575f8415620009cc578287015190505b620009d885826200094e565b86555062000a47565b601f198416620009f186620004c8565b5f5b8281101562000a1a57848901518255600182019150602085019450602081019050620009f3565b8683101562000a3a578489015162000a36601f89168262000930565b8355505b6001600288020188555050505b505050505050565b6113938062000a5d5f395ff3fe608060405260043610610085575f3560e01c80636e7ddea8116100585780636e7ddea81461016d57806389f4b317146101a9578063bf015aae146101e5578063bf40fac11461020d578063db6f63ee1461024957610085565b806304c2320b14610089578063310495ab146100c557806363fcf7c5146101015780636932cf8114610131575b5f80fd5b348015610094575f80fd5b506100af60048036038101906100aa9190610a4e565b610285565b6040516100bc9190610b0f565b60405180910390f35b3480156100d0575f80fd5b506100eb60048036038101906100e69190610b5b565b6102cd565b6040516100f89190610c00565b60405180910390f35b61011b60048036038101906101169190610a4e565b610372565b6040516101289190610c2f565b60405180910390f35b34801561013c575f80fd5b5061015760048036038101906101529190610a4e565b61050f565b6040516101649190610c00565b60405180910390f35b348015610178575f80fd5b50610193600480360381019061018e9190610b5b565b6105c5565b6040516101a09190610c00565b60405180910390f35b3480156101b4575f80fd5b506101cf60048036038101906101ca9190610c83565b61066b565b6040516101dc9190610c2f565b60405180910390f35b3480156101f0575f80fd5b5061020b60048036038101906102069190610cdd565b610729565b005b348015610218575f80fd5b50610233600480360381019061022e9190610a4e565b61072e565b6040516102409190610d74565b60405180910390f35b348015610254575f80fd5b5061026f600480360381019061026a9190610d8d565b610774565b60405161027c9190610c2f565b60405180910390f35b6003818051602081018201805184825260208301602085012081835280955050505050505f915054906101000a900473ffffffffffffffffffffffffffffffffffffffff1681565b5f81815481106102db575f80fd5b905f5260205f20015f9150905080546102f390610e14565b80601f016020809104026020016040519081016040528092919081815260200182805461031f90610e14565b801561036a5780601f106103415761010080835404028352916020019161036a565b820191905f5260205f20905b81548152906001019060200180831161034d57829003601f168201915b505050505081565b5f64e8d4a5100034116103ba576040517f08c379a00000000000000000000000000000000000000000000000000000000081526004016103b190610e8e565b60405180910390fd5b5f805b600180549050811015610478578373__$b2e07545af99b4389bd91a220edd5a3951$__6389dbcd359091600184815481106103fb576103fa610eac565b5b905f5260205f20016040518363ffffffff1660e01b8152600401610420929190610fb4565b602060405180830381865af415801561043b573d5f803e3d5ffd5b505050506040513d601f19601f8201168201806040525081019061045f919061101e565b1561046d5760019150610478565b8060010190506103bd565b5060011515811515146104c0576040517f08c379a00000000000000000000000000000000000000000000000000000000081526004016104b790611093565b60405180910390fd5b5f3490505f670de0b6b3a76400006002866040516104de91906110eb565b908152602001604051809103902054836104f8919061115b565b610502919061118b565b9050809350505050919050565b606060038260405161052191906110eb565b90815260200160405180910390205f9054906101000a900473ffffffffffffffffffffffffffffffffffffffff1673ffffffffffffffffffffffffffffffffffffffff166306fdde036040518163ffffffff1660e01b81526004015f60405180830381865afa158015610596573d5f803e3d5ffd5b505050506040513d5f823e3d601f19601f820116820180604052508101906105be919061123a565b9050919050565b600181815481106105d4575f80fd5b905f5260205f20015f9150905080546105ec90610e14565b80601f016020809104026020016040519081016040528092919081815260200182805461061890610e14565b80156106635780601f1061063a57610100808354040283529160200191610663565b820191905f5260205f20905b81548152906001019060200180831161064657829003601f168201915b505050505081565b5f60038360405161067c91906110eb565b90815260200160405180910390205f9054906101000a900473ffffffffffffffffffffffffffffffffffffffff1673ffffffffffffffffffffffffffffffffffffffff166370a08231836040518263ffffffff1660e01b81526004016106e29190610d74565b602060405180830381865afa1580156106fd573d5f803e3d5ffd5b505050506040513d601f19601f820116820180604052508101906107219190611295565b905092915050565b505050565b5f60038260405161073f91906110eb565b90815260200160405180910390205f9054906101000a900473ffffffffffffffffffffffffffffffffffffffff169050919050565b5f80670de0b6b3a764000060028560405161078f91906110eb565b908152602001604051809103902054846107a9919061118b565b6107b3919061115b565b9050804710156107f8576040517f08c379a00000000000000000000000000000000000000000000000000000000081526004016107ef9061130a565b60405180910390fd5b3373ffffffffffffffffffffffffffffffffffffffff166108fc8290811502906040515f60405180830381858888f1935050505015801561083b573d5f803e3d5ffd5b5060038460405161084c91906110eb565b90815260200160405180910390205f9054906101000a900473ffffffffffffffffffffffffffffffffffffffff1673ffffffffffffffffffffffffffffffffffffffff166323b872dd3330866040518463ffffffff1660e01b81526004016108b693929190611328565b6020604051808303815f875af11580156108d2573d5f803e3d5ffd5b505050506040513d601f19601f820116820180604052508101906108f6919061101e565b508091505092915050565b5f604051905090565b5f80fd5b5f80fd5b5f80fd5b5f80fd5b5f601f19601f8301169050919050565b7f4e487b71000000000000000000000000000000000000000000000000000000005f52604160045260245ffd5b6109608261091a565b810181811067ffffffffffffffff8211171561097f5761097e61092a565b5b80604052505050565b5f610991610901565b905061099d8282610957565b919050565b5f67ffffffffffffffff8211156109bc576109bb61092a565b5b6109c58261091a565b9050602081019050919050565b828183375f83830152505050565b5f6109f26109ed846109a2565b610988565b905082815260208101848484011115610a0e57610a0d610916565b5b610a198482856109d2565b509392505050565b5f82601f830112610a3557610a34610912565b5b8135610a458482602086016109e0565b91505092915050565b5f60208284031215610a6357610a6261090a565b5b5f82013567ffffffffffffffff811115610a8057610a7f61090e565b5b610a8c84828501610a21565b91505092915050565b5f73ffffffffffffffffffffffffffffffffffffffff82169050919050565b5f819050919050565b5f610ad7610ad2610acd84610a95565b610ab4565b610a95565b9050919050565b5f610ae882610abd565b9050919050565b5f610af982610ade565b9050919050565b610b0981610aef565b82525050565b5f602082019050610b225f830184610b00565b92915050565b5f819050919050565b610b3a81610b28565b8114610b44575f80fd5b50565b5f81359050610b5581610b31565b92915050565b5f60208284031215610b7057610b6f61090a565b5b5f610b7d84828501610b47565b91505092915050565b5f81519050919050565b5f82825260208201905092915050565b5f5b83811015610bbd578082015181840152602081019050610ba2565b5f8484015250505050565b5f610bd282610b86565b610bdc8185610b90565b9350610bec818560208601610ba0565b610bf58161091a565b840191505092915050565b5f6020820190508181035f830152610c188184610bc8565b905092915050565b610c2981610b28565b82525050565b5f602082019050610c425f830184610c20565b92915050565b5f610c5282610a95565b9050919050565b610c6281610c48565b8114610c6c575f80fd5b50565b5f81359050610c7d81610c59565b92915050565b5f8060408385031215610c9957610c9861090a565b5b5f83013567ffffffffffffffff811115610cb657610cb561090e565b5b610cc285828601610a21565b9250506020610cd385828601610c6f565b9150509250929050565b5f805f60608486031215610cf457610cf361090a565b5b5f84013567ffffffffffffffff811115610d1157610d1061090e565b5b610d1d86828701610a21565b935050602084013567ffffffffffffffff811115610d3e57610d3d61090e565b5b610d4a86828701610a21565b9250506040610d5b86828701610b47565b9150509250925092565b610d6e81610c48565b82525050565b5f602082019050610d875f830184610d65565b92915050565b5f8060408385031215610da357610da261090a565b5b5f83013567ffffffffffffffff811115610dc057610dbf61090e565b5b610dcc85828601610a21565b9250506020610ddd85828601610b47565b9150509250929050565b7f4e487b71000000000000000000000000000000000000000000000000000000005f52602260045260245ffd5b5f6002820490506001821680610e2b57607f821691505b602082108103610e3e57610e3d610de7565b5b50919050565b7f4e6f7420656e6f7567682065746820746f2073776170000000000000000000005f82015250565b5f610e78601683610b90565b9150610e8382610e44565b602082019050919050565b5f6020820190508181035f830152610ea581610e6c565b9050919050565b7f4e487b71000000000000000000000000000000000000000000000000000000005f52603260045260245ffd5b5f82825260208201905092915050565b5f610ef382610b86565b610efd8185610ed9565b9350610f0d818560208601610ba0565b610f168161091a565b840191505092915050565b5f819050815f5260205f209050919050565b5f8154610f3f81610e14565b610f498186610ed9565b9450600182165f8114610f635760018114610f7957610fab565b60ff198316865281151560200286019350610fab565b610f8285610f21565b5f5b83811015610fa357815481890152600182019150602081019050610f84565b808801955050505b50505092915050565b5f6040820190508181035f830152610fcc8185610ee9565b90508181036020830152610fe08184610f33565b90509392505050565b5f8115159050919050565b610ffd81610fe9565b8114611007575f80fd5b50565b5f8151905061101881610ff4565b92915050565b5f602082840312156110335761103261090a565b5b5f6110408482850161100a565b91505092915050565b7f4e6f7420737570706f7274207468617420746f6b656e000000000000000000005f82015250565b5f61107d601683610b90565b915061108882611049565b602082019050919050565b5f6020820190508181035f8301526110aa81611071565b9050919050565b5f81905092915050565b5f6110c582610b86565b6110cf81856110b1565b93506110df818560208601610ba0565b80840191505092915050565b5f6110f682846110bb565b915081905092915050565b7f4e487b71000000000000000000000000000000000000000000000000000000005f52601260045260245ffd5b7f4e487b71000000000000000000000000000000000000000000000000000000005f52601160045260245ffd5b5f61116582610b28565b915061117083610b28565b9250826111805761117f611101565b5b828204905092915050565b5f61119582610b28565b91506111a083610b28565b92508282026111ae81610b28565b915082820484148315176111c5576111c461112e565b5b5092915050565b5f6111de6111d9846109a2565b610988565b9050828152602081018484840111156111fa576111f9610916565b5b611205848285610ba0565b509392505050565b5f82601f83011261122157611220610912565b5b81516112318482602086016111cc565b91505092915050565b5f6020828403121561124f5761124e61090a565b5b5f82015167ffffffffffffffff81111561126c5761126b61090e565b5b6112788482850161120d565b91505092915050565b5f8151905061128f81610b31565b92915050565b5f602082840312156112aa576112a961090a565b5b5f6112b784828501611281565b91505092915050565b7f4465782063616e6e6f7420737570706c790000000000000000000000000000005f82015250565b5f6112f4601183610b90565b91506112ff826112c0565b602082019050919050565b5f6020820190508181035f830152611321816112e8565b9050919050565b5f60608201905061133b5f830186610d65565b6113486020830185610d65565b6113556040830184610c20565b94935050505056fea26469706673582212207a2612dc5b01e37adac7b42d604be5a0f69942c67b3987aea1269ed98408f5b664736f6c63430008160033608060405234801562000010575f80fd5b5060405162001788380380620017888339818101604052810190620000369190620004b5565b818181600390816200004991906200076f565b5080600490816200005b91906200076f565b5050506200007a3369d3c21bcecceda10000006200008260201b60201c565b50506200097f565b5f73ffffffffffffffffffffffffffffffffffffffff168273ffffffffffffffffffffffffffffffffffffffff1603620000f5575f6040517fec442f05000000000000000000000000000000000000000000000000000000008152600401620000ec919062000896565b60405180910390fd5b620001085f83836200010c60201b60201c565b5050565b5f73ffffffffffffffffffffffffffffffffffffffff168373ffffffffffffffffffffffffffffffffffffffff160362000160578060025f828254620001539190620008de565b9250508190555062000231565b5f805f8573ffffffffffffffffffffffffffffffffffffffff1673ffffffffffffffffffffffffffffffffffffffff1681526020019081526020015f2054905081811015620001ec578381836040517fe450d38c000000000000000000000000000000000000000000000000000000008152600401620001e39392919062000929565b60405180910390fd5b8181035f808673ffffffffffffffffffffffffffffffffffffffff1673ffffffffffffffffffffffffffffffffffffffff1681526020019081526020015f2081905550505b5f73ffffffffffffffffffffffffffffffffffffffff168273ffffffffffffffffffffffffffffffffffffffff16036200027a578060025f8282540392505081905550620002c4565b805f808473ffffffffffffffffffffffffffffffffffffffff1673ffffffffffffffffffffffffffffffffffffffff1681526020019081526020015f205f82825401925050819055505b8173ffffffffffffffffffffffffffffffffffffffff168373ffffffffffffffffffffffffffffffffffffffff167fddf252ad1be2c89b69c2b068fc378daa952ba7f163c4a11628f55a4df523b3ef8360405162000323919062000964565b60405180910390a3505050565b5f604051905090565b5f80fd5b5f80fd5b5f80fd5b5f80fd5b5f601f19601f8301169050919050565b7f4e487b71000000000000000000000000000000000000000000000000000000005f52604160045260245ffd5b620003918262000349565b810181811067ffffffffffffffff82111715620003b357620003b262000359565b5b80604052505050565b5f620003c762000330565b9050620003d5828262000386565b919050565b5f67ffffffffffffffff821115620003f757620003f662000359565b5b620004028262000349565b9050602081019050919050565b5f5b838110156200042e57808201518184015260208101905062000411565b5f8484015250505050565b5f6200044f6200044984620003da565b620003bc565b9050828152602081018484840111156200046e576200046d62000345565b5b6200047b8482856200040f565b509392505050565b5f82601f8301126200049a576200049962000341565b5b8151620004ac84826020860162000439565b91505092915050565b5f8060408385031215620004ce57620004cd62000339565b5b5f83015167ffffffffffffffff811115620004ee57620004ed6200033d565b5b620004fc8582860162000483565b925050602083015167ffffffffffffffff81111562000520576200051f6200033d565b5b6200052e8582860162000483565b9150509250929050565b5f81519050919050565b7f4e487b71000000000000000000000000000000000000000000000000000000005f52602260045260245ffd5b5f60028204905060018216806200058757607f821691505b6020821081036200059d576200059c62000542565b5b50919050565b5f819050815f5260205f209050919050565b5f6020601f8301049050919050565b5f82821b905092915050565b5f60088302620006017fffffffffffffffffffffffffffffffffffffffffffffffffffffffffffffffff82620005c4565b6200060d8683620005c4565b95508019841693508086168417925050509392505050565b5f819050919050565b5f819050919050565b5f62000657620006516200064b8462000625565b6200062e565b62000625565b9050919050565b5f819050919050565b620006728362000637565b6200068a62000681826200065e565b848454620005d0565b825550505050565b5f90565b620006a062000692565b620006ad81848462000667565b505050565b5b81811015620006d457620006c85f8262000696565b600181019050620006b3565b5050565b601f8211156200072357620006ed81620005a3565b620006f884620005b5565b8101602085101562000708578190505b620007206200071785620005b5565b830182620006b2565b50505b505050565b5f82821c905092915050565b5f620007455f198460080262000728565b1980831691505092915050565b5f6200075f838362000734565b9150826002028217905092915050565b6200077a8262000538565b67ffffffffffffffff81111562000796576200079562000359565b5b620007a282546200056f565b620007af828285620006d8565b5f60209050601f831160018114620007e5575f8415620007d0578287015190505b620007dc858262000752565b8655506200084b565b601f198416620007f586620005a3565b5f5b828110156200081e57848901518255600182019150602085019450602081019050620007f7565b868310156200083e57848901516200083a601f89168262000734565b8355505b6001600288020188555050505b505050505050565b5f73ffffffffffffffffffffffffffffffffffffffff82169050919050565b5f6200087e8262000853565b9050919050565b620008908162000872565b82525050565b5f602082019050620008ab5f83018462000885565b92915050565b7f4e487b71000000000000000000000000000000000000000000000000000000005f52601160045260245ffd5b5f620008ea8262000625565b9150620008f78362000625565b9250828201905080821115620009125762000911620008b1565b5b92915050565b620009238162000625565b82525050565b5f6060820190506200093e5f83018662000885565b6200094d602083018562000918565b6200095c604083018462000918565b949350505050565b5f602082019050620009795f83018462000918565b92915050565b610dfb806200098d5f395ff3fe608060405234801561000f575f80fd5b5060043610610091575f3560e01c8063313ce56711610064578063313ce5671461013157806370a082311461014f57806395d89b411461017f578063a9059cbb1461019d578063dd62ed3e146101cd57610091565b806306fdde0314610095578063095ea7b3146100b357806318160ddd146100e357806323b872dd14610101575b5f80fd5b61009d6101fd565b6040516100aa9190610a74565b60405180910390f35b6100cd60048036038101906100c89190610b25565b61028d565b6040516100da9190610b7d565b60405180910390f35b6100eb6102af565b6040516100f89190610ba5565b60405180910390f35b61011b60048036038101906101169190610bbe565b6102b8565b6040516101289190610b7d565b60405180910390f35b6101396102e6565b6040516101469190610c29565b60405180910390f35b61016960048036038101906101649190610c42565b6102ee565b6040516101769190610ba5565b60405180910390f35b610187610333565b6040516101949190610a74565b60405180910390f35b6101b760048036038101906101b29190610b25565b6103c3565b6040516101c49190610b7d565b60405180910390f35b6101e760048036038101906101e29190610c6d565b6103e5565b6040516101f49190610ba5565b60405180910390f35b60606003805461020c90610cd8565b80601f016020809104026020016040519081016040528092919081815260200182805461023890610cd8565b80156102835780601f1061025a57610100808354040283529160200191610283565b820191905f5260205f20905b81548152906001019060200180831161026657829003601f168201915b5050505050905090565b5f80610297610467565b90506102a481858561046e565b600191505092915050565b5f600254905090565b5f806102c2610467565b90506102cf858285610480565b6102da858585610512565b60019150509392505050565b5f6012905090565b5f805f8373ffffffffffffffffffffffffffffffffffffffff1673ffffffffffffffffffffffffffffffffffffffff1681526020019081526020015f20549050919050565b60606004805461034290610cd8565b80601f016020809104026020016040519081016040528092919081815260200182805461036e90610cd8565b80156103b95780601f10610390576101008083540402835291602001916103b9565b820191905f5260205f20905b81548152906001019060200180831161039c57829003601f168201915b5050505050905090565b5f806103cd610467565b90506103da818585610512565b600191505092915050565b5f60015f8473ffffffffffffffffffffffffffffffffffffffff1673ffffffffffffffffffffffffffffffffffffffff1681526020019081526020015f205f8373ffffffffffffffffffffffffffffffffffffffff1673ffffffffffffffffffffffffffffffffffffffff1681526020019081526020015f2054905092915050565b5f33905090565b61047b8383836001610602565b505050565b5f61048b84846103e5565b90507fffffffffffffffffffffffffffffffffffffffffffffffffffffffffffffffff811461050c57818110156104fd578281836040517ffb8f41b20000000000000000000000000000000000000000000000000000000081526004016104f493929190610d17565b60405180910390fd5b61050b84848484035f610602565b5b50505050565b5f73ffffffffffffffffffffffffffffffffffffffff168373ffffffffffffffffffffffffffffffffffffffff1603610582575f6040517f96c6fd1e0000000000000000000000000000000000000000000000000000000081526004016105799190610d4c565b60405180910390fd5b5f73ffffffffffffffffffffffffffffffffffffffff168273ffffffffffffffffffffffffffffffffffffffff16036105f2575f6040517fec442f050000000000000000000000000000000000000000000000000000000081526004016105e99190610d4c565b60405180910390fd5b6105fd8383836107d1565b505050565b5f73ffffffffffffffffffffffffffffffffffffffff168473ffffffffffffffffffffffffffffffffffffffff1603610672575f6040517fe602df050000000000000000000000000000000000000000000000000000000081526004016106699190610d4c565b60405180910390fd5b5f73ffffffffffffffffffffffffffffffffffffffff168373ffffffffffffffffffffffffffffffffffffffff16036106e2575f6040517f94280d620000000000000000000000000000000000000000000000000000000081526004016106d99190610d4c565b60405180910390fd5b8160015f8673ffffffffffffffffffffffffffffffffffffffff1673ffffffffffffffffffffffffffffffffffffffff1681526020019081526020015f205f8573ffffffffffffffffffffffffffffffffffffffff1673ffffffffffffffffffffffffffffffffffffffff1681526020019081526020015f208190555080156107cb578273ffffffffffffffffffffffffffffffffffffffff168473ffffffffffffffffffffffffffffffffffffffff167f8c5be1e5ebec7d5bd14f71427d1e84f3dd0314c0f7b2291e5b200ac8c7c3b925846040516107c29190610ba5565b60405180910390a35b50505050565b5f73ffffffffffffffffffffffffffffffffffffffff168373ffffffffffffffffffffffffffffffffffffffff1603610821578060025f8282546108159190610d92565b925050819055506108ef565b5f805f8573ffffffffffffffffffffffffffffffffffffffff1673ffffffffffffffffffffffffffffffffffffffff1681526020019081526020015f20549050818110156108aa578381836040517fe450d38c0000000000000000000000000000000000000000000000000000000081526004016108a193929190610d17565b60405180910390fd5b8181035f808673ffffffffffffffffffffffffffffffffffffffff1673ffffffffffffffffffffffffffffffffffffffff1681526020019081526020015f2081905550505b5f73ffffffffffffffffffffffffffffffffffffffff168273ffffffffffffffffffffffffffffffffffffffff1603610936578060025f8282540392505081905550610980565b805f808473ffffffffffffffffffffffffffffffffffffffff1673ffffffffffffffffffffffffffffffffffffffff1681526020019081526020015f205f82825401925050819055505b8173ffffffffffffffffffffffffffffffffffffffff168373ffffffffffffffffffffffffffffffffffffffff167fddf252ad1be2c89b69c2b068fc378daa952ba7f163c4a11628f55a4df523b3ef836040516109dd9190610ba5565b60405180910390a3505050565b5f81519050919050565b5f82825260208201905092915050565b5f5b83811015610a21578082015181840152602081019050610a06565b5f8484015250505050565b5f601f19601f8301169050919050565b5f610a46826109ea565b610a5081856109f4565b9350610a60818560208601610a04565b610a6981610a2c565b840191505092915050565b5f6020820190508181035f830152610a8c8184610a3c565b905092915050565b5f80fd5b5f73ffffffffffffffffffffffffffffffffffffffff82169050919050565b5f610ac182610a98565b9050919050565b610ad181610ab7565b8114610adb575f80fd5b50565b5f81359050610aec81610ac8565b92915050565b5f819050919050565b610b0481610af2565b8114610b0e575f80fd5b50565b5f81359050610b1f81610afb565b92915050565b5f8060408385031215610b3b57610b3a610a94565b5b5f610b4885828601610ade565b9250506020610b5985828601610b11565b9150509250929050565b5f8115159050919050565b610b7781610b63565b82525050565b5f602082019050610b905f830184610b6e565b92915050565b610b9f81610af2565b82525050565b5f602082019050610bb85f830184610b96565b92915050565b5f805f60608486031215610bd557610bd4610a94565b5b5f610be286828701610ade565b9350506020610bf386828701610ade565b9250506040610c0486828701610b11565b9150509250925092565b5f60ff82169050919050565b610c2381610c0e565b82525050565b5f602082019050610c3c5f830184610c1a565b92915050565b5f60208284031215610c5757610c56610a94565b5b5f610c6484828501610ade565b91505092915050565b5f8060408385031215610c8357610c82610a94565b5b5f610c9085828601610ade565b9250506020610ca185828601610ade565b9150509250929050565b7f4e487b71000000000000000000000000000000000000000000000000000000005f52602260045260245ffd5b5f6002820490506001821680610cef57607f821691505b602082108103610d0257610d01610cab565b5b50919050565b610d1181610ab7565b82525050565b5f606082019050610d2a5f830186610d08565b610d376020830185610b96565b610d446040830184610b96565b949350505050565b5f602082019050610d5f5f830184610d08565b92915050565b7f4e487b71000000000000000000000000000000000000000000000000000000005f52601160045260245ffd5b5f610d9c82610af2565b9150610da783610af2565b9250828201905080821115610dbf57610dbe610d65565b5b9291505056fea2646970667358221220097ba5f498633311372f2242385ba873d24b432bf469d120da86ddee5ca6f6ec64736f6c63430008160033",
					"opcodes": "PUSH1 0x80 PUSH1 0x40 MSTORE PUSH1 0x40 MLOAD DUP1 PUSH1 0x60 ADD PUSH1 0x40 MSTORE DUP1 PUSH1 0x40 MLOAD DUP1 PUSH1 0x40 ADD PUSH1 0x40 MSTORE DUP1 PUSH1 0xB DUP2 MSTORE PUSH1 0x20 ADD PUSH32 0x566965746E616D446F6E67000000000000000000000000000000000000000000 DUP2 MSTORE POP DUP2 MSTORE PUSH1 0x20 ADD PUSH1 0x40 MLOAD DUP1 PUSH1 0x40 ADD PUSH1 0x40 MSTORE DUP1 PUSH1 0x11 DUP2 MSTORE PUSH1 0x20 ADD PUSH32 0x556E697465645374617465446F6C6C6172000000000000000000000000000000 DUP2 MSTORE POP DUP2 MSTORE PUSH1 0x20 ADD PUSH1 0x40 MLOAD DUP1 PUSH1 0x40 ADD PUSH1 0x40 MSTORE DUP1 PUSH1 0x10 DUP2 MSTORE PUSH1 0x20 ADD PUSH32 0x4175737472616C69616E446F6C6C617200000000000000000000000000000000 DUP2 MSTORE POP DUP2 MSTORE POP PUSH0 SWAP1 PUSH1 0x3 PUSH3 0xCF SWAP3 SWAP2 SWAP1 PUSH3 0x337 JUMP JUMPDEST POP PUSH1 0x40 MLOAD DUP1 PUSH1 0x60 ADD PUSH1 0x40 MSTORE DUP1 PUSH1 0x40 MLOAD DUP1 PUSH1 0x40 ADD PUSH1 0x40 MSTORE DUP1 PUSH1 0x3 DUP2 MSTORE PUSH1 0x20 ADD PUSH32 0x564E440000000000000000000000000000000000000000000000000000000000 DUP2 MSTORE POP DUP2 MSTORE PUSH1 0x20 ADD PUSH1 0x40 MLOAD DUP1 PUSH1 0x40 ADD PUSH1 0x40 MSTORE DUP1 PUSH1 0x3 DUP2 MSTORE PUSH1 0x20 ADD PUSH32 0x5553440000000000000000000000000000000000000000000000000000000000 DUP2 MSTORE POP DUP2 MSTORE PUSH1 0x20 ADD PUSH1 0x40 MLOAD DUP1 PUSH1 0x40 ADD PUSH1 0x40 MSTORE DUP1 PUSH1 0x3 DUP2 MSTORE PUSH1 0x20 ADD PUSH32 0x4155440000000000000000000000000000000000000000000000000000000000 DUP2 MSTORE POP DUP2 MSTORE POP PUSH1 0x1 SWAP1 PUSH1 0x3 PUSH3 0x19C SWAP3 SWAP2 SWAP1 PUSH3 0x337 JUMP JUMPDEST POP CALLVALUE DUP1 ISZERO PUSH3 0x1A9 JUMPI PUSH0 DUP1 REVERT JUMPDEST POP PUSH0 JUMPDEST PUSH1 0x3 DUP2 LT ISZERO PUSH3 0x2B5 JUMPI PUSH0 DUP1 DUP3 DUP2 SLOAD DUP2 LT PUSH3 0x1CD JUMPI PUSH3 0x1CC PUSH3 0x42A JUMP JUMPDEST JUMPDEST SWAP1 PUSH0 MSTORE PUSH1 0x20 PUSH0 KECCAK256 ADD PUSH1 0x1 DUP4 DUP2 SLOAD DUP2 LT PUSH3 0x1EC JUMPI PUSH3 0x1EB PUSH3 0x42A JUMP JUMPDEST JUMPDEST SWAP1 PUSH0 MSTORE PUSH1 0x20 PUSH0 KECCAK256 ADD PUSH1 0x40 MLOAD PUSH3 0x202 SWAP1 PUSH3 0x395 JUMP JUMPDEST PUSH3 0x20F SWAP3 SWAP2 SWAP1 PUSH3 0x567 JUMP JUMPDEST PUSH1 0x40 MLOAD DUP1 SWAP2 SUB SWAP1 PUSH0 CREATE DUP1 ISZERO DUP1 ISZERO PUSH3 0x229 JUMPI RETURNDATASIZE PUSH0 DUP1 RETURNDATACOPY RETURNDATASIZE PUSH0 REVERT JUMPDEST POP SWAP1 POP DUP1 PUSH1 0x3 PUSH1 0x1 DUP5 DUP2 SLOAD DUP2 LT PUSH3 0x246 JUMPI PUSH3 0x245 PUSH3 0x42A JUMP JUMPDEST JUMPDEST SWAP1 PUSH0 MSTORE PUSH1 0x20 PUSH0 KECCAK256 ADD PUSH1 0x40 MLOAD PUSH3 0x25D SWAP2 SWAP1 PUSH3 0x636 JUMP JUMPDEST SWAP1 DUP2 MSTORE PUSH1 0x20 ADD PUSH1 0x40 MLOAD DUP1 SWAP2 SUB SWAP1 KECCAK256 PUSH0 PUSH2 0x100 EXP DUP2 SLOAD DUP2 PUSH20 0xFFFFFFFFFFFFFFFFFFFFFFFFFFFFFFFFFFFFFFFF MUL NOT AND SWAP1 DUP4 PUSH20 0xFFFFFFFFFFFFFFFFFFFFFFFFFFFFFFFFFFFFFFFF AND MUL OR SWAP1 SSTORE POP POP DUP1 PUSH1 0x1 ADD SWAP1 POP PUSH3 0x1AC JUMP JUMPDEST POP PUSH5 0x3BF2AD3FB PUSH1 0x2 PUSH1 0x40 MLOAD PUSH3 0x2CC SWAP1 PUSH3 0x69C JUMP JUMPDEST SWAP1 DUP2 MSTORE PUSH1 0x20 ADD PUSH1 0x40 MLOAD DUP1 SWAP2 SUB SWAP1 KECCAK256 DUP2 SWAP1 SSTORE POP PUSH7 0x162B3F3766000 PUSH1 0x2 PUSH1 0x40 MLOAD PUSH3 0x2F6 SWAP1 PUSH3 0x700 JUMP JUMPDEST SWAP1 DUP2 MSTORE PUSH1 0x20 ADD PUSH1 0x40 MLOAD DUP1 SWAP2 SUB SWAP1 KECCAK256 DUP2 SWAP1 SSTORE POP PUSH6 0xEFE521D4FF24 PUSH1 0x2 PUSH1 0x40 MLOAD PUSH3 0x31F SWAP1 PUSH3 0x764 JUMP JUMPDEST SWAP1 DUP2 MSTORE PUSH1 0x20 ADD PUSH1 0x40 MLOAD DUP1 SWAP2 SUB SWAP1 KECCAK256 DUP2 SWAP1 SSTORE POP PUSH3 0xA4F JUMP JUMPDEST DUP3 DUP1 SLOAD DUP3 DUP3 SSTORE SWAP1 PUSH0 MSTORE PUSH1 0x20 PUSH0 KECCAK256 SWAP1 DUP2 ADD SWAP3 DUP3 ISZERO PUSH3 0x382 JUMPI SWAP2 PUSH1 0x20 MUL DUP3 ADD JUMPDEST DUP3 DUP2 GT ISZERO PUSH3 0x381 JUMPI DUP3 MLOAD DUP3 SWAP1 DUP2 PUSH3 0x370 SWAP2 SWAP1 PUSH3 0x96B JUMP JUMPDEST POP SWAP2 PUSH1 0x20 ADD SWAP2 SWAP1 PUSH1 0x1 ADD SWAP1 PUSH3 0x356 JUMP JUMPDEST JUMPDEST POP SWAP1 POP PUSH3 0x391 SWAP2 SWAP1 PUSH3 0x3A3 JUMP JUMPDEST POP SWAP1 JUMP JUMPDEST PUSH2 0x1788 DUP1 PUSH3 0x1DF0 DUP4 CODECOPY ADD SWAP1 JUMP JUMPDEST JUMPDEST DUP1 DUP3 GT ISZERO PUSH3 0x3C6 JUMPI PUSH0 DUP2 DUP2 PUSH3 0x3BC SWAP2 SWAP1 PUSH3 0x3CA JUMP JUMPDEST POP PUSH1 0x1 ADD PUSH3 0x3A4 JUMP JUMPDEST POP SWAP1 JUMP JUMPDEST POP DUP1 SLOAD PUSH3 0x3D8 SWAP1 PUSH3 0x484 JUMP JUMPDEST PUSH0 DUP3 SSTORE DUP1 PUSH1 0x1F LT PUSH3 0x3EB JUMPI POP PUSH3 0x40A JUMP JUMPDEST PUSH1 0x1F ADD PUSH1 0x20 SWAP1 DIV SWAP1 PUSH0 MSTORE PUSH1 0x20 PUSH0 KECCAK256 SWAP1 DUP2 ADD SWAP1 PUSH3 0x409 SWAP2 SWAP1 PUSH3 0x40D JUMP JUMPDEST JUMPDEST POP JUMP JUMPDEST JUMPDEST DUP1 DUP3 GT ISZERO PUSH3 0x426 JUMPI PUSH0 DUP2 PUSH0 SWAP1 SSTORE POP PUSH1 0x1 ADD PUSH3 0x40E JUMP JUMPDEST POP SWAP1 JUMP JUMPDEST PUSH32 0x4E487B7100000000000000000000000000000000000000000000000000000000 PUSH0 MSTORE PUSH1 0x32 PUSH1 0x4 MSTORE PUSH1 0x24 PUSH0 REVERT JUMPDEST PUSH32 0x4E487B7100000000000000000000000000000000000000000000000000000000 PUSH0 MSTORE PUSH1 0x22 PUSH1 0x4 MSTORE PUSH1 0x24 PUSH0 REVERT JUMPDEST PUSH0 PUSH1 0x2 DUP3 DIV SWAP1 POP PUSH1 0x1 DUP3 AND DUP1 PUSH3 0x49C JUMPI PUSH1 0x7F DUP3 AND SWAP2 POP JUMPDEST PUSH1 0x20 DUP3 LT DUP2 SUB PUSH3 0x4B2 JUMPI PUSH3 0x4B1 PUSH3 0x457 JUMP JUMPDEST JUMPDEST POP SWAP2 SWAP1 POP JUMP JUMPDEST PUSH0 DUP3 DUP3 MSTORE PUSH1 0x20 DUP3 ADD SWAP1 POP SWAP3 SWAP2 POP POP JUMP JUMPDEST PUSH0 DUP2 SWAP1 POP DUP2 PUSH0 MSTORE PUSH1 0x20 PUSH0 KECCAK256 SWAP1 POP SWAP2 SWAP1 POP JUMP JUMPDEST PUSH0 DUP2 SLOAD PUSH3 0x4E8 DUP2 PUSH3 0x484 JUMP JUMPDEST PUSH3 0x4F4 DUP2 DUP7 PUSH3 0x4B8 JUMP JUMPDEST SWAP5 POP PUSH1 0x1 DUP3 AND PUSH0 DUP2 EQ PUSH3 0x511 JUMPI PUSH1 0x1 DUP2 EQ PUSH3 0x528 JUMPI PUSH3 0x55E JUMP JUMPDEST PUSH1 0xFF NOT DUP4 AND DUP7 MSTORE DUP2 ISZERO ISZERO PUSH1 0x20 MUL DUP7 ADD SWAP4 POP PUSH3 0x55E JUMP JUMPDEST PUSH3 0x533 DUP6 PUSH3 0x4C8 JUMP JUMPDEST PUSH0 JUMPDEST DUP4 DUP2 LT ISZERO PUSH3 0x556 JUMPI DUP2 SLOAD DUP2 DUP10 ADD MSTORE PUSH1 0x1 DUP3 ADD SWAP2 POP PUSH1 0x20 DUP2 ADD SWAP1 POP PUSH3 0x535 JUMP JUMPDEST DUP1 DUP9 ADD SWAP6 POP POP POP JUMPDEST POP POP POP SWAP3 SWAP2 POP POP JUMP JUMPDEST PUSH0 PUSH1 0x40 DUP3 ADD SWAP1 POP DUP2 DUP2 SUB PUSH0 DUP4 ADD MSTORE PUSH3 0x581 DUP2 DUP6 PUSH3 0x4DA JUMP JUMPDEST SWAP1 POP DUP2 DUP2 SUB PUSH1 0x20 DUP4 ADD MSTORE PUSH3 0x597 DUP2 DUP5 PUSH3 0x4DA JUMP JUMPDEST SWAP1 POP SWAP4 SWAP3 POP POP POP JUMP JUMPDEST PUSH0 DUP2 SWAP1 POP SWAP3 SWAP2 POP POP JUMP JUMPDEST PUSH0 DUP2 SLOAD PUSH3 0x5B8 DUP2 PUSH3 0x484 JUMP JUMPDEST PUSH3 0x5C4 DUP2 DUP7 PUSH3 0x5A0 JUMP JUMPDEST SWAP5 POP PUSH1 0x1 DUP3 AND PUSH0 DUP2 EQ PUSH3 0x5E1 JUMPI PUSH1 0x1 DUP2 EQ PUSH3 0x5F7 JUMPI PUSH3 0x62D JUMP JUMPDEST PUSH1 0xFF NOT DUP4 AND DUP7 MSTORE DUP2 ISZERO ISZERO DUP3 MUL DUP7 ADD SWAP4 POP PUSH3 0x62D JUMP JUMPDEST PUSH3 0x602 DUP6 PUSH3 0x4C8 JUMP JUMPDEST PUSH0 JUMPDEST DUP4 DUP2 LT ISZERO PUSH3 0x625 JUMPI DUP2 SLOAD DUP2 DUP10 ADD MSTORE PUSH1 0x1 DUP3 ADD SWAP2 POP PUSH1 0x20 DUP2 ADD SWAP1 POP PUSH3 0x604 JUMP JUMPDEST DUP4 DUP9 ADD SWAP6 POP POP POP JUMPDEST POP POP POP SWAP3 SWAP2 POP POP JUMP JUMPDEST PUSH0 PUSH3 0x643 DUP3 DUP5 PUSH3 0x5AA JUMP JUMPDEST SWAP2 POP DUP2 SWAP1 POP SWAP3 SWAP2 POP POP JUMP JUMPDEST PUSH32 0x564E440000000000000000000000000000000000000000000000000000000000 PUSH0 DUP3 ADD MSTORE POP JUMP JUMPDEST PUSH0 PUSH3 0x684 PUSH1 0x3 DUP4 PUSH3 0x5A0 JUMP JUMPDEST SWAP2 POP PUSH3 0x691 DUP3 PUSH3 0x64E JUMP JUMPDEST PUSH1 0x3 DUP3 ADD SWAP1 POP SWAP2 SWAP1 POP JUMP JUMPDEST PUSH0 PUSH3 0x6A8 DUP3 PUSH3 0x676 JUMP JUMPDEST SWAP2 POP DUP2 SWAP1 POP SWAP2 SWAP1 POP JUMP JUMPDEST PUSH32 0x5553440000000000000000000000000000000000000000000000000000000000 PUSH0 DUP3 ADD MSTORE POP JUMP JUMPDEST PUSH0 PUSH3 0x6E8 PUSH1 0x3 DUP4 PUSH3 0x5A0 JUMP JUMPDEST SWAP2 POP PUSH3 0x6F5 DUP3 PUSH3 0x6B2 JUMP JUMPDEST PUSH1 0x3 DUP3 ADD SWAP1 POP SWAP2 SWAP1 POP JUMP JUMPDEST PUSH0 PUSH3 0x70C DUP3 PUSH3 0x6DA JUMP JUMPDEST SWAP2 POP DUP2 SWAP1 POP SWAP2 SWAP1 POP JUMP JUMPDEST PUSH32 0x4155440000000000000000000000000000000000000000000000000000000000 PUSH0 DUP3 ADD MSTORE POP JUMP JUMPDEST PUSH0 PUSH3 0x74C PUSH1 0x3 DUP4 PUSH3 0x5A0 JUMP JUMPDEST SWAP2 POP PUSH3 0x759 DUP3 PUSH3 0x716 JUMP JUMPDEST PUSH1 0x3 DUP3 ADD SWAP1 POP SWAP2 SWAP1 POP JUMP JUMPDEST PUSH0 PUSH3 0x770 DUP3 PUSH3 0x73E JUMP JUMPDEST SWAP2 POP DUP2 SWAP1 POP SWAP2 SWAP1 POP JUMP JUMPDEST PUSH0 DUP2 MLOAD SWAP1 POP SWAP2 SWAP1 POP JUMP JUMPDEST PUSH32 0x4E487B7100000000000000000000000000000000000000000000000000000000 PUSH0 MSTORE PUSH1 0x41 PUSH1 0x4 MSTORE PUSH1 0x24 PUSH0 REVERT JUMPDEST PUSH0 PUSH1 0x20 PUSH1 0x1F DUP4 ADD DIV SWAP1 POP SWAP2 SWAP1 POP JUMP JUMPDEST PUSH0 DUP3 DUP3 SHL SWAP1 POP SWAP3 SWAP2 POP POP JUMP JUMPDEST PUSH0 PUSH1 0x8 DUP4 MUL PUSH3 0x7FD PUSH32 0xFFFFFFFFFFFFFFFFFFFFFFFFFFFFFFFFFFFFFFFFFFFFFFFFFFFFFFFFFFFFFFFF DUP3 PUSH3 0x7C0 JUMP JUMPDEST PUSH3 0x809 DUP7 DUP4 PUSH3 0x7C0 JUMP JUMPDEST SWAP6 POP DUP1 NOT DUP5 AND SWAP4 POP DUP1 DUP7 AND DUP5 OR SWAP3 POP POP POP SWAP4 SWAP3 POP POP POP JUMP JUMPDEST PUSH0 DUP2 SWAP1 POP SWAP2 SWAP1 POP JUMP JUMPDEST PUSH0 DUP2 SWAP1 POP SWAP2 SWAP1 POP JUMP JUMPDEST PUSH0 PUSH3 0x853 PUSH3 0x84D PUSH3 0x847 DUP5 PUSH3 0x821 JUMP JUMPDEST PUSH3 0x82A JUMP JUMPDEST PUSH3 0x821 JUMP JUMPDEST SWAP1 POP SWAP2 SWAP1 POP JUMP JUMPDEST PUSH0 DUP2 SWAP1 POP SWAP2 SWAP1 POP JUMP JUMPDEST PUSH3 0x86E DUP4 PUSH3 0x833 JUMP JUMPDEST PUSH3 0x886 PUSH3 0x87D DUP3 PUSH3 0x85A JUMP JUMPDEST DUP5 DUP5 SLOAD PUSH3 0x7CC JUMP JUMPDEST DUP3 SSTORE POP POP POP POP JUMP JUMPDEST PUSH0 SWAP1 JUMP JUMPDEST PUSH3 0x89C PUSH3 0x88E JUMP JUMPDEST PUSH3 0x8A9 DUP2 DUP5 DUP5 PUSH3 0x863 JUMP JUMPDEST POP POP POP JUMP JUMPDEST JUMPDEST DUP2 DUP2 LT ISZERO PUSH3 0x8D0 JUMPI PUSH3 0x8C4 PUSH0 DUP3 PUSH3 0x892 JUMP JUMPDEST PUSH1 0x1 DUP2 ADD SWAP1 POP PUSH3 0x8AF JUMP JUMPDEST POP POP JUMP JUMPDEST PUSH1 0x1F DUP3 GT ISZERO PUSH3 0x91F JUMPI PUSH3 0x8E9 DUP2 PUSH3 0x4C8 JUMP JUMPDEST PUSH3 0x8F4 DUP5 PUSH3 0x7B1 JUMP JUMPDEST DUP2 ADD PUSH1 0x20 DUP6 LT ISZERO PUSH3 0x904 JUMPI DUP2 SWAP1 POP JUMPDEST PUSH3 0x91C PUSH3 0x913 DUP6 PUSH3 0x7B1 JUMP JUMPDEST DUP4 ADD DUP3 PUSH3 0x8AE JUMP JUMPDEST POP POP JUMPDEST POP POP POP JUMP JUMPDEST PUSH0 DUP3 DUP3 SHR SWAP1 POP SWAP3 SWAP2 POP POP JUMP JUMPDEST PUSH0 PUSH3 0x941 PUSH0 NOT DUP5 PUSH1 0x8 MUL PUSH3 0x924 JUMP JUMPDEST NOT DUP1 DUP4 AND SWAP2 POP POP SWAP3 SWAP2 POP POP JUMP JUMPDEST PUSH0 PUSH3 0x95B DUP4 DUP4 PUSH3 0x930 JUMP JUMPDEST SWAP2 POP DUP3 PUSH1 0x2 MUL DUP3 OR SWAP1 POP SWAP3 SWAP2 POP POP JUMP JUMPDEST PUSH3 0x976 DUP3 PUSH3 0x77A JUMP JUMPDEST PUSH8 0xFFFFFFFFFFFFFFFF DUP2 GT ISZERO PUSH3 0x992 JUMPI PUSH3 0x991 PUSH3 0x784 JUMP JUMPDEST JUMPDEST PUSH3 0x99E DUP3 SLOAD PUSH3 0x484 JUMP JUMPDEST PUSH3 0x9AB DUP3 DUP3 DUP6 PUSH3 0x8D4 JUMP JUMPDEST PUSH0 PUSH1 0x20 SWAP1 POP PUSH1 0x1F DUP4 GT PUSH1 0x1 DUP2 EQ PUSH3 0x9E1 JUMPI PUSH0 DUP5 ISZERO PUSH3 0x9CC JUMPI DUP3 DUP8 ADD MLOAD SWAP1 POP JUMPDEST PUSH3 0x9D8 DUP6 DUP3 PUSH3 0x94E JUMP JUMPDEST DUP7 SSTORE POP PUSH3 0xA47 JUMP JUMPDEST PUSH1 0x1F NOT DUP5 AND PUSH3 0x9F1 DUP7 PUSH3 0x4C8 JUMP JUMPDEST PUSH0 JUMPDEST DUP3 DUP2 LT ISZERO PUSH3 0xA1A JUMPI DUP5 DUP10 ADD MLOAD DUP3 SSTORE PUSH1 0x1 DUP3 ADD SWAP2 POP PUSH1 0x20 DUP6 ADD SWAP5 POP PUSH1 0x20 DUP2 ADD SWAP1 POP PUSH3 0x9F3 JUMP JUMPDEST DUP7 DUP4 LT ISZERO PUSH3 0xA3A JUMPI DUP5 DUP10 ADD MLOAD PUSH3 0xA36 PUSH1 0x1F DUP10 AND DUP3 PUSH3 0x930 JUMP JUMPDEST DUP4 SSTORE POP JUMPDEST PUSH1 0x1 PUSH1 0x2 DUP9 MUL ADD DUP9 SSTORE POP POP POP JUMPDEST POP POP POP POP POP POP JUMP JUMPDEST PUSH2 0x1393 DUP1 PUSH3 0xA5D PUSH0 CODECOPY PUSH0 RETURN INVALID PUSH1 0x80 PUSH1 0x40 MSTORE PUSH1 0x4 CALLDATASIZE LT PUSH2 0x85 JUMPI PUSH0 CALLDATALOAD PUSH1 0xE0 SHR DUP1 PUSH4 0x6E7DDEA8 GT PUSH2 0x58 JUMPI DUP1 PUSH4 0x6E7DDEA8 EQ PUSH2 0x16D JUMPI DUP1 PUSH4 0x89F4B317 EQ PUSH2 0x1A9 JUMPI DUP1 PUSH4 0xBF015AAE EQ PUSH2 0x1E5 JUMPI DUP1 PUSH4 0xBF40FAC1 EQ PUSH2 0x20D JUMPI DUP1 PUSH4 0xDB6F63EE EQ PUSH2 0x249 JUMPI PUSH2 0x85 JUMP JUMPDEST DUP1 PUSH4 0x4C2320B EQ PUSH2 0x89 JUMPI DUP1 PUSH4 0x310495AB EQ PUSH2 0xC5 JUMPI DUP1 PUSH4 0x63FCF7C5 EQ PUSH2 0x101 JUMPI DUP1 PUSH4 0x6932CF81 EQ PUSH2 0x131 JUMPI JUMPDEST PUSH0 DUP1 REVERT JUMPDEST CALLVALUE DUP1 ISZERO PUSH2 0x94 JUMPI PUSH0 DUP1 REVERT JUMPDEST POP PUSH2 0xAF PUSH1 0x4 DUP1 CALLDATASIZE SUB DUP2 ADD SWAP1 PUSH2 0xAA SWAP2 SWAP1 PUSH2 0xA4E JUMP JUMPDEST PUSH2 0x285 JUMP JUMPDEST PUSH1 0x40 MLOAD PUSH2 0xBC SWAP2 SWAP1 PUSH2 0xB0F JUMP JUMPDEST PUSH1 0x40 MLOAD DUP1 SWAP2 SUB SWAP1 RETURN JUMPDEST CALLVALUE DUP1 ISZERO PUSH2 0xD0 JUMPI PUSH0 DUP1 REVERT JUMPDEST POP PUSH2 0xEB PUSH1 0x4 DUP1 CALLDATASIZE SUB DUP2 ADD SWAP1 PUSH2 0xE6 SWAP2 SWAP1 PUSH2 0xB5B JUMP JUMPDEST PUSH2 0x2CD JUMP JUMPDEST PUSH1 0x40 MLOAD PUSH2 0xF8 SWAP2 SWAP1 PUSH2 0xC00 JUMP JUMPDEST PUSH1 0x40 MLOAD DUP1 SWAP2 SUB SWAP1 RETURN JUMPDEST PUSH2 0x11B PUSH1 0x4 DUP1 CALLDATASIZE SUB DUP2 ADD SWAP1 PUSH2 0x116 SWAP2 SWAP1 PUSH2 0xA4E JUMP JUMPDEST PUSH2 0x372 JUMP JUMPDEST PUSH1 0x40 MLOAD PUSH2 0x128 SWAP2 SWAP1 PUSH2 0xC2F JUMP JUMPDEST PUSH1 0x40 MLOAD DUP1 SWAP2 SUB SWAP1 RETURN JUMPDEST CALLVALUE DUP1 ISZERO PUSH2 0x13C JUMPI PUSH0 DUP1 REVERT JUMPDEST POP PUSH2 0x157 PUSH1 0x4 DUP1 CALLDATASIZE SUB DUP2 ADD SWAP1 PUSH2 0x152 SWAP2 SWAP1 PUSH2 0xA4E JUMP JUMPDEST PUSH2 0x50F JUMP JUMPDEST PUSH1 0x40 MLOAD PUSH2 0x164 SWAP2 SWAP1 PUSH2 0xC00 JUMP JUMPDEST PUSH1 0x40 MLOAD DUP1 SWAP2 SUB SWAP1 RETURN JUMPDEST CALLVALUE DUP1 ISZERO PUSH2 0x178 JUMPI PUSH0 DUP1 REVERT JUMPDEST POP PUSH2 0x193 PUSH1 0x4 DUP1 CALLDATASIZE SUB DUP2 ADD SWAP1 PUSH2 0x18E SWAP2 SWAP1 PUSH2 0xB5B JUMP JUMPDEST PUSH2 0x5C5 JUMP JUMPDEST PUSH1 0x40 MLOAD PUSH2 0x1A0 SWAP2 SWAP1 PUSH2 0xC00 JUMP JUMPDEST PUSH1 0x40 MLOAD DUP1 SWAP2 SUB SWAP1 RETURN JUMPDEST CALLVALUE DUP1 ISZERO PUSH2 0x1B4 JUMPI PUSH0 DUP1 REVERT JUMPDEST POP PUSH2 0x1CF PUSH1 0x4 DUP1 CALLDATASIZE SUB DUP2 ADD SWAP1 PUSH2 0x1CA SWAP2 SWAP1 PUSH2 0xC83 JUMP JUMPDEST PUSH2 0x66B JUMP JUMPDEST PUSH1 0x40 MLOAD PUSH2 0x1DC SWAP2 SWAP1 PUSH2 0xC2F JUMP JUMPDEST PUSH1 0x40 MLOAD DUP1 SWAP2 SUB SWAP1 RETURN JUMPDEST CALLVALUE DUP1 ISZERO PUSH2 0x1F0 JUMPI PUSH0 DUP1 REVERT JUMPDEST POP PUSH2 0x20B PUSH1 0x4 DUP1 CALLDATASIZE SUB DUP2 ADD SWAP1 PUSH2 0x206 SWAP2 SWAP1 PUSH2 0xCDD JUMP JUMPDEST PUSH2 0x729 JUMP JUMPDEST STOP JUMPDEST CALLVALUE DUP1 ISZERO PUSH2 0x218 JUMPI PUSH0 DUP1 REVERT JUMPDEST POP PUSH2 0x233 PUSH1 0x4 DUP1 CALLDATASIZE SUB DUP2 ADD SWAP1 PUSH2 0x22E SWAP2 SWAP1 PUSH2 0xA4E JUMP JUMPDEST PUSH2 0x72E JUMP JUMPDEST PUSH1 0x40 MLOAD PUSH2 0x240 SWAP2 SWAP1 PUSH2 0xD74 JUMP JUMPDEST PUSH1 0x40 MLOAD DUP1 SWAP2 SUB SWAP1 RETURN JUMPDEST CALLVALUE DUP1 ISZERO PUSH2 0x254 JUMPI PUSH0 DUP1 REVERT JUMPDEST POP PUSH2 0x26F PUSH1 0x4 DUP1 CALLDATASIZE SUB DUP2 ADD SWAP1 PUSH2 0x26A SWAP2 SWAP1 PUSH2 0xD8D JUMP JUMPDEST PUSH2 0x774 JUMP JUMPDEST PUSH1 0x40 MLOAD PUSH2 0x27C SWAP2 SWAP1 PUSH2 0xC2F JUMP JUMPDEST PUSH1 0x40 MLOAD DUP1 SWAP2 SUB SWAP1 RETURN JUMPDEST PUSH1 0x3 DUP2 DUP1 MLOAD PUSH1 0x20 DUP2 ADD DUP3 ADD DUP1 MLOAD DUP5 DUP3 MSTORE PUSH1 0x20 DUP4 ADD PUSH1 0x20 DUP6 ADD KECCAK256 DUP2 DUP4 MSTORE DUP1 SWAP6 POP POP POP POP POP POP PUSH0 SWAP2 POP SLOAD SWAP1 PUSH2 0x100 EXP SWAP1 DIV PUSH20 0xFFFFFFFFFFFFFFFFFFFFFFFFFFFFFFFFFFFFFFFF AND DUP2 JUMP JUMPDEST PUSH0 DUP2 DUP2 SLOAD DUP2 LT PUSH2 0x2DB JUMPI PUSH0 DUP1 REVERT JUMPDEST SWAP1 PUSH0 MSTORE PUSH1 0x20 PUSH0 KECCAK256 ADD PUSH0 SWAP2 POP SWAP1 POP DUP1 SLOAD PUSH2 0x2F3 SWAP1 PUSH2 0xE14 JUMP JUMPDEST DUP1 PUSH1 0x1F ADD PUSH1 0x20 DUP1 SWAP2 DIV MUL PUSH1 0x20 ADD PUSH1 0x40 MLOAD SWAP1 DUP2 ADD PUSH1 0x40 MSTORE DUP1 SWAP3 SWAP2 SWAP1 DUP2 DUP2 MSTORE PUSH1 0x20 ADD DUP3 DUP1 SLOAD PUSH2 0x31F SWAP1 PUSH2 0xE14 JUMP JUMPDEST DUP1 ISZERO PUSH2 0x36A JUMPI DUP1 PUSH1 0x1F LT PUSH2 0x341 JUMPI PUSH2 0x100 DUP1 DUP4 SLOAD DIV MUL DUP4 MSTORE SWAP2 PUSH1 0x20 ADD SWAP2 PUSH2 0x36A JUMP JUMPDEST DUP3 ADD SWAP2 SWAP1 PUSH0 MSTORE PUSH1 0x20 PUSH0 KECCAK256 SWAP1 JUMPDEST DUP2 SLOAD DUP2 MSTORE SWAP1 PUSH1 0x1 ADD SWAP1 PUSH1 0x20 ADD DUP1 DUP4 GT PUSH2 0x34D JUMPI DUP3 SWAP1 SUB PUSH1 0x1F AND DUP3 ADD SWAP2 JUMPDEST POP POP POP POP POP DUP2 JUMP JUMPDEST PUSH0 PUSH5 0xE8D4A51000 CALLVALUE GT PUSH2 0x3BA JUMPI PUSH1 0x40 MLOAD PUSH32 0x8C379A000000000000000000000000000000000000000000000000000000000 DUP2 MSTORE PUSH1 0x4 ADD PUSH2 0x3B1 SWAP1 PUSH2 0xE8E JUMP JUMPDEST PUSH1 0x40 MLOAD DUP1 SWAP2 SUB SWAP1 REVERT JUMPDEST PUSH0 DUP1 JUMPDEST PUSH1 0x1 DUP1 SLOAD SWAP1 POP DUP2 LT ISZERO PUSH2 0x478 JUMPI DUP4 PUSH20 0x0 PUSH4 0x89DBCD35 SWAP1 SWAP2 PUSH1 0x1 DUP5 DUP2 SLOAD DUP2 LT PUSH2 0x3FB JUMPI PUSH2 0x3FA PUSH2 0xEAC JUMP JUMPDEST JUMPDEST SWAP1 PUSH0 MSTORE PUSH1 0x20 PUSH0 KECCAK256 ADD PUSH1 0x40 MLOAD DUP4 PUSH4 0xFFFFFFFF AND PUSH1 0xE0 SHL DUP2 MSTORE PUSH1 0x4 ADD PUSH2 0x420 SWAP3 SWAP2 SWAP1 PUSH2 0xFB4 JUMP JUMPDEST PUSH1 0x20 PUSH1 0x40 MLOAD DUP1 DUP4 SUB DUP2 DUP7 GAS DELEGATECALL ISZERO DUP1 ISZERO PUSH2 0x43B JUMPI RETURNDATASIZE PUSH0 DUP1 RETURNDATACOPY RETURNDATASIZE PUSH0 REVERT JUMPDEST POP POP POP POP PUSH1 0x40 MLOAD RETURNDATASIZE PUSH1 0x1F NOT PUSH1 0x1F DUP3 ADD AND DUP3 ADD DUP1 PUSH1 0x40 MSTORE POP DUP2 ADD SWAP1 PUSH2 0x45F SWAP2 SWAP1 PUSH2 0x101E JUMP JUMPDEST ISZERO PUSH2 0x46D JUMPI PUSH1 0x1 SWAP2 POP PUSH2 0x478 JUMP JUMPDEST DUP1 PUSH1 0x1 ADD SWAP1 POP PUSH2 0x3BD JUMP JUMPDEST POP PUSH1 0x1 ISZERO ISZERO DUP2 ISZERO ISZERO EQ PUSH2 0x4C0 JUMPI PUSH1 0x40 MLOAD PUSH32 0x8C379A000000000000000000000000000000000000000000000000000000000 DUP2 MSTORE PUSH1 0x4 ADD PUSH2 0x4B7 SWAP1 PUSH2 0x1093 JUMP JUMPDEST PUSH1 0x40 MLOAD DUP1 SWAP2 SUB SWAP1 REVERT JUMPDEST PUSH0 CALLVALUE SWAP1 POP PUSH0 PUSH8 0xDE0B6B3A7640000 PUSH1 0x2 DUP7 PUSH1 0x40 MLOAD PUSH2 0x4DE SWAP2 SWAP1 PUSH2 0x10EB JUMP JUMPDEST SWAP1 DUP2 MSTORE PUSH1 0x20 ADD PUSH1 0x40 MLOAD DUP1 SWAP2 SUB SWAP1 KECCAK256 SLOAD DUP4 PUSH2 0x4F8 SWAP2 SWAP1 PUSH2 0x115B JUMP JUMPDEST PUSH2 0x502 SWAP2 SWAP1 PUSH2 0x118B JUMP JUMPDEST SWAP1 POP DUP1 SWAP4 POP POP POP POP SWAP2 SWAP1 POP JUMP JUMPDEST PUSH1 0x60 PUSH1 0x3 DUP3 PUSH1 0x40 MLOAD PUSH2 0x521 SWAP2 SWAP1 PUSH2 0x10EB JUMP JUMPDEST SWAP1 DUP2 MSTORE PUSH1 0x20 ADD PUSH1 0x40 MLOAD DUP1 SWAP2 SUB SWAP1 KECCAK256 PUSH0 SWAP1 SLOAD SWAP1 PUSH2 0x100 EXP SWAP1 DIV PUSH20 0xFFFFFFFFFFFFFFFFFFFFFFFFFFFFFFFFFFFFFFFF AND PUSH20 0xFFFFFFFFFFFFFFFFFFFFFFFFFFFFFFFFFFFFFFFF AND PUSH4 0x6FDDE03 PUSH1 0x40 MLOAD DUP2 PUSH4 0xFFFFFFFF AND PUSH1 0xE0 SHL DUP2 MSTORE PUSH1 0x4 ADD PUSH0 PUSH1 0x40 MLOAD DUP1 DUP4 SUB DUP2 DUP7 GAS STATICCALL ISZERO DUP1 ISZERO PUSH2 0x596 JUMPI RETURNDATASIZE PUSH0 DUP1 RETURNDATACOPY RETURNDATASIZE PUSH0 REVERT JUMPDEST POP POP POP POP PUSH1 0x40 MLOAD RETURNDATASIZE PUSH0 DUP3 RETURNDATACOPY RETURNDATASIZE PUSH1 0x1F NOT PUSH1 0x1F DUP3 ADD AND DUP3 ADD DUP1 PUSH1 0x40 MSTORE POP DUP2 ADD SWAP1 PUSH2 0x5BE SWAP2 SWAP1 PUSH2 0x123A JUMP JUMPDEST SWAP1 POP SWAP2 SWAP1 POP JUMP JUMPDEST PUSH1 0x1 DUP2 DUP2 SLOAD DUP2 LT PUSH2 0x5D4 JUMPI PUSH0 DUP1 REVERT JUMPDEST SWAP1 PUSH0 MSTORE PUSH1 0x20 PUSH0 KECCAK256 ADD PUSH0 SWAP2 POP SWAP1 POP DUP1 SLOAD PUSH2 0x5EC SWAP1 PUSH2 0xE14 JUMP JUMPDEST DUP1 PUSH1 0x1F ADD PUSH1 0x20 DUP1 SWAP2 DIV MUL PUSH1 0x20 ADD PUSH1 0x40 MLOAD SWAP1 DUP2 ADD PUSH1 0x40 MSTORE DUP1 SWAP3 SWAP2 SWAP1 DUP2 DUP2 MSTORE PUSH1 0x20 ADD DUP3 DUP1 SLOAD PUSH2 0x618 SWAP1 PUSH2 0xE14 JUMP JUMPDEST DUP1 ISZERO PUSH2 0x663 JUMPI DUP1 PUSH1 0x1F LT PUSH2 0x63A JUMPI PUSH2 0x100 DUP1 DUP4 SLOAD DIV MUL DUP4 MSTORE SWAP2 PUSH1 0x20 ADD SWAP2 PUSH2 0x663 JUMP JUMPDEST DUP3 ADD SWAP2 SWAP1 PUSH0 MSTORE PUSH1 0x20 PUSH0 KECCAK256 SWAP1 JUMPDEST DUP2 SLOAD DUP2 MSTORE SWAP1 PUSH1 0x1 ADD SWAP1 PUSH1 0x20 ADD DUP1 DUP4 GT PUSH2 0x646 JUMPI DUP3 SWAP1 SUB PUSH1 0x1F AND DUP3 ADD SWAP2 JUMPDEST POP POP POP POP POP DUP2 JUMP JUMPDEST PUSH0 PUSH1 0x3 DUP4 PUSH1 0x40 MLOAD PUSH2 0x67C SWAP2 SWAP1 PUSH2 0x10EB JUMP JUMPDEST SWAP1 DUP2 MSTORE PUSH1 0x20 ADD PUSH1 0x40 MLOAD DUP1 SWAP2 SUB SWAP1 KECCAK256 PUSH0 SWAP1 SLOAD SWAP1 PUSH2 0x100 EXP SWAP1 DIV PUSH20 0xFFFFFFFFFFFFFFFFFFFFFFFFFFFFFFFFFFFFFFFF AND PUSH20 0xFFFFFFFFFFFFFFFFFFFFFFFFFFFFFFFFFFFFFFFF AND PUSH4 0x70A08231 DUP4 PUSH1 0x40 MLOAD DUP3 PUSH4 0xFFFFFFFF AND PUSH1 0xE0 SHL DUP2 MSTORE PUSH1 0x4 ADD PUSH2 0x6E2 SWAP2 SWAP1 PUSH2 0xD74 JUMP JUMPDEST PUSH1 0x20 PUSH1 0x40 MLOAD DUP1 DUP4 SUB DUP2 DUP7 GAS STATICCALL ISZERO DUP1 ISZERO PUSH2 0x6FD JUMPI RETURNDATASIZE PUSH0 DUP1 RETURNDATACOPY RETURNDATASIZE PUSH0 REVERT JUMPDEST POP POP POP POP PUSH1 0x40 MLOAD RETURNDATASIZE PUSH1 0x1F NOT PUSH1 0x1F DUP3 ADD AND DUP3 ADD DUP1 PUSH1 0x40 MSTORE POP DUP2 ADD SWAP1 PUSH2 0x721 SWAP2 SWAP1 PUSH2 0x1295 JUMP JUMPDEST SWAP1 POP SWAP3 SWAP2 POP POP JUMP JUMPDEST POP POP POP JUMP JUMPDEST PUSH0 PUSH1 0x3 DUP3 PUSH1 0x40 MLOAD PUSH2 0x73F SWAP2 SWAP1 PUSH2 0x10EB JUMP JUMPDEST SWAP1 DUP2 MSTORE PUSH1 0x20 ADD PUSH1 0x40 MLOAD DUP1 SWAP2 SUB SWAP1 KECCAK256 PUSH0 SWAP1 SLOAD SWAP1 PUSH2 0x100 EXP SWAP1 DIV PUSH20 0xFFFFFFFFFFFFFFFFFFFFFFFFFFFFFFFFFFFFFFFF AND SWAP1 POP SWAP2 SWAP1 POP JUMP JUMPDEST PUSH0 DUP1 PUSH8 0xDE0B6B3A7640000 PUSH1 0x2 DUP6 PUSH1 0x40 MLOAD PUSH2 0x78F SWAP2 SWAP1 PUSH2 0x10EB JUMP JUMPDEST SWAP1 DUP2 MSTORE PUSH1 0x20 ADD PUSH1 0x40 MLOAD DUP1 SWAP2 SUB SWAP1 KECCAK256 SLOAD DUP5 PUSH2 0x7A9 SWAP2 SWAP1 PUSH2 0x118B JUMP JUMPDEST PUSH2 0x7B3 SWAP2 SWAP1 PUSH2 0x115B JUMP JUMPDEST SWAP1 POP DUP1 SELFBALANCE LT ISZERO PUSH2 0x7F8 JUMPI PUSH1 0x40 MLOAD PUSH32 0x8C379A000000000000000000000000000000000000000000000000000000000 DUP2 MSTORE PUSH1 0x4 ADD PUSH2 0x7EF SWAP1 PUSH2 0x130A JUMP JUMPDEST PUSH1 0x40 MLOAD DUP1 SWAP2 SUB SWAP1 REVERT JUMPDEST CALLER PUSH20 0xFFFFFFFFFFFFFFFFFFFFFFFFFFFFFFFFFFFFFFFF AND PUSH2 0x8FC DUP3 SWAP1 DUP2 ISZERO MUL SWAP1 PUSH1 0x40 MLOAD PUSH0 PUSH1 0x40 MLOAD DUP1 DUP4 SUB DUP2 DUP6 DUP9 DUP9 CALL SWAP4 POP POP POP POP ISZERO DUP1 ISZERO PUSH2 0x83B JUMPI RETURNDATASIZE PUSH0 DUP1 RETURNDATACOPY RETURNDATASIZE PUSH0 REVERT JUMPDEST POP PUSH1 0x3 DUP5 PUSH1 0x40 MLOAD PUSH2 0x84C SWAP2 SWAP1 PUSH2 0x10EB JUMP JUMPDEST SWAP1 DUP2 MSTORE PUSH1 0x20 ADD PUSH1 0x40 MLOAD DUP1 SWAP2 SUB SWAP1 KECCAK256 PUSH0 SWAP1 SLOAD SWAP1 PUSH2 0x100 EXP SWAP1 DIV PUSH20 0xFFFFFFFFFFFFFFFFFFFFFFFFFFFFFFFFFFFFFFFF AND PUSH20 0xFFFFFFFFFFFFFFFFFFFFFFFFFFFFFFFFFFFFFFFF AND PUSH4 0x23B872DD CALLER ADDRESS DUP7 PUSH1 0x40 MLOAD DUP5 PUSH4 0xFFFFFFFF AND PUSH1 0xE0 SHL DUP2 MSTORE PUSH1 0x4 ADD PUSH2 0x8B6 SWAP4 SWAP3 SWAP2 SWAP1 PUSH2 0x1328 JUMP JUMPDEST PUSH1 0x20 PUSH1 0x40 MLOAD DUP1 DUP4 SUB DUP2 PUSH0 DUP8 GAS CALL ISZERO DUP1 ISZERO PUSH2 0x8D2 JUMPI RETURNDATASIZE PUSH0 DUP1 RETURNDATACOPY RETURNDATASIZE PUSH0 REVERT JUMPDEST POP POP POP POP PUSH1 0x40 MLOAD RETURNDATASIZE PUSH1 0x1F NOT PUSH1 0x1F DUP3 ADD AND DUP3 ADD DUP1 PUSH1 0x40 MSTORE POP DUP2 ADD SWAP1 PUSH2 0x8F6 SWAP2 SWAP1 PUSH2 0x101E JUMP JUMPDEST POP DUP1 SWAP2 POP POP SWAP3 SWAP2 POP POP JUMP JUMPDEST PUSH0 PUSH1 0x40 MLOAD SWAP1 POP SWAP1 JUMP JUMPDEST PUSH0 DUP1 REVERT JUMPDEST PUSH0 DUP1 REVERT JUMPDEST PUSH0 DUP1 REVERT JUMPDEST PUSH0 DUP1 REVERT JUMPDEST PUSH0 PUSH1 0x1F NOT PUSH1 0x1F DUP4 ADD AND SWAP1 POP SWAP2 SWAP1 POP JUMP JUMPDEST PUSH32 0x4E487B7100000000000000000000000000000000000000000000000000000000 PUSH0 MSTORE PUSH1 0x41 PUSH1 0x4 MSTORE PUSH1 0x24 PUSH0 REVERT JUMPDEST PUSH2 0x960 DUP3 PUSH2 0x91A JUMP JUMPDEST DUP2 ADD DUP2 DUP2 LT PUSH8 0xFFFFFFFFFFFFFFFF DUP3 GT OR ISZERO PUSH2 0x97F JUMPI PUSH2 0x97E PUSH2 0x92A JUMP JUMPDEST JUMPDEST DUP1 PUSH1 0x40 MSTORE POP POP POP JUMP JUMPDEST PUSH0 PUSH2 0x991 PUSH2 0x901 JUMP JUMPDEST SWAP1 POP PUSH2 0x99D DUP3 DUP3 PUSH2 0x957 JUMP JUMPDEST SWAP2 SWAP1 POP JUMP JUMPDEST PUSH0 PUSH8 0xFFFFFFFFFFFFFFFF DUP3 GT ISZERO PUSH2 0x9BC JUMPI PUSH2 0x9BB PUSH2 0x92A JUMP JUMPDEST JUMPDEST PUSH2 0x9C5 DUP3 PUSH2 0x91A JUMP JUMPDEST SWAP1 POP PUSH1 0x20 DUP2 ADD SWAP1 POP SWAP2 SWAP1 POP JUMP JUMPDEST DUP3 DUP2 DUP4 CALLDATACOPY PUSH0 DUP4 DUP4 ADD MSTORE POP POP POP JUMP JUMPDEST PUSH0 PUSH2 0x9F2 PUSH2 0x9ED DUP5 PUSH2 0x9A2 JUMP JUMPDEST PUSH2 0x988 JUMP JUMPDEST SWAP1 POP DUP3 DUP2 MSTORE PUSH1 0x20 DUP2 ADD DUP5 DUP5 DUP5 ADD GT ISZERO PUSH2 0xA0E JUMPI PUSH2 0xA0D PUSH2 0x916 JUMP JUMPDEST JUMPDEST PUSH2 0xA19 DUP5 DUP3 DUP6 PUSH2 0x9D2 JUMP JUMPDEST POP SWAP4 SWAP3 POP POP POP JUMP JUMPDEST PUSH0 DUP3 PUSH1 0x1F DUP4 ADD SLT PUSH2 0xA35 JUMPI PUSH2 0xA34 PUSH2 0x912 JUMP JUMPDEST JUMPDEST DUP2 CALLDATALOAD PUSH2 0xA45 DUP5 DUP3 PUSH1 0x20 DUP7 ADD PUSH2 0x9E0 JUMP JUMPDEST SWAP2 POP POP SWAP3 SWAP2 POP POP JUMP JUMPDEST PUSH0 PUSH1 0x20 DUP3 DUP5 SUB SLT ISZERO PUSH2 0xA63 JUMPI PUSH2 0xA62 PUSH2 0x90A JUMP JUMPDEST JUMPDEST PUSH0 DUP3 ADD CALLDATALOAD PUSH8 0xFFFFFFFFFFFFFFFF DUP2 GT ISZERO PUSH2 0xA80 JUMPI PUSH2 0xA7F PUSH2 0x90E JUMP JUMPDEST JUMPDEST PUSH2 0xA8C DUP5 DUP3 DUP6 ADD PUSH2 0xA21 JUMP JUMPDEST SWAP2 POP POP SWAP3 SWAP2 POP POP JUMP JUMPDEST PUSH0 PUSH20 0xFFFFFFFFFFFFFFFFFFFFFFFFFFFFFFFFFFFFFFFF DUP3 AND SWAP1 POP SWAP2 SWAP1 POP JUMP JUMPDEST PUSH0 DUP2 SWAP1 POP SWAP2 SWAP1 POP JUMP JUMPDEST PUSH0 PUSH2 0xAD7 PUSH2 0xAD2 PUSH2 0xACD DUP5 PUSH2 0xA95 JUMP JUMPDEST PUSH2 0xAB4 JUMP JUMPDEST PUSH2 0xA95 JUMP JUMPDEST SWAP1 POP SWAP2 SWAP1 POP JUMP JUMPDEST PUSH0 PUSH2 0xAE8 DUP3 PUSH2 0xABD JUMP JUMPDEST SWAP1 POP SWAP2 SWAP1 POP JUMP JUMPDEST PUSH0 PUSH2 0xAF9 DUP3 PUSH2 0xADE JUMP JUMPDEST SWAP1 POP SWAP2 SWAP1 POP JUMP JUMPDEST PUSH2 0xB09 DUP2 PUSH2 0xAEF JUMP JUMPDEST DUP3 MSTORE POP POP JUMP JUMPDEST PUSH0 PUSH1 0x20 DUP3 ADD SWAP1 POP PUSH2 0xB22 PUSH0 DUP4 ADD DUP5 PUSH2 0xB00 JUMP JUMPDEST SWAP3 SWAP2 POP POP JUMP JUMPDEST PUSH0 DUP2 SWAP1 POP SWAP2 SWAP1 POP JUMP JUMPDEST PUSH2 0xB3A DUP2 PUSH2 0xB28 JUMP JUMPDEST DUP2 EQ PUSH2 0xB44 JUMPI PUSH0 DUP1 REVERT JUMPDEST POP JUMP JUMPDEST PUSH0 DUP2 CALLDATALOAD SWAP1 POP PUSH2 0xB55 DUP2 PUSH2 0xB31 JUMP JUMPDEST SWAP3 SWAP2 POP POP JUMP JUMPDEST PUSH0 PUSH1 0x20 DUP3 DUP5 SUB SLT ISZERO PUSH2 0xB70 JUMPI PUSH2 0xB6F PUSH2 0x90A JUMP JUMPDEST JUMPDEST PUSH0 PUSH2 0xB7D DUP5 DUP3 DUP6 ADD PUSH2 0xB47 JUMP JUMPDEST SWAP2 POP POP SWAP3 SWAP2 POP POP JUMP JUMPDEST PUSH0 DUP2 MLOAD SWAP1 POP SWAP2 SWAP1 POP JUMP JUMPDEST PUSH0 DUP3 DUP3 MSTORE PUSH1 0x20 DUP3 ADD SWAP1 POP SWAP3 SWAP2 POP POP JUMP JUMPDEST PUSH0 JUMPDEST DUP4 DUP2 LT ISZERO PUSH2 0xBBD JUMPI DUP1 DUP3 ADD MLOAD DUP2 DUP5 ADD MSTORE PUSH1 0x20 DUP2 ADD SWAP1 POP PUSH2 0xBA2 JUMP JUMPDEST PUSH0 DUP5 DUP5 ADD MSTORE POP POP POP POP JUMP JUMPDEST PUSH0 PUSH2 0xBD2 DUP3 PUSH2 0xB86 JUMP JUMPDEST PUSH2 0xBDC DUP2 DUP6 PUSH2 0xB90 JUMP JUMPDEST SWAP4 POP PUSH2 0xBEC DUP2 DUP6 PUSH1 0x20 DUP7 ADD PUSH2 0xBA0 JUMP JUMPDEST PUSH2 0xBF5 DUP2 PUSH2 0x91A JUMP JUMPDEST DUP5 ADD SWAP2 POP POP SWAP3 SWAP2 POP POP JUMP JUMPDEST PUSH0 PUSH1 0x20 DUP3 ADD SWAP1 POP DUP2 DUP2 SUB PUSH0 DUP4 ADD MSTORE PUSH2 0xC18 DUP2 DUP5 PUSH2 0xBC8 JUMP JUMPDEST SWAP1 POP SWAP3 SWAP2 POP POP JUMP JUMPDEST PUSH2 0xC29 DUP2 PUSH2 0xB28 JUMP JUMPDEST DUP3 MSTORE POP POP JUMP JUMPDEST PUSH0 PUSH1 0x20 DUP3 ADD SWAP1 POP PUSH2 0xC42 PUSH0 DUP4 ADD DUP5 PUSH2 0xC20 JUMP JUMPDEST SWAP3 SWAP2 POP POP JUMP JUMPDEST PUSH0 PUSH2 0xC52 DUP3 PUSH2 0xA95 JUMP JUMPDEST SWAP1 POP SWAP2 SWAP1 POP JUMP JUMPDEST PUSH2 0xC62 DUP2 PUSH2 0xC48 JUMP JUMPDEST DUP2 EQ PUSH2 0xC6C JUMPI PUSH0 DUP1 REVERT JUMPDEST POP JUMP JUMPDEST PUSH0 DUP2 CALLDATALOAD SWAP1 POP PUSH2 0xC7D DUP2 PUSH2 0xC59 JUMP JUMPDEST SWAP3 SWAP2 POP POP JUMP JUMPDEST PUSH0 DUP1 PUSH1 0x40 DUP4 DUP6 SUB SLT ISZERO PUSH2 0xC99 JUMPI PUSH2 0xC98 PUSH2 0x90A JUMP JUMPDEST JUMPDEST PUSH0 DUP4 ADD CALLDATALOAD PUSH8 0xFFFFFFFFFFFFFFFF DUP2 GT ISZERO PUSH2 0xCB6 JUMPI PUSH2 0xCB5 PUSH2 0x90E JUMP JUMPDEST JUMPDEST PUSH2 0xCC2 DUP6 DUP3 DUP7 ADD PUSH2 0xA21 JUMP JUMPDEST SWAP3 POP POP PUSH1 0x20 PUSH2 0xCD3 DUP6 DUP3 DUP7 ADD PUSH2 0xC6F JUMP JUMPDEST SWAP2 POP POP SWAP3 POP SWAP3 SWAP1 POP JUMP JUMPDEST PUSH0 DUP1 PUSH0 PUSH1 0x60 DUP5 DUP7 SUB SLT ISZERO PUSH2 0xCF4 JUMPI PUSH2 0xCF3 PUSH2 0x90A JUMP JUMPDEST JUMPDEST PUSH0 DUP5 ADD CALLDATALOAD PUSH8 0xFFFFFFFFFFFFFFFF DUP2 GT ISZERO PUSH2 0xD11 JUMPI PUSH2 0xD10 PUSH2 0x90E JUMP JUMPDEST JUMPDEST PUSH2 0xD1D DUP7 DUP3 DUP8 ADD PUSH2 0xA21 JUMP JUMPDEST SWAP4 POP POP PUSH1 0x20 DUP5 ADD CALLDATALOAD PUSH8 0xFFFFFFFFFFFFFFFF DUP2 GT ISZERO PUSH2 0xD3E JUMPI PUSH2 0xD3D PUSH2 0x90E JUMP JUMPDEST JUMPDEST PUSH2 0xD4A DUP7 DUP3 DUP8 ADD PUSH2 0xA21 JUMP JUMPDEST SWAP3 POP POP PUSH1 0x40 PUSH2 0xD5B DUP7 DUP3 DUP8 ADD PUSH2 0xB47 JUMP JUMPDEST SWAP2 POP POP SWAP3 POP SWAP3 POP SWAP3 JUMP JUMPDEST PUSH2 0xD6E DUP2 PUSH2 0xC48 JUMP JUMPDEST DUP3 MSTORE POP POP JUMP JUMPDEST PUSH0 PUSH1 0x20 DUP3 ADD SWAP1 POP PUSH2 0xD87 PUSH0 DUP4 ADD DUP5 PUSH2 0xD65 JUMP JUMPDEST SWAP3 SWAP2 POP POP JUMP JUMPDEST PUSH0 DUP1 PUSH1 0x40 DUP4 DUP6 SUB SLT ISZERO PUSH2 0xDA3 JUMPI PUSH2 0xDA2 PUSH2 0x90A JUMP JUMPDEST JUMPDEST PUSH0 DUP4 ADD CALLDATALOAD PUSH8 0xFFFFFFFFFFFFFFFF DUP2 GT ISZERO PUSH2 0xDC0 JUMPI PUSH2 0xDBF PUSH2 0x90E JUMP JUMPDEST JUMPDEST PUSH2 0xDCC DUP6 DUP3 DUP7 ADD PUSH2 0xA21 JUMP JUMPDEST SWAP3 POP POP PUSH1 0x20 PUSH2 0xDDD DUP6 DUP3 DUP7 ADD PUSH2 0xB47 JUMP JUMPDEST SWAP2 POP POP SWAP3 POP SWAP3 SWAP1 POP JUMP JUMPDEST PUSH32 0x4E487B7100000000000000000000000000000000000000000000000000000000 PUSH0 MSTORE PUSH1 0x22 PUSH1 0x4 MSTORE PUSH1 0x24 PUSH0 REVERT JUMPDEST PUSH0 PUSH1 0x2 DUP3 DIV SWAP1 POP PUSH1 0x1 DUP3 AND DUP1 PUSH2 0xE2B JUMPI PUSH1 0x7F DUP3 AND SWAP2 POP JUMPDEST PUSH1 0x20 DUP3 LT DUP2 SUB PUSH2 0xE3E JUMPI PUSH2 0xE3D PUSH2 0xDE7 JUMP JUMPDEST JUMPDEST POP SWAP2 SWAP1 POP JUMP JUMPDEST PUSH32 0x4E6F7420656E6F7567682065746820746F207377617000000000000000000000 PUSH0 DUP3 ADD MSTORE POP JUMP JUMPDEST PUSH0 PUSH2 0xE78 PUSH1 0x16 DUP4 PUSH2 0xB90 JUMP JUMPDEST SWAP2 POP PUSH2 0xE83 DUP3 PUSH2 0xE44 JUMP JUMPDEST PUSH1 0x20 DUP3 ADD SWAP1 POP SWAP2 SWAP1 POP JUMP JUMPDEST PUSH0 PUSH1 0x20 DUP3 ADD SWAP1 POP DUP2 DUP2 SUB PUSH0 DUP4 ADD MSTORE PUSH2 0xEA5 DUP2 PUSH2 0xE6C JUMP JUMPDEST SWAP1 POP SWAP2 SWAP1 POP JUMP JUMPDEST PUSH32 0x4E487B7100000000000000000000000000000000000000000000000000000000 PUSH0 MSTORE PUSH1 0x32 PUSH1 0x4 MSTORE PUSH1 0x24 PUSH0 REVERT JUMPDEST PUSH0 DUP3 DUP3 MSTORE PUSH1 0x20 DUP3 ADD SWAP1 POP SWAP3 SWAP2 POP POP JUMP JUMPDEST PUSH0 PUSH2 0xEF3 DUP3 PUSH2 0xB86 JUMP JUMPDEST PUSH2 0xEFD DUP2 DUP6 PUSH2 0xED9 JUMP JUMPDEST SWAP4 POP PUSH2 0xF0D DUP2 DUP6 PUSH1 0x20 DUP7 ADD PUSH2 0xBA0 JUMP JUMPDEST PUSH2 0xF16 DUP2 PUSH2 0x91A JUMP JUMPDEST DUP5 ADD SWAP2 POP POP SWAP3 SWAP2 POP POP JUMP JUMPDEST PUSH0 DUP2 SWAP1 POP DUP2 PUSH0 MSTORE PUSH1 0x20 PUSH0 KECCAK256 SWAP1 POP SWAP2 SWAP1 POP JUMP JUMPDEST PUSH0 DUP2 SLOAD PUSH2 0xF3F DUP2 PUSH2 0xE14 JUMP JUMPDEST PUSH2 0xF49 DUP2 DUP7 PUSH2 0xED9 JUMP JUMPDEST SWAP5 POP PUSH1 0x1 DUP3 AND PUSH0 DUP2 EQ PUSH2 0xF63 JUMPI PUSH1 0x1 DUP2 EQ PUSH2 0xF79 JUMPI PUSH2 0xFAB JUMP JUMPDEST PUSH1 0xFF NOT DUP4 AND DUP7 MSTORE DUP2 ISZERO ISZERO PUSH1 0x20 MUL DUP7 ADD SWAP4 POP PUSH2 0xFAB JUMP JUMPDEST PUSH2 0xF82 DUP6 PUSH2 0xF21 JUMP JUMPDEST PUSH0 JUMPDEST DUP4 DUP2 LT ISZERO PUSH2 0xFA3 JUMPI DUP2 SLOAD DUP2 DUP10 ADD MSTORE PUSH1 0x1 DUP3 ADD SWAP2 POP PUSH1 0x20 DUP2 ADD SWAP1 POP PUSH2 0xF84 JUMP JUMPDEST DUP1 DUP9 ADD SWAP6 POP POP POP JUMPDEST POP POP POP SWAP3 SWAP2 POP POP JUMP JUMPDEST PUSH0 PUSH1 0x40 DUP3 ADD SWAP1 POP DUP2 DUP2 SUB PUSH0 DUP4 ADD MSTORE PUSH2 0xFCC DUP2 DUP6 PUSH2 0xEE9 JUMP JUMPDEST SWAP1 POP DUP2 DUP2 SUB PUSH1 0x20 DUP4 ADD MSTORE PUSH2 0xFE0 DUP2 DUP5 PUSH2 0xF33 JUMP JUMPDEST SWAP1 POP SWAP4 SWAP3 POP POP POP JUMP JUMPDEST PUSH0 DUP2 ISZERO ISZERO SWAP1 POP SWAP2 SWAP1 POP JUMP JUMPDEST PUSH2 0xFFD DUP2 PUSH2 0xFE9 JUMP JUMPDEST DUP2 EQ PUSH2 0x1007 JUMPI PUSH0 DUP1 REVERT JUMPDEST POP JUMP JUMPDEST PUSH0 DUP2 MLOAD SWAP1 POP PUSH2 0x1018 DUP2 PUSH2 0xFF4 JUMP JUMPDEST SWAP3 SWAP2 POP POP JUMP JUMPDEST PUSH0 PUSH1 0x20 DUP3 DUP5 SUB SLT ISZERO PUSH2 0x1033 JUMPI PUSH2 0x1032 PUSH2 0x90A JUMP JUMPDEST JUMPDEST PUSH0 PUSH2 0x1040 DUP5 DUP3 DUP6 ADD PUSH2 0x100A JUMP JUMPDEST SWAP2 POP POP SWAP3 SWAP2 POP POP JUMP JUMPDEST PUSH32 0x4E6F7420737570706F7274207468617420746F6B656E00000000000000000000 PUSH0 DUP3 ADD MSTORE POP JUMP JUMPDEST PUSH0 PUSH2 0x107D PUSH1 0x16 DUP4 PUSH2 0xB90 JUMP JUMPDEST SWAP2 POP PUSH2 0x1088 DUP3 PUSH2 0x1049 JUMP JUMPDEST PUSH1 0x20 DUP3 ADD SWAP1 POP SWAP2 SWAP1 POP JUMP JUMPDEST PUSH0 PUSH1 0x20 DUP3 ADD SWAP1 POP DUP2 DUP2 SUB PUSH0 DUP4 ADD MSTORE PUSH2 0x10AA DUP2 PUSH2 0x1071 JUMP JUMPDEST SWAP1 POP SWAP2 SWAP1 POP JUMP JUMPDEST PUSH0 DUP2 SWAP1 POP SWAP3 SWAP2 POP POP JUMP JUMPDEST PUSH0 PUSH2 0x10C5 DUP3 PUSH2 0xB86 JUMP JUMPDEST PUSH2 0x10CF DUP2 DUP6 PUSH2 0x10B1 JUMP JUMPDEST SWAP4 POP PUSH2 0x10DF DUP2 DUP6 PUSH1 0x20 DUP7 ADD PUSH2 0xBA0 JUMP JUMPDEST DUP1 DUP5 ADD SWAP2 POP POP SWAP3 SWAP2 POP POP JUMP JUMPDEST PUSH0 PUSH2 0x10F6 DUP3 DUP5 PUSH2 0x10BB JUMP JUMPDEST SWAP2 POP DUP2 SWAP1 POP SWAP3 SWAP2 POP POP JUMP JUMPDEST PUSH32 0x4E487B7100000000000000000000000000000000000000000000000000000000 PUSH0 MSTORE PUSH1 0x12 PUSH1 0x4 MSTORE PUSH1 0x24 PUSH0 REVERT JUMPDEST PUSH32 0x4E487B7100000000000000000000000000000000000000000000000000000000 PUSH0 MSTORE PUSH1 0x11 PUSH1 0x4 MSTORE PUSH1 0x24 PUSH0 REVERT JUMPDEST PUSH0 PUSH2 0x1165 DUP3 PUSH2 0xB28 JUMP JUMPDEST SWAP2 POP PUSH2 0x1170 DUP4 PUSH2 0xB28 JUMP JUMPDEST SWAP3 POP DUP3 PUSH2 0x1180 JUMPI PUSH2 0x117F PUSH2 0x1101 JUMP JUMPDEST JUMPDEST DUP3 DUP3 DIV SWAP1 POP SWAP3 SWAP2 POP POP JUMP JUMPDEST PUSH0 PUSH2 0x1195 DUP3 PUSH2 0xB28 JUMP JUMPDEST SWAP2 POP PUSH2 0x11A0 DUP4 PUSH2 0xB28 JUMP JUMPDEST SWAP3 POP DUP3 DUP3 MUL PUSH2 0x11AE DUP2 PUSH2 0xB28 JUMP JUMPDEST SWAP2 POP DUP3 DUP3 DIV DUP5 EQ DUP4 ISZERO OR PUSH2 0x11C5 JUMPI PUSH2 0x11C4 PUSH2 0x112E JUMP JUMPDEST JUMPDEST POP SWAP3 SWAP2 POP POP JUMP JUMPDEST PUSH0 PUSH2 0x11DE PUSH2 0x11D9 DUP5 PUSH2 0x9A2 JUMP JUMPDEST PUSH2 0x988 JUMP JUMPDEST SWAP1 POP DUP3 DUP2 MSTORE PUSH1 0x20 DUP2 ADD DUP5 DUP5 DUP5 ADD GT ISZERO PUSH2 0x11FA JUMPI PUSH2 0x11F9 PUSH2 0x916 JUMP JUMPDEST JUMPDEST PUSH2 0x1205 DUP5 DUP3 DUP6 PUSH2 0xBA0 JUMP JUMPDEST POP SWAP4 SWAP3 POP POP POP JUMP JUMPDEST PUSH0 DUP3 PUSH1 0x1F DUP4 ADD SLT PUSH2 0x1221 JUMPI PUSH2 0x1220 PUSH2 0x912 JUMP JUMPDEST JUMPDEST DUP2 MLOAD PUSH2 0x1231 DUP5 DUP3 PUSH1 0x20 DUP7 ADD PUSH2 0x11CC JUMP JUMPDEST SWAP2 POP POP SWAP3 SWAP2 POP POP JUMP JUMPDEST PUSH0 PUSH1 0x20 DUP3 DUP5 SUB SLT ISZERO PUSH2 0x124F JUMPI PUSH2 0x124E PUSH2 0x90A JUMP JUMPDEST JUMPDEST PUSH0 DUP3 ADD MLOAD PUSH8 0xFFFFFFFFFFFFFFFF DUP2 GT ISZERO PUSH2 0x126C JUMPI PUSH2 0x126B PUSH2 0x90E JUMP JUMPDEST JUMPDEST PUSH2 0x1278 DUP5 DUP3 DUP6 ADD PUSH2 0x120D JUMP JUMPDEST SWAP2 POP POP SWAP3 SWAP2 POP POP JUMP JUMPDEST PUSH0 DUP2 MLOAD SWAP1 POP PUSH2 0x128F DUP2 PUSH2 0xB31 JUMP JUMPDEST SWAP3 SWAP2 POP POP JUMP JUMPDEST PUSH0 PUSH1 0x20 DUP3 DUP5 SUB SLT ISZERO PUSH2 0x12AA JUMPI PUSH2 0x12A9 PUSH2 0x90A JUMP JUMPDEST JUMPDEST PUSH0 PUSH2 0x12B7 DUP5 DUP3 DUP6 ADD PUSH2 0x1281 JUMP JUMPDEST SWAP2 POP POP SWAP3 SWAP2 POP POP JUMP JUMPDEST PUSH32 0x4465782063616E6E6F7420737570706C79000000000000000000000000000000 PUSH0 DUP3 ADD MSTORE POP JUMP JUMPDEST PUSH0 PUSH2 0x12F4 PUSH1 0x11 DUP4 PUSH2 0xB90 JUMP JUMPDEST SWAP2 POP PUSH2 0x12FF DUP3 PUSH2 0x12C0 JUMP JUMPDEST PUSH1 0x20 DUP3 ADD SWAP1 POP SWAP2 SWAP1 POP JUMP JUMPDEST PUSH0 PUSH1 0x20 DUP3 ADD SWAP1 POP DUP2 DUP2 SUB PUSH0 DUP4 ADD MSTORE PUSH2 0x1321 DUP2 PUSH2 0x12E8 JUMP JUMPDEST SWAP1 POP SWAP2 SWAP1 POP JUMP JUMPDEST PUSH0 PUSH1 0x60 DUP3 ADD SWAP1 POP PUSH2 0x133B PUSH0 DUP4 ADD DUP7 PUSH2 0xD65 JUMP JUMPDEST PUSH2 0x1348 PUSH1 0x20 DUP4 ADD DUP6 PUSH2 0xD65 JUMP JUMPDEST PUSH2 0x1355 PUSH1 0x40 DUP4 ADD DUP5 PUSH2 0xC20 JUMP JUMPDEST SWAP5 SWAP4 POP POP POP POP JUMP INVALID LOG2 PUSH5 0x6970667358 0x22 SLT KECCAK256 PUSH27 0x2612DC5B01E37ADAC7B42D604BE5A0F69942C67B3987AEA1269ED9 DUP5 ADDMOD CREATE2 0xB6 PUSH5 0x736F6C6343 STOP ADDMOD AND STOP CALLER PUSH1 0x80 PUSH1 0x40 MSTORE CALLVALUE DUP1 ISZERO PUSH3 0x10 JUMPI PUSH0 DUP1 REVERT JUMPDEST POP PUSH1 0x40 MLOAD PUSH3 0x1788 CODESIZE SUB DUP1 PUSH3 0x1788 DUP4 CODECOPY DUP2 DUP2 ADD PUSH1 0x40 MSTORE DUP2 ADD SWAP1 PUSH3 0x36 SWAP2 SWAP1 PUSH3 0x4B5 JUMP JUMPDEST DUP2 DUP2 DUP2 PUSH1 0x3 SWAP1 DUP2 PUSH3 0x49 SWAP2 SWAP1 PUSH3 0x76F JUMP JUMPDEST POP DUP1 PUSH1 0x4 SWAP1 DUP2 PUSH3 0x5B SWAP2 SWAP1 PUSH3 0x76F JUMP JUMPDEST POP POP POP PUSH3 0x7A CALLER PUSH10 0xD3C21BCECCEDA1000000 PUSH3 0x82 PUSH1 0x20 SHL PUSH1 0x20 SHR JUMP JUMPDEST POP POP PUSH3 0x97F JUMP JUMPDEST PUSH0 PUSH20 0xFFFFFFFFFFFFFFFFFFFFFFFFFFFFFFFFFFFFFFFF AND DUP3 PUSH20 0xFFFFFFFFFFFFFFFFFFFFFFFFFFFFFFFFFFFFFFFF AND SUB PUSH3 0xF5 JUMPI PUSH0 PUSH1 0x40 MLOAD PUSH32 0xEC442F0500000000000000000000000000000000000000000000000000000000 DUP2 MSTORE PUSH1 0x4 ADD PUSH3 0xEC SWAP2 SWAP1 PUSH3 0x896 JUMP JUMPDEST PUSH1 0x40 MLOAD DUP1 SWAP2 SUB SWAP1 REVERT JUMPDEST PUSH3 0x108 PUSH0 DUP4 DUP4 PUSH3 0x10C PUSH1 0x20 SHL PUSH1 0x20 SHR JUMP JUMPDEST POP POP JUMP JUMPDEST PUSH0 PUSH20 0xFFFFFFFFFFFFFFFFFFFFFFFFFFFFFFFFFFFFFFFF AND DUP4 PUSH20 0xFFFFFFFFFFFFFFFFFFFFFFFFFFFFFFFFFFFFFFFF AND SUB PUSH3 0x160 JUMPI DUP1 PUSH1 0x2 PUSH0 DUP3 DUP3 SLOAD PUSH3 0x153 SWAP2 SWAP1 PUSH3 0x8DE JUMP JUMPDEST SWAP3 POP POP DUP2 SWAP1 SSTORE POP PUSH3 0x231 JUMP JUMPDEST PUSH0 DUP1 PUSH0 DUP6 PUSH20 0xFFFFFFFFFFFFFFFFFFFFFFFFFFFFFFFFFFFFFFFF AND PUSH20 0xFFFFFFFFFFFFFFFFFFFFFFFFFFFFFFFFFFFFFFFF AND DUP2 MSTORE PUSH1 0x20 ADD SWAP1 DUP2 MSTORE PUSH1 0x20 ADD PUSH0 KECCAK256 SLOAD SWAP1 POP DUP2 DUP2 LT ISZERO PUSH3 0x1EC JUMPI DUP4 DUP2 DUP4 PUSH1 0x40 MLOAD PUSH32 0xE450D38C00000000000000000000000000000000000000000000000000000000 DUP2 MSTORE PUSH1 0x4 ADD PUSH3 0x1E3 SWAP4 SWAP3 SWAP2 SWAP1 PUSH3 0x929 JUMP JUMPDEST PUSH1 0x40 MLOAD DUP1 SWAP2 SUB SWAP1 REVERT JUMPDEST DUP2 DUP2 SUB PUSH0 DUP1 DUP7 PUSH20 0xFFFFFFFFFFFFFFFFFFFFFFFFFFFFFFFFFFFFFFFF AND PUSH20 0xFFFFFFFFFFFFFFFFFFFFFFFFFFFFFFFFFFFFFFFF AND DUP2 MSTORE PUSH1 0x20 ADD SWAP1 DUP2 MSTORE PUSH1 0x20 ADD PUSH0 KECCAK256 DUP2 SWAP1 SSTORE POP POP JUMPDEST PUSH0 PUSH20 0xFFFFFFFFFFFFFFFFFFFFFFFFFFFFFFFFFFFFFFFF AND DUP3 PUSH20 0xFFFFFFFFFFFFFFFFFFFFFFFFFFFFFFFFFFFFFFFF AND SUB PUSH3 0x27A JUMPI DUP1 PUSH1 0x2 PUSH0 DUP3 DUP3 SLOAD SUB SWAP3 POP POP DUP2 SWAP1 SSTORE POP PUSH3 0x2C4 JUMP JUMPDEST DUP1 PUSH0 DUP1 DUP5 PUSH20 0xFFFFFFFFFFFFFFFFFFFFFFFFFFFFFFFFFFFFFFFF AND PUSH20 0xFFFFFFFFFFFFFFFFFFFFFFFFFFFFFFFFFFFFFFFF AND DUP2 MSTORE PUSH1 0x20 ADD SWAP1 DUP2 MSTORE PUSH1 0x20 ADD PUSH0 KECCAK256 PUSH0 DUP3 DUP3 SLOAD ADD SWAP3 POP POP DUP2 SWAP1 SSTORE POP JUMPDEST DUP2 PUSH20 0xFFFFFFFFFFFFFFFFFFFFFFFFFFFFFFFFFFFFFFFF AND DUP4 PUSH20 0xFFFFFFFFFFFFFFFFFFFFFFFFFFFFFFFFFFFFFFFF AND PUSH32 0xDDF252AD1BE2C89B69C2B068FC378DAA952BA7F163C4A11628F55A4DF523B3EF DUP4 PUSH1 0x40 MLOAD PUSH3 0x323 SWAP2 SWAP1 PUSH3 0x964 JUMP JUMPDEST PUSH1 0x40 MLOAD DUP1 SWAP2 SUB SWAP1 LOG3 POP POP POP JUMP JUMPDEST PUSH0 PUSH1 0x40 MLOAD SWAP1 POP SWAP1 JUMP JUMPDEST PUSH0 DUP1 REVERT JUMPDEST PUSH0 DUP1 REVERT JUMPDEST PUSH0 DUP1 REVERT JUMPDEST PUSH0 DUP1 REVERT JUMPDEST PUSH0 PUSH1 0x1F NOT PUSH1 0x1F DUP4 ADD AND SWAP1 POP SWAP2 SWAP1 POP JUMP JUMPDEST PUSH32 0x4E487B7100000000000000000000000000000000000000000000000000000000 PUSH0 MSTORE PUSH1 0x41 PUSH1 0x4 MSTORE PUSH1 0x24 PUSH0 REVERT JUMPDEST PUSH3 0x391 DUP3 PUSH3 0x349 JUMP JUMPDEST DUP2 ADD DUP2 DUP2 LT PUSH8 0xFFFFFFFFFFFFFFFF DUP3 GT OR ISZERO PUSH3 0x3B3 JUMPI PUSH3 0x3B2 PUSH3 0x359 JUMP JUMPDEST JUMPDEST DUP1 PUSH1 0x40 MSTORE POP POP POP JUMP JUMPDEST PUSH0 PUSH3 0x3C7 PUSH3 0x330 JUMP JUMPDEST SWAP1 POP PUSH3 0x3D5 DUP3 DUP3 PUSH3 0x386 JUMP JUMPDEST SWAP2 SWAP1 POP JUMP JUMPDEST PUSH0 PUSH8 0xFFFFFFFFFFFFFFFF DUP3 GT ISZERO PUSH3 0x3F7 JUMPI PUSH3 0x3F6 PUSH3 0x359 JUMP JUMPDEST JUMPDEST PUSH3 0x402 DUP3 PUSH3 0x349 JUMP JUMPDEST SWAP1 POP PUSH1 0x20 DUP2 ADD SWAP1 POP SWAP2 SWAP1 POP JUMP JUMPDEST PUSH0 JUMPDEST DUP4 DUP2 LT ISZERO PUSH3 0x42E JUMPI DUP1 DUP3 ADD MLOAD DUP2 DUP5 ADD MSTORE PUSH1 0x20 DUP2 ADD SWAP1 POP PUSH3 0x411 JUMP JUMPDEST PUSH0 DUP5 DUP5 ADD MSTORE POP POP POP POP JUMP JUMPDEST PUSH0 PUSH3 0x44F PUSH3 0x449 DUP5 PUSH3 0x3DA JUMP JUMPDEST PUSH3 0x3BC JUMP JUMPDEST SWAP1 POP DUP3 DUP2 MSTORE PUSH1 0x20 DUP2 ADD DUP5 DUP5 DUP5 ADD GT ISZERO PUSH3 0x46E JUMPI PUSH3 0x46D PUSH3 0x345 JUMP JUMPDEST JUMPDEST PUSH3 0x47B DUP5 DUP3 DUP6 PUSH3 0x40F JUMP JUMPDEST POP SWAP4 SWAP3 POP POP POP JUMP JUMPDEST PUSH0 DUP3 PUSH1 0x1F DUP4 ADD SLT PUSH3 0x49A JUMPI PUSH3 0x499 PUSH3 0x341 JUMP JUMPDEST JUMPDEST DUP2 MLOAD PUSH3 0x4AC DUP5 DUP3 PUSH1 0x20 DUP7 ADD PUSH3 0x439 JUMP JUMPDEST SWAP2 POP POP SWAP3 SWAP2 POP POP JUMP JUMPDEST PUSH0 DUP1 PUSH1 0x40 DUP4 DUP6 SUB SLT ISZERO PUSH3 0x4CE JUMPI PUSH3 0x4CD PUSH3 0x339 JUMP JUMPDEST JUMPDEST PUSH0 DUP4 ADD MLOAD PUSH8 0xFFFFFFFFFFFFFFFF DUP2 GT ISZERO PUSH3 0x4EE JUMPI PUSH3 0x4ED PUSH3 0x33D JUMP JUMPDEST JUMPDEST PUSH3 0x4FC DUP6 DUP3 DUP7 ADD PUSH3 0x483 JUMP JUMPDEST SWAP3 POP POP PUSH1 0x20 DUP4 ADD MLOAD PUSH8 0xFFFFFFFFFFFFFFFF DUP2 GT ISZERO PUSH3 0x520 JUMPI PUSH3 0x51F PUSH3 0x33D JUMP JUMPDEST JUMPDEST PUSH3 0x52E DUP6 DUP3 DUP7 ADD PUSH3 0x483 JUMP JUMPDEST SWAP2 POP POP SWAP3 POP SWAP3 SWAP1 POP JUMP JUMPDEST PUSH0 DUP2 MLOAD SWAP1 POP SWAP2 SWAP1 POP JUMP JUMPDEST PUSH32 0x4E487B7100000000000000000000000000000000000000000000000000000000 PUSH0 MSTORE PUSH1 0x22 PUSH1 0x4 MSTORE PUSH1 0x24 PUSH0 REVERT JUMPDEST PUSH0 PUSH1 0x2 DUP3 DIV SWAP1 POP PUSH1 0x1 DUP3 AND DUP1 PUSH3 0x587 JUMPI PUSH1 0x7F DUP3 AND SWAP2 POP JUMPDEST PUSH1 0x20 DUP3 LT DUP2 SUB PUSH3 0x59D JUMPI PUSH3 0x59C PUSH3 0x542 JUMP JUMPDEST JUMPDEST POP SWAP2 SWAP1 POP JUMP JUMPDEST PUSH0 DUP2 SWAP1 POP DUP2 PUSH0 MSTORE PUSH1 0x20 PUSH0 KECCAK256 SWAP1 POP SWAP2 SWAP1 POP JUMP JUMPDEST PUSH0 PUSH1 0x20 PUSH1 0x1F DUP4 ADD DIV SWAP1 POP SWAP2 SWAP1 POP JUMP JUMPDEST PUSH0 DUP3 DUP3 SHL SWAP1 POP SWAP3 SWAP2 POP POP JUMP JUMPDEST PUSH0 PUSH1 0x8 DUP4 MUL PUSH3 0x601 PUSH32 0xFFFFFFFFFFFFFFFFFFFFFFFFFFFFFFFFFFFFFFFFFFFFFFFFFFFFFFFFFFFFFFFF DUP3 PUSH3 0x5C4 JUMP JUMPDEST PUSH3 0x60D DUP7 DUP4 PUSH3 0x5C4 JUMP JUMPDEST SWAP6 POP DUP1 NOT DUP5 AND SWAP4 POP DUP1 DUP7 AND DUP5 OR SWAP3 POP POP POP SWAP4 SWAP3 POP POP POP JUMP JUMPDEST PUSH0 DUP2 SWAP1 POP SWAP2 SWAP1 POP JUMP JUMPDEST PUSH0 DUP2 SWAP1 POP SWAP2 SWAP1 POP JUMP JUMPDEST PUSH0 PUSH3 0x657 PUSH3 0x651 PUSH3 0x64B DUP5 PUSH3 0x625 JUMP JUMPDEST PUSH3 0x62E JUMP JUMPDEST PUSH3 0x625 JUMP JUMPDEST SWAP1 POP SWAP2 SWAP1 POP JUMP JUMPDEST PUSH0 DUP2 SWAP1 POP SWAP2 SWAP1 POP JUMP JUMPDEST PUSH3 0x672 DUP4 PUSH3 0x637 JUMP JUMPDEST PUSH3 0x68A PUSH3 0x681 DUP3 PUSH3 0x65E JUMP JUMPDEST DUP5 DUP5 SLOAD PUSH3 0x5D0 JUMP JUMPDEST DUP3 SSTORE POP POP POP POP JUMP JUMPDEST PUSH0 SWAP1 JUMP JUMPDEST PUSH3 0x6A0 PUSH3 0x692 JUMP JUMPDEST PUSH3 0x6AD DUP2 DUP5 DUP5 PUSH3 0x667 JUMP JUMPDEST POP POP POP JUMP JUMPDEST JUMPDEST DUP2 DUP2 LT ISZERO PUSH3 0x6D4 JUMPI PUSH3 0x6C8 PUSH0 DUP3 PUSH3 0x696 JUMP JUMPDEST PUSH1 0x1 DUP2 ADD SWAP1 POP PUSH3 0x6B3 JUMP JUMPDEST POP POP JUMP JUMPDEST PUSH1 0x1F DUP3 GT ISZERO PUSH3 0x723 JUMPI PUSH3 0x6ED DUP2 PUSH3 0x5A3 JUMP JUMPDEST PUSH3 0x6F8 DUP5 PUSH3 0x5B5 JUMP JUMPDEST DUP2 ADD PUSH1 0x20 DUP6 LT ISZERO PUSH3 0x708 JUMPI DUP2 SWAP1 POP JUMPDEST PUSH3 0x720 PUSH3 0x717 DUP6 PUSH3 0x5B5 JUMP JUMPDEST DUP4 ADD DUP3 PUSH3 0x6B2 JUMP JUMPDEST POP POP JUMPDEST POP POP POP JUMP JUMPDEST PUSH0 DUP3 DUP3 SHR SWAP1 POP SWAP3 SWAP2 POP POP JUMP JUMPDEST PUSH0 PUSH3 0x745 PUSH0 NOT DUP5 PUSH1 0x8 MUL PUSH3 0x728 JUMP JUMPDEST NOT DUP1 DUP4 AND SWAP2 POP POP SWAP3 SWAP2 POP POP JUMP JUMPDEST PUSH0 PUSH3 0x75F DUP4 DUP4 PUSH3 0x734 JUMP JUMPDEST SWAP2 POP DUP3 PUSH1 0x2 MUL DUP3 OR SWAP1 POP SWAP3 SWAP2 POP POP JUMP JUMPDEST PUSH3 0x77A DUP3 PUSH3 0x538 JUMP JUMPDEST PUSH8 0xFFFFFFFFFFFFFFFF DUP2 GT ISZERO PUSH3 0x796 JUMPI PUSH3 0x795 PUSH3 0x359 JUMP JUMPDEST JUMPDEST PUSH3 0x7A2 DUP3 SLOAD PUSH3 0x56F JUMP JUMPDEST PUSH3 0x7AF DUP3 DUP3 DUP6 PUSH3 0x6D8 JUMP JUMPDEST PUSH0 PUSH1 0x20 SWAP1 POP PUSH1 0x1F DUP4 GT PUSH1 0x1 DUP2 EQ PUSH3 0x7E5 JUMPI PUSH0 DUP5 ISZERO PUSH3 0x7D0 JUMPI DUP3 DUP8 ADD MLOAD SWAP1 POP JUMPDEST PUSH3 0x7DC DUP6 DUP3 PUSH3 0x752 JUMP JUMPDEST DUP7 SSTORE POP PUSH3 0x84B JUMP JUMPDEST PUSH1 0x1F NOT DUP5 AND PUSH3 0x7F5 DUP7 PUSH3 0x5A3 JUMP JUMPDEST PUSH0 JUMPDEST DUP3 DUP2 LT ISZERO PUSH3 0x81E JUMPI DUP5 DUP10 ADD MLOAD DUP3 SSTORE PUSH1 0x1 DUP3 ADD SWAP2 POP PUSH1 0x20 DUP6 ADD SWAP5 POP PUSH1 0x20 DUP2 ADD SWAP1 POP PUSH3 0x7F7 JUMP JUMPDEST DUP7 DUP4 LT ISZERO PUSH3 0x83E JUMPI DUP5 DUP10 ADD MLOAD PUSH3 0x83A PUSH1 0x1F DUP10 AND DUP3 PUSH3 0x734 JUMP JUMPDEST DUP4 SSTORE POP JUMPDEST PUSH1 0x1 PUSH1 0x2 DUP9 MUL ADD DUP9 SSTORE POP POP POP JUMPDEST POP POP POP POP POP POP JUMP JUMPDEST PUSH0 PUSH20 0xFFFFFFFFFFFFFFFFFFFFFFFFFFFFFFFFFFFFFFFF DUP3 AND SWAP1 POP SWAP2 SWAP1 POP JUMP JUMPDEST PUSH0 PUSH3 0x87E DUP3 PUSH3 0x853 JUMP JUMPDEST SWAP1 POP SWAP2 SWAP1 POP JUMP JUMPDEST PUSH3 0x890 DUP2 PUSH3 0x872 JUMP JUMPDEST DUP3 MSTORE POP POP JUMP JUMPDEST PUSH0 PUSH1 0x20 DUP3 ADD SWAP1 POP PUSH3 0x8AB PUSH0 DUP4 ADD DUP5 PUSH3 0x885 JUMP JUMPDEST SWAP3 SWAP2 POP POP JUMP JUMPDEST PUSH32 0x4E487B7100000000000000000000000000000000000000000000000000000000 PUSH0 MSTORE PUSH1 0x11 PUSH1 0x4 MSTORE PUSH1 0x24 PUSH0 REVERT JUMPDEST PUSH0 PUSH3 0x8EA DUP3 PUSH3 0x625 JUMP JUMPDEST SWAP2 POP PUSH3 0x8F7 DUP4 PUSH3 0x625 JUMP JUMPDEST SWAP3 POP DUP3 DUP3 ADD SWAP1 POP DUP1 DUP3 GT ISZERO PUSH3 0x912 JUMPI PUSH3 0x911 PUSH3 0x8B1 JUMP JUMPDEST JUMPDEST SWAP3 SWAP2 POP POP JUMP JUMPDEST PUSH3 0x923 DUP2 PUSH3 0x625 JUMP JUMPDEST DUP3 MSTORE POP POP JUMP JUMPDEST PUSH0 PUSH1 0x60 DUP3 ADD SWAP1 POP PUSH3 0x93E PUSH0 DUP4 ADD DUP7 PUSH3 0x885 JUMP JUMPDEST PUSH3 0x94D PUSH1 0x20 DUP4 ADD DUP6 PUSH3 0x918 JUMP JUMPDEST PUSH3 0x95C PUSH1 0x40 DUP4 ADD DUP5 PUSH3 0x918 JUMP JUMPDEST SWAP5 SWAP4 POP POP POP POP JUMP JUMPDEST PUSH0 PUSH1 0x20 DUP3 ADD SWAP1 POP PUSH3 0x979 PUSH0 DUP4 ADD DUP5 PUSH3 0x918 JUMP JUMPDEST SWAP3 SWAP2 POP POP JUMP JUMPDEST PUSH2 0xDFB DUP1 PUSH3 0x98D PUSH0 CODECOPY PUSH0 RETURN INVALID PUSH1 0x80 PUSH1 0x40 MSTORE CALLVALUE DUP1 ISZERO PUSH2 0xF JUMPI PUSH0 DUP1 REVERT JUMPDEST POP PUSH1 0x4 CALLDATASIZE LT PUSH2 0x91 JUMPI PUSH0 CALLDATALOAD PUSH1 0xE0 SHR DUP1 PUSH4 0x313CE567 GT PUSH2 0x64 JUMPI DUP1 PUSH4 0x313CE567 EQ PUSH2 0x131 JUMPI DUP1 PUSH4 0x70A08231 EQ PUSH2 0x14F JUMPI DUP1 PUSH4 0x95D89B41 EQ PUSH2 0x17F JUMPI DUP1 PUSH4 0xA9059CBB EQ PUSH2 0x19D JUMPI DUP1 PUSH4 0xDD62ED3E EQ PUSH2 0x1CD JUMPI PUSH2 0x91 JUMP JUMPDEST DUP1 PUSH4 0x6FDDE03 EQ PUSH2 0x95 JUMPI DUP1 PUSH4 0x95EA7B3 EQ PUSH2 0xB3 JUMPI DUP1 PUSH4 0x18160DDD EQ PUSH2 0xE3 JUMPI DUP1 PUSH4 0x23B872DD EQ PUSH2 0x101 JUMPI JUMPDEST PUSH0 DUP1 REVERT JUMPDEST PUSH2 0x9D PUSH2 0x1FD JUMP JUMPDEST PUSH1 0x40 MLOAD PUSH2 0xAA SWAP2 SWAP1 PUSH2 0xA74 JUMP JUMPDEST PUSH1 0x40 MLOAD DUP1 SWAP2 SUB SWAP1 RETURN JUMPDEST PUSH2 0xCD PUSH1 0x4 DUP1 CALLDATASIZE SUB DUP2 ADD SWAP1 PUSH2 0xC8 SWAP2 SWAP1 PUSH2 0xB25 JUMP JUMPDEST PUSH2 0x28D JUMP JUMPDEST PUSH1 0x40 MLOAD PUSH2 0xDA SWAP2 SWAP1 PUSH2 0xB7D JUMP JUMPDEST PUSH1 0x40 MLOAD DUP1 SWAP2 SUB SWAP1 RETURN JUMPDEST PUSH2 0xEB PUSH2 0x2AF JUMP JUMPDEST PUSH1 0x40 MLOAD PUSH2 0xF8 SWAP2 SWAP1 PUSH2 0xBA5 JUMP JUMPDEST PUSH1 0x40 MLOAD DUP1 SWAP2 SUB SWAP1 RETURN JUMPDEST PUSH2 0x11B PUSH1 0x4 DUP1 CALLDATASIZE SUB DUP2 ADD SWAP1 PUSH2 0x116 SWAP2 SWAP1 PUSH2 0xBBE JUMP JUMPDEST PUSH2 0x2B8 JUMP JUMPDEST PUSH1 0x40 MLOAD PUSH2 0x128 SWAP2 SWAP1 PUSH2 0xB7D JUMP JUMPDEST PUSH1 0x40 MLOAD DUP1 SWAP2 SUB SWAP1 RETURN JUMPDEST PUSH2 0x139 PUSH2 0x2E6 JUMP JUMPDEST PUSH1 0x40 MLOAD PUSH2 0x146 SWAP2 SWAP1 PUSH2 0xC29 JUMP JUMPDEST PUSH1 0x40 MLOAD DUP1 SWAP2 SUB SWAP1 RETURN JUMPDEST PUSH2 0x169 PUSH1 0x4 DUP1 CALLDATASIZE SUB DUP2 ADD SWAP1 PUSH2 0x164 SWAP2 SWAP1 PUSH2 0xC42 JUMP JUMPDEST PUSH2 0x2EE JUMP JUMPDEST PUSH1 0x40 MLOAD PUSH2 0x176 SWAP2 SWAP1 PUSH2 0xBA5 JUMP JUMPDEST PUSH1 0x40 MLOAD DUP1 SWAP2 SUB SWAP1 RETURN JUMPDEST PUSH2 0x187 PUSH2 0x333 JUMP JUMPDEST PUSH1 0x40 MLOAD PUSH2 0x194 SWAP2 SWAP1 PUSH2 0xA74 JUMP JUMPDEST PUSH1 0x40 MLOAD DUP1 SWAP2 SUB SWAP1 RETURN JUMPDEST PUSH2 0x1B7 PUSH1 0x4 DUP1 CALLDATASIZE SUB DUP2 ADD SWAP1 PUSH2 0x1B2 SWAP2 SWAP1 PUSH2 0xB25 JUMP JUMPDEST PUSH2 0x3C3 JUMP JUMPDEST PUSH1 0x40 MLOAD PUSH2 0x1C4 SWAP2 SWAP1 PUSH2 0xB7D JUMP JUMPDEST PUSH1 0x40 MLOAD DUP1 SWAP2 SUB SWAP1 RETURN JUMPDEST PUSH2 0x1E7 PUSH1 0x4 DUP1 CALLDATASIZE SUB DUP2 ADD SWAP1 PUSH2 0x1E2 SWAP2 SWAP1 PUSH2 0xC6D JUMP JUMPDEST PUSH2 0x3E5 JUMP JUMPDEST PUSH1 0x40 MLOAD PUSH2 0x1F4 SWAP2 SWAP1 PUSH2 0xBA5 JUMP JUMPDEST PUSH1 0x40 MLOAD DUP1 SWAP2 SUB SWAP1 RETURN JUMPDEST PUSH1 0x60 PUSH1 0x3 DUP1 SLOAD PUSH2 0x20C SWAP1 PUSH2 0xCD8 JUMP JUMPDEST DUP1 PUSH1 0x1F ADD PUSH1 0x20 DUP1 SWAP2 DIV MUL PUSH1 0x20 ADD PUSH1 0x40 MLOAD SWAP1 DUP2 ADD PUSH1 0x40 MSTORE DUP1 SWAP3 SWAP2 SWAP1 DUP2 DUP2 MSTORE PUSH1 0x20 ADD DUP3 DUP1 SLOAD PUSH2 0x238 SWAP1 PUSH2 0xCD8 JUMP JUMPDEST DUP1 ISZERO PUSH2 0x283 JUMPI DUP1 PUSH1 0x1F LT PUSH2 0x25A JUMPI PUSH2 0x100 DUP1 DUP4 SLOAD DIV MUL DUP4 MSTORE SWAP2 PUSH1 0x20 ADD SWAP2 PUSH2 0x283 JUMP JUMPDEST DUP3 ADD SWAP2 SWAP1 PUSH0 MSTORE PUSH1 0x20 PUSH0 KECCAK256 SWAP1 JUMPDEST DUP2 SLOAD DUP2 MSTORE SWAP1 PUSH1 0x1 ADD SWAP1 PUSH1 0x20 ADD DUP1 DUP4 GT PUSH2 0x266 JUMPI DUP3 SWAP1 SUB PUSH1 0x1F AND DUP3 ADD SWAP2 JUMPDEST POP POP POP POP POP SWAP1 POP SWAP1 JUMP JUMPDEST PUSH0 DUP1 PUSH2 0x297 PUSH2 0x467 JUMP JUMPDEST SWAP1 POP PUSH2 0x2A4 DUP2 DUP6 DUP6 PUSH2 0x46E JUMP JUMPDEST PUSH1 0x1 SWAP2 POP POP SWAP3 SWAP2 POP POP JUMP JUMPDEST PUSH0 PUSH1 0x2 SLOAD SWAP1 POP SWAP1 JUMP JUMPDEST PUSH0 DUP1 PUSH2 0x2C2 PUSH2 0x467 JUMP JUMPDEST SWAP1 POP PUSH2 0x2CF DUP6 DUP3 DUP6 PUSH2 0x480 JUMP JUMPDEST PUSH2 0x2DA DUP6 DUP6 DUP6 PUSH2 0x512 JUMP JUMPDEST PUSH1 0x1 SWAP2 POP POP SWAP4 SWAP3 POP POP POP JUMP JUMPDEST PUSH0 PUSH1 0x12 SWAP1 POP SWAP1 JUMP JUMPDEST PUSH0 DUP1 PUSH0 DUP4 PUSH20 0xFFFFFFFFFFFFFFFFFFFFFFFFFFFFFFFFFFFFFFFF AND PUSH20 0xFFFFFFFFFFFFFFFFFFFFFFFFFFFFFFFFFFFFFFFF AND DUP2 MSTORE PUSH1 0x20 ADD SWAP1 DUP2 MSTORE PUSH1 0x20 ADD PUSH0 KECCAK256 SLOAD SWAP1 POP SWAP2 SWAP1 POP JUMP JUMPDEST PUSH1 0x60 PUSH1 0x4 DUP1 SLOAD PUSH2 0x342 SWAP1 PUSH2 0xCD8 JUMP JUMPDEST DUP1 PUSH1 0x1F ADD PUSH1 0x20 DUP1 SWAP2 DIV MUL PUSH1 0x20 ADD PUSH1 0x40 MLOAD SWAP1 DUP2 ADD PUSH1 0x40 MSTORE DUP1 SWAP3 SWAP2 SWAP1 DUP2 DUP2 MSTORE PUSH1 0x20 ADD DUP3 DUP1 SLOAD PUSH2 0x36E SWAP1 PUSH2 0xCD8 JUMP JUMPDEST DUP1 ISZERO PUSH2 0x3B9 JUMPI DUP1 PUSH1 0x1F LT PUSH2 0x390 JUMPI PUSH2 0x100 DUP1 DUP4 SLOAD DIV MUL DUP4 MSTORE SWAP2 PUSH1 0x20 ADD SWAP2 PUSH2 0x3B9 JUMP JUMPDEST DUP3 ADD SWAP2 SWAP1 PUSH0 MSTORE PUSH1 0x20 PUSH0 KECCAK256 SWAP1 JUMPDEST DUP2 SLOAD DUP2 MSTORE SWAP1 PUSH1 0x1 ADD SWAP1 PUSH1 0x20 ADD DUP1 DUP4 GT PUSH2 0x39C JUMPI DUP3 SWAP1 SUB PUSH1 0x1F AND DUP3 ADD SWAP2 JUMPDEST POP POP POP POP POP SWAP1 POP SWAP1 JUMP JUMPDEST PUSH0 DUP1 PUSH2 0x3CD PUSH2 0x467 JUMP JUMPDEST SWAP1 POP PUSH2 0x3DA DUP2 DUP6 DUP6 PUSH2 0x512 JUMP JUMPDEST PUSH1 0x1 SWAP2 POP POP SWAP3 SWAP2 POP POP JUMP JUMPDEST PUSH0 PUSH1 0x1 PUSH0 DUP5 PUSH20 0xFFFFFFFFFFFFFFFFFFFFFFFFFFFFFFFFFFFFFFFF AND PUSH20 0xFFFFFFFFFFFFFFFFFFFFFFFFFFFFFFFFFFFFFFFF AND DUP2 MSTORE PUSH1 0x20 ADD SWAP1 DUP2 MSTORE PUSH1 0x20 ADD PUSH0 KECCAK256 PUSH0 DUP4 PUSH20 0xFFFFFFFFFFFFFFFFFFFFFFFFFFFFFFFFFFFFFFFF AND PUSH20 0xFFFFFFFFFFFFFFFFFFFFFFFFFFFFFFFFFFFFFFFF AND DUP2 MSTORE PUSH1 0x20 ADD SWAP1 DUP2 MSTORE PUSH1 0x20 ADD PUSH0 KECCAK256 SLOAD SWAP1 POP SWAP3 SWAP2 POP POP JUMP JUMPDEST PUSH0 CALLER SWAP1 POP SWAP1 JUMP JUMPDEST PUSH2 0x47B DUP4 DUP4 DUP4 PUSH1 0x1 PUSH2 0x602 JUMP JUMPDEST POP POP POP JUMP JUMPDEST PUSH0 PUSH2 0x48B DUP5 DUP5 PUSH2 0x3E5 JUMP JUMPDEST SWAP1 POP PUSH32 0xFFFFFFFFFFFFFFFFFFFFFFFFFFFFFFFFFFFFFFFFFFFFFFFFFFFFFFFFFFFFFFFF DUP2 EQ PUSH2 0x50C JUMPI DUP2 DUP2 LT ISZERO PUSH2 0x4FD JUMPI DUP3 DUP2 DUP4 PUSH1 0x40 MLOAD PUSH32 0xFB8F41B200000000000000000000000000000000000000000000000000000000 DUP2 MSTORE PUSH1 0x4 ADD PUSH2 0x4F4 SWAP4 SWAP3 SWAP2 SWAP1 PUSH2 0xD17 JUMP JUMPDEST PUSH1 0x40 MLOAD DUP1 SWAP2 SUB SWAP1 REVERT JUMPDEST PUSH2 0x50B DUP5 DUP5 DUP5 DUP5 SUB PUSH0 PUSH2 0x602 JUMP JUMPDEST JUMPDEST POP POP POP POP JUMP JUMPDEST PUSH0 PUSH20 0xFFFFFFFFFFFFFFFFFFFFFFFFFFFFFFFFFFFFFFFF AND DUP4 PUSH20 0xFFFFFFFFFFFFFFFFFFFFFFFFFFFFFFFFFFFFFFFF AND SUB PUSH2 0x582 JUMPI PUSH0 PUSH1 0x40 MLOAD PUSH32 0x96C6FD1E00000000000000000000000000000000000000000000000000000000 DUP2 MSTORE PUSH1 0x4 ADD PUSH2 0x579 SWAP2 SWAP1 PUSH2 0xD4C JUMP JUMPDEST PUSH1 0x40 MLOAD DUP1 SWAP2 SUB SWAP1 REVERT JUMPDEST PUSH0 PUSH20 0xFFFFFFFFFFFFFFFFFFFFFFFFFFFFFFFFFFFFFFFF AND DUP3 PUSH20 0xFFFFFFFFFFFFFFFFFFFFFFFFFFFFFFFFFFFFFFFF AND SUB PUSH2 0x5F2 JUMPI PUSH0 PUSH1 0x40 MLOAD PUSH32 0xEC442F0500000000000000000000000000000000000000000000000000000000 DUP2 MSTORE PUSH1 0x4 ADD PUSH2 0x5E9 SWAP2 SWAP1 PUSH2 0xD4C JUMP JUMPDEST PUSH1 0x40 MLOAD DUP1 SWAP2 SUB SWAP1 REVERT JUMPDEST PUSH2 0x5FD DUP4 DUP4 DUP4 PUSH2 0x7D1 JUMP JUMPDEST POP POP POP JUMP JUMPDEST PUSH0 PUSH20 0xFFFFFFFFFFFFFFFFFFFFFFFFFFFFFFFFFFFFFFFF AND DUP5 PUSH20 0xFFFFFFFFFFFFFFFFFFFFFFFFFFFFFFFFFFFFFFFF AND SUB PUSH2 0x672 JUMPI PUSH0 PUSH1 0x40 MLOAD PUSH32 0xE602DF0500000000000000000000000000000000000000000000000000000000 DUP2 MSTORE PUSH1 0x4 ADD PUSH2 0x669 SWAP2 SWAP1 PUSH2 0xD4C JUMP JUMPDEST PUSH1 0x40 MLOAD DUP1 SWAP2 SUB SWAP1 REVERT JUMPDEST PUSH0 PUSH20 0xFFFFFFFFFFFFFFFFFFFFFFFFFFFFFFFFFFFFFFFF AND DUP4 PUSH20 0xFFFFFFFFFFFFFFFFFFFFFFFFFFFFFFFFFFFFFFFF AND SUB PUSH2 0x6E2 JUMPI PUSH0 PUSH1 0x40 MLOAD PUSH32 0x94280D6200000000000000000000000000000000000000000000000000000000 DUP2 MSTORE PUSH1 0x4 ADD PUSH2 0x6D9 SWAP2 SWAP1 PUSH2 0xD4C JUMP JUMPDEST PUSH1 0x40 MLOAD DUP1 SWAP2 SUB SWAP1 REVERT JUMPDEST DUP2 PUSH1 0x1 PUSH0 DUP7 PUSH20 0xFFFFFFFFFFFFFFFFFFFFFFFFFFFFFFFFFFFFFFFF AND PUSH20 0xFFFFFFFFFFFFFFFFFFFFFFFFFFFFFFFFFFFFFFFF AND DUP2 MSTORE PUSH1 0x20 ADD SWAP1 DUP2 MSTORE PUSH1 0x20 ADD PUSH0 KECCAK256 PUSH0 DUP6 PUSH20 0xFFFFFFFFFFFFFFFFFFFFFFFFFFFFFFFFFFFFFFFF AND PUSH20 0xFFFFFFFFFFFFFFFFFFFFFFFFFFFFFFFFFFFFFFFF AND DUP2 MSTORE PUSH1 0x20 ADD SWAP1 DUP2 MSTORE PUSH1 0x20 ADD PUSH0 KECCAK256 DUP2 SWAP1 SSTORE POP DUP1 ISZERO PUSH2 0x7CB JUMPI DUP3 PUSH20 0xFFFFFFFFFFFFFFFFFFFFFFFFFFFFFFFFFFFFFFFF AND DUP5 PUSH20 0xFFFFFFFFFFFFFFFFFFFFFFFFFFFFFFFFFFFFFFFF AND PUSH32 0x8C5BE1E5EBEC7D5BD14F71427D1E84F3DD0314C0F7B2291E5B200AC8C7C3B925 DUP5 PUSH1 0x40 MLOAD PUSH2 0x7C2 SWAP2 SWAP1 PUSH2 0xBA5 JUMP JUMPDEST PUSH1 0x40 MLOAD DUP1 SWAP2 SUB SWAP1 LOG3 JUMPDEST POP POP POP POP JUMP JUMPDEST PUSH0 PUSH20 0xFFFFFFFFFFFFFFFFFFFFFFFFFFFFFFFFFFFFFFFF AND DUP4 PUSH20 0xFFFFFFFFFFFFFFFFFFFFFFFFFFFFFFFFFFFFFFFF AND SUB PUSH2 0x821 JUMPI DUP1 PUSH1 0x2 PUSH0 DUP3 DUP3 SLOAD PUSH2 0x815 SWAP2 SWAP1 PUSH2 0xD92 JUMP JUMPDEST SWAP3 POP POP DUP2 SWAP1 SSTORE POP PUSH2 0x8EF JUMP JUMPDEST PUSH0 DUP1 PUSH0 DUP6 PUSH20 0xFFFFFFFFFFFFFFFFFFFFFFFFFFFFFFFFFFFFFFFF AND PUSH20 0xFFFFFFFFFFFFFFFFFFFFFFFFFFFFFFFFFFFFFFFF AND DUP2 MSTORE PUSH1 0x20 ADD SWAP1 DUP2 MSTORE PUSH1 0x20 ADD PUSH0 KECCAK256 SLOAD SWAP1 POP DUP2 DUP2 LT ISZERO PUSH2 0x8AA JUMPI DUP4 DUP2 DUP4 PUSH1 0x40 MLOAD PUSH32 0xE450D38C00000000000000000000000000000000000000000000000000000000 DUP2 MSTORE PUSH1 0x4 ADD PUSH2 0x8A1 SWAP4 SWAP3 SWAP2 SWAP1 PUSH2 0xD17 JUMP JUMPDEST PUSH1 0x40 MLOAD DUP1 SWAP2 SUB SWAP1 REVERT JUMPDEST DUP2 DUP2 SUB PUSH0 DUP1 DUP7 PUSH20 0xFFFFFFFFFFFFFFFFFFFFFFFFFFFFFFFFFFFFFFFF AND PUSH20 0xFFFFFFFFFFFFFFFFFFFFFFFFFFFFFFFFFFFFFFFF AND DUP2 MSTORE PUSH1 0x20 ADD SWAP1 DUP2 MSTORE PUSH1 0x20 ADD PUSH0 KECCAK256 DUP2 SWAP1 SSTORE POP POP JUMPDEST PUSH0 PUSH20 0xFFFFFFFFFFFFFFFFFFFFFFFFFFFFFFFFFFFFFFFF AND DUP3 PUSH20 0xFFFFFFFFFFFFFFFFFFFFFFFFFFFFFFFFFFFFFFFF AND SUB PUSH2 0x936 JUMPI DUP1 PUSH1 0x2 PUSH0 DUP3 DUP3 SLOAD SUB SWAP3 POP POP DUP2 SWAP1 SSTORE POP PUSH2 0x980 JUMP JUMPDEST DUP1 PUSH0 DUP1 DUP5 PUSH20 0xFFFFFFFFFFFFFFFFFFFFFFFFFFFFFFFFFFFFFFFF AND PUSH20 0xFFFFFFFFFFFFFFFFFFFFFFFFFFFFFFFFFFFFFFFF AND DUP2 MSTORE PUSH1 0x20 ADD SWAP1 DUP2 MSTORE PUSH1 0x20 ADD PUSH0 KECCAK256 PUSH0 DUP3 DUP3 SLOAD ADD SWAP3 POP POP DUP2 SWAP1 SSTORE POP JUMPDEST DUP2 PUSH20 0xFFFFFFFFFFFFFFFFFFFFFFFFFFFFFFFFFFFFFFFF AND DUP4 PUSH20 0xFFFFFFFFFFFFFFFFFFFFFFFFFFFFFFFFFFFFFFFF AND PUSH32 0xDDF252AD1BE2C89B69C2B068FC378DAA952BA7F163C4A11628F55A4DF523B3EF DUP4 PUSH1 0x40 MLOAD PUSH2 0x9DD SWAP2 SWAP1 PUSH2 0xBA5 JUMP JUMPDEST PUSH1 0x40 MLOAD DUP1 SWAP2 SUB SWAP1 LOG3 POP POP POP JUMP JUMPDEST PUSH0 DUP2 MLOAD SWAP1 POP SWAP2 SWAP1 POP JUMP JUMPDEST PUSH0 DUP3 DUP3 MSTORE PUSH1 0x20 DUP3 ADD SWAP1 POP SWAP3 SWAP2 POP POP JUMP JUMPDEST PUSH0 JUMPDEST DUP4 DUP2 LT ISZERO PUSH2 0xA21 JUMPI DUP1 DUP3 ADD MLOAD DUP2 DUP5 ADD MSTORE PUSH1 0x20 DUP2 ADD SWAP1 POP PUSH2 0xA06 JUMP JUMPDEST PUSH0 DUP5 DUP5 ADD MSTORE POP POP POP POP JUMP JUMPDEST PUSH0 PUSH1 0x1F NOT PUSH1 0x1F DUP4 ADD AND SWAP1 POP SWAP2 SWAP1 POP JUMP JUMPDEST PUSH0 PUSH2 0xA46 DUP3 PUSH2 0x9EA JUMP JUMPDEST PUSH2 0xA50 DUP2 DUP6 PUSH2 0x9F4 JUMP JUMPDEST SWAP4 POP PUSH2 0xA60 DUP2 DUP6 PUSH1 0x20 DUP7 ADD PUSH2 0xA04 JUMP JUMPDEST PUSH2 0xA69 DUP2 PUSH2 0xA2C JUMP JUMPDEST DUP5 ADD SWAP2 POP POP SWAP3 SWAP2 POP POP JUMP JUMPDEST PUSH0 PUSH1 0x20 DUP3 ADD SWAP1 POP DUP2 DUP2 SUB PUSH0 DUP4 ADD MSTORE PUSH2 0xA8C DUP2 DUP5 PUSH2 0xA3C JUMP JUMPDEST SWAP1 POP SWAP3 SWAP2 POP POP JUMP JUMPDEST PUSH0 DUP1 REVERT JUMPDEST PUSH0 PUSH20 0xFFFFFFFFFFFFFFFFFFFFFFFFFFFFFFFFFFFFFFFF DUP3 AND SWAP1 POP SWAP2 SWAP1 POP JUMP JUMPDEST PUSH0 PUSH2 0xAC1 DUP3 PUSH2 0xA98 JUMP JUMPDEST SWAP1 POP SWAP2 SWAP1 POP JUMP JUMPDEST PUSH2 0xAD1 DUP2 PUSH2 0xAB7 JUMP JUMPDEST DUP2 EQ PUSH2 0xADB JUMPI PUSH0 DUP1 REVERT JUMPDEST POP JUMP JUMPDEST PUSH0 DUP2 CALLDATALOAD SWAP1 POP PUSH2 0xAEC DUP2 PUSH2 0xAC8 JUMP JUMPDEST SWAP3 SWAP2 POP POP JUMP JUMPDEST PUSH0 DUP2 SWAP1 POP SWAP2 SWAP1 POP JUMP JUMPDEST PUSH2 0xB04 DUP2 PUSH2 0xAF2 JUMP JUMPDEST DUP2 EQ PUSH2 0xB0E JUMPI PUSH0 DUP1 REVERT JUMPDEST POP JUMP JUMPDEST PUSH0 DUP2 CALLDATALOAD SWAP1 POP PUSH2 0xB1F DUP2 PUSH2 0xAFB JUMP JUMPDEST SWAP3 SWAP2 POP POP JUMP JUMPDEST PUSH0 DUP1 PUSH1 0x40 DUP4 DUP6 SUB SLT ISZERO PUSH2 0xB3B JUMPI PUSH2 0xB3A PUSH2 0xA94 JUMP JUMPDEST JUMPDEST PUSH0 PUSH2 0xB48 DUP6 DUP3 DUP7 ADD PUSH2 0xADE JUMP JUMPDEST SWAP3 POP POP PUSH1 0x20 PUSH2 0xB59 DUP6 DUP3 DUP7 ADD PUSH2 0xB11 JUMP JUMPDEST SWAP2 POP POP SWAP3 POP SWAP3 SWAP1 POP JUMP JUMPDEST PUSH0 DUP2 ISZERO ISZERO SWAP1 POP SWAP2 SWAP1 POP JUMP JUMPDEST PUSH2 0xB77 DUP2 PUSH2 0xB63 JUMP JUMPDEST DUP3 MSTORE POP POP JUMP JUMPDEST PUSH0 PUSH1 0x20 DUP3 ADD SWAP1 POP PUSH2 0xB90 PUSH0 DUP4 ADD DUP5 PUSH2 0xB6E JUMP JUMPDEST SWAP3 SWAP2 POP POP JUMP JUMPDEST PUSH2 0xB9F DUP2 PUSH2 0xAF2 JUMP JUMPDEST DUP3 MSTORE POP POP JUMP JUMPDEST PUSH0 PUSH1 0x20 DUP3 ADD SWAP1 POP PUSH2 0xBB8 PUSH0 DUP4 ADD DUP5 PUSH2 0xB96 JUMP JUMPDEST SWAP3 SWAP2 POP POP JUMP JUMPDEST PUSH0 DUP1 PUSH0 PUSH1 0x60 DUP5 DUP7 SUB SLT ISZERO PUSH2 0xBD5 JUMPI PUSH2 0xBD4 PUSH2 0xA94 JUMP JUMPDEST JUMPDEST PUSH0 PUSH2 0xBE2 DUP7 DUP3 DUP8 ADD PUSH2 0xADE JUMP JUMPDEST SWAP4 POP POP PUSH1 0x20 PUSH2 0xBF3 DUP7 DUP3 DUP8 ADD PUSH2 0xADE JUMP JUMPDEST SWAP3 POP POP PUSH1 0x40 PUSH2 0xC04 DUP7 DUP3 DUP8 ADD PUSH2 0xB11 JUMP JUMPDEST SWAP2 POP POP SWAP3 POP SWAP3 POP SWAP3 JUMP JUMPDEST PUSH0 PUSH1 0xFF DUP3 AND SWAP1 POP SWAP2 SWAP1 POP JUMP JUMPDEST PUSH2 0xC23 DUP2 PUSH2 0xC0E JUMP JUMPDEST DUP3 MSTORE POP POP JUMP JUMPDEST PUSH0 PUSH1 0x20 DUP3 ADD SWAP1 POP PUSH2 0xC3C PUSH0 DUP4 ADD DUP5 PUSH2 0xC1A JUMP JUMPDEST SWAP3 SWAP2 POP POP JUMP JUMPDEST PUSH0 PUSH1 0x20 DUP3 DUP5 SUB SLT ISZERO PUSH2 0xC57 JUMPI PUSH2 0xC56 PUSH2 0xA94 JUMP JUMPDEST JUMPDEST PUSH0 PUSH2 0xC64 DUP5 DUP3 DUP6 ADD PUSH2 0xADE JUMP JUMPDEST SWAP2 POP POP SWAP3 SWAP2 POP POP JUMP JUMPDEST PUSH0 DUP1 PUSH1 0x40 DUP4 DUP6 SUB SLT ISZERO PUSH2 0xC83 JUMPI PUSH2 0xC82 PUSH2 0xA94 JUMP JUMPDEST JUMPDEST PUSH0 PUSH2 0xC90 DUP6 DUP3 DUP7 ADD PUSH2 0xADE JUMP JUMPDEST SWAP3 POP POP PUSH1 0x20 PUSH2 0xCA1 DUP6 DUP3 DUP7 ADD PUSH2 0xADE JUMP JUMPDEST SWAP2 POP POP SWAP3 POP SWAP3 SWAP1 POP JUMP JUMPDEST PUSH32 0x4E487B7100000000000000000000000000000000000000000000000000000000 PUSH0 MSTORE PUSH1 0x22 PUSH1 0x4 MSTORE PUSH1 0x24 PUSH0 REVERT JUMPDEST PUSH0 PUSH1 0x2 DUP3 DIV SWAP1 POP PUSH1 0x1 DUP3 AND DUP1 PUSH2 0xCEF JUMPI PUSH1 0x7F DUP3 AND SWAP2 POP JUMPDEST PUSH1 0x20 DUP3 LT DUP2 SUB PUSH2 0xD02 JUMPI PUSH2 0xD01 PUSH2 0xCAB JUMP JUMPDEST JUMPDEST POP SWAP2 SWAP1 POP JUMP JUMPDEST PUSH2 0xD11 DUP2 PUSH2 0xAB7 JUMP JUMPDEST DUP3 MSTORE POP POP JUMP JUMPDEST PUSH0 PUSH1 0x60 DUP3 ADD SWAP1 POP PUSH2 0xD2A PUSH0 DUP4 ADD DUP7 PUSH2 0xD08 JUMP JUMPDEST PUSH2 0xD37 PUSH1 0x20 DUP4 ADD DUP6 PUSH2 0xB96 JUMP JUMPDEST PUSH2 0xD44 PUSH1 0x40 DUP4 ADD DUP5 PUSH2 0xB96 JUMP JUMPDEST SWAP5 SWAP4 POP POP POP POP JUMP JUMPDEST PUSH0 PUSH1 0x20 DUP3 ADD SWAP1 POP PUSH2 0xD5F PUSH0 DUP4 ADD DUP5 PUSH2 0xD08 JUMP JUMPDEST SWAP3 SWAP2 POP POP JUMP JUMPDEST PUSH32 0x4E487B7100000000000000000000000000000000000000000000000000000000 PUSH0 MSTORE PUSH1 0x11 PUSH1 0x4 MSTORE PUSH1 0x24 PUSH0 REVERT JUMPDEST PUSH0 PUSH2 0xD9C DUP3 PUSH2 0xAF2 JUMP JUMPDEST SWAP2 POP PUSH2 0xDA7 DUP4 PUSH2 0xAF2 JUMP JUMPDEST SWAP3 POP DUP3 DUP3 ADD SWAP1 POP DUP1 DUP3 GT ISZERO PUSH2 0xDBF JUMPI PUSH2 0xDBE PUSH2 0xD65 JUMP JUMPDEST JUMPDEST SWAP3 SWAP2 POP POP JUMP INVALID LOG2 PUSH5 0x6970667358 0x22 SLT KECCAK256 MULMOD PUSH28 0xA5F498633311372F2242385BA873D24B432BF469D120DA86DDEE5CA6 0xF6 0xEC PUSH5 0x736F6C6343 STOP ADDMOD AND STOP CALLER "
				},
				"gasEstimates": {
					"creation": {
						"codeDepositCost": "1002200",
						"executionCost": "infinite",
						"totalCost": "infinite"
					},
					"external": {
						"getAddress(string)": "infinite",
						"getBalance(string,address)": "infinite",
						"getName(string)": "infinite",
						"swapEthToToken(string)": "infinite",
						"swapTokenToEth(string,uint256)": "infinite",
						"swapTokenToToken(string,string,uint256)": "infinite",
						"tokenNames(uint256)": "infinite",
						"tokenSymbols(uint256)": "infinite",
						"tokens(string)": "infinite"
					}
				},
				"methodIdentifiers": {
					"getAddress(string)": "bf40fac1",
					"getBalance(string,address)": "89f4b317",
					"getName(string)": "6932cf81",
					"swapEthToToken(string)": "63fcf7c5",
					"swapTokenToEth(string,uint256)": "db6f63ee",
					"swapTokenToToken(string,string,uint256)": "bf015aae",
					"tokenNames(uint256)": "310495ab",
					"tokenSymbols(uint256)": "6e7ddea8",
					"tokens(string)": "04c2320b"
				}
			},
			"storageLayout": {
				"storage": [
					{
						"astId": 865,
						"contract": "UniSwap.sol:Uniswap",
						"label": "tokenNames",
						"offset": 0,
						"slot": "0",
						"type": "t_array(t_string_storage)dyn_storage"
					},
					{
						"astId": 875,
						"contract": "UniSwap.sol:Uniswap",
						"label": "tokenSymbols",
						"offset": 0,
						"slot": "1",
						"type": "t_array(t_string_storage)dyn_storage"
					},
					{
						"astId": 879,
						"contract": "UniSwap.sol:Uniswap",
						"label": "priceOfTokens",
						"offset": 0,
						"slot": "2",
						"type": "t_mapping(t_string_memory_ptr,t_uint256)"
					},
					{
						"astId": 884,
						"contract": "UniSwap.sol:Uniswap",
						"label": "tokens",
						"offset": 0,
						"slot": "3",
						"type": "t_mapping(t_string_memory_ptr,t_contract(ERC20)651)"
					}
				],
				"types": {
					"t_array(t_string_storage)dyn_storage": {
						"base": "t_string_storage",
						"encoding": "dynamic_array",
						"label": "string[]",
						"numberOfBytes": "32"
					},
					"t_contract(ERC20)651": {
						"encoding": "inplace",
						"label": "contract ERC20",
						"numberOfBytes": "20"
					},
					"t_mapping(t_string_memory_ptr,t_contract(ERC20)651)": {
						"encoding": "mapping",
						"key": "t_string_memory_ptr",
						"label": "mapping(string => contract ERC20)",
						"numberOfBytes": "32",
						"value": "t_contract(ERC20)651"
					},
					"t_mapping(t_string_memory_ptr,t_uint256)": {
						"encoding": "mapping",
						"key": "t_string_memory_ptr",
						"label": "mapping(string => uint256)",
						"numberOfBytes": "32",
						"value": "t_uint256"
					},
					"t_string_memory_ptr": {
						"encoding": "bytes",
						"label": "string",
						"numberOfBytes": "32"
					},
					"t_string_storage": {
						"encoding": "bytes",
						"label": "string",
						"numberOfBytes": "32"
					},
					"t_uint256": {
						"encoding": "inplace",
						"label": "uint256",
						"numberOfBytes": "32"
					}
				}
			},
			"userdoc": {
				"kind": "user",
				"methods": {},
				"version": 1
			}
		}
	}
}